:020000040800F2
:10000000F0FF012069B0060841F50008BDEC0408C6
:10001000E1B00608E1B00608E1B006080000000003
:100020000000000000000000000000003DF5000896
:1000300039F500080000000035F5000851B3040848
:10004000E1B00608E1B00608E1B00608E1B0060834
:10005000E1B00608E1B0060801030508C902050879
:100060009102050859020508210205088D99060824
:100070007D9906086D9906085D9906084999060854
:100080003599060821990608E1B00608000000002D
:10009000000000000000000000000000E901050869
:1000A0001D710408697104080D7104088D7104083C
:1000B0005D7104084D7104083D71040865A90608C6
:1000C0006DA9060859A9060861A90608E1B0060845
:1000D000E1B006086DB50408B1B4040800000000E2
:1000E000B1010508E1B00608F90D010800000000A3
:1000F0000000000000000000000000000D9906084C
:1001000000000000A15B06082D710408E1B006089C
:1001100000000000000000000000000000000000DF
:10012000F9980608E5980608D1980608BD980608CB
:10013000A998060800000000000000000000000070
:1001400000000000000000000000000079EE000840
:1001500095980608819806086D980608F5B3040876
:100160004DA9060855A9060800000000000000007F
:10017000000000000000000000000000000000007F
:1001800000000000E1B006080000000000000000D0
:08019000E1B00608E1B0060829
:0801980008AC060001000000A4
:1001A0000E02010002000000EC7300204C740020DD
:1001B0000000000030EB07081402010005000000F9
:1001C000C8390020507400200000000032EB0708FE
:1001D0001302010004000000B02B0020587400201E
:1001E0000000000038EB07080D1001004C00000073
:1001F000DC6E00205C74002000000000E9E60308CB
:100200000902010001000000446E0020A8740020D3
:10021000000000003CEB0708FD0101002400000085
:10022000FC6D0020AC74002000000000EF590408B1
:10023000FB010100010000003C690020D074002097
:10024000000000004D850508FC01010009000000C8
:1002500008680020D47400200000000055850508BF
:10026000F701010006000000FC670020E074002098
:10027000000000003EEB0708F90101000400000047
:10028000F8670020E87400200000000069EF04080F
:10029000160215003F000000642D0020EC740020C1
:1002A0000000000005850508340001001000000072
:1002B000286700202C750020000000004D9A0208DD
:1002C0001102010008000000006700203C750020BA
:1002D0000000000044EB07081212010004000000B7
:1002E000F866002044750020000000004CEB070871
:1002F0001830010034000000C4660020487500205A
:1003000000000000798F0508000201000B000000CA
:10031000486300207C75002000000000318605083D
:10032000FF21010005000000F46200208875002014
:10033000000000002D850508081203000F000000D2
:100340000063002090750020000000003986050839
:10035000FA01010003000000605C0020A07500208D
:1003600000000000198605082A02010008000000AC
:100370006C510020A47500200000000050EB07081D
:100380002052010008000000C84F0020AC7500207A
:1003900000000000719A020806100100240000000D
:1003A000802C0020B4750020000000009185050815
:1003B0000C020100040000005C480020D8750020F9
:1003C0000000000009860508FE010100140000007D
:1003D000F83A0020DC750020000000009186050836
:1003E000261001000E000000D8E40020C8E4002020
:1003F00000000000291F0108123001001000000059
:1004000008E10020E8E400200000000058EB0708A5
:100410000B3001001A00000060DB002028E50020FE
:100420000000000068EB07081F50010024000000D6
:1004300084DA002044E500200000000084EB070877
:10044000050201000400000048DD002068E50020EE
:1004500000000000A8EB0708030101000A000000EB
:10046000B0DA00206CE50020000000004D1A010801
:10047000010201000B00000050EB002044F50020B9
:1004800000000000218605080202010003000000B0
:1004900048EB002050F500200000000000000000A4
:1004A0001B0201001000000034EB002054F5002076
:1004B000000000006D8505081B2001000C000000F5
:1004C00080E8002064F5002000000000F9830108A6
:1004D00021020100F0000000B4E6002070F50020C9
:1004E00000000000CD9B0108371001003000000023
:1004F0000CEE002060F6002000000000ACEB0708C6
:100500001610010006000000F4EA002090F600201A
:1005100000000000DCEB07082322010010000000AF
:1005200038EA002098F6002000000000E4EB0708FD
:100530001E0001000900000024EA0020A8F60020A7
:1005400000000000F4EB0708052001000C0000008B
:10055000D0EA0020B4F600200000000000EC0708FC
:100560002F10010022000000A0ED0020C0F60020A6
:10057000000000000CEC0708FD0701007C000000F3
:1005800078E50020E4F60020000000007D7D0108F1
:10059000F59101006C00000038E6002060F70020B3
:1005A0000000000029920108232001001000000033
:1005B0004EED0020CCF70020000000001576020868
:1005C000F62101000C000000D81401206C16012057
:1005D0000000000030EC07081C0202001C000000B4
:1005E00068140120BC160120000000001D8D0508C4
:1005F000283001001600000084140120D8160120C4
:100600000000000085190208140001000500000028
:1006100060140120F0160120000000003CEC0708E7
:10062000012001000C000000C80D0120F816012077
:100630000000000042EC07080C400600E400000047
:10064000E80B01200417012000000000B5E10308B9
:100650000A90010024000000A40B0120E8170120EB
:1006600000000000950B02080E300300BC010000E2
:10067000E00901200C18012000000000899A0208FE
:100680001310010004000000F0110120C81901201E
:100690000000000050EC0708010101000400000008
:1006A00024090120CC1901200000000000000000F6
:1006B00000010100040000001C090120D0190120E4
:1006C0000000000054EC07080201010003000000D4
:1006D00018090120D419012000000000F5E10308E9
:1006E000220201001C010000D80F0120D8190120AE
:1006F00000000000318F05081A0001000E00000004
:10070000A8270120FC2701200000000058EC070862
:1007100015001000700000003C2601200C2801206C
:1007200000000000000000000300010001000000C4
:10073000342601207C280120000000000000000079
:100740002A000800600000002C21012080280120E0
:1007500000000000259A02082C0004001000000090
:10076000F0280120E028012000000000ED97020899
:100770002B00120024000000242901200029012060
:1007800000000000C1970208292014007800000032
:10079000B0230120482901200000000000000000D3
:1007A000190201001000000054230120C02901207B
:1007B000000000003D850508F8310100060000003A
:1007C000382C0120E03401200000000066EC07080E
:1007D0001010010002000000CC2A0120E8340120A2
:1007E000000000006CEC0708190001000500000083
:1007F000D0290120EC340120000000006EEC070835
:10080000020001000C000000CC3801208C3A0120CD
:10081000000000000000000025201E002C01000048
:10082000D8380120983A01200000000000000000A4
:100830002902010040000000C4370120C43B012010
:100840000000000074EC07080A0201001400000018
:10085000BC360120243C01200000000081E1030897
:1008600028020400040000005846012064470120CB
:10087000000000008D850508270204000400000028
:1008800054460120684701200000000081850508CA
:100890001F02080010000000A84301206C4701203F
:1008A00000000000098505081A0201003C00000054
:1008B000843C01207C47012000000000D58F050802
:1008C000031201003D00000034430120B84701201D
:1008D00000000000B4EC070838100100010000001F
:1008E000543C0120F847012000000000F2EC07080A
:1008F0000400080080000000C4480120444A012090
:1009000000000000000000000B2201003D0000007C
:10091000F04C01209057012000000000F4EC070883
:100920000D12010014000000E8530120D0570120EF
:100930000000000034ED07081E0201000600000060
:10094000BC4C0120E45701200000000048ED0708DE
:100950001D0202000600000084530120F057012010
:10096000000000000000000006120300120000005A
:10097000945301207868012000000000E98D0508EB
:100980002700010004000000304D01208C68012088
:10099000000000004EED07081002010001000000F9
:1009A0005C9E0120589E01200000000052ED0708C7
:1009B0000403090412010002EF02014083045632CD
:1009C00000020102030100001201000202020040C5
:1009D000830440570002010203010000FFFFFFFFF4
:1009E0000000000000000000010000000000000006
:1009F00000000000C43900200000000001000000D9
:100A000000000000000000000000000000000000E6
:100A100000000000000000000000000000000000D6
:100A200000000000000000000000000000000000C6
:100A30000060024010600240000000000000000062
:100A400000000000000B000000000000000000009B
:100A50000000000000600240286002400100000029
:100A60000000000000000000060C00000000000074
:100A700000000000000000000060024040600240F2
:100A8000020000000000000000000000100D000047
:100A900000000000000000000000000000600240B4
:100AA0005860024003000000000000000000000049
:100AB000160E000000000000000000000000000012
:100AC000006002407060024004000000000000006E
:100AD00000000000200F00000000000000000000E7
:100AE0000000000000600240886002400500000035
:100AF00000000000000000002610000000000000C0
:100B0000000000000000000000600240A060024001
:100B1000060000000000000000000000301100008E
:100B20000000000000000000000000000060024023
:100B3000B860024007000000000000000000000054
:100B4000362F000000000000000000000000000040
:100B50000064024010640240000000000000000039
:100B6000000000000038000000000000000000004D
:100B70000000000000640240286402400100000000
:100B80000000000000000000063900000000000026
:100B900000000000000000000064024040640240C9
:100BA000020000000000000000000000103A0000F9
:100BB000000000000000000000000000006402408F
:100BC0005864024003000000000000000000000024
:100BD000163B0000000000000000000000000000C4
:100BE0000064024070640240040000000000000045
:100BF00000000000203C0000000000000000000099
:100C0000000000000064024088640240050000000B
:100C1000000000000000000026440000000000006A
:100C2000000000000000000000640240A0640240D8
:100C30000600000000000000000000003045000039
:100C400000000000000000000000000000640240FE
:100C5000B86402400700000000000000000000002F
:100C60003646000000000000000000000000000008
:100C70007D0000001D850008198500081585000805
:100C80000985000805850008118500080D85000804
:100C900000000000B991000889A90008E98F000848
:100CA000E5AA000889920008A18500087985000856
:100CB0005D85000801A3000889880008798A00087A
:100CC00075900008F1900008AD9400088D8500082B
:100CD0006585000855850008010000000000803F80
:100CE000C93E0108CD430108453F010851130108E1
:100CF00035150108611301087D1301082913010846
:100D00001913010800000000000000000902200083
:100D1000010104C03209040000020806500507055D
:100D20008102400000070501024000000902640042
:100D3000030100C032090400000103000000092182
:100D4000110100012236000705830309000A080B80
:100D50000102020201000904010001020201000572
:100D600024001001052401000204240202052406C7
:100D70000102070582030800FF09040200020A00BD
:100D80000000070501024000000705810240000045
:100D900009024300020100C03209040000010202FE
:100DA00001000524001001052401000104240202B1
:100DB0000524060001070582030800FF090401005D
:100DC000020A000000070501024000000705810239
:100DD00040000000FF000000140000FF00000000C1
:100DE00000000000AA550701000001AA55050100F6
:100DF000002D202D2D202D2D2D2D202D2D2D2D00A4
:100E000000000000000000000000000000000000E2
:100E10000800000030D70608FF1FFF1F0501090565
:100E2000A101A10005010930093109320933093551
:100E30000934093609371581257F7508950881021F
:100E40000509190129081500250195087501810278
:100E5000C0C0000009022200010100E032090400C4
:100E600000010301020009211101000122360007DF
:100E700005830309000A00000000000001020304CA
:100E80000102030406070809AA550B010000AA5530
:100E900005010000AA550902000000AA5503009FA1
:100EA00001000000C012000020E50020000000004A
:100EB000F8E4002000000000010000000100000034
:100EC00000000100E0017EFFFFFFFFFFFF000000C8
:100ED000FFFFFFFF08FF0101FF010000010000000C
:100EE000C90002080000000000000000DCDD060868
:100EF00000000000000000000000000074F506087B
:100F00000000000000000000000000002CF60608B1
:100F1000000000000000000000000000D8F50608F6
:100F200000000000000000001D0C0208BE0E0120A1
:100F300001010000DD2002080000000000000000A8
:100F4000F4F606083D24020800000000000000003E
:100F5000ACF606082D202D2D202D2D2D2D202D2DEC
:100F60002D00000000000000000000000000000054
:100F700000000000FFFFFFFF4D110208000000000D
:100F80000000000004F5060801000000FA0000005F
:100F9000010000000100000001010000000101014A
:100FA000000000002E0D01200000F40101000000EF
:100FB0002C0D01200000F401010000002A0D012089
:100FC0000000F40101000000280D01200000F401E0
:100FD00001000000260D01200000F40101000000C6
:100FE000240D01200000F40101000000220D012069
:100FF0000000F40101000000750902083909020827
:10100000000000009CDF0608120D012005320100DF
:10101000200D01206400F401010000001E0D0120DC
:101020006400C40901000000100D0120E803D0078E
:10103000010000000E0D0120E803D00701000000B0
:101040000C0D0120E803D007010000000A0D01206B
:101050001E00B80B01000000180D012005000F0054
:10106000010000001A0D012003000A000100000029
:10107000080D01201E00F401010000001C0D0120DC
:101080000200000028E00608060D0120140064009C
:1010900001000000140D01203200E80301000000EF
:1010A000040D01200000C80001000000E50B012034
:1010B00000C80100E40B012000500100E30B0120F7
:1010C000005A0100E10B01200200000090DF060839
:1010D0004C62070854620708BC0E01200100C409D5
:1010E00000000000BA0E01200100C4090000000049
:1010F000B80E01200100C40900000000B60E012056
:101100000100C40900000000B20E01200100C40962
:1011100000000000B40E01200100C409000000001E
:10112000B00E01200100C40900000000AE0E012035
:101130000100C409000000004309012000C80100AB
:101140004209012000C80100400901200000FFFF02
:101150000A0000003E0901200100C8000100000053
:101160003C09012032003075320000003A090120AC
:101170007EFF1400050000003809012005002C0145
:101180000500000037090120055A05003409012037
:1011900000FF01003609012002000000B80800200D
:1011A000320901200300000000D90608330901209C
:1011B00000FF01003509012002000000B8080020EE
:1011C000310901200300000000D906089008012021
:1011D000FF7F01008C08012000000000FFFFFFFFDF
:1011E000010000008808012000000000FFFFFFFF51
:1011F000010000008408012000000000FFFFFFFF45
:1012000001000000C9080208590802080000000097
:1012100078E00608D80D0120EE02CA08010000009F
:10122000D60D012000C8010064000000D50D01208A
:1012300000C8010064000000D40D0120020000007D
:1012400034E006082A0901200000803E0500000065
:101250002809012080C1803E0500000022090120EC
:101260000083007D050000002009012080C1803E30
:10127000050000001B09012000FF010014090120E6
:101280006400F40101000000120901206400F4016F
:1012900001000000100901206400F40101000000B9
:1012A0000E0901200400000084E106080D09012058
:1012B0000200000098E10608CF0901200D0000009F
:1012C000A4E10608CC09012000640100CA0901203C
:1012D000320010270A000000C80901200D0000009C
:1012E000A4E10608C70901200D000000A4E10608DA
:1012F000C60901200200000040E0060800000000CE
:101300000000000000000000DCE10608DD0D012007
:101310004500000014E20608DB0D01200300000078
:101320002CE30608DC0D0120040000004CE0060858
:10133000D1090120030000003CE30608D009012088
:10134000030000003CE30608D20B0120000A010064
:10135000D00B01200000E80301000000CE0B0120AB
:101360000000E80301000000CC0B0120000A01008E
:10137000CA0B01200000E80301000000C80B012097
:101380000000E803010000009C0B0120C800E803F6
:1013900001000000A20B01203C00FA000100000047
:1013A000A00B01200100E803010000009E0B0120BA
:1013B00000050100E00B01200200000060E00608CB
:1013C000DE0B01200000F40101000000DC0B012015
:1013D0000000F40101000000DA0B01200000F4011C
:1013E00001000000D80B01200000F4010100000002
:1013F000D60B01200000E80301000000D40B0120FF
:101400000000E80301000000F20C0120006401006C
:101410000A000000F10C0120006401000A00000035
:10142000DF0C012019640100DE0C01200200000025
:101430006CE00608DC0C0120E803D0070A0000007D
:10144000DA0C0120006401000A000000CF0C01202A
:1014500000640100CE0C012000640100D60C0120C4
:10146000006401000A000000D50C012000640100A6
:101470000A000000D40C0120006401000A000000F2
:10148000D90C012000FF01000A000000D80C012047
:1014900000FF01000A000000D70C012000FF01003E
:1014A0000A000000D30C012001FF01000A00000027
:1014B000D20C012001FF01000A000000D10C012024
:1014C00001FF01000A000000DA0901200000F40118
:1014D00001000000D80901200000E803010000001D
:1014E000D60901200000E80301000000D409012012
:1014F0000000E80301000000D20901200000E80319
:10150000010000000F0F012000960100060F0120CE
:1015100000C80100050F012000640100040F012034
:1015200000640100030F012000640100020F01208C
:1015300000640100010F0120FF080100000F0120DD
:1015400001640100490702080D07020800000000BD
:101550004CE30608090F012001320100080F0120A9
:1015600001000000BCE30608070F01200400000092
:10157000C4E30608FF0E012000960100FE0E0120C4
:1015800000640100FC0E01201400E80301000000CB
:10159000FA0E0120000030750A000000F80E01204C
:1015A00000C80100F70E012000C80100F60E01205E
:1015B00000C801000C0F0120003201000E0F0120B5
:1015C000001401000D0F0120004B01000B0F012042
:1015D00004000000D8E306080A0F0120006401009F
:1015E0000A000000FE0C012000C805000A000000EF
:1015F000FD0C012001000000E8E30608000D0120B9
:1016000000C805000A000000FF0C012001000000D6
:10161000E8E30608F50C012000C805000A000000F8
:10162000FC0C012000C805000A000000F60C012097
:1016300000C805000A000000F70C012000C80500E2
:101640000A000000FA0C012000C805000A00000092
:10165000FB0C012000C805000A000000F90C012065
:1016600000C805000A000000F80C012000C80500B1
:101670000A000000F40C012002000000F0E306085C
:101680001E0F01200000D00701000000180F0120EC
:1016900000C80100170F012000C80100160F01202B
:1016A00000C801001C0F01200000D007010000004D
:1016B000150F012000C80100140F012000C801000F
:1016C000130F012000C801001A0F01200000D007ED
:1016D00001000000120F012000C80100110F0120BD
:1016E00000C80100100F012000C80100787307082E
:1016F000000000000000501601208473070807084E
:1017000000000000CC0E00208C73070807080000C2
:101710000000C40E002094730708070800000000B2
:10172000BC0E00209C730708080800000000B00EE3
:101730000020A85D0708070800000000A80E002090
:10174000B05D0708070800000000A00E0020B85D8B
:101750000708070800000000980E0020645E0708D4
:101760000808000000008C0E0020A4730708071072
:1017700000000000840E0020AC7307080710000072
:1017800000007C0E0020B473070807100000000062
:10179000740E0020BC730708081000000000680EDB
:1017A0000020B461070801000000000000000000F4
:1017B0000000000010000000000000000000000019
:1017C000DD040208C104020829110208FCE306082E
:1017D000C3090120005A0100C209012000C801000C
:1017E000C0090120E803D00701000000000000004C
:1017F000000000005D0C020898E406083009012092
:1018000003000000ECE406082F090120000301009A
:101810002E09012000030100FD030208B1030208A4
:1018200000000000FCE40608710302082903020816
:101830000000000098E50608490402080D1102089E
:101840000000000018E606082C0901200103010031
:101850009500020875000208000000008CE90608E7
:10186000510A0208250A0208000000000CEA0608D6
:101870009902020841020208000000007CEA060802
:10188000ED040208412C02080000000034EB0608B9
:10189000951602087D0A020800000000DCEB06082D
:1018A0003D050208000000000000000078EC06087A
:1018B00021060208C105020800000000DCEC060851
:1018C000C9060208850602080000000094ED06081B
:1018D000A1740208850702080000000020EE060837
:1018E000020D0120010601008505020851050208CC
:1018F0000000000038EF0608BD730208D512020888
:1019000000000000A8EF0608B5070208F51302085A
:101910000000000024F10608E5740208B51302086F
:1019200000000000D40E0020010D01200103010081
:1019300091040208610402080000000030F2060869
:10194000AD100208000000000000000094F206083C
:10195000F1020208F51002080000000030F306084A
:10196000000000000000000000000000CCF30608AA
:101970003108020841150208000000004CF4060876
:1019800000000000000000000000000074F60608DF
:1019900020DB00209CFF2C010000000088110120AA
:1019A000E0150C17000000008A1101200200000061
:1019B000ACF906080809012088136F170100000020
:1019C0000A09012088136F17000000006A730020C5
:1019D000000000000000000068730020000000000C
:1019E00000000000667300200000000000000000FE
:1019F00064730020000000000000000062730020FB
:101A000000000000000000006073002000000000E3
:101A1000000000008C060020000000000000000014
:101A2000910801200300000090F70608000901203A
:101A300088136F17010000003EDD002088136F1728
:101A4000000000008101020800000000000000000A
:101A5000A0F70608790E012001000000F4F706083F
:101A600040DD00200100000000F8060836DD0020FF
:101A70000200000008F80608000000000000000056
:101A80000000000014F806086901020800000000C8
:101A900000000000B0F80608000000000000000090
:101AA0000000000004F9060800000000000000002B
:101AB0000000000074F906080C0901200200000073
:101AC000ACF906083ADD0020E0150C170000000014
:101AD0006C1C0120C01C012001F11F3FD60101FF39
:101AE00001000000F0A50020FFFFFFFF0000803F85
:101AF00000000000000000000000000000000000E6
:101B000000000000000000000000000000000000D5
:101B1000000000000000803F000000000000000006
:101B200000000000010000000000803F00000000F5
:101B300000000000000000000000803F00000000E6
:101B400000000000000000000000FA430000FA431B
:101B50004D2004080000000000000000000000000C
:101B60000000803F00000000143C0120080000003D
:101B700000000000043C012008000000213E010894
:101B800045140108B93D01080000000015130108C3
:101B9000A1460108093D010855390108000000006F
:101BA00000000000D51201082D85000821850008DD
:101BB000758F0008918F0008598F00083D8F00082D
:101BC000218F0008D93D0108211401080D3D0108AD
:101BD00000000000ED12010859390108DD3C010840
:101BE000B53801080000000000000000E112010803
:101BF0005C850708F45E0708000000007DE203082A
:101C0000A0860100040000005C85070864850708C1
:101C10000000000099670408E803000004000000C9
:101C2000506807080000000000000000F5410308AC
:101C30007D000000FF00000064660708000000004F
:101C400000000000097303087D000000FF00000091
:101C5000806B0708000000000000000025980308C2
:101C60007D000000FF000000E86807080000000099
:101C7000000000006D620408E8030000030000009B
:101C80006C850708000000000000000031490308CF
:101C90001027000003000000A0E00708000000007B
:101CA000CD930208458404085F760000050000001B
:101CB00054E40708000000000000000021ED0408C3
:101CC00010270000020000007885070800000000CF
:101CD0000000000085580408E8030000050000002B
:101CE00084850708000000000000000051E503089B
:101CF000204E00000300000094850708000000004B
:101D00000000000039E30308204E0000030000003B
:101D1000A48507080000000000000000995A04088C
:101D2000400D030003000000B48507080000000018
:101D300000000000311E040810270000020000000F
:101D4000205F07080000000000000000D5E5010842
:101D50001027000003000000BC85070800000000F9
:101D6000000000008D5C0208A08601000200000057
:101D70000C6707080000000000000000ED81040867
:101D800050C3000002000000B46407080000000017
:101D9000000000004D5E0408A86100000200000081
:101DA000C4850708000000000000000035BA0408E0
:101DB000A00F000002000000D0850708000000000E
:101DC000000000000DCF01081027000002000000F5
:101DD0009875070800000000317D010871C30108F3
:101DE000854501000200000074640708000000003F
:101DF00000000000851A0108102700000200000002
:101E0000085F0708000000000000000035350208E8
:101E100050C3000002000000DC850708000000003D
:101E20000000000069260108400D030001000000C9
:101E3000E48507080000000000000000CDE2030870
:101E4000400D030001000000EC85070800000000C1
:101E50000000000085F5010850C3000003000000E9
:101E6000F8850708000000000000000059F503088D
:101E700040420F0001000000048607080000000037
:101E80000000000091EC030850C3000001000000B6
:101E9000108607080000000000000000356A0108F5
:101EA0001027000001000000FFFFFFFF685E0C002C
:101EB00002FF0100A00F0000B80B000002FFFF01AD
:101EC000FFFF00007CE00708000008020503030094
:101ED0000000000088E00708010008020504030074
:101EE0000000000094E0070800000802050303005A
:101EF000000000009CE00708010008020504030040
:101F000000000000F48407080200FE010110030035
:101F100000000000A8650708030014020003000089
:101F200000000000A4E0070804001F0202000800EF
:101F300000000000ACE0070805001F0202010800D5
:101F400000000000FFFFFFFF1A0300000000000078
:101F50000000000000000000000000000000000081
:101F60000000000004030904120100020000004008
:101F700083042057000201020301010B4596050866
:101F800019960508BD950508D9860508D99505084F
:101F90007D950508D586050828190020399705087C
:101FA0005997050829970508B9860508E596050893
:101FB0009D960508A986050804190020519005087A
:101FC000C1860508BD860508B5860508A1900508E7
:101FD000B1860508AD860508805107083D46010811
:101FE000011401081D450108000000000000000068
:101FF000B53C0108C53B01080000000000000000DE
:1020000000000000C912010861870508558705080E
:10201000A9970508C59705080D8705088D97050838
:102020007197050802000000000000000019002060
:10203000EC5701200200000001000000CD880508D7
:10204000FC1800200000000001000000010000005A
:10205000098905080C18002000000000000000009D
:102060000000000000000000000000000000000070
:10207000000000000100000000000000000000005F
:10208000000000000000000001000000000000004F
:10209000000000000000000000000000010000003F
:1020A00000000000D8000000000000000500000053
:1020B00006000000FFFFFFFF03000000000000001B
:1020C00005000000050000001F0000001C000000CB
:1020D0001F0000001E0000001F0000001E00000086
:1020E0001F0000001F0000001E0000001F00000075
:1020F0001E0000001F0000000068214C01000000CD
:10210000A45107080125000028500708010000001D
:1021100050C300000600000005000000008002021D
:102120001F00000053544D202020202050726F6467
:10213000757420202020202020202020302E3031B7
:10214000008002021F00000053544D202020202058
:1021500050726F64757420202020202020202020C1
:10216000302E3031FF000000A4000000000000000D
:10217000000001010100000000000000000000005C
:10218000000000000100000000000000000000004E
:10219000000000000000000001000000000000003E
:1021A000F40100002A000000FF000000000004010C
:1021B0000000020001000002100000000700000003
:1021C00000000000000000000102030406070809E7
:1021D000C70000000500000006FF0000C81900202D
:1021E00000000000000000000000000000000000EF
:1021F00000000000000000000000000000000000DF
:1022000000000000000000000000000000000000CE
:1022100000000000000000000000000000000000BE
:1022200000000000000000000000000000000000AE
:10223000000000000000000000000000000000009E
:08280000082800080040000850
:10800000134B0268196821EA02011960596821EAD4
:108010000201596019680A431A609968026821EAE6
:1080200002019960D96821EA0201D96041791029D9
:1080300007D001F1804303F59E3319680A431A60A3
:108040007047996811439960D9680A43DA607047AC
:10805000003C0140024B9A6D136A002BFCD1704723
:10806000281A0020F0B401292D4C2E4D4FF00006A7
:1080700094BF00230123EE62C4F81861C4F81C61A8
:10808000C4F82831D4F82871D4F8F43047EA42070C
:10809000C4F82871EE63EC6B002A38D144F495746F
:1080A000EC631C6824F001041C601C68E407FCD429
:1080B000490289085960D8601968EAB921F040017D
:1080C000196019498B421DD018494FF47410C860CB
:1080D000196841F01E011960596941F08001596128
:1080E000196841F00101196022B90E4AD36A43F0C0
:1080F0000803D362F0BC704741F0400119600A499F
:108100008B42E1D14FF0746041F8500CE0E744F04D
:108110001A04EC63EC6A44F00804EC62C1E700BFA7
:10812000281A0020002C01405864024000640240DC
:108130001248002302461178032902F1060218D0E2
:108140000133062BF7D10E4AD2F85031052B0FD050
:10815000591C03EB4303C2F8501100EB4303032007
:1081600040F2EB3140F2FF32187059809A8070472C
:10817000704703EB430300EB4303F0E7541B00207D
:10818000281A002030B5134A134B8DB0082102F194
:10819000580082F8F0100693694400230DF107059A
:1081A0000124CDE9073302938DF8143009938DF83B
:1081B00028300B93CDE9035448F09AFAFFF74AFFB1
:1081C0009DF80700A0F1FF00B0FA80F040090DB063
:1081D00030BD00BF281A0020DD810008826D136ABF
:1081E0005B681B78FF2B08D090F8F030013BDBB2C6
:1081F00080F8F0301BB10120704700207047126AF0
:10820000526802201370704770B4C3080D4CE25CD2
:1082100000F00706B24004EBD004D2B20020C6F151
:1082200008038B4228BF0B46C3F108052A4198403A
:10823000C91A40EA02004FF0000614F8012FEED1EF
:1082400070BC7047681A0020084AD2E9553199423B
:108250000AD0D118013391F85C110170C3F30A03FD
:10826000C2F854310120704700207047281A0020BE
:10827000064AD2F85C39D2F86029934294BF4FF491
:1082800000600020013B9B1A18447047281A002008
:10829000012380F85130704707B501A8FFF7D4FFDC
:1082A0000028FAD09DF8040003B05DF804FB044BED
:1082B000D3E95503984288BF03F50063181A704745
:1082C000281A002001207047024BC3F86429C3F824
:1082D00068197047281A0020024BC3F86C29C3F8AC
:1082E00070197047281A00207047704730B4134D3A
:1082F000D5E955239A4286BF03F50064A21A9A1A5B
:108300000A44B2F5006F13D8A9B101444A1E0138DE
:1083100010F8014FE918824203F1010381F85C4132
:10832000C3F30A03F4D1C5F85831002030BC7047BC
:10833000022030BC70470846F8E700BF281A00202A
:10834000F8B51A4C94F87439002BFBD159B3014499
:108350004E1E451ED4F86029D4F85C1915F8017F2B
:10836000531CC3F30A038B422CBF4FF40060002060
:10837000C91A22440144012982F87879C4F8603985
:108380000FD1012042F044FFD4F85C39D4F86019D1
:108390008B4294BF4FF4006200225B1A1344012BFE
:1083A000EFD0B542D6D10020F8BD00BF281A00207A
:1083B00010B5094CD4F88030084611465BB1D4F8AA
:1083C0008030052B07D1002AD4F8843003DDFFF775
:1083D000B7FFD4F8843010BD202B002010B590F8E2
:1083E0005010002380F8503081B10B4CD4F880201D
:1083F00072B1D4F88020052A0CD13C30D4F88430F6
:10840000FFF79EFFD4F88430012010BD0120FCE767
:108410001046FAE71846F8E7202B0020002280F8E3
:108420005120DBE790F85020531C0244DBB280F867
:10843000503082F83C1090F851200AB1132B00D92B
:10844000CCE77047212838B50C4605D022282FD01C
:10845000202813D0002038BD0029FBD0072AF9D1ED
:108460001A4BD3F8880093F88C1093F88D2093F86A
:108470008E30206021716271A371EBE70029E9D091
:10848000072AE7D1124AD2F868391BB1D2F8640939
:10849000096898470D4B256820796179A279C3F85E
:1084A000885083F88C0083F88D1083F88E20D1E7F4
:1084B0000029CFD0022ACDD1054AD2F87039002B3D
:1084C000C8D00988D2F86C099847C3E7202B002050
:1084D000281A0020024B0020C3F88000704700BF1C
:1084E000202B0020054B064A00200521C2F88010F1
:1084F000C3F87009C3F86809704700BF281A002044
:10850000202B0020704700BF704700BF704700BF9E
:10851000704700BF704700BF704700BF704700BF83
:10852000042301480B8070479801002010B4074ACB
:10853000074B92F89000122403F114020C800128DA
:108540000CBF184610465DF8044B7047202B0020E6
:108550009C01002000487047501A002000487047D6
:10856000501A0020034B93F82400032894BF0020E6
:1085700001207047281A0020034B93F82400032899
:1085800094BF002001207047281A0020034B93F865
:108590002400003818BF0120704700BF281A0020AF
:1085A000034B93F82400003818BF0120704700BF28
:1085B000281A0020A0B182680D4B12B107229A70D0
:1085C00070471978DA6003294FF004000CBF80214E
:1085D0004FF48071C3E901111A611A7598707047E0
:1085E000034B41F2E47101225A545A70704700BFA4
:1085F000A0BC00200378022B10D0006908B901202C
:1086000070470C4B1B78032B0EBF0B4B80B24FF601
:10861000F773984294BF00200120704705494368D2
:1086200041F650028A58B3EB422F2CBF01200020A4
:10863000704700BFA0BC0020F7FFFF0F0378022B9C
:1086400014D030B4104A4368006941F6480402F57A
:10865000C2511559096841F63C042B4012595B0A76
:10866000023801FB0030104430BC7047064B4268B2
:1086700041F6340141F630005958185800EB4100DA
:1086800000EB5220704700BFA0BC002030B593B073
:1086900040F040020B0E0D0C04468DF80810080A3D
:1086A0008DF80420952101AA8DF805308DF806502B
:1086B000002306258DF807008DF809100DF1030041
:1086C00001210392134A0493CDE90733CDE90D3319
:1086D000CDE909018DF818308DF82C300F938DF805
:1086E0004030119305950C92FFF74CFD00B974B919
:1086F000094B082203F1580003A983F8F02047F042
:10870000F7FFFFF7A7FC9DF8030013B030BDFF2073
:1087100013B030BD1D870008281A0020836D1B6A26
:108720005B681B78FF2B0AD190F8F030002B03F127
:10873000FF3380F8F03014BF012002207047002082
:10874000704700BF30B5104A104B8DB0014682F81B
:10875000F01002F15800069302A900230DF107055D
:108760000124CDE9073302938DF8143009938DF875
:1087700028300B93CDE9035447F0BAFFFFF76AFCAA
:108780009DF807000DB030BD281A00201D87000895
:1087900070B51C4D90B00024FD220DF1030305F1CE
:1087A0005800012601A98DF803200693CDE9014464
:1087B000CDE90A44CDE90C442C628DF810400594B3
:1087C00007948DF824408DF838400F94039608964E
:1087D00047F08EFFFFF73EFC3046FFF7B3FFFF2860
:1087E00009D0094BD3F884306B612046092385F802
:1087F000243010B070BD0423022085F8243010B05E
:1088000070BD00BF281A0020202B002070B506463E
:1088100090B008200D46FFF795FFFF2821D0FE28D5
:1088200002D0022010B070BD002402230E4808932D
:1088300001A9CDE90265CDE90544CDE90A44CDE9B8
:108840000C4401948DF8104007948DF824408DF865
:1088500038400F9447F04CFFFFF7FCFB204610B068
:1088600070BD012010B070BD801A002008B5FFF760
:10887000F1FB0A203FF0C8FB024B186EBDE8084030
:1088800047F074BC281A002070B50379254C002BE2
:1088900014BF012200228AB084F8502003D184F84A
:1088A00024300AB070BD054690F9001004F158005C
:1088B00048F08CF8AD784DBB01261B482566C4F8FE
:1088C000EC4084F8646048F0B7F803464FF47A70DF
:1088D000A4F85C3042F09CFC206E47F047FC282254
:1088E0006846002164F045FD0A231048029369465A
:1088F00047F0FEFEFFF7AEFB0D4B84F82460D3F883
:1089000084306361002323760AB070BD284646F0A8
:10891000E5FF054608B11E23C3800921284647F01C
:1089200075FAC9E7281A0020801A0600801A00206C
:10893000202B00202DE9F84F494B98420ED003F52B
:108940006853083398424ED0464B0020C3E940009C
:10895000A3F8FC00A3F80801BDE8F88F414C424F92
:10896000DFF810810223C4F8943004F19806002542
:10897000FB6AAB42294605F1010503D0D4F8180182
:1089800054F090FA94F81C31D4F8182186F8243069
:1089900032623046414654F099FCD4F894309D42FE
:1089A00006F13006E4DB002384F80A31D4E9280319
:1089B000D4F89410B4F89C20B4F8A850C4F8283126
:1089C00012FB01F203FB01F3A4F8FC20B4F89E10A3
:1089D000264AA4F80851C4E94003A4F8FE10C4F8DC
:1089E000F8200120B8E71F4C1F4F0223C4F8943031
:1089F00004F198054FF0000B4FF4806A4FF04009E6
:108A00004FF40068FA6A01265A455946B34403D028
:108A1000D4F8180154F046FAD4F8181194F81C212F
:108A2000296285F824204FF400314FF00062C5E937
:108A30000212A5F804A0A5F81090A5F80680AE745F
:108A4000FFF776FB28466E7654F08CFBD4F8942022
:108A5000074B45F8303B9345D4DB84F80A61A5E722
:108A60001971EF00202B00209801002040D4060847
:108A700014D406081940EF002DE9F843194C94F876
:108A80002460042E0546894690461F4608D0082ECD
:108A900002D00020BDE8F883FFF77AFE0228F8D163
:108AA000206E47F05DFBA37E9BB969021120FFF7A2
:108AB000EDFDA0B90C4BC4F80090D3F8842065609C
:108AC0000523C4E90387626184F824300120BDE8EE
:108AD000F88329461120FFF7D9FD0028EAD0FFF7D7
:108AE000C5FED6E7281A0020202B00202DE9F04FE4
:108AF000CF4ED04D86468C4617460FCE05F5967460
:108B00002DED068B0FC40FCE0FC496E8070089B079
:108B100095F86231039784E80700CDE904EC042B53
:108B200000F24881DFE813F0B4014601410105007D
:108B3000C4019FEDC18ADFEDC18AC149C5F8481162
:108B4000C049C14BC14AC5F844110399002918BF57
:108B5000134638EE887AF5EE006AC6EE879ABC4E68
:108B6000C5F85031A6F1120B06F1C0080027DFED61
:108B7000B97A9FEDB99A28EE278AB0EE67AA059BCD
:108B8000BB4200F00C811BF8013BEA1892F86741E8
:108B9000002C00F01481002202E0152A00F00F8161
:108BA00002EB42014FEA420918F80100A04202F12B
:108BB0000102F2D1294491F84512002900F06681A2
:108BC000204602933EF03EFD029B824650460293B1
:108BD0003EF058FD0178002940F0F180029BA94445
:108BE0000133DBB2032289F8853289F88422BAF195
:108BF000000F00F0E4804FEA141909F1FF39B9F1D0
:108C0000040F04F00F0000F20881944C04EB4901BA
:108C1000B1F884C04CFA00F111F0010100F0FD80C0
:108C2000012101FA00F0013800EA0C00A14402938E
:108C300062F0A2F899F890C0DFF838E2029B604435
:108C40000EEBC00C03228CF807308CF806205EF87F
:108C50003000C6F814C000F13F4303F57E0304EB77
:108C60009324012194F898309AF8082003F01F0407
:108C70005B09032B01FA04F100F00381042B00F0DF
:108C8000FB80022B00F0CF80BCF804300693B3FACF
:108C900083F3C3F11F03C3F3CC0100EB810103F0A5
:108CA00007030C6A9B004FF00F0C0CFA03FC24EA3C
:108CB0000C040C620C6A02FA03F323430B620223D6
:108CC00006A907930BF0FCFF039B002B00F08380A9
:108CD000B5F86031D5F8301507EE903AF8EEE77A3E
:108CE000FCEEE77A17EE900AB1FBF0F202F57F4254
:108CF000FF32120CB1FBF2F295F86211B2FBF0F008
:108D0000042983B27ED007EE902AF8EE676A66EEF9
:108D1000887A29EE677A95F8630104990091A8EEA4
:108D2000A67A019051463046C6ED027A86ED037A66
:108D300035F0C2FF002F72DD7368D5F888219342A9
:108D40006FD0012F6BD0D5F8A021934269D0022FAC
:108D500065D0D5F8B821934263D0032F5FD0D5F802
:108D6000D02193425DD0042F59D0D5F8E821934209
:108D700057D0052F53D0D5F80022934251D0062F5B
:108D80004DD0D5F81822D31A18BF0123013701227C
:108D9000082F3374727406F118067FF4F0AE304871
:108DA00009B0BDEC068BBDE8F08F9FED2E8AF0EE8A
:108DB000488AC2E69FED2C8AF0EE488ABDE62B4A2F
:108DC000224BC5F848210020C5F8503109B0BDEC50
:108DD000068BBDE8F08FB0EE690A62F037FFFCEE5B
:108DE000C07A4FF6FF7317EE902AD5F83015B1FB15
:108DF000F2F21A44120CB1FBF2F295F86211042956
:108E0000184680D107EE900A07EE102AF8EE677A2E
:108E1000F8EE476A67EE8A7A7BE7716154E70123CF
:108E2000B4E70023B2E7124B5C6C214359642BE793
:108E30006CD40608202B0020ACC5A737ACC5A736DC
:108E40000DE30308855A040805DF0308795A04086E
:108E5000A42C00206F12833A00007A4414D4060830
:108E60004C2C0020282930386F12033955E00308B4
:108E700000380240D02D00200F4B1C6B214319639A
:108E800002E70D4B1C6C21431964FDE68A469DE602
:108E90009FED0A8A0A4A0B4BC5F84821C5F84431B0
:108EA00000220123CDE90332F0EE488A064B50E65A
:108EB0009FED068AEEE700BF003802406F12833A4A
:108EC0000DE30308855A0408795A040800000000DD
:108ED000F8B5104ED6F83045054600680F466408D0
:108EE0000BF0F2FDB4FBF7F1B1F5803F03D3012C99
:108EF000FAD96408F6E72246284689B23EF040FADD
:108F0000054BC6F8983D28460449BDE8F8400022C4
:108F10003EF044B9202B002095250208B8380020E7
:108F200010B5044C04480A4621460AF047FC204686
:108F300010BD00BFC03800200056070810B5044C13
:108F400004480A4621460AF039FC204610BD00BFFD
:108F5000C03800201056070810B5044C04480A46D3
:108F600021460AF02BFC204610BD00BFC03800206F
:108F70001C56070810B5044C04480A4621460AF05E
:108F80001DFC204610BD00BFC03800202856070831
:108F900010B5044C04480A4621460AF00FFC20464E
:108FA00010BD00BFC03800203456070810B50C4C67
:108FB00094F8F2200023236212B10A4AC2F8A03EBC
:108FC0005DF00CF820B10423022084F8243010BD99
:108FD000044BD3F884306361092384F8243010BD36
:108FE000281A0020202B002070B50D4D95F8243054
:108FF000042B04460E460AD0082B06D1EB698342A7
:109000000CD0FFF7D3FF022801D0012070BD082348
:10901000C5E9074685F82430022070BD022070BDE6
:10902000281A002010B50AF09DFB0F4C48B194F8A7
:109030002430032B11D8237E0133DBB2072B237698
:1090400003D9002384F8243010BD084A0123D2F844
:109050008420626184F8243010BD054847F0ECFCA0
:10906000A4F85C00E7E700BF281A0020202B0020AE
:10907000801A060070B51D4C94F82430042B064667
:109080000D4608D0082B20D1E36983422BD0FFF78F
:109090007FFB022819D1206E47F062F800213720AB
:1090A000FFF7F4FA29461720FFF7F0FAA8B9A37ED4
:1090B0006BB971021920FFF7E9FA70B90823C4E906
:1090C000076584F82430022070BD012070BD314650
:1090D0001920FFF7DBFA0028F0D0FFF7C7FBFFF7F6
:1090E000A1FF032070BD022070BD00BF281A002020
:1090F0002DE9F0412B4C0546884617461E4694F84C
:109100002400042834D0082806D1E369AB4206D0F5
:10911000FFF73EFB0228F2D00120BDE8F0814FF0BE
:10912000FC0CA26D2048117B204B80F8A4CEC3F824
:10913000588051B1526942B194F8E020002A0CBF26
:109140004FF480724FF4007201E04FF480721A669F
:109150001749184847F0CCFA01220623C4E90085D4
:10916000C4E90376227284F824300020BDE8F0813F
:10917000206E46F0F5FFA37E5BB969021820FFF769
:1091800085FA40B994F82430082BC8D04FF0FE0C73
:10919000C7E72946F2E7FFF769FBFFF743FF032024
:1091A000BBE700BF281A0020202B002098010020D8
:1091B000C8010020801A002070B50379204C002BD4
:1091C00014BF0123002384F8503003D1002384F816
:1091D000243070BD1B4D002195F9AB2E032047F0C4
:1091E00077F90028F2D04668304647F0E9F984F86C
:1091F000F1000028EAD095F8A93E003B18BF0123F2
:10920000304684F8F2305CF00BFF0AF0ABFA28B974
:10921000237E84F824000133237670BD5CF020FDAA
:1092200030B1237E00220133237684F8242070BDE0
:10923000D5F8843063610123207684F8243070BD32
:10924000281A0020202B002010B55CF009FD48B141
:109250000B4C237E0133DBB2072B237603D900238B
:1092600084F8243010BD0AF07DFA0028F7D0054AB2
:109270000123D2F88420626184F8243010BD00BF3D
:10928000281A0020202B00202DE9F041844C94F86E
:109290005050002D00F0F28094F82420814E0227D7
:1092A000531E082B3FD8DFE803F035379C3E694F4B
:1092B000153E05005CF092FE002840F0E6806369F0
:1092C000D6F88420FA3393422AD2FFF7BDFF94F8F0
:1092D0002420E5E75CF082FE0028F0D0236A00221B
:1092E000012B227640F2D580E16994F8F200013B2F
:1092F0000131C4E9071310B16A4BC3F8A02E08224C
:1093000084F82420A2F10805B5FA85F56D092846F0
:10931000BDE8F08184F824705CF060FE002844D140
:1093200094F82420531EDBB2022B0AD85D4B6169EE
:10933000D3F884305B1AC82BE4D9FFF785FF94F883
:109340002420042ADED1E2E7D4F82431002BD9D13D
:10935000544BE668D3F884306361072284F82420F4
:10936000002ECFD0D4E9002123690120B047D7E7F0
:109370006369D6F8841064338B42C3D2D4F8208159
:10938000B8F1000FF4D15CF029FE00289FD0E66808
:1093900084F81880042384F82430002E73D0D4E994
:1093A000002123694046B047BAE75EF0CFFA0028B3
:1093B000B6D196F8AD3E002BA3F10203B3FA83F3C6
:1093C00014BF022201225B096276A3765EF0BEFA28
:1093D00000287FF47AAF344A0323926CA26284F8A7
:1093E00024305EF0B3FA00289AD12E4B206293F815
:1093F000DC6EB3F8DE0ED3F8E0EED3F8E0CED3F8AF
:10940000E07ED3F8E02E84F82E6093F8E41EA08569
:1094100093F8E56E84F8322093F8E50ED3F8E82E41
:109420006263B3F8EE8EB3F8EE2E84F83310B3F81F
:10943000EE1EC2F30B1343EA182303F00F0301F0EF
:109440000F024FEA1E6E4FEA1C4C3F0A360900F02D
:109450000F0003F5FA63042184F8390084F82FE043
:1094600084F830C084F8317084F83860638784F8F9
:109470003C2084F824102846BDE8F08184F824506C
:109480002846BDE8F081054641E7042384F82430EE
:109490003DE7FAD1FFF78AFD94F82420531E42E7F6
:1094A000281A0020202B0020D03900202DE9F04F71
:1094B000C64C94F8506095B0002E00F0818194F86D
:1094C0002420C34F04F1580804F14009531E082B0F
:1094D00000F29680DFE813F034005A002001940077
:1094E0008300A500190094000900FEF74BFE002838
:1094F00040F01A826369D7F88420FA3393427CD211
:10950000FFF790FD94F82420E0E7FEF73BFE0028EB
:10951000F0D0236A0022012B227640F21B82E269FE
:10952000013B511CC4E90713082284F82420A2F14E
:109530000806B6FA86F67609304615B0BDE8F08F13
:10954000206E46F00DFE00210846FFF79FF8054605
:10955000FFF78CF9012D50D1206E4FF0000A84F8EE
:1095600019A046F0FDFD40F2AB110820FFF78EF880
:10957000052800F07A81012800F04281FFF776F992
:10958000627E002AD1D0022384F82430206E46F077
:10959000E7FD637E022B0CBF4FF0804500250021C4
:1095A0003720FFF773F829462920FFF76FF80546A3
:1095B000FFF75CF90DBB637E022B00F06981A57695
:1095C000206E46F0CDFD00210920FFF75FF800284E
:1095D00073D0FFF74BF994F82420531E10E0206855
:1095E0004FF40071FFF712F9012800F026810228DC
:1095F00000F02A81002800F03A8194F82420531EBC
:10960000DBB2022B0AD8724B6169D3F884305B1A43
:10961000C82B8CD9FFF706FD94F82420042A86D1A4
:109620008AE7A26D117B136A002900F0D580526988
:10963000002A00F0D18094F8E020002A00F0CC80CD
:10964000B3FA83F35B09002BD7D004A900250DF1F1
:109650000F0302220591404605A94FF0010ACDE90A
:109660000B3A0792CDE90955CDE90E55CDE91055D4
:10967000ADF8105006958DF820508DF834508DF8C7
:109680004850139547F034F8FEF7E4FC9DF80F308E
:1096900003F01F03052B00F05081FFF7C3FCD4F843
:1096A0000CB0BBF1000F00F0DD802A462369616831
:1096B0005046D84794F8242008E710214846FFF781
:1096C000A5F88246002884D101217F20FEF79CFD69
:1096D000012805467FF47DAF50460221FEF794FD38
:1096E000002800F0038101287FF473AF16213A208F
:1096F000FEF78AFD01308002A062FFF7B7F8206E06
:1097000046F02EFD00210A20FEF7C0FF002840F0A1
:10971000E680032384F82430102105A8FFF776F8AB
:1097200000287FF46AAF9DF821309DF822109DF843
:109730001C209DF815009DF816501B01DBB243EA72
:10974000111303F5FA636387DDF81D3001F00F0193
:1097500084F83C101BBA110902F00F0245EA002000
:1097600084F8381084F839209DF814109DF81720DB
:109770006363069B2363A08584F82E1084F82F2052
:10978000FFF774F8A37E6BB9206E46F0E9FC4FF446
:1097900000711020FEF77AFF0546FFF767F8002DED
:1097A0007FF4AEAE0B4847F047F900220423A4F83B
:1097B0005C003046226284F8243015B0BDE8F08F9A
:1097C000304684F8246015B0BDE8F08F281A0020D8
:1097D000202B002040787D012268217A4FF480738D
:1097E00002EB01214046002247F038FB237A013387
:1097F000DBB22372A3F10203B3FA83F35B0922E71E
:10980000042304AA05A9404607930692CDE909AAB4
:10981000CDE90BAACDF814A08DF820A08DF834A0C6
:10982000CDF838A046F064FFFEF714FC9DF8133025
:10983000AB2B04BF02236376A0E66369D7F88420CC
:1098400064339342BFF4D9AEFFF710F8FFF7EAFB99
:10985000E5683DB10022104623696168A84794F885
:10986000242033E694F8242030E6657686E60190DD
:10987000FEF7FCFFE56801982076042384F8243085
:10988000002D3FF459AED4E900212369A847B4E67E
:10989000206E46F065FC29463A20FEF7F7FE04AA42
:1098A0008246042305A9404606920793CDE909554F
:1098B000CDE90B5505958DF820508DF834500E9557
:1098C00046F016FFFEF7C6FBBAF1000F07D1FEF710
:1098D000CDFF049B1BBAC3F38073A37670E6FEF73B
:1098E000C5FFFFF79FFB94F82420EFE504212C200F
:1098F000FEF78AFC032182464E20FEF785FC0C21F0
:1099000083463620FEF780FC0BF1020B421C02FA64
:109910000BF205FA0AF5A2FB0501420A42EAC1521E
:10992000A262FEF7A3FFEAE60190FEF79FFF01980F
:109930000423064684F82430FEE50E4BE568D3F890
:1099400084306361072284F82420002D3FF4EFADBA
:10995000504698E708D0042384F82430FEF786FFA9
:1099600094F82420531E4BE6FEF712FF02287FF4E2
:1099700044AE2EE6202B00202DE9F84FBA4C94F887
:10998000081F0546C1F34001D4F8100F46F0F4FB60
:1099900094F8081FD4F80C0FC94301F0010146F0F8
:1099A000EBFB002D00F0CD806E1EB04FB04D5FFA86
:1099B00086FB4FF01008D4F8100F46F0C7FBD4F820
:1099C0000C0F46F0C3FBB4F8183F002B40F0438166
:1099D00094F81A1FD4F81C0F46F0CEFB4FF0FA098A
:1099E0004FF47A704FF0010C7B68C3F30803002B2F
:1099F00040F00881EFF31183002B40F00381D4F88D
:109A00008420A968D4F884309A42F8D1D4F8403F31
:109A10009942F4D8D4F83C6F00FB06F35B1AB3FB11
:109A2000F6F300FB02327B68C3F30803002B40F01F
:109A3000A880EFF31183002B40F0A380D4F884308A
:109A4000D5F808A0D4F884108B42F7D1D4F8401F81
:109A50008A45F3D8D4F83C6F00FB06F1A1EB0A016C
:109A6000B1FBF6F100FB03139B1AB3F57A7FDAD34F
:109A7000B9F10109B8D1D4F8100F46F067FBD4F85A
:109A80000C0F46F063FBB4F8183F002B40F0D78072
:109A900094F81A1FD4F81C0F81F0010146F06CFBFA
:109AA0004FF0FA0C4FF47A704FF0010E7B68C3F35D
:109AB0000803002B40F08680EFF31183002B40F069
:109AC0008180D4F88420A968D4F884309A42F8D1EF
:109AD000D4F8403F9942F4D8D4F83C9F00FB09F3F6
:109AE0005B1AB3FBF9F300FB02327B68C3F3080394
:109AF0004BBBEFF3118333BBD4F88430D5F808A007
:109B0000D4F884108B42F7D1D4F8401F8A45F3D89B
:109B1000D4F83C9F00FB09F1A1EB0A01B1FBF9F17C
:109B200000FB03139B1AB3F57A7FDED3BCF1010C63
:109B3000BCD10BF1FF365FFA86FBBBF1FF0F7FF460
:109B40003AAFBDE8F88FEFF3118988F31288AE6859
:109B50002B68DB0344BFC4F838EFAE68D4F8843018
:109B6000D4F8381F5FFA89F989F31188D4F83C9F3B
:109B70000B4400FB09F1891BB1FBF9F100FB031356
:109B8000D0E7EFF3118E88F31288D5F808A02B6880
:109B9000D90344BFC4F838CFD5F808A0D4F884302E
:109BA000D4F8381F5FFA8EFE8EF31188D4F83C6F1C
:109BB0000B4400FB06F1A1EB0A01B1FBF6F100FB3F
:109BC000031351E7EFF3118188F31288D5F8089059
:109BD0002B68DA0344BFC4F838EFD5F80890D4F8FE
:109BE0008430D4F8382FC9B281F31188D4F83C1FDF
:109BF0001A4400FB01F3A3EB0903B3FBF1F300FBF1
:109C0000023272E7EFF3118188F31288AE682B6895
:109C1000DB0344BFC4F838CFAE68D4F88430D4F83E
:109C2000382FC9B281F31188D4F83C1F1A4400FBC5
:109C300001F39B1BB3FBF1F300FB0232F3E6D4F814
:109C4000343F002B3FF42CAFD4F8203FC3F80090F2
:109C500084F8319F24E7D4F8343F002B3FF4BEAEA4
:109C600041F096FBBAE600BF202B002000ED00E09B
:109C700010E000E02DE9F84FB74CB84F94F8081FFA
:109C8000D4F8100FB64DC1F3400146F075FA94F8C0
:109C9000081FD4F80C0FC94301F0010146F06CFA1B
:109CA0004FF0050B4FF01008D4F8100F46F04EFAA5
:109CB000D4F80C0F46F04AFAB4F8183F002B40F0E5
:109CC000438194F81A1FD4F81C0F46F055FA322637
:109CD0004FF47A704FF0010C7B68C3F30803002B3C
:109CE00040F00781EFF31183002B40F00281D4F89C
:109CF0008420A968D4F884309A42F8D1D4F8403F3F
:109D00009942F4D8D4F83CEF00FB0EF35B1AB3FB96
:109D1000FEF300FB02327B68C3F30803002B40F024
:109D2000A780EFF31183002B40F0A280D4F8843099
:109D3000D5F808A0D4F884108B42F7D1D4F8401F8E
:109D40008A45F3D8D4F83CEF00FB0EF1A1EB0A01F1
:109D5000B1FBFEF100FB03139B1AB3F57A7FDAD354
:109D6000013EB9D1D4F8100F46F0F0F9D4F80C0F39
:109D700046F0ECF9B4F8183F002B40F0DA8094F884
:109D80001A1FD4F81C0F81F0010146F0F5F94FF0CD
:109D9000320C4FF47A7001267B68C3F30803002B62
:109DA00040F08780EFF31183002B40F08280D4F8DD
:109DB0008420A968D4F884309A42F8D1D4F8403F7E
:109DC0009942F4D8D4F83C9F00FB09F35B1AB3FB2B
:109DD000F9F300FB02327B68C3F308033BBBEFF3EC
:109DE000118323BBD4F88430D5F808A0D4F88410AC
:109DF0008B42F7D1D4F8401F8A45F3D8D4F83C9F62
:109E000000FB09F1A1EB0A01B1FBF9F100FB03131F
:109E10009B1AB3F57A7FDED3BCF1010CBCD10BF1F8
:109E2000FF3616F0FF0B7FF43FAFBDE8F88FEFF37E
:109E3000118988F31288D5F808A02B68DB0344BF8A
:109E4000C4F8386FD5F808A0D4F88430D4F8381F97
:109E50005FFA89F989F31188D4F83C9F0B4400FB21
:109E600009F1A1EB0A01B1FBF9F100FB0313CFE704
:109E7000EFF3118E88F31288D5F808A02B68D90368
:109E800044BFC4F838CFD5F808A0D4F88430D4F84B
:109E9000381F5FFA8EFE8EF31188D4F83CEF0B4426
:109EA00000FB0EF1A1EB0A01B1FBFEF100FB031375
:109EB00052E7EFF3118188F31288D5F808902B68E8
:109EC000DA0344BFC4F8386FD5F80890D4F884306A
:109ED000D4F8382FC9B281F31188D4F83C1F1A4442
:109EE00000FB01F3A3EB0903B3FBF1F300FB023228
:109EF00071E7EFF3118188F31288D5F808E02B6839
:109F0000DB0344BFC4F838CFD5F808E0D4F8843078
:109F1000D4F8382FC9B281F31188D4F83C1F1A4401
:109F200000FB01F3A3EB0E03B3FBF1F300FB0232E2
:109F3000F1E6D4F8343F002B3FF429AFD4F8203FAA
:109F40001E6084F8316F22E7D4F8343F002B3FF4D1
:109F5000BEAE41F01DFABAE6202B002000ED00E075
:109F600010E000E00E4B30B4DB68427801780D4C15
:109F7000DB43C3F30223C3F10403DBB202FA03F3AE
:109F800060181B0101F01F050122490903F0F003CD
:109F9000AA4080F8003344F8212030BC704700BF4D
:109FA00000ED00E000E100E000F01F0240090123A5
:109FB000032803FA02F304D004280CD0022805D0A9
:109FC0007047074A116C0B4313647047044A516C85
:109FD0000B4353647047024A116B0B431363704782
:109FE0000038024000285FD00368374A2DE9F0416D
:109FF00003F13F4404F57E0402EB9422012492F81D
:10A00000982002F01F055209032A04FA05F456D0DD
:10A01000042A4FD0022A48D08588B5FA85F0C0F1CD
:10A020001F00C0F3CC0603EB860600F00700820099
:10A030000F24306A944020EA04003062306A01FA4A
:10A0400002F20243002132624FF0010E0A464FF045
:10A05000030C02270EFA02F838EA050002F10102A9
:10A060001CD118680CFA01F420EA04001860186882
:10A0700007FA01F606431E609E6826EA04069E6003
:10A0800098689860586820EA0800586058685860D6
:10A09000D86820EA0400D860D868D860102A01F196
:10A0A0000201D7D1BDE8F0817047084A556C2C43B6
:10A0B0005464B1E7054A156B2C431463ACE7034ABB
:10A0C000156C2C431464A7E714D40608003802402A
:10A0D00058B183884FF00042B3FA83F332FA03F3A6
:10A0E00003D002490A6813430B607047003C0140EB
:10A0F0002DE9F04385B00D461746044646F04EF86C
:10A1000000284EDB334EDFF8D88006EB800308EBE7
:10A11000000C06F6847229462046C3F8442F9CF8AA
:10A12000A09045F073FE002C51D0256805F13F4505
:10A1300005F57E05AD0A204646F030F800F0FC0338
:10A1400003F1804303F59C3300F003009A6880001C
:10A150000F21814022EA01029A609A68EDB205FA65
:10A1600000F0104398602CB1A0884FF00044B0FA82
:10A1700080F0C440184B08EB87074E445C61D7F869
:10A18000B0108DF80D100123002202A88DF80E30BA
:10A1900002948DF80C20FDF733FF96F8883FF02BE2
:10A1A00002D805B0BDE8F0830C4B13F809308DF8E8
:10A1B0000430F02103224FF4807301A886F8881F31
:10A1C0008DF80520ADF80630FFF7CCFEE9E74FF03B
:10A1D000FF35B0E7202B0020003C01409C560708CB
:10A1E00014D40608002861D0F0B58388B3FA83F34D
:10A1F000202B0A4685B00446C3F11F0141D02C4DE7
:10A200002C4E05EB81030E44C3F8442F002196F831
:10A21000A06045F0FBFDA7882268274CB7FA87F7B6
:10A22000C7F11F0303F0FC0101F1804101F59C31EE
:10A2300003F0030398004FF00F0C02F13F438A68CC
:10A240000CFA00FC22EA0C0203F57E038A60C3F3D9
:10A250008723834088684FF00042FA400343354427
:10A260008B6002A8626101234FF400618DF80E300B
:10A270000292ADF80C10FDF7C3FE95F8883FF02B65
:10A2800001D805B0F0BD0D4B9B5D8DF80430F02179
:10A2900003224FF4807301A885F8881F8DF80520EC
:10A2A000ADF80630FFF75EFE05B0F0BD704700BFA9
:10A2B000202B002014D40608003C01409C560708BF
:10A2C00010B4B8B10D4CD4F8903F102B05D15DF807
:10A2D000044B052100203DF04FBD03EB4302224417
:10A2E00082F8951F01210B4482F8940F82F8961F83
:10A2F000C4F8903F5DF8044B704700BF202B00204E
:10A3000080782021DCE700BF2DE9F04FDFF8ACA317
:10A310002DED028B9AF8D81F002297B0CAF8C82FEB
:10A32000CAF8CC2FCAF8D02FCAF8D42FCAF8C42F35
:10A3300019B19AF8D92F8AF8C42F9AF8DA2F1AB1DE
:10A340009AF8DB2F8AF8D32F9AF8DE2F1AB19AF8F1
:10A35000DF2F8AF8CE2F9AF8DC2F1AB19AF8DD2F6A
:10A360008AF8C92F9AF8E03F05935A1ED3B257B224
:10A3700003937B1C00F0AA80C54AC64E52F8379062
:10A38000029602EBC70200231279019308EE102A0D
:10A390001D463446984626783946304647F096F8AA
:10A3A00083463046BBF1000F1ED045F097FAEA1DF8
:10A3B0001321D2B220B14FF0000E827180F807E075
:10A3C00045F024FD207847F0ABF84FF0070308F183
:10A3D000010223714FF0010384F802806070CDF810
:10A3E00004B05FFA82F8E3700135042D04F105042E
:10A3F000D1D118EE100A029ECDF81080FFF7D4FDDF
:10A40000A549A64A4868024042F440324A600FB962
:10A41000019B5BB9A24C4820FFF7C6FD20460221F4
:10A4200060F0B6FAA26842F00102A2609A489C4A23
:10A430004168BAF8E24F41F400014160516821F4EB
:10A4400080515160916B21F4401141F4801191636E
:10A45000D16841F46001D160956B85F44011C1F37E
:10A46000015101EB81011F2000FA01FC25EA0C0CCF
:10A47000112505FA01F141EA0C019163D16841F01F
:10A48000E061D160956BC5F30151C1F10401C9B21E
:10A4900001EB810188404FF0120C25EA00000CFA14
:10A4A00001F108439063E4B1BAF8E41FCAF8EC4F35
:10A4B000A1B1BAF8E62FCAF8F01F62B1019B794842
:10A4C000521A90FBF2F2CAF8F42F6BB917B0BDEC38
:10A4D000028BBDE8F08F744A1288EFE7734A118847
:10A4E000E7E7734A1488DFE74846049960F050FABA
:10A4F000684B012003F114080723F278441CE4B2EE
:10A5000052B375783279A5F10A0101EB410105EBEF
:10A51000450C092D03FA01FE03FA0CFB02FA01F1C6
:10A5200040F2A080D9F80C2022EA0E0E41EA0E017A
:10A53000C9F80C10421E02EB82021F21062801FA04
:10A5400002FC05FA02F273D8D9F8341021EA0C01A2
:10A550000A432046C9F834200536B045CDD1D9F894
:10A560000820039942F40072C9F80820D9F808209D
:10A5700042F48072C9F80820D9F80820574442F004
:10A580000102C9F8082097F9E82F022045F0A0FF42
:10A59000044600289AD04668304646F011F8454AED
:10A5A000431E242101FB032393F89C50002D8DD1E1
:10A5B000059983F89D10062283F89C20002885D0F9
:10A5C000304645F0FDFF5DF08BFF60680AF0D6F97C
:10A5D00007A80AF095F9049EA26837480792012E51
:10A5E0008CBF4FF4806300230D9309F14C034FF4AB
:10A5F0008072CDE90A56089309904FF400336068E1
:10A600000C9507A94FF400674FF40056CDE91023CD
:10A61000CDE90E760AF086F96268136843F001030B
:10A620001360D9F8083043F08043C9F808304DE78B
:10A63000C11FA0F10D0201EB81014FF01F0E02EBD3
:10A6400082020C280EFA01FC0EFA02F005FA01F162
:10A6500013D8D9F8302022EA0C0211432046C9F859
:10A66000301079E7D9F8101002FA0CF221EA0B0B3E
:10A6700042EA0B02C9F810205CE7D9F82C1005FA61
:10A6800002F221EA00010A432046C9F82C2063E7C0
:10A69000D0D40608E43A002000230140E030FCFF5B
:10A6A00000200140803801002E7AFF1F2C7AFF1F06
:10A6B0002A7AFF1F98010020183B0020202B002041
:10A6C0002DE9F84F2E4F00EB800407EBC40454F83B
:10A6D000F46C2EB1054614F8DF0C00F0FF0820B131
:10A6E0004FF000084046BDE8F88F89469A469346E9
:10A6F00040F062FD4FEA49010123C9B204F8DE1CB3
:10A7000004F8DDBC04F8DB3C04F8DA8C04F8DC3C2B
:10A7100004F8DF3C04F8E08CB28844F8D8AC91052A
:10A72000814644F8D4AC1DD43388DA0510D442F203
:10A730000F7405E040F040FDA0EB0903A34215DCD7
:10A7400033889B05F6D433889BB243F480733380FF
:10A75000B3889BB243F440734FF00108B380404686
:10A76000BDE8F88F98464046BDE8F88F37F8803C42
:10A7700001339BB2284627F8803C5FF04BFDB1E7E0
:10A78000183C002070B5464E16F87E4C04EB44038E
:10A7900006EBC303650013F87C3C032B6ED8DFE89F
:10A7A00003F059291E02254406EBC50555F8780C1F
:10A7B000002870D116F81C3C9C425FD0013404F094
:10A7C0000302934206F87E2C58D002EB420406EBBB
:10A7D000C404022344F8780C04F87C3C70BD2B19A7
:10A7E00006EBC30353F8782C72B1013A43F8782C86
:10A7F000002070BD2B1906EBC30353F8782C002AF8
:10A80000F3D1022203F87C2C254406EBC50515F88C
:10A81000703C013BDBB205F8703C8BBB214B16F85A
:10A820001C6CD3F8C01255F8740C621C02F00302C1
:10A830004B1E0324B242034405F87C4CB3FBF1F0F9
:10A8400045F8780C1AD0994218D8013845F8780C98
:10A85000012070BD46F03CFD80B1124B2C44D3F872
:10A86000C02206EBC404012102F51C5304F87C1C31
:10A870000F33B3FBF2F344F8783C70BD012070BD98
:10A88000084BD3F8C022012002F2E733B3FBF2F306
:10A8900045F8783C70BD013845F8780C002070BD53
:10A8A000183C0020980100202DE9F84F3249DFF8CC
:10A8B000D4B091F8AD1E012402290746194610466E
:10A8C000CBF820414FF000022C4C1D4618BF7F02F0
:10A8D000FDF7C8FB2A4B63626B02A362E36A40F296
:10A8E000FF5943F093034FF400704FF48A62E36220
:10A8F0000121C4F83890A0601020E2605DF072F988
:10A90000012D40F251434E46C4F83890CA4640F2F9
:10A9100052488EBF4FF0120998464FF011090A2590
:10A92000C4F838A00121A7604846C4F80C805DF047
:10A9300059F903464FF0000C40F2774201213720CD
:10A94000A6632BB900231846CBF81C31BDE8F88F5D
:10A95000A663C4F808C0E2605DF044F9013DA66357
:10A960000028EFD015F0FF05DAD10346CBF82051CF
:10A97000CBF81C31BDE8F88F202B0020002C0140C3
:10A9800000E1F505281A00202DE9F843DFF874806E
:10A9900098F82450042D0446894617461E4608D0D0
:10A9A000082D02D00020BDE8F883FEF7FFFA022848
:10A9B000F8D101234A4620460021FFF775FF68B110
:10A9C000FEF742FCD8F80C40002CEBD00022D8F85F
:10A9D0001030D8F804101046A047E3E7084BC8F839
:10A9E0000090D3F88420C8F804400523C8E9037612
:10A9F000C8F8142088F824300120BDE8F88300BF8F
:10AA0000202B0020281A00202DE9F84F3149DFF8CB
:10AA1000CC9091F8AD1E1E4602292F4B07464FF0F1
:10AA2000010418BF4702012E40F25948C3F82441DF
:10AA300098BF4FF48B683B469346474640F2FF551C
:10AA4000B0468CBF4FF0190A4FF0180A0A241E4670
:10AA500040F2FF53C9F838300121C9F80860504668
:10AA6000C9F80C705DF0BEF803464FF0000C40F2E0
:10AA7000774201213720C9F83850ABB958464146D2
:10AA80000122FDF7EFFA4646144A154B536276024F
:10AA90009662D36A43F09103D3620F4B00210846BC
:10AAA000C3F81C11BDE8F88FC9F83850C9F808C0C0
:10AAB000C9F80C205DF096F8013CC9F83850002820
:10AAC000DCD014F0FF04C3D1034BC3F82441BDE82C
:10AAD000F88F00BF202B0020281A0020002C0140F6
:10AAE00000E1F5052DE9F047364C82B005460E46EB
:10AAF0001746984694F8240004280CD0082806D15C
:10AB0000E369AB4207D0FEF751FA0228F2D00120E8
:10AB100002B0BDE8F087DFF8B4A02660DAF8A09EA6
:10AB20006560C9F34F210F294FEA592222D8236AC1
:10AB30000193FBB194F8F200E0B1B9F5005F13D0D6
:10AB4000214831464FF40072484462F0B1FB09F5E8
:10AB50000072C2F34F211029CAF8A02E4FEA5222E8
:10AB600002D0019B012B20D192B2013A164EAD1AB0
:10AB70000B4600E001233246284606260125002127
:10AB8000E760C4F81080257284F82460FFF73CFF6A
:10AB90000028BDD0FEF758FBE66886B12846236939
:10ABA00061680022B0470320B2E7E269013B01324D
:10ABB0000421C4E9072384F824100220A8E7032015
:10ABC000A6E700BF281A0020F0750020202B0020E7
:10ABD000144A154BD2F83025B3EB920F15D2B3EBD4
:10ABE000D20F14D2B3EB121F13D2B3EB521F12D2F7
:10ABF000B3EB921F11D2B3EBD21F10D2B3EB122FD3
:10AC000034BF4FF4807080207047022070470420CA
:10AC10007047082070471020704720207047402060
:10AC2000704700BF202B00208096980003681A7898
:10AC3000012A01D00020704793F90430044A03EB45
:10AC4000830302EBC30313F8DF0CC0B2704700BFED
:10AC5000183C002010B50B4C54F8183C1B78022B04
:10AC60000FD154F8100C45F081FA54F8100C08B1CB
:10AC70002123C380012145F0C9F8FFF7A9FF24F87B
:10AC8000140C10BD183C002030B583B00D460123D4
:10AC900001460DF107020446074846F0A7F99DF862
:10ACA000072035EA020304D003482A43214646F030
:10ACB0002DFA03B030BD00BF003C002038B505467A
:10ACC0000A460C460648294646F02CF845F0800115
:10ACD000034845F0DBFE231A5842584138BD00BFF7
:10ACE000003C0020F0B5394C54F8185C2B78022B4E
:10ACF00095B018D0012B02D0002015B0F0BD95F909
:10AD000004506B1CF8D0022DF6DC0091134614F8A9
:10AD1000141C024628465FF01FFC0028ECD0284691
:10AD20005FF0CAFCE9E72B6A002BE5D10DF10F0CAF
:10AD30008DF80F00002601200027CDE90833CDE96A
:10AD40000A12CDE90E6705938DF81C300D93109310
:10AD50001293CDF810C006908DF830008DF84400A5
:10AD6000EFF31180102383F3128854F8183C1B6A08
:10AD7000ABB1069B04AE32461BB1D3691432002B33
:10AD8000FBD12B6A6BB1996839B9934219D0196814
:10AD9000A1B15B6899680029F7D01433F3E704ABDD
:10ADA0002B62C0B280F3118809485EF0ADFE54F802
:10ADB000182C136A002BFCD101209EE7044AC3E93A
:10ADC0000026C0B280F31188F1E700BF183C0020D4
:10ADD000003C002070B503681D78022D13D0012DB2
:10ADE00001D0002070BD044693F904000A4B421CB8
:10ADF00083F8B450F5D00228F3DC0A46B433217945
:10AE0000BDE870405CE41B6A002BEAD1012245F0EA
:10AE100089FF012070BD00BF183C002013B53A4CDB
:10AE20000023D4F8C4208DF80730137803F0FD0117
:10AE3000012905D194F8C81011B90C2184F8C81063
:10AE4000022B1ED0032B2DD001220B212F485AF0AC
:10AE50007DFD042040F0DCF92C4801230DF10702B0
:10AE600000215AF095FD002838D09DF80730482B76
:10AE700034D1274BC4F8B830264BC4F8BC3002B0EC
:10AE800010BDD4F8CC0045F071F9D4F8CC0008B16D
:10AE90003523C380012144F0B9FFFFF799FEA4F8E0
:10AEA000C800D1E7D4F83835506846F2A8111961C6
:10AEB000002380F88830122237215AF01BFDD4F885
:10AEC000C4300D22586824215AF014FDD4F8C4303F
:10AED000302258686A215AF00DFDB5E7D4F8C43025
:10AEE0001A78022A03D0032A07D00020C7E7D4F833
:10AEF000CC0045F0DDFB0020C1E758681022372167
:10AF00005AF0F8FCF1E700BF183C0020DC3C0020C0
:10AF1000EF590608715A06082DE9F04FDFF8E8B23C
:10AF2000B24CB34F95B0002305464FF4F0728A46F9
:10AF30000BF6840020218BF880388BF8813801953E
:10AF400062F017FA20210BF664204FF4F07262F0E1
:10AF500010FAA84932264FF0100C4FF47A704FF0D7
:10AF6000010E7B68C3F30803002B40F0BA80EFF3B7
:10AF70001183002B40F0B580D4F884208D68D4F87C
:10AF800084309A42F8D1D4F8403F9D42F4D8D4F8A6
:10AF90003C8F00FB08F35B1BB3FBF8F300FB0232B2
:10AFA0007B68C3F30803002B7AD1EFF31183002BE6
:10AFB00076D1D4F88430D1F80890D4F88450AB42DC
:10AFC000F7D1D4F8405FA945F3D8D4F83C8F00FB03
:10AFD00008F5A5EB0905B5FBF8F500FB03539B1A33
:10AFE000B3F57A7FDCD3013EBBD19BF8452C002A18
:10AFF00051D09BF8463C013B022B4CD803EB83001D
:10B000000BEBC0017C4D91F8E06C05EBC000012713
:10B01000022ECBF8480C8BF8D07C00F0B682DBB265
:10B020000BEB0313D3F8583DC1F8E43C9BB3022368
:10B030004FF4807081F8E03CA5F188034C3DA1F805
:10B04000EC0CC1F8F83CC1F8FC5C1509013D042D7D
:10B0500002F00F0200F29582684E06EB4503B3F84A
:10B06000840040FA02F3DB0740F18B82012303FAEC
:10B0700002F2013A104035445FF07EFE95F89020D0
:10B080005F4B104403EBC000CBF8500C8379002BCE
:10B0900047D0412B45D06FF0010015B0BDE8F08FCF
:10B0A000EFF311888CF31288D1F808900B68DD0358
:10B0B00044BFC4F838EFD1F80890D4F88430D4F8FD
:10B0C000385F5FFA88F888F31188D4F83C8F2B44F6
:10B0D00000FB08F5A5EB0905B5FBF8F500FB0353EC
:10B0E0007DE7EFF311858CF31288D1F808800B68A7
:10B0F000DB0344BFC4F838EFD1F80880D4F88430BB
:10B10000D4F8382FEDB285F31188D4F83C5F1A4497
:10B1100000FB05F3A3EB0803B3FBF5F300FB0232DE
:10B120003EE72323C380092144F070FEDBF8503C46
:10B1300013B11A689B881383D4F83025314BB3EBD5
:10B14000920F80F02882B3EBD20F80F02682B3EB0F
:10B15000121F80F02682B3EB521F80F02682B3EBE1
:10B16000921F80F02682B3EBD21F80F02682B3EBD1
:10B17000122F80F024824FF4807000230122FF21DF
:10B180000DF10F078DF80F10CDE90473CDE90833E9
:10B19000CDE90A33DBF8481CABF84C0C0D93069252
:10B1A0008DF81C208DF83020EFF31180102383F3ED
:10B1B0001288DBF8483C1B6A43B3069B04AE324658
:10B1C0001BB1D3691432002BFBD10B6A03B399680E
:10B1D00051B99A4200F08F811968002900F08881E6
:10B1E0005B6899680029F4D01433F0E7202B002025
:10B1F00000ED00E010E000E0F848002014D406085C
:10B20000D02D0020404B4C00183C002004AE0E62B4
:10B21000C0B280F31188B2485EF076FCDBF8481CBF
:10B220000B6A002BFCD18C220120CDE908330DF1F3
:10B230000E0805938DF81C300D93109312938DF822
:10B240000E2000230022CDE90E230A97CDF81080AE
:10B2500006900B908DF830008DF84400EFF31180CC
:10B26000102383F31288DBF8483C1B6ABBB1069BB2
:10B2700032461BB1D3691432002BFBD10B6A7BB170
:10B28000996851B9934200F03D811968002900F096
:10B2900036815B6899680029F4D01433F0E70E62B8
:10B2A000C0B280F311888E485EF02EFCDBF8482C8B
:10B2B000136A002BFCD19DF80F301B2B40F08581C9
:10B2C000DBF8503C01228BF880280BB12322DA8076
:10B2D000834840220A2145F025FD8A2100230122CE
:10B2E0008DF80E1000200021CDE90E01CDE90833C4
:10B2F000DBF8481CCDF810800A9705938DF81C30B8
:10B300000D931093129306920B928DF830208DF8C6
:10B310004420EFF31180102383F31288DBF8483CBC
:10B320001B6ABBB1069B32461BB1D3691432002B9A
:10B33000FBD10B6A7BB1996851B9934200F0E98067
:10B340001968002900F0E2805B6899680029F4D050
:10B350001433F0E70E62C0B280F3118860485EF0EB
:10B36000D3FBDBF8482C136A002BFCD19DF80F208F
:10B370009BF8441CC2F380128BF8882D002900F042
:10B38000CC80022900F0E580D4F830355549B1EB86
:10B39000930F80F01681B1EBD30F80F00081B1EBF9
:10B3A000131F80F00081B1EB531F80F00081B1EBDF
:10B3B000931F80F00081B1EBD31F80F00481B1EBCB
:10B3C000132F34BF4FF4807480249BF88C1DABF88E
:10B3D0008A4D182914D1444D444800215B08B3FB21
:10B3E000F4F3A5FB03530D465B0B64F30F056AF3FF
:10B3F0000F0163F31F4562F31F41CBF8901D4560B9
:10B400003748ABF84C4C0222002145F08BFCC82099
:10B410003CF0FAFDDFF8C8A0DBF8480C4FF08009DB
:10B420000024002500230122CDE90E45CDE9083393
:10B430008DF80E90CDF810800A9705938DF81C308A
:10B440000D931093129306920B928DF830208DF885
:10B450004420EFF31181102383F31288DBF8483C7A
:10B460001B6AA3B1069B32461BB1D3691432002B71
:10B47000FBD1036A63B1986838B99A422CD0186836
:10B4800040B35B6898680028F7D01433F3E706628E
:10B49000C9B281F3118850465EF036FBDBF8480CE8
:10B4A000036A002BFCD19DF80F3013F00203B9D1D1
:10B4B00001984178827800788BF8980DC1F12001CD
:10B4C000C2F1100218468BF8991D8BF89A2D15B011
:10B4D000BDE8F08FC3E900A6C9B281F31188DDE7AA
:10B4E00060480020809698005917B7D1A8490020DD
:10B4F0003B4AC3E90026C0B280F311888EE6384A81
:10B50000C3E90026C0B280F31188CFE6344AC3E90C
:10B510000026C0B280F3118823E7D4F830353149D2
:10B52000B1EB930F4DD2B1EBD30F38D2B1EB131F68
:10B5300039D2B1EB531F3AD2B1EB931F3BD2B1EBEF
:10B54000D31F40D2B1EB132F34BF4FF4807480244B
:10B550003BE7D4F830352448B0EB930F3DD2B0EB45
:10B56000D30F1CD2B0EB131F1DD2B0EB531F1ED252
:10B57000B0EB931F1FD2B0EBD31F34BF8024402405
:10B5800023E70020CBF8500CCDE591F8ED3C3B448F
:10B5900081F8ED3C59E50220EFE50420EDE50424B7
:10B5A00013E70820E9E508240FE71020E5E510245B
:10B5B0000BE72020E1E5202407E74020DDE580209F
:10B5C000DBE5022401E74024FFE6DBF8500C2021F4
:10B5D00044F01CFC4FF0FF305FE50C46F5E600BF81
:10B5E00060480020404B4C00002D310101460148CD
:10B5F00045F04CBAB4490020094B93F86231042B52
:10B6000008D9053B032B08D801231A4600B1037063
:10B610001046704700230122F8E700231A46F5E799
:10B62000202B0020F0B40D6800240CE0BCF1050FC5
:10B6300018D8A0F137030A2B14D104EB840415F8B1
:10B64000010B03EB4404A0F13003DEB2092EA0F19C
:10B650006107A0F1410CF0D9052FE7D8A0F15703FD
:10B660000A2BEAD00D601460F0BC70479FED727A2F
:10B6700007EE901A20EE070AF8EE677A27EE800AA6
:10B68000FDEEC07A17EE903A2033402B00F2C480D2
:10B69000DFED6A7AB4EEE70AF1EE10FAF0EE407AE6
:10B6A0000CDD9FED676ADFED676AB0EE677AB4EE96
:10B6B000E67AF1EE10FA77EEC67AF6DC9FED627A62
:10B6C000F4EEC77AF1EE10FA0CD59FED5D6ADFED6E
:10B6D0005F6AB0EE677AB4EEE67AF1EE10FA77EED2
:10B6E000867AF6D49FED5A7AF4EEC77AF1EE10FA24
:10B6F00000F38A809FED577AF4EEC77AF1EE10FAE4
:10B7000044BF9FED517A77EE677A27EEA76ADFEDA7
:10B71000525A9FED527ADFED526AA6EE257A67EE15
:10B72000865AE6EE076AB6EE007AE5EEA67A27EECE
:10B73000877ADFED476A70EE267ABDEEE76A16EE8D
:10B74000103A2033402B64D8B4EEE60AF1EE10FA3A
:10B750000CDDDFED3B5A9FED3B6AF0EE676AF4EEDD
:10B76000C66AF1EE10FA77EEE57AF6DCDFED366ABE
:10B77000F4EEE67AF1EE10FA0CD5DFED315A9FEDDA
:10B78000336AF0EE676AF4EEC66AF1EE10FA77EE0D
:10B79000A57AF6D4DFED2E6AF4EEE67AF1EE10FA31
:10B7A0003DDDDFED266A76EEE77A67EEA75A9FED7C
:10B7B0002A5A9FED2A6ADFED2A6AA5EE856A27EEEE
:10B7C000A55AE5EE866AB8EE006AE5EE267A67EEDF
:10B7D000867AC7EE206AB7EE006A76EE865A76EE73
:10B7E000666A86EE257A80ED091A67EE277A66EE9C
:10B7F000876AC0ED017AC0ED037A80ED007A80EDB2
:10B80000027AC0ED046A70479FED0C7A77EE677A92
:10B810007BE7DFED147ADCE79FED127A89E7DFED55
:10B820000D6AF4EEE67AF1EE10FA44BFDFED066A37
:10B8300076EEE77AB9E700BF27D4D236DB0F49406E
:10B84000DB0FC940E4CB1641DB0F49C0E4CB16C186
:10B85000DB0FC93FDB0FC9BF92E741B99730083C06
:10B8600015A82ABE00000000E14B2DE9F04103F6C7
:10B870003863E04ED3ED000A96F8B842F8EE600A5D
:10B880002DED028BC6EDAD0A002C6FD1DFF8C4C3DD
