:020000040800F2
:10000000F0FF00100D110708E1F70008D9100508EE
:10001000AD110708AD110708AD1107080000000079
:10002000000000000000000000000000DDF70008F4
:10003000D9F7000800000000D5F700088D11050869
:10004000AD110708AD110708AD110708AD1107087C
:10005000AD110708AD1107085D4A0508254A0508D6
:10006000ED490508B54905087D4905089DC2060802
:100070008DC206087DC206086DC2060859C2060870
:1000800045C2060831C20608AD110708AD110708C0
:10009000AD110708AD110708AD110708454905085E
:1000A0006DA30408EDA304085DA3040811A40408CB
:1000B000E1A30408D1A30408C1A30408C1000708F0
:1000C000C9000708B5000708BD000708AD110708FB
:1000D000AD110708DD15050821150508651405088B
:1000E0000D490508AD110708991001084DA3040832
:1000F0007DA304083DA30408A1A304081DC20608AB
:10010000AD1107083D9F0608B1A30408AD1107080B
:10011000A9130508ED120508B9190408A519040862
:1001200009C20608F5C10608E1C10608CDC10608E6
:10013000B9C10608AD110708AD110708AD110708D0
:10014000AD110708AD110708AD11070861F10008EE
:10015000A5C1060891C106087DC10608311205082F
:10016000A9000708B1000708AD110708AD1107087D
:10017000AD110708AD110708AD110708AD1107084B
:08018000AD110708AD110708DD
:0828000000C00F0800001008E1
:10800000F0B401292A4C2B4D23684FF0000694BF91
:1080100000270127EE626662A6626763676B47EA24
:1080200042076763EE63EC6B002A38D144F4957421
:10803000EC631C6824F001041C601C68E407FCD499
:10804000490289085960D8601968EAB921F04001ED
:10805000196019498B421DD018494FF47410C8603B
:10806000196841F01E011960596941F08001596198
:10807000196841F00101196022B90E4AD36A43F030
:108080000803D362F0BC704741F0400119600A490F
:108090008B42E1D14FF0746041F8500CE0E744F0BE
:1080A0001A04EC63EC6A44F00804EC62C1E700BF18
:1080B000381C0020002C014058640240006402403B
:1080C0001148002302461178032902F1060216D056
:1080D0000133062BF7D10D4AD36D052B0ED0591C59
:1080E00003EB4303D16500EB4303032040F2EB3184
:1080F00040F2FF32187059809A807047704703EB46
:10810000430300EB4303F0E7701C0020381C002001
:10811000826D136A5B681B78FF2B08D090F8F030F3
:10812000013BDBB280F8F0301BB10120704700202A
:108130007047126A526802201370704770B4C30807
:108140000D4CE25C00F00706B24004EBD004D2B262
:108150000020C6F108038B4228BF0B46C3F1080577
:108160002A419840C91A40EA02004FF0000614F86C
:10817000012FEED170BC7047D81C0020084AD2E90C
:10818000553199420AD0D118013391F85C11017030
:10819000C3F30A03C2F8543101207047002070472E
:1081A000381C0020064AD2F85C39D2F86029934284
:1081B00094BF4FF400600020013B9B1A18447047A5
:1081C000381C0020012380F85130704707B501A802
:1081D000FFF7D4FF0028FAD09DF8040003B05DF843
:1081E00004FB044BD3E95503984288BF03F50063B1
:1081F000181A7047381C002001207047024BC3F842
:108200006429C3F868197047381C0020024BC3F872
:108210006C29C3F870197047381C002070477047EC
:1082200030B4134DD5E955239A4286BF03F5006457
:10823000A21A9A1A0A44B2F5006F13D8A9B10144E0
:108240004A1E013810F8014FE918824203F1010378
:1082500081F85C41C3F30A03F4D1C5F8583100201A
:1082600030BC7047022030BC70470846F8E700BFBA
:10827000381C0020F8B51A4C94F87439002BFBD147
:1082800059B301444E1E451ED4F86029D4F85C1938
:1082900015F8017F531CC3F30A038B422CBF4FF424
:1082A00000600020C91A22440144012982F878792B
:1082B000C4F860390FD1012048F06AFED4F85C3967
:1082C000D4F860198B4294BF4FF4006200225B1A0D
:1082D0001344012BEFD0B542D6D10020F8BD00BF2A
:1082E000381C002010B5094CD4F8803008461146DF
:1082F0005BB1D4F88030052B07D1002AD4F8843044
:1083000003DDFFF7B7FFD4F8843010BD302D002017
:1083100010B590F85010002380F8503081B10B4C0C
:10832000D4F8802072B1D4F88020052A0CD13C30DA
:10833000D4F88430FFF79EFFD4F88430012010BDBC
:108340000120FCE71046FAE71846F8E7302D002038
:10835000002280F85120DBE790F85020531C0244A3
:10836000DBB280F8503082F83C1090F851200AB10E
:10837000132B00D9CCE77047212838B50C4605D01F
:1083800022282FD0202813D0002038BD0029FBD070
:10839000072AF9D11A4BD3F8880093F88C1093F878
:1083A0008D2093F88E30206021716271A371EBE70C
:1083B0000029E9D0072AE7D1124AD2F868391BB15F
:1083C000D2F86409096898470D4B256820796179CE
:1083D000A279C3F8885083F88C0083F88D1083F855
:1083E0008E20D1E70029CFD0022ACDD1054AD2F87C
:1083F0007039002BC8D00988D2F86C099847C3E7B8
:10840000302D0020381C0020024B0020C3F88000D3
:10841000704700BF302D0020054B064A0020052183
:10842000C2F88010C3F87009C3F86809704700BF2C
:10843000381C0020302D0020704700BF704700BF5F
:10844000704700BF704700BF704700BF704700BF54
:10845000704700BF042301480B807047880100204B
:1084600010B4074A074B92F89000122403F114024B
:108470000C8001280CBF184610465DF8044B70476D
:10848000302D00208C01002000487047C01C0020C7
:1084900000487047C01C0020034B93F88400032859
:1084A00094BF002001207047381C0020034B93F834
:1084B0008400032894BF002001207047381C00204E
:1084C000034B93F88400003818BF0120704700BFA9
:1084D000381C0020A0B182680D4B12B107229A709F
:1084E00070471978DA6003294FF004000CBF80212F
:1084F0004FF48071C3E901111A611A7598707047C1
:10850000034B41F2E47101225A545A70704700BF84
:10851000D49D00200378022B10D0006908B90120F7
:1085200070470C4B1B78032B0EBF0B4B80B24FF6E2
:10853000F773984294BF00200120704705494368B3
:1085400041F650028A58B3EB422F2CBF0120002085
:10855000704700BFD49D0020F7FFFF0F0378022B68
:1085600014D030B4104A4368006941F6480402F55B
:10857000C2511559096841F63C042B4012595B0A57
:10858000023801FB0030104430BC7047064B426893
:1085900041F6340141F630005958185800EB4100BB
:1085A00000EB5220704700BFD49D0020836D1B6AF2
:1085B0005B681B78FF2B0AD190F8F030002B03F199
:1085C000FF3380F8F03014BF0120022070470020F4
:1085D000704700BF2DE9F84F494B98420ED003F584
:1085E0006853083398424ED0464B0020C3E9400000
:1085F000A3F8FC00A3F80801BDE8F88F414C424FF6
:10860000DFF810810223C4F8943004F198060025A5
:10861000FB6AAB42294605F1010503D0D4F81801E5
:1086200056F020FE94F81C31D4F8182186F8243036
:1086300032623046414657F029F8D4F894309D42D2
:1086400006F13006E4DB002384F80A31D4E928037C
:10865000D4F89410B4F89C20B4F8A850C4F8283189
:1086600012FB01F203FB01F3A4F8FC20B4F89E1006
:10867000264AA4F80851C4E94003A4F8FE10C4F83F
:10868000F8200120B8E71F4C1F4F0223C4F8943094
:1086900004F198054FF0000B4FF4806A4FF0400949
:1086A0004FF40068FA6A01265A455946B34403D08C
:1086B000D4F8180156F0D6FDD4F8181194F81C21FE
:1086C000296285F824204FF400314FF00062C5E99B
:1086D0000212A5F804A0A5F81090A5F80680AE74C3
:1086E000FFF7EEFC28466E7656F01CFFD4F8942077
:1086F000074B45F8303B9345D4DB84F80A61A5E786
:108700001971EF00302D0020880100206C39070816
:10871000403907081940EF002DE9F04FD84DDFF838
:108720009083DFF89CA307460E4693460FCD444640
:108730002DED068B0FC40FCD0FC495E8070089B04F
:108740009AF82E31CDF808B084E80700CDE9047618
:10875000042B00F26781DFE813F0D20165016001AC
:108760000500E2019FEDC78ADFEDC78AC749C8F857
:108770001C10C749C74BC84AC8F8181002990029ED
:1087800018BF134638EE887AF5EE006A86EE87AA9F
:10879000C24EDFF830B3C8F824300025DFEDC07AD0
:1087A0009FEDC09A28EE278AF0EE679A059BAB42B0
:1087B00000F02D811BF8013B0AEB030292F83341D4
:1087C000002C00F03481DFF800C3002202E0152AFB
:1087D00000F02D8102EB420157001CF80100A0427D
:1087E00002F10102F3D1514491F85111002900F036
:1087F00084812046039342F01BF9039B814648463F
:10880000039342F035F90178002940F01081039B71
:1088100057440133DBB2032287F8913187F8902166
:10882000B9F1000F00F003812709013F052F04F083
:108830000F0000F24D819C4C04EB4701B1F884C05D
:108840004CFA00F111F0010100F04281012101FA1E
:1088500000F0013800EA0C002744039368F088FA1E
:1088600097F89070DFF864C2039B38440CEBC007A4
:108870000322FB71BA715CF83000776100F13F436D
:1088800003F57E0304EB9324012194F8983099F8C2
:10889000082003F01F045B09032B01FA04F100F028
:1088A0001D81042B00F02481022B00F01C81BB8869
:1088B0000693B3FA83F3C3F11F03C3F3CC0100EBB8
:1088C000810103F007030C6A9B000F279F4024EAF5
:1088D00007040C620C6A02FA03F323430B620223BF
:1088E00006A907930CF0CCFD029B002B00F0AE8094
:1088F000BAF82C3100EE103AB8EEC00AFCEEC07A9D
:1089000017EE901AD9F80030684A934200F09B8025
:10891000A2F58062934200F0968002F58042934275
:1089200000F0918002F58062934200F08C8002F5A5
:108930008062934200F08780DAF8BC2450084FF63A
:10894000FF73B0FBF1F21A44120CB0FBF2F2029882
:10895000002800F08480B2FBF1F19AF82E0104287F
:108960008BB200F0828007EE902AF8EE676A66EE1E
:10897000887A29EE677A9AF82F0104990091A8EE77
:10898000A67A019049463046C6ED027A86ED037A12
:1089900038F0FAFC002D40F39D807368D8F8382039
:1089A000934200F09980012D00F09480D8F8502077
:1089B000934200F09180022D00F08C80D8F868205E
:1089C000934200F08980032D00F08480D8F8802045
:1089D000934200F08180042D7CD0D8F898209342F7
:1089E0007AD0052D76D0D8F8B020934274D0062DD9
:1089F00070D0D8F8C820D31A18BF0123013501223E
:108A0000082D3374727406F118067FF4CFAE28482F
:108A100009B0BDEC068BBDE8F08F9FED268AF0EE25
:108A2000488AA3E69FED248AF0EE488A9EE6234A10
:108A3000194BC8F81C200020C8F8243009B0BDEC40
:108A4000068BBDE8F08FDAF8BC0478E7B0EE4A0A8E
:108A500069F092FBFCEEC07A17EE901A52E79AF892
:108A60002E01042819467FF47EAF07EE901A07EE18
:108A7000102AF8EE677AF8EE476A67EEA97A78E787
:108A800098390708ACC5A737ACC5A73621CF03086E
:108A9000B11A0508B5C90308A51A05083C0000105D
:108AA0006F12833A00007A444039070800040140FD
:108AB00008000010282930386F120339ADCC0308A4
:108AC000302D00206E2E0020802E0020EC2E002065
:108AD000716109E7012391E700238FE7114B1C6CBB
:108AE00021431964E3E60F4B5C6C21435964DEE6D5
:108AF0000C4B1C6B21431963D9E689467FE69FED39
:108B00000A8A0A4BC8F818300023094A0493012343
:108B10000293C8F81C20074BF0EE488A32E69FED1E
:108B2000068AEEE7003802406F12833AB11A050850
:108B300021CF0308A51A050800000000F8B5104E63
:108B4000D6F8BC44054600680F4664080CF09CFB50
:108B5000B4FBF7F1B1F5803F03D3012CFAD96408D7
:108B6000F6E72246284689B241F016FD054BC6F8C5
:108B7000243D28460449BDE8F840002241F050BC9D
:108B8000302D002031340208543A002010B5044C36
:108B900004480A4621460BF0B9F9204610BD00BF33
:108BA0005C3A002098D2070810B5044C04480A46E5
:108BB00021460BF0ABF9204610BD00BF5C3A002007
:108BC000A8D2070810B5044C04480A4621460BF009
:108BD0009DF9204610BD00BF5C3A0020B4D20708C2
:108BE00010B5044C04480A4621460BF08FF9204684
:108BF00010BD00BF5C3A0020C0D2070810B5044C7D
:108C000004480A4621460BF081F9204610BD00BFFA
:108C10005C3A0020CCD2070810B50D4C94F85221D4
:108C20000023C4F8803012B10A4AC2F82C3E61F029
:108C3000E5F920B10423022084F8843010BD054BEF
:108C4000D3F884306367092384F8843010BD00BFF3
:108C5000381C0020302D002070B50D4D95F8843063
:108C6000042B04460E460AD0082B06D1EB6F834234
:108C70000CD0FFF7D1FF022801D0012070BD0823DE
:108C8000C5E91F4685F88430022070BD022070BD02
:108C9000381C002070B50379234C002B14BF01232E
:108CA000002384F8B03003D1002384F8843070BDF1
:108CB0001E4D002195F9332E03204AF0CFFF0028E6
:108CC000F2D0466830464AF0B7FF84F851010028D8
:108CD000EAD095F8313E003B18BF0123304684F8B6
:108CE000523162F019F90BF0BFF838B994F87830C6
:108CF00084F88400013384F8783070BD61F068FA3C
:108D000040B194F878300022013384F8783084F848
:108D1000842070BDD5F884306367012384F878001F
:108D200084F8843070BD00BF381C0020302D002036
:108D300010B561F04DFA58B10C4C94F8783001330D
:108D4000DBB2072B84F8783003D9002384F8843011
:108D500010BD0BF089F80028F7D0054A0123D2F89E
:108D60008420626784F8843010BD00BF381C002066
:108D7000302D00202DE9F041884C94F8B050002DA2
:108D800000F0FA8094F88420854E0227531E082BA9
:108D900041D8DFE803F03739A0406A51154005009B
:108DA00061F02CF9002840F0EE80636FD6F8842043
:108DB000FA3393422CD2FFF7BBFF94F88420E5E707
:108DC00061F01CF90028F0D0D4F880300022012B8B
:108DD00084F8782040F2DB80E16F94F85201013B87
:108DE0000131C4E91F1310B16D4BC3F82C2E0822BA
:108DF00084F88420A2F10805B5FA85F56D092846A6
:108E0000BDE8F08184F8847061F0F8F8002843D15F
:108E100094F88420531EDBB2022B0AD8604B616F9A
:108E2000D3F884305B1AC82BE4D9FFF781FF94F89C
:108E30008420042ADED1E2E7236B002BDAD1584BE1
:108E4000E66ED3F884306367072284F88420002E0E
:108E5000D0D0D4E91821236F0120B047D8E7636F41
:108E6000D6F8841064338B42C4D2D4F82C80B8F185
:108E7000000FF4D161F0C2F800289ED0E66E84F8AD
:108E80007880042384F88430002E7AD0D4E9182125
:108E9000236F4046B047BBE760F056FD0028B7D1CE
:108EA00096F8353E002BA3F10203B3FA83F314BF07
:108EB000022201225B0984F8792084F87A3060F07C
:108EC00043FD00287FF477AF364A0323926CC4F841
:108ED000882084F8843060F037FD002898D1304B2A
:108EE000C4F8800093F8646EB3F8660ED3F868EEA9
:108EF000D3F868CED3F8687ED3F8682E84F88E60F5
:108F000093F86C1EA4F88C0093F86D6E84F8922090
:108F100093F86D0ED3F8702EC4F89420B3F8768EC3
:108F2000B3F8762E84F89310B3F8761EC2F30B13C1
:108F300043EA182303F00F0301F00F024FEA1E6EFD
:108F40004FEA1C4C3F0A360900F00F0003F5FA63A4
:108F5000042184F8990084F88FE084F890C084F8A4
:108F6000917084F89860A4F89A3084F89C2084F872
:108F700084102846BDE8F08184F884502846BDE876
:108F8000F08105463BE7042384F8843037E7FAD1C3
:108F9000FFF742FE94F88420531E3CE7381C002063
:108FA000302D0020683B00202DE9F84FBA4C94F892
:108FB000901E0546C1F34001D4F8980E4BF05EFCBC
:108FC00094F8901ED4F8940EC94301F001014BF0BF
:108FD00055FC002D00F0CD806E1EB04FB04D5FFAF5
:108FE00086FB4FF01008D4F8980E4BF02BFCD4F809
:108FF000940E4BF027FCB4F8A03E002B40F04381C8
:1090000094F8A21ED4F8A40E4BF038FC4FF0FA09E5
:109010004FF47A704FF0010C7B68C3F30803002B08
:1090200040F00881EFF31183002B40F00381D4F866
:109030008420A968D4F884309A42F8D1D4F8C83E84
:109040009942F4D8D4F8C46E00FB06F35B1AB3FB64
:10905000F6F300FB02327B68C3F30803002B40F0F9
:10906000A880EFF31183002B40F0A380D4F8843064
:10907000D5F808A0D4F884108B42F7D1D4F8C81ED4
:109080008A45F3D8D4F8C46E00FB06F1A1EB0A01BF
:10909000B1FBF6F100FB03139B1AB3F57A7FDAD329
:1090A000B9F10109B8D1D4F8980E4BF0CBFBD4F844
:1090B000940E4BF0C7FBB4F8A03E002B40F0D780D5
:1090C00094F8A21ED4F8A40E81F001014BF0D6FB57
:1090D0004FF0FA0C4FF47A704FF0010E7B68C3F337
:1090E0000803002B40F08680EFF31183002B40F043
:1090F0008180D4F88420A968D4F884309A42F8D1C9
:10910000D4F8C83E9942F4D8D4F8C49E00FB09F3C1
:109110005B1AB3FBF9F300FB02327B68C3F308036D
:109120004BBBEFF3118333BBD4F88430D5F808A0E0
:10913000D4F884108B42F7D1D4F8C81E8A45F3D8EE
:10914000D4F8C49E00FB09F1A1EB0A01B1FBF9F1CF
:1091500000FB03139B1AB3F57A7FDED3BCF1010C3D
:10916000BCD10BF1FF365FFA86FBBBF1FF0F7FF43A
:109170003AAFBDE8F88FEFF3118988F31288AE6833
:109180002B68DB0344BFC4F8C0EEAE68D4F884306B
:10919000D4F8C01E5FFA89F989F31188D4F8C49E07
:1091A0000B4400FB09F1891BB1FBF9F100FB031330
:1091B000D0E7EFF3118E88F31288D5F808A02B685A
:1091C000D90344BFC4F8C0CED5F808A0D4F8843081
:1091D000D4F8C01E5FFA8EFE8EF31188D4F8C46EE8
:1091E0000B4400FB06F1A1EB0A01B1FBF6F100FB19
:1091F000031351E7EFF3118188F31288D5F8089033
:109200002B68DA0344BFC4F8C0EED5F80890D4F850
:109210008430D4F8C02EC9B281F31188D4F8C41EAA
:109220001A4400FB01F3A3EB0903B3FBF1F300FBCA
:10923000023272E7EFF3118188F31288AE682B686F
:10924000DB0344BFC4F8C0CEAE68D4F88430D4F891
:10925000C02EC9B281F31188D4F8C41E1A4400FB91
:1092600001F39B1BB3FBF1F300FB0232F3E6D4F8EE
:10927000BC3E002B3FF42CAFD4F8A83EC3F80090BE
:1092800084F8B99E24E7D4F8BC3E002B3FF4BEAE70
:1092900047F09CFFBAE600BF302D002000ED00E053
:1092A00010E000E02DE9F84FB74CB84F94F8901E4D
:1092B000D4F8980EB64DC1F340014BF0DFFA94F8A4
:1092C000901ED4F8940EC94301F001014BF0D6FA78
:1092D0004FF0050B4FF01008D4F8980E4BF0B2FA8F
:1092E000D4F8940E4BF0AEFAB4F8A03E002B40F048
:1092F000438194F8A21ED4F8A40E4BF0BFFA322694
:109300004FF47A704FF0010C7B68C3F30803002B15
:1093100040F00781EFF31183002B40F00281D4F875
:109320008420A968D4F884309A42F8D1D4F8C83E91
:109330009942F4D8D4F8C4EE00FB0EF35B1AB3FBE9
:10934000FEF300FB02327B68C3F30803002B40F0FE
:10935000A780EFF31183002B40F0A280D4F8843073
:10936000D5F808A0D4F884108B42F7D1D4F8C81EE1
:109370008A45F3D8D4F8C4EE00FB0EF1A1EB0A0144
:10938000B1FBFEF100FB03139B1AB3F57A7FDAD32E
:10939000013EB9D1D4F8980E4BF054FAD4F8940E9B
:1093A0004BF050FAB4F8A03E002B40F0DA8094F86D
:1093B000A21ED4F8A40E81F001014BF05FFA4FF029
:1093C000320C4FF47A7001267B68C3F30803002B3C
:1093D00040F08780EFF31183002B40F08280D4F8B7
:1093E0008420A968D4F884309A42F8D1D4F8C83ED1
:1093F0009942F4D8D4F8C49E00FB09F35B1AB3FB7E
:10940000F9F300FB02327B68C3F308033BBBEFF3C5
:10941000118323BBD4F88430D5F808A0D4F8841085
:109420008B42F7D1D4F8C81E8A45F3D8D4F8C49E2D
:1094300000FB09F1A1EB0A01B1FBF9F100FB0313F9
:109440009B1AB3F57A7FDED3BCF1010CBCD10BF1D2
:10945000FF3616F0FF0B7FF43FAFBDE8F88FEFF358
:10946000118988F31288D5F808A02B68DB0344BF64
:10947000C4F8C06ED5F808A0D4F88430D4F8C01E63
:109480005FFA89F989F31188D4F8C49E0B4400FB74
:1094900009F1A1EB0A01B1FBF9F100FB0313CFE7DE
:1094A000EFF3118E88F31288D5F808A02B68D90342
:1094B00044BFC4F8C0CED5F808A0D4F88430D4F89E
:1094C000C01E5FFA8EFE8EF31188D4F8C4EE0B44F2
:1094D00000FB0EF1A1EB0A01B1FBFEF100FB03134F
:1094E00052E7EFF3118188F31288D5F808902B68C2
:1094F000DA0344BFC4F8C06ED5F80890D4F88430BD
:10950000D4F8C02EC9B281F31188D4F8C41E1A440D
:1095100000FB01F3A3EB0903B3FBF1F300FB023201
:1095200071E7EFF3118188F31288D5F808E02B6812
:10953000DB0344BFC4F8C0CED5F808E0D4F88430CB
:10954000D4F8C02EC9B281F31188D4F8C41E1A44CD
:1095500000FB01F3A3EB0E03B3FBF1F300FB0232BC
:10956000F1E6D4F8BC3E002B3FF429AFD4F8A83E76
:109570001E6084F8B96E22E7D4F8BC3E002B3FF49D
:10958000BEAE47F023FEBAE6302D002000ED00E02D
:1095900010E000E000F01F0240090123032803FA55
:1095A00002F304D004280CD0022805D07047074AE3
:1095B000116C0B4313647047044A516C0B435364A2
:1095C0007047024A116B0B43136370470038024027
:1095D00000285FD00368374A2DE9F04103F13F448A
:1095E00004F57E0402EB9422012492F8982002F004
:1095F0001F055209032A04FA05F456D0042A4FD055
:10960000022A48D08588B5FA85F0C0F11F00C0F362
:10961000CC0603EB860600F0070082000F24306AB8
:10962000944020EA04003062306A01FA02F20243F8
:10963000002132624FF0010E0A464FF0030C022760
:109640000EFA02F838EA050002F101021CD118688E
:109650000CFA01F420EA04001860186807FA01F611
:1096600006431E609E6826EA04069E60986898601D
:10967000586820EA0800586058685860D86820EA9E
:109680000400D860D868D860102A01F10201D7D14F
:10969000BDE8F0817047084A556C2C435464B1E72B
:1096A000054A156B2C431463ACE7034A156C2C4335
:1096B0001464A7E7403907080038024058B183888E
:1096C0004FF00042B3FA83F332FA03F303D00249B6
:1096D0000A6813430B607047003C0140134B02685B
:1096E000196821EA02011960596821EA02015960EA
:1096F00019680A431A609968026821EA02019960B0
:10970000D96821EA0201D9604179102907D001F115
:10971000804303F59E3319680A431A6070479968BD
:1097200011439960D9680A43DA607047003C0140F0
:10973000002861D0F0B58388B3FA83F3202B0A4662
:1097400085B00446C3F11F0141D02C4D2C4E05EBD2
:1097500081030E44C3F8CC2E002196F8A0604AF095
:10976000BDFBA7882268274CB7FA87F7C7F11F030C
:1097700003F0FC0101F1804101F59C3103F003038A
:1097800098004FF00F0C02F13F438A680CFA00FC7E
:1097900022EA0C0203F57E038A60C3F38723834029
:1097A00088684FF00042FA40034335448B6002A8BA
:1097B000626101234FF400618DF80E300292ADF822
:1097C0000C10FFF78BFF95F80C3FF02B01D805B07C
:1097D000F0BD0D4B9B5D8DF80430F02103224FF45A
:1097E000807301A885F80C1F8DF80520ADF80630B0
:1097F0000BF002FD05B0F0BD704700BF302D00201A
:1098000040390708003C01404CD30708034BD3F80C
:10981000B820136A002BFCD1704700BF381C002011
:1098200030B5134A134B8DB0082102F1B80082F80D
:1098300050110693694400230DF107050124CDE979
:10984000073302938DF8143009938DF828300B9369
:10985000CDE903544BF0EEFBFFF7D8FF9DF807006E
:10986000A0F1FF00B0FA80F040090DB030BD00BF9C
:10987000381C002011810008F0B50379284C002B1A
:1098800014BF012200228BB084F8B02003D184F8E9
:1098900084300BB0F0BD054604F1B80795F900100F
:1098A00038464BF03BFDAD786DBB1E4B1E48C4F8EF
:1098B0004C310126C4F8C05084F8C4604BF064FDFC
:1098C00003464FF47A70A4F8BC3047F061FBD4F83B
:1098D000C0004AF0CDFF28226846002169F0DFFF72
:1098E0000A236946384602934BF0A4FBFFF78EFF2C
:1098F0000E4B84F88460D3F884306367002384F8C7
:1099000078300BB0F0BD28464AF0C4FC054608B1DB
:109910001E23C380092128464AF06AFFC5E700BF1D
:10992000381C0020981C0020801A0600302D0020D2
:1099300030B593B040F040020B0E0D0C04468DF88C
:109940000810080A8DF80420952101AA8DF8053029
:109950008DF80650002306258DF807008DF80910B4
:109960000DF1030001210392134A0493CDE907335B
:10997000CDE90D33CDE909018DF818308DF82C3083
:109980000F938DF84030119305950C92FFF748FF27
:1099900000B974B9094B082203F1B80003A983F890
:1099A00050214BF047FBFFF731FF9DF8030013B048
:1099B00030BDFF2013B030BDAD850008381C00203D
:1099C00030B5104A104B8DB0014682F8501102F1AB
:1099D000B800069302A900230DF107050124CDE983
:1099E000073302938DF8143009938DF828300B93C8
:1099F000CDE903544BF01EFBFFF708FF9DF807006D
:109A00000DB030BD381C0020AD85000870B51C4D70
:109A100090B00024FD220DF1030305F1B8000126EA
:109A200001A98DF803200693CDE90144CDE90A444C
:109A3000CDE90C44C5F880408DF81040059407949A
:109A40008DF824408DF838400F94039608964BF01B
:109A5000F1FAFFF7DBFE3046FFF7B2FFFF2809D02F
:109A6000084BD3F884306B672046092385F884308F
:109A700010B070BD0423022085F8843010B070BD92
:109A8000381C0020302D00202DE9F8431A4C94F8A2
:109A90008460042E0546894690461F4608D0082E4D
:109AA00002D00020BDE8F883FFF7B0FF0228F8D10C
:109AB000D4F8C0004AF0D6FE94F87A309BB9690217
:109AC0001120FFF735FFA0B90C4BC4F86090D3F814
:109AD000842065660523C4E91B87626784F88430A7
:109AE0000120BDE8F88329461120FFF721FF002857
:109AF000EAD00AF095F9D4E7381C0020302D002078
:109B000070B51E4C94F88430042B06460D4608D0E0
:109B1000082B22D1E36F83422DD0FFF777FF022875
:109B20001BD1D4F8C0004AF09DFE00213720FFF77A
:109B3000FFFE29461720FFF7FBFEB0B994F87A30F4
:109B40006BB971021920FFF7F3FE70B90823C4E95D
:109B50001F6584F88430022070BD012070BD31463D
:109B60001920FFF7E5FE0028F0D00AF059F90AF0B5
:109B70008DF9032070BD022070BD00BF381C00208D
:109B80002DE9F0412D4C0546884617461E4694F8AF
:109B90008400042836D0082806D1E36FAB4206D0F3
:109BA000FFF734FF0228F2D00120BDE8F0814FF02A
:109BB000FC0CD4F8B8202248117B224B80F813CF3C
:109BC000C3F8588051B1526942B194F84021002A3B
:109BD0000CBF4FF480724FF4007201E04FF48072BA
:109BE0001A66194919484BF025FA01220623C4E9DF
:109BF0001885C4E91B7684F8682084F88430002036
:109C0000BDE8F081D4F8C0004AF02CFE94F87A3018
:109C10005BB969021820FFF78BFE40B994F88430D5
:109C2000082BC4D04FF0FE0CC3E72946F2E70AF038
:109C3000F7F80AF02BF90320B7E700BF381C002023
:109C4000302D002088010020B8010020F01C0020E9
:109C500070B5064690B008200D46FFF7B1FEFF280C
:109C600021D0FE2802D0022010B070BD00240223B3
:109C70000E48089301A9CDE90265CDE90544CDE977
:109C80000A44CDE90C4401948DF8104007948DF8F6
:109C900024408DF838400F944BF0CCF9FFF7B6FD17
:109CA000204610B070BD012010B070BDF01C002027
:109CB0002DE9F04FD14C94F8B06095B0002E00F033
:109CC000978194F88420CE4F04F1B80804F1A009DC
:109CD000531E082B00F2A180DFE813F0370060006C
:109CE0002F019F008E00B1001A009F000900FFF7AE
:109CF00097FD002840F03982636FD7F88420FA334B
:109D0000934280F087800AF0C1F894F88420DFE75E
:109D1000FFF786FD0028EFD0D4F880300022012B19
:109D200084F8782040F23782E26F013B511CC4E98D
:109D30001F13082284F88420A2F10806B6FA86F6DA
:109D40007609304615B0BDE8F08FD4F8C0004AF06F
:109D500089FD00210846FFF7EBFD05460AF060F893
:109D6000012D57D1D4F8C0004FF0000A84F879A033
:109D70004AF078FD40F2AB110820FFF7D9FD052825
:109D800000F08F81012800F056810AF049F894F81C
:109D90007920002ACED0022384F88430D4F8C00081
:109DA0004AF060FD94F87930022B0CBF4FF08045EB
:109DB000002500213720FFF7BBFD29462920FFF7AA
:109DC000B7FD05460AF02CF825BB94F87930022B34
:109DD00000F07C8184F87A50D4F8C0004AF042FD4B
:109DE00000210920FFF7A4FD002875D00AF018F81B
:109DF00094F88420531E10E0206E4FF40071FFF79A
:109E000027FF012800F03581022800F03981002861
:109E100000F04A8194F88420531EDBB2022B0AD84A
:109E2000774B616FD3F884305B1AC82B84D90AF062
:109E30002DF894F88420042A7FF47EAF81E7D4F8CB
:109E4000B820117B136A002900F0DE805269002AD5
:109E500000F0DA8094F84021002A00F0D580B3FAAF
:109E600083F35B09002BD5D004A900250DF10F0366
:109E700002220591404605A94FF0010ACDE90B3AAF
:109E80000792CDE90955CDE90E55CDE91055ADF84C
:109E9000105006958DF820508DF834508DF84850AC
:109EA00013954BF0C7F8FFF7B1FC9DF80F3003F0A6
:109EB0001F03052B00F0628109F0E8FFD4F86CB0B5
:109EC000BBF1000F00F0EA802A46236F616E504616
:109ED000D84794F88420FBE610214846FFF7B8FEE7
:109EE0008246002882D101217F20FEF727F9012830
:109EF00005467FF47BAF50460221FEF71FF900288C
:109F000000F0148101287FF471AF16213A20FEF78A
:109F100015F901308002C4F8880009F081FFD4F8F7
:109F2000C0004AF09FFC00210A20FFF701FD002835
:109F300040F0F580032384F88430102105A8FFF752
:109F400087FE00287FF466AF9DF821309DF822102F
:109F50009DF81C209DF815009DF816501B01DBB2E2
:109F600043EA111303F5FA63A4F89A30DDF81D30C3
:109F700001F00F0184F89C101BBA110902F00F02C6
:109F800045EA002084F8981084F899209DF8141070
:109F90009DF81720C4F89430069BC4F89030A4F8BC
:109FA0008C0084F88E1084F88F2009F039FF94F823
:109FB0007A3073B9D4F8C0004AF054FC4FF4007101
:109FC0001020FFF7B5FC054609F02AFF002D7FF4AD
:109FD0009AAE0C484BF0D8F900220423A4F8BC0038
:109FE0003046C4F8802084F8843015B0BDE8F08F86
:109FF000304684F8846015B0BDE8F08F381C00202E
:10A00000302D002040787D01236E94F868106A4856
:10A0100003EB012100224FF480734BF0C7FB94F84F
:10A0200068300133DBB284F86830A3F10203B3FA7D
:10A0300083F35B0916E7042304AA5F48079305A985
:10A040000692CDE909AACDE90BAACDF814A08DF8A6
:10A0500020A08DF834A0CDF838A04AF0EBFFFFF730
:10A06000D5FB9DF81330AB2B04BF022384F8793065
:10A070008BE6636FD7F8842064339342BFF4CAAE93
:10A0800009F0CEFE09F002FFE56E3DB10022104658
:10A09000236F616EA84794F8842019E694F8842011
:10A0A00016E684F8795070E6019009F0B9FEE56E85
:10A0B000019884F87800042384F88430002D3FF45C
:10A0C00040AED4E91821236FA847A3E6D4F8C00016
:10A0D0004AF0C8FB29463A20FFF72AFC04AA824628
:10A0E000042305A9404606920793CDE90955CDE919
:10A0F0000B5505958DF820508DF834500E954AF08B
:10A1000099FFFFF783FBBAF1000F08D109F088FE31
:10A11000049B1BBAC3F3807384F87A305CE609F0C1
:10A120007FFE09F0B3FE94F88420D1E504212C20B1
:10A13000FEF704F8032182464E20FDF7FFFF0C21B5
:10A1400083463620FDF7FAFF0BF1020B421C02FAA0
:10A150000BF205FA0AF5A2FB0501420A42EAC152D6
:10A16000C4F8882009F05CFED9E6019009F058FE99
:10A1700001980423064684F88430E2E50F4BE56E2F
:10A18000D3F884306367072284F88420002D3FF4DD
:10A19000D3AD504695E708D0042384F8843009F005
:10A1A0003FFE94F88420531E37E6FFF72FFC022869
:10A1B0007FF430AE1AE600BFF01C0020302D0020E6
:10A1C00010B4B8B10D4CD4F8143F102B05D15DF884
:10A1D000044B0521002040F0D5BF03EB430222448D
:10A1E00082F8191F01210B4482F8180F82F81A1FF8
:10A1F000C4F8143F5DF8044B704700BF302D0020B9
:10A2000080782021DCE700BF2DE9F04FDFF8ACA318
:10A210002DED028B9AF85C1F002297B0CAF84C2FE4
:10A22000CAF8502FCAF8542FCAF8582FCAF8482F26
:10A2300019B19AF85D2F8AF8482F9AF85E2F1AB153
:10A240009AF85F2F8AF8572F9AF8622F1AB19AF866
:10A25000632F8AF8522F9AF8602F1AB19AF8612F5B
:10A260008AF84D2F9AF8643F05935A1ED3B257B21D
:10A2700003937B1C00F0AA80C54AC64E52F8379063
:10A28000029602EBC70200231279019308EE102A0E
:10A290001D46344698462678394630464BF0FEFE39
:10A2A00083463046BBF1000F1ED049F0F3FFEA1D94
:10A2B0001321D2B220B14FF0000E827180F807E076
:10A2C0004AF096FA20784BF01BFF4FF0070308F195
:10A2D000010223714FF0010384F802806070CDF811
:10A2E00004B05FFA82F8E3700135042D04F105042F
:10A2F000D1D118EE100A029ECDF81080FFF74AF96E
:10A30000A549A64A4868024042F440324A600FB963
:10A31000019B5BB9A24C4820FFF73CF92046022183
:10A3200065F0E4FEA26842F00102A2609A489C4AED
:10A330004168BAF8664F41F400014160516821F468
:10A3400080515160916B21F4401141F4801191636F
:10A35000D16841F46001D160956B85F44011C1F37F
:10A36000015101EB81011F2000FA01FC25EA0C0CD0
:10A37000112505FA01F141EA0C019163D16841F41C
:10A38000E011D160956BC5F30151C1F10401C9B26F
:10A3900001EB810188404FF0100C25EA00000CFA17
:10A3A00001F108439063E4B1BAF8681FCAF8704F2E
:10A3B000A1B1BAF86A2FCAF8741F62B1019B79483B
:10A3C000521A90FBF2F2CAF8782F6BB917B0BDECB5
:10A3D000028BBDE8F08F744A1288EFE7734A118848
:10A3E000E7E7734A1488DFE74846049965F07EFE84
:10A3F000684B012003F114080723F278441CE4B2EF
:10A4000052B375783279A5F10A0101EB410105EBF0
:10A41000450C092D03FA01FE03FA0CFB02FA01F1C7
:10A4200040F2A080D9F80C2022EA0E0E41EA0E017B
:10A43000C9F80C10421E02EB82021F21062801FA05
:10A4400002FC05FA02F273D8D9F8341021EA0C01A3
:10A450000A432046C9F834200536B045CDD1D9F895
:10A460000820039942F40072C9F80820D9F808209E
:10A4700042F48072C9F80820D9F80820574442F005
:10A480000102C9F8082097F96C2F022049F0E6FB79
:10A49000044600289AD04668304649F0CDFB454A2C
:10A4A000431E242101FB032393F89C50002D8DD1E2
:10A4B000059983F89D10062283F89C20002885D0FA
:10A4C000304649F0B9FB60F053FC60680AF0FEFDCD
:10A4D00007A80AF0BDFD049EA26837480792012E26
:10A4E0008CBF4FF4806300230D9309F14C034FF4AC
:10A4F0008072CDE90A56089309904FF400336068E2
:10A500000C9507A94FF400674FF40056CDE91023CE
:10A51000CDE90E760AF0AEFD6268136843F00103E0
:10A520001360D9F8083043F08043C9F808304DE78C
:10A53000C11FA0F10D0201EB81014FF01F0E02EBD4
:10A5400082020C280EFA01FC0EFA02F005FA01F163
:10A5500013D8D9F8302022EA0C0211432046C9F85A
:10A56000301079E7D9F8101002FA0CF221EA0B0B3F
:10A5700042EA0B02C9F810205CE7D9F82C1005FA62
:10A5800002F221EA00010A432046C9F82C2063E7C1
:10A59000F0390708783C002000230140E030FCFF40
:10A5A00000200140803801002E7AFF1F2C7AFF1F07
:10A5B0002A7AFF1F88010020AC3C0020302D0020AB
:10A5C0002DE9F84F2E4F00EB800407EBC404D4F8BC
:10A5D000886F2EB1054694F89D0F00F0FF0820B15A
:10A5E0004FF000084046BDE8F88F89469A469346EA
:10A5F00046F0A2FC4FEA49010123C9B284F89E1F2C
:10A6000084F89FBF84F8A13F84F8A28F84F8A03F0C
:10A6100084F89D3F84F89C8FB288C4F8A4AF91055C
:10A620008146C4F8A8AF1DD43388DA0510D442F2AD
:10A630000F7405E046F080FCA0EB0903A34215DC93
:10A6400033889B05F6D433889BB243F48073338000
:10A65000B3889BB243F440734FF00108B380404687
:10A66000BDE8F88F98464046BDE8F88FB7F8FC3F44
:10A6700001339BB22846A7F8FC3F64F0A5FFB1E781
:10A68000302D002070B5474A474E92F8FE4F04EB3C
:10A69000440306EBC303650013F8F83C032B6ED8A4
:10A6A000DFE803F059291E02254406EBC50555F8DD
:10A6B000F40C002870D116F8983C9C425FD001340D
:10A6C00004F003018B4282F8FE1F58D001EB4104D5
:10A6D00006EBC404022344F8F40C04F8F83C70BD03
:10A6E0002B1906EBC30353F8F42C72B1013A43F86B
:10A6F000F42C002070BD2B1906EBC30353F8F42C87
:10A70000002AF3D1022203F8F82C254406EBC505F4
:10A7100015F8EC3C013BDBB205F8EC3C8BBB234B62
:10A7200016F8986CD3F8C01255F8F00C621C02F0C1
:10A7300003024B1E0324B242034405F8F84CB3FB5A
:10A74000F1F045F8F40C1AD0994218D8013845F8C0
:10A75000F40C012070BD4BF0D5F980B1134B2C44A3
:10A76000D3F8C02206EBC404012102F51C5304F8FF
:10A77000F81C0F33B3FBF2F344F8F43C70BD012036
:10A7800070BD0A4BD3F8C022012002F2E733B3FBBD
:10A79000F2F345F8F43C70BD013845F8F40C0020A4
:10A7A00070BD00BF302D0020283E00208801002011
:10A7B000054B13F8972C002AFBD1D3F8CC3A034968
:10A7C0001B6801F10C001847283E0020943D002032
:10A7D0002DE9F84F3249DFF8D4B091F8351E012445
:10A7E0000229074619461046CBF82C404FF00002CC
:10A7F0002C4C1D4618BF7F02FDF702FC2A4B6362FA
:10A800006B02A362E36A40F2FF5943F093034FF4F3
:10A8100000704FF48A62E3620121C4F83890A060AE
:10A820001020E2605FF0DCF9012D40F251434E460A
:10A83000C4F83890CA4640F252488EBF4FF0120911
:10A8400098464FF011090A25C4F838A00121A760E5
:10A850004846C4F80C805FF0C3F903464FF0000C83
:10A8600040F2774201213720A6632BB90023184616
:10A87000CBF82830BDE8F88FA663C4F808C0E260C2
:10A880005FF0AEF9013DA6630028EFD015F0FF059B
:10A89000DAD10346CBF82C50CBF82830BDE8F88F3E
:10A8A000302D0020002C014000E1F505381C00206F
:10A8B0002DE9F843DFF8748098F88450042D04469D
:10A8C000894617461E4608D0082D02D00020BDE854
:10A8D000F883FEF7A1F90228F8D101234A46204661
:10A8E0000021FFF775FF68B1FEF722FAD8F86C4037
:10A8F000002CEBD00022D8F87030D8F86410104645
:10A90000A047E3E7084BC8F86090D3F88420C8F864
:10A9100064400523C8E91B76C8F8742088F88430A1
:10A920000120BDE8F88300BF302D0020381C002036
:10A930002DE9F84F2F49DFF8C49091F8351E1E46D7
:10A9400002292D4B07464FF0010418BF4702012E84
:10A9500040F259481C6398BF4FF48B683B469346BE
:10A96000474640F2FF55B0468CBF4FF0190A4FF0F2
:10A97000180A0A241E4640F2FF53C9F83830012154
:10A98000C9F808605046C9F80C705FF029F9034611
:10A990004FF0000C40F2774201213720C9F83850BF
:10A9A000A3B9584641460122FDF72AFB4646134A01
:10A9B000134B536276029662D36A43F09103D362DB
:10A9C0000D4B002108469962BDE8F88FC9F8385050
:10A9D000C9F808C0C9F80C205FF002F9013CC9F8B9
:10A9E00038500028DDD014F0FF04C4D1024B1C63A2
:10A9F000BDE8F88F302D0020381C0020002C0140CD
:10AA000000E1F5052DE9F047374C82B005460E46CA
:10AA10001746984694F8840004280CD0082806D1DC
:10AA2000E36FAB4207D0FEF7F7F80228F2D001201F
:10AA300002B0BDE8F087DFF8B8A02666DAF82C9EF1
:10AA40006566C9F34F210F294FEA592223D8D4F85C
:10AA500080300193FBB194F85201E0B1B9F5005F89
:10AA600013D0224831464FF40072484468F0B6FED5
:10AA700009F50072C2F34F211029CAF82C2E4FEAB3
:10AA8000522202D0019B012B21D192B2013A174EE2
:10AA9000AD1A0B4600E00123324628460626012562
:10AAA0000021E766C4F8708084F8685084F88460F8
:10AAB000FFF73EFF0028BBD0FEF73AF9E66E86B1FD
:10AAC0002846236F616E0022B0470320B0E7E26F93
:10AAD000013B01320421C4E91F2384F884100220C1
:10AAE000A6E70320A4E700BF381C0020D46D002097
:10AAF000302D0020144A154BD2F8BC24B3EB920F32
:10AB000015D2B3EBD20F14D2B3EB121F13D2B3EBA7
:10AB1000521F12D2B3EB921F11D2B3EBD21F10D23D
:10AB2000B3EB122F34BF4FF48070802070470220A7
:10AB3000704704207047082070471020704720207D
:10AB400070474020704700BF302D0020809698004D
:10AB500003681A78012A01D00020704793F9043065
:10AB6000044A03EB830302EBC30393F89D0FC0B2C7
:10AB7000704700BF302D002010B50B4CD4F8D03AF0
:10AB80001B78022B0FD1D4F8D80A49F071FED4F803
:10AB9000D80A08B12123C380012149F029FEFFF71B
:10ABA000A9FFA4F8D40A10BD283E002030B583B018
:10ABB0000D46012301460DF10702044607484AF0FD
:10ABC000BDFE9DF8072035EA020304D003482A435E
:10ABD00021464AF043FF03B030BD00BFF8480020D3
:10ABE00038B505460A460C46064829464AF042FD55
:10ABF00045F0800103484AF0F1FB231A58425841BE
:10AC000038BD00BFF8480020F0B5394CD4F8D05A10
:10AC10002B78022B95B018D0012B02D0002015B054
:10AC2000F0BD95F904506B1CF8D0022DF6DC0091B4
:10AC3000134694F8D41A0246284664F067FE0028AA
:10AC4000ECD0284664F012FFE9E72B6A002BE5D12F
:10AC50000DF10F0C8DF80F00002601200027CDE923
:10AC60000833CDE90A12CDE90E6705938DF81C3043
:10AC70000D9310931293CDF810C006908DF830000C
:10AC80008DF84400EFF31180102383F31288D4F879
:10AC9000D03A1B6AABB1069B04AE32461BB1D369F6
:10ACA0001432002BFBD12B6A6BB1996839B99342EE
:10ACB00019D01968A1B15B6899680029F7D01433DD
:10ACC000F3E704AB2B62C0B280F31188094861F04E
:10ACD000A3FBD4F8D02A136A002BFCD101209EE7F5
:10ACE000044AC3E90026C0B280F31188F1E700BF2F
:10ACF000283E0020F848002070B503681D78022D1A
:10AD000014D0012D01D0002070BD044693F9040039
:10AD10000A4B421C83F89C5BF5D00228F3DC0A4600
:10AD200003F69C332179BDE8704049E41B6A002B8F
:10AD3000E9D101224AF09EFC012070BD283E00208E
:10AD400013B53A4C0023D4F8AC2B8DF807301378A8
:10AD500003F0FD01012905D194F8B01B11B90C21B4
:10AD600084F8B01B022B1ED0032B2DD001220B2107
:10AD70002F485CF057F8042046F00AF92C480123CC
:10AD80000DF1070200215CF06FF8002838D09DF823
:10AD90000730482B34D1274BC4F8A03B264BC4F8CE
:10ADA000A43B02B010BDD4F8B40B49F061FDD4F857
:10ADB000B40B08B13523C380012149F019FDFFF719
:10ADC00099FEA4F8B00BD1E71C4B50681B6846F203
:10ADD000A8111961002380F88830122237215BF016
:10ADE000F5FFD4F8AC3B0D22586824215BF0EEFF50
:10ADF000D4F8AC3B302258686A215BF0E7FFB5E736
:10AE0000D4F8AC3B1A78022A03D0032A07D00020DA
:10AE1000C7E7D4F8B40B4AF0EDF80020C1E7586852
:10AE2000102237215BF0D2FFF1E700BF283E00205F
:10AE3000D4490020C76E0608496F0608484E002016
:10AE40002DE9F04FDFF8ECB2B34CB44F95B00023CE
:10AE500005464FF4F0728A460BF54A7020218BF8B4
:10AE600024338BF82533019568F019FD20210BF56B
:10AE7000A1604FF4F07268F012FDA94932264FF03C
:10AE8000100C4FF47A704FF0010E7B68C3F3080387
:10AE9000002B40F0BA80EFF31183002B40F0B58017
:10AEA000D4F884208D68D4F884309A42F8D1D4F84C
:10AEB000C83E9D42F4D8D4F8C48E00FB08F35B1B57
:10AEC000B3FBF8F300FB02327B68C3F30803002BEB
:10AED0007AD1EFF31183002B76D1D4F88430D1F8F6
:10AEE0000890D4F88450AB42F7D1D4F8C85EA94595
:10AEF000F3D8D4F8C48E00FB08F5A5EB0905B5FB23
:10AF0000F8F500FB03539B1AB3F57A7FDCD3013EBF
:10AF1000BBD19BF8E926002A51D09BF8EA36013BC9
:10AF2000022B4CD803EB83010BEBC1007D4D90F855
:10AF3000EC6605EBC1010127022ECBF864178BF8F4
:10AF4000EC7700F0B882DBB20BEB0313D3F8FC37DD
:10AF5000C0F8F0369BB302234FF4807680F8EC36CD
:10AF600005F18803C435A0F8F866C0F80437C0F8C6
:10AF700008571509013D052D02F00F0200F29782D6
:10AF8000694E06EB4503B3F8840040FA02F3DB0791
:10AF900040F18D82012303FA02F2013A1040354458
:10AFA00065F0E6FE95F89020604B104403EBC0007E
:10AFB000CBF86C078379002B47D0412B45D06FF03D
:10AFC000010015B0BDE8F08FEFF311888CF3128803
:10AFD000D1F808900B68DD0344BFC4F8C0EED1F887
:10AFE0000890D4F88430D4F8C05E5FFA88F888F30B
:10AFF0001188D4F8C48E2B4400FB08F5A5EB090595
:10B00000B5FBF8F500FB03537DE7EFF311858CF3F7
:10B010001288D1F808800B68DB0344BFC4F8C0EE87
:10B02000D1F80880D4F88430D4F8C02EEDB285F37E
:10B030001188D4F8C45E1A4400FB05F3A3EB08039F
:10B04000B3FBF5F300FB02323EE72323C380092163
:10B0500048F044FFDBF86C37002B00F05A821A6886
:10B06000DBF864179B881383D4F8BC24304BB3EB14
:10B07000920F80F02682B3EBD20F80F02482B3EBE4
:10B08000121F80F02482B3EB521F80F02482B3EBB6
:10B09000921F80F02482B3EBD21F80F02482B3EBA6
:10B0A000122F80F022824FF480720023FF200DF1D6
:10B0B0000F07ABF868270122CDE90473CDE9083307
:10B0C000CDE90A338DF80F000D9306928DF81C2000
:10B0D0008DF83020EFF31180102383F31288DBF812
:10B0E00064371B6A43B3069B04AE32461BB1D36977
:10B0F0001432002BFBD10B6A03B3996851B99A4201
:10B1000000F08F811968002900F088815B689968D8
:10B110000029F4D01433F0E7302D002000ED00E0DA
:10B1200010E000E00C56002040390708EC2E00200B
:10B13000404B4C00204F002004AE0E62C0B280F3A2
:10B140001188B24861F068F9DBF864170B6A002BCC
:10B15000FCD18C220120CDE908330DF10E080593B6
:10B160008DF81C300D93109312938DF80E20002350
:10B170000022CDE90E230A97CDF8108006900B909F
:10B180008DF830008DF84400EFF31180102383F325
:10B190001288DBF864371B6ABBB1069B32461BB1D1
:10B1A000D3691432002BFBD10B6A7BB1996851B97A
:10B1B0009A4200F03D811968002900F036815B68F1
:10B1C00099680029F4D01433F0E70E62C0B280F31E
:10B1D00011888E4861F020F9DBF86427136A002B90
:10B1E000FCD19DF80F301B2B40F08581DBF86C37CC
:10B1F00001228BF824230BB12322DA8083484022DA
:10B200000A214AF037FA8A21002301228DF80E1014
:10B2100000200021CDE90E01CDE90833DBF86417E9
:10B22000CDF810800A9705938DF81C300D9310937C
:10B23000129306920B928DF830208DF84420EFF394
:10B240001180102383F31288DBF864371B6ABBB1CB
:10B25000069B32461BB1D3691432002BFBD10B6A1B
:10B260007BB1996851B99A4200F0E98019680029C8
:10B2700000F0E2805B6899680029F4D01433F0E7AD
:10B280000E62C0B280F31188604861F0C5F8DBF847
:10B290006427136A002BFCD19DF80F209BF8E81659
:10B2A000C2F380128BF82C28002900F0CC800229F0
:10B2B00000F0E580D4F8BC345549B1EB930F80F031
:10B2C0001681B1EBD30F80F00081B1EB131F80F03A
:10B2D0000081B1EB531F80F00081B1EB931F80F030
:10B2E0000081B1EBD31F80F00481B1EB132F34BF89
:10B2F0004FF4807480249BF83018ABF82E4818293E
:10B3000014D1444D444800215B08B3FBF4F3A5FB82
:10B3100003530D465B0B64F30F056AF30F0163F3F0
:10B320001F4562F31F41CBF8381845603748ABF82A
:10B330006847022200214AF09DF9C82040F06AF8CF
:10B34000DFF8C8A0DBF864074FF08009002400256F
:10B3500000230122CDE90E45CDE908338DF80E908A
:10B36000CDF810800A9705938DF81C300D9310933B
:10B37000129306920B928DF830208DF84420EFF353
:10B380001181102383F31288DBF864371B6AA3B1A1
:10B39000069B32461BB1D3691432002BFBD1036AE2
:10B3A00063B1986838B993422CD0186840B35B6891
:10B3B00098680028F7D01433F3E70662C9B281F326
:10B3C0001188504661F028F8DBF86407036A002B07
:10B3D000FCD19DF80F3013F00203B9D101984178E8
:10B3E000827800788BF84008C1F12001C2F1100288
:10B3F00018468BF841188BF8422815B0BDE8F08F3D
:10B40000C3E900A6C9B281F31188DDE784560020A4
:10B41000809698005917B7D1585700203E4AC3E983
:10B420000026C0B280F311888EE63B4AC3E90026AD
:10B43000C0B280F31188CFE6374AC3E90026C0B214
:10B4400080F3118823E7D4F8BC343449B1EB930F6F
:10B450004DD2B1EBD30F38D2B1EB131F39D2B1EBD0
:10B46000531F3AD2B1EB931F3BD2B1EBD31F40D263
:10B47000B1EB132F34BF4FF4807480243BE7D4F832
:10B48000BC342748B0EB930F3ED2B0EBD30F1CD2A5
:10B49000B0EB131F1DD2B0EB531F1ED2B0EB931FA6
:10B4A0001FD2B0EBD31F34BF8024402423E70023F6
:10B4B000CBF86C37D8E590F8F9363B4480F8F9368C
:10B4C00057E50222F1E50422EFE5042413E7082200
:10B4D000EBE508240FE71022E7E510240BE7202214
:10B4E000E3E5202407E74022DFE58022DDE50224B2
:10B4F00001E74024FFE6DBF86C0738B1202148F073
:10B50000EDFC4FF0FF305CE50C46F4E64FF0FF3009
:10B5100057E5DBF86417A7E584560020404B4C0044
:10B52000002D31010146014849F058BF6457002001
:10B53000094B93F82E31042B08D9053B032B08D86F
:10B5400001231A4600B10370104670470023012200
:10B55000F8E700231A46F5E7302D0020F0B40D6817
:10B5600000240CE0BCF1050F18D8A0F137030A2B1A
:10B5700014D104EB840415F8010B03EB4404A0F18F
:10B580003003DEB2092EA0F16107A0F1410CF0D921
:10B59000052FE7D8A0F157030A2BEAD00D601460FD
:10B5A000F0BC70479FED727A07EE901A20EE070A02
:10B5B000F8EE677A27EE800AFDEEC07A17EE903A31
:10B5C0002033402B00F2C480DFED6A7AB4EEE70A44
:10B5D000F1EE10FAF0EE407A0CDD9FED676ADFEDD8
:10B5E000676AB0EE677AB4EEE67AF1EE10FA77EEBB
:10B5F000C67AF6DC9FED627AF4EEC77AF1EE10FAC5
:10B600000CD59FED5D6ADFED5F6AB0EE677AB4EE50
:10B61000E67AF1EE10FA77EE867AF6D49FED5A7A52
:10B62000F4EEC77AF1EE10FA00F38A809FED577AB4
:10B63000F4EEC77AF1EE10FA44BF9FED517A77EE3F
:10B64000677A27EEA76ADFED525A9FED527ADFED57
:10B65000526AA6EE257A67EE865AE6EE076AB6EEDD
:10B66000007AE5EEA67A27EE877ADFED476A70EE7C
:10B67000267ABDEEE76A16EE103A2033402B64D8E6
:10B68000B4EEE60AF1EE10FA0CDDDFED3B5A9FED69
:10B690003B6AF0EE676AF4EEC66AF1EE10FA77EEF6
:10B6A000E57AF6DCDFED366AF4EEE67AF1EE10FAD2
:10B6B0000CD5DFED315A9FED336AF0EE676AF4EE98
:10B6C000C66AF1EE10FA77EEA57AF6D4DFED2E6AAF
:10B6D000F4EEE67AF1EE10FA3DDDDFED266A76EE65
:10B6E000E77A67EEA75A9FED2A5A9FED2A6ADFEDA7
:10B6F0002A6AA5EE856A27EEA55AE5EE866AB8EEB7
:10B70000006AE5EE267A67EE867AC7EE206AB7EE23
:10B71000006A76EE865A76EE666A86EE257A80EDC7
:10B72000091A67EE277A66EE876AC0ED017AC0EDE6
:10B73000037A80ED007A80ED027AC0ED046A7047EA
:10B740009FED0C7A77EE677A7BE7DFED147ADCE722
:10B750009FED127A89E7DFED0D6AF4EEE67AF1EEFD
:10B7600010FA44BFDFED066A76EEE77AB9E700BF6C
:10B7700027D4D236DB0F4940DB0FC940E4CB16415A
:10B78000DB0F49C0E4CB16C1DB0FC93FDB0FC9BFDC
:10B7900092E741B99730083C15A82ABE0000000086
:10B7A0002DE9F843E14FDFF8E4E3D7ED3E7A2DEDE4
:10B7B000028BF8EE670A9EF8DC4807F26C63C3ED73
:10B7C000000A002C6FD1DFF8C8C397F87866C7F875
:10B7D00074469CF80040002E39D0BEF8E2389FED48
:10B7E000D46A9FEDD47A07EE903AF8EE677A20EEAD
:10B7F000877AC6EE276AD04B0022012E1A6076EEB9
:10B80000876AC7EE267AC3ED017A20D0022E9A60AD
:10B81000C3ED037A1BD0032E1A61C3ED057A16D04F
:10B82000042E9A61C3ED077A11D0052E1A62C3ED7A
:10B83000097A0CD0062E9A62C3ED0B7A07D0072E38
:10B840001A63C3ED0D7A02D09A63C3ED0F7ABB4B36
:10B850009FEDBB6A93F84E319FEDBA7A9FEDBA0A1D
:10B86000BA4A07EE903AF8EEE77A9CF8583BC6EEF3
:10B87000276A1C4414FB06F6F6B207EE906A60EEE7
:10B88000870AF8EEE77AC2ED006AA7EEA00A66F032
:10B890007FFDBDEC028BFCEEC07A17EE903A87F884
:10B8A000C837BDE8F883BCEEE06A9FEDA97A9EF840
:10B8B000DD38BEF8E0289FEDA72ADFEDA76ADFF8A4
:10B8C000D0C297F87866C7F874C6F8EE465A07EE05
:10B8D000903A87EE255A8CF8004007EE102ABEF801
:10B8E000DE288CED025A16EE103AF8EE677A06EE74
:10B8F000102AB8EEC77A27EE822AB8EE466A67EEBB
:10B90000266ACCF81430012322EE252ACCED017AE8
:10B910008CED036ACCED046A87F87036002E96D061
:10B92000DFED8E7A9FED8E4ADFED8E5AC7EE871AD5
:10B93000C6EB0615A6EB06190CEBC5054FEAC909BF
:10B940004FF00008B1EE611A9FED876A09EB050020
:10B950009FED863ADFED863ADFED866A03460022E8
:10B9600007EE902AB8EEE77A27EE027AFDEEC77A64
:10B9700017EE901A2031402900F2D080B4EEC47A3C
:10B98000F1EE10FAF0EE477A0CDDDFED7B4A9FED29
:10B990007B5AF0EE672AF4EEC52AF1EE10FA77EE44
:10B9A000E47AF6DCF4EEE57AF1EE10FA0CD5DFED90
:10B9B000724A9FED735AF0EE672AF4EEC52AF1EE53
:10B9C00010FA77EEA47AF6D4F4EEC67AF1EE10FA15
:10B9D00040F39A8074EE677A27EEA75AB0EE630AB6
:10B9E000A5EE030ADFED674AE5EE004A65EE272A79
:10B9F000B7EE005AE2EEA47AB0EE458AF0EE454A80
:10BA0000A1EEA78AE1EE274AC5EE088A84EE880AED
:10BA100077EE067ABDEEE75A15EE101A203140296E
:10BA20006FD8B4EEC67AF1EE10FA0CDD9FED525AE3
:10BA30009FED527AF0EE674AF4EEC74AF1EE10FA43
:10BA400077EEC57AF6DCF4EEE57AF1EE10FA0CD575
:10BA50009FED495A9FED4A7AF0EE674AF4EEC74AE5
:10BA6000F1EE10FA77EE857AF6D4F4EEC67AF1EEBE
:10BA700010FA3CDD74EE677A27EEA75AF0EE632ADF
:10BA8000E5EE032A9FED3F7AA5EE227A65EE274A7E
:10BA9000B8EE005AE4EE877A67EE857A87EE887A08
:10BAA0000132A24203F1280343ED048A03ED037A35
:10BAB00003ED017A43ED028A83ED000AC3ED056AC6
:10BAC000C3ED026AC3ED016AC3ED046AC3ED036A04
:10BAD000FFF646AF783085427FF43AAF08F57078CC
:10BAE000B8F5346F05F570757FF42EAF75E69FEDF0
:10BAF000267AF4EEC77AF1EE10FA48BF75EEE77ACF
:10BB0000BAE7F0EE667AC9E79FED1F5AF4EEC57A00
:10BB1000F1EE10FA48BF75EEE77A5DE7B7EE000A7E
:10BB2000F0EE408AB0EE408A72E700BF08000010D5
:10BB300083F9223EBD37863504580020302D002081
:10BB4000555555406E12833A48E1FA3ECC07001035
:10BB50000060EA4827D4D2360AD7233C0000484286
:10BB6000DB0F4940DB0F49C0DB0FC93F92E741B90A
:10BB70009730083C00000000DB0FC940E4CB1641C1
:10BB8000E4CB16C115A82ABEDB0FC9BF204F002089
:10BB9000481800102DE9F04F07EE900A2DED068BA6
:10BBA0009FEDEA7AEA4BDFEDEB6AB3F82429EA4924
:10BBB00093F82AB9C1F81C08F8EE679A0AEE102A21
:10BBC00087EE295AB3F82629C1F8D8B7002083B0E8
:10BBD000C1F8DC0708EE902AB3F82829DFEDDF7AF8
:10BBE000B8EE4AAA09EE102AF8EEE88A3AEE0A7A86
:10BBF000B8EEC99AF4EEC78AF1EE10FA69EE277A28
:10BC0000B4EEE65A01F2CC72B8BFF0EE478AF1EE1C
:10BC100010FAC2ED028A82ED01AAC2ED007A00F1AB
:10BC2000EA8207EE90BAF8EEE77AB7EE007A87EE8E
:10BC3000278ACB4BDFF86CA318461C469AF898204D
:10BC40001434019403F12C04F6EE005A65EE256AD3
:10BC5000F7EE007A86EEA87ADFEDC23ADFEDC24A4F
:10BC60009FEDC26AD3ED05AAB4EEE77AF1EE10FAC1
:10BC7000B8BFB0EE677ABDEEC77AB0EE004A17EEF5
:10BC8000107AB8EEC77A29EE866AC5EE076AC1F85F
:10BC9000787A87EE875A66EEA36AA0EC015A8AEE9C
:10BCA000267AC8EEA67A37EE257A77EEA57AB4EE34
:10BCB000C47AF1EE10FAF4EEE47AB8BFB0EE447A4A
:10BCC000F1EE10FA88BFF0EE647ABDEEC77AFDEEB1
:10BCD000E77A17EE105A17EE906AC0ED006AA6EBED
:10BCE000050883ED046A98FBF7F8C1F8845AC1F897
:10BCF000886A08F10108002A40F0E380DFED9C0A21
:10BD0000DFED9C5A9FED9C2A9FED9C5ADFED9C2A0B
:10BD10009FEDA83ADFEDA83A9FED9A4ADFEDA71A0A
:10BD20000AF19C0107EE902AB8EEE76A66EE207AE7
:10BD300037EEA57AFDEEC76A16EE903A2033402B17
:10BD400000F21282F3EE026AB4EEE66AF1EE10FA45
:10BD50000CDDDFED964ADFED946AB0EE471AB4EEE3
:10BD6000E61AF1EE10FA37EE647AF6DCB4EEC57A34
:10BD7000F1EE10FA0CD5DFED8D4ADFED8D6AB0EEF5
:10BD8000471AB4EEE61AF1EE10FA37EE247AF6D43A
:10BD9000B4EEE57AF1EE10FA40F3FB81DFED7A6A5A
:10BDA00036EEC77A67EE076AB0EE431AA6EEA21A1D
:10BDB000B0EE630AA1EE260A67EE264AFDEEE76AB8
:10BDC000A4EE807A16EE903A2033402B27EE047AC8
:10BDD00000F2D481DFED6D6AB4EEE66AF1EE10FA9E
:10BDE00040F3FD819FED710A9FED6F1AF0EE676AD7
:10BDF000F0EE664AF4EEC14AF1EE10FA76EEC06A51
:10BE0000F6DC9FED611AF4EEC14AF1EE10FA13D59B
:10BE10009FED661ADFED664AB0EE660AB4EEE40AFC
:10BE2000F1EE10FA76EE816AF6D4DFED586AB4EEE0
:10BE3000E66AF1EE10FA0CDD9FED5C6ADFED5A6AFE
:10BE4000F0EE674AF4EEE64AF1EE10FA77EEC67AC3
:10BE5000F6DCF4EEC57AF1EE10FA0CD59FED536ADC
:10BE6000DFED536AF0EE674AF4EEE64AF1EE10FABF
:10BE700077EE867AF6D4F4EEE57AF1EE10FA40F336
:10BE80008081DFED416A76EEE77A67EEA76AF0EE31
:10BE9000434AE6EEA24AB0EE631AA4EEA61A27EED3
:10BEA000A66AE6EE017A67EE847A0132242A81EDF1
:10BEB000007AC1ED017A01F108017FF433AFDFEDC3
:10BEC00034AA4FF0000944E9059544E902874FF48C
:10BED00090720021204644F80C6C67F0E0FC4FF4AF
:10BEE0009072A018002167F0DAFC2A4B04F5157453
:10BEF000A342E8D1DFED287A019B012269EEA79ADF
:10BF0000C3ED00AA8AF89820BBF1000F00F027814A
:10BF1000DFED227A224E9FED1C1ADFED182A9FEDED
:10BF2000155AC7EE891AA6F1140506F5117778EEB1
:10BF3000CA8A68EE280A9FED122ADFED0F6A2B46A7
:10BF400030460022F7EE005A3EE000BF002474495C
:10BF5000204F00200000FA44080000100AD7233CBC
:10BF6000840A0010398E633C00000C429C53493710
:10BF7000C3B8B23DDB0FC93F00000000DB0F49C072
:10BF800092E741B972F97F3FDB0F49400000104250
:10BF9000BC297E3FAC11001027D4D23600004842A5
:10BFA000E807001000110010E4CB1641DB0FC94078
:10BFB000E4CB16C19730083C15A82ABEDB0FC9BFD9
:10BFC000000010C20000807F07EE902AF8EEE77AAA
:10BFD000B6EE007A77EE877AB0EE4A7AA7EEA07ACC
:10BFE000F0EE477A29EE877AE0EC017AFDEEC77A27
:10BFF00017EE901A2031402900F2D380B4EEC17AB6
:10C00000F1EE10FAF0EE477A0CDD1FED184A5FED05
:10C010001A4AB0EE676AB4EEE46AF1EE10FA77EE0F
:10C02000C47AF6DCF4EEE27AF1EE10FA0CD51FEDEC
:10C03000214A5FED214AB0EE676AB4EEE46AF1EEA0
:10C0400010FA77EE847AF6D4F4EEC57AF1EE10FAAF
:10C0500040F3B18071EE677A67EEA74A1FED2B4A75
:10C060001FED2B6AA4EE824A67EEA43AA4EE246A7E
:10C07000F0EE654AE3EE867AB0EE656AE7EEE14AF5
:10C08000A7EEA16A84EE864AC5EE864A77EE057A67
:10C09000FDEEE73A13EE901A2031402900F2888035
:10C0A000B4EEC57AF1EE10FA0CDD1FED403A5FED0B
:10C0B000423AB0EE677AB4EEE37AF1EE10FA77EE38
:10C0C000C37AF6DCF4EEE27AF1EE10FA0CD51FED4D
:10C0D000493A5FED493AB0EE677AB4EEE37AF1EEB1
:10C0E00010FA77EE837AF6D4F4EEC57AF1EE10FA10
:10C0F0006BDD71EE677A27EEA73A5FED523A1FEDDE
:10C10000527AE3EE023A23EE270AA3EE237AF8EE00
:10C11000003AE0EE077A67EEA37A87EE867A01327C
:10C120005A4503F12803C3ED0B4A83ED0C7A83EDE6
:10C130000E7AC3ED0D4A83ED0F4AC3ED145AC3EDD9
:10C14000116AC3ED106AC3ED136AC3ED126A7FF47E
:10C150003BAFC835AF4206F114067FF4EAAE03B038
:10C16000BDEC068BBDE8F08FFDEEE76AB0EE427ADB
:10C1700016EE903A2033402B7FF62CAEF0EE427A4A
:10C1800093E6F4EEE17AF1EE10FA48BF75EE677AC5
:10C190007BE6B4EEE17AF1EE10FA48BF35EE477A6D
:10C1A00000E6B7EE004AF0EE444AB0EE446A6DE7AE
:10C1B000F0EE667AB1E71FED7F6AF4EEC67AF1EE33
:10C1C00010FA48BF72EEE77A46E71FED847AF4EE84
:10C1D000C77AF1EE10FA48BF72EEE77A8BE75FEDAF
:10C1E000886AB4EEE66AF1EE10FA48BFF0EE676ACC
:10C1F0003FF50EAE2DE61FED8D8AC1F8D8078346B8
:10C2000017E500BF0848002302461178022902F111
:10C21000060204D00133062BF7D10020704703EB50
:10C22000430300EB43007047701C002000B5002161
:10C23000084B83B00846C3F82C1935F07BF804226C
:10C24000054B01930DEB0201062035F067F803B0B2
:10C250005DF804FB204F00205475C52A70B5461EBA
:10C2600000F13105344614F8011F601E801BFF29C0
:10C27000C0B201D035F05EF8AC42F4D1A02059F044
:10C28000ABFC0121022035F055F840F2E93401E021
:10C29000013C04D04220FFF745F90028F8D1622084
:10C2A000FFF740F91321242035F044F82520092117
:10C2B00035F040F8BDE87040A02059F08DBC00BFBB
:10C2C00000231B88FFDE00BF38B50C4C0546A11CBF
:10C2D000D52252F041FB2B68A342C5E90043A3EBF2
:10C2E00004000AD004F14002611C2960237802F89E
:10C2F000013BD5E90041A142F6D138BD505800209C
:10C3000010B5204B84B0C82403F5176103F6311231
:10C310002128CDE9022183F8304918D00CD8022811
:10C320001ED0082825D102A801900AF089FE0198A4
:10C33000FFF7CAFF04B010BD29281AD102A8019046
:10C340000AF048FD0198FFF7BFFF04B010BD02A836
:10C3500001900AF089FD0198FFF7B6FF04B010BD07
:10C3600002A801900AF0B8FE0198FFF7ADFF04B0F3
:10C3700010BD02A801900AF0E9FD0198FFF7A4FFA3
:10C3800004B010BD204F002010B582B00A88ADF86F
:10C39000062000230C468DF805308DF8040059F076
:10C3A0005DFA04210DEB010034F0AAFFBDF8063060
:10C3B000238002B010BD00BF10B582B00A788DF89E
:10C3C00007201823040A8DF804308DF806008DF834
:10C3D000054059F043FA04210DEB010034F090FFC1
:10C3E00002B010BD10B582B019220023040A8DF8E6
:10C3F00003308DF801408DF800200C468DF80200C6
:10C4000059F02CFA0521684634F07AFF9DF8043083
:10C41000237002B010BD00BF10B58CB000234CF2E9
:10C420000502044601A9CDE90633CDE90833ADF88C
:10C4300000208DF8023003220B930123CDE9031273
:10C440008DF814308DF82830CDF808D049F0F2F985
:10C45000204602A948F0EEFD204649F0EBF99DF890
:10C4600006000CB010BD00BF2DE9F043764D774FAC
:10C4700083B005F138002422002167F010FA97F804
:10C48000B1490023EB65002C39D1714ED6F8F83054
:10C4900053B39B6A43B36F489847836823B30388B9
:10C4A0006D4F013B9BB2BC46384600210678032EF7
:10C4B00000F106001CD001310629F7D1002239789D
:10C4C000022907F1060700F09E800132062AF6D104
:10C4D000E96D052908D0481C02FB01C2E86502206D
:10C4E0000021938010705180204603B0BDE8F08396
:10C4F000062303FB01514B8F013B9BB2DEE797F80C
:10C50000B00907F6B813C7F8B43910B9504E002473
:10C51000BCE747F0BFFEC7F8C00918B183790BB17B
:10C52000412BF3D121464D4848F0F8FE044600283F
:10C53000ECD0D7F8B439474A9868C3F8942008B1CA
:10C540002023C380092148F053F9D7F8B439404E6D
:10C55000986848F08DF94248D7F8B48948F014FF3C
:10C560004FF00109A8F804003220C6F8188186F8B7
:10C570001C9144F00DFD0423D7F8B4094FF0000CD2
:10C580000DEB03029F21CDF804C049F023F89DF87C
:10C5900005809DF804309DF806104FEA082848EA07
:10C5A000034848EA0108414606F1F80053F06EF8E6
:10C5B00000287FF46BAF4046FCF70CF803460028D8
:10C5C0007FF464AF9DF806009DF805209DF80710E4
:10C5D000000240EA0240234A0843904217D0C6E9CD
:10C5E0004033A6F8FC30A6F80831FBF7F3FF80468D
:10C5F00000287FF44BAF97F8B00947F04BFE48F0A6
:10C60000F9FC444642E7062101FB02C267E7164AED
:10C61000C6F8FC204FF400334FF00062C6F800313A
:10C620004023A6F80831C6F8042186F80A91FBF7E2
:10C6300047FD06F1F80086F8119152F073FF0B4B9D
:10C64000C6F8F83022E700BF381C0020204F002039
:10C65000302D0020282E0020701C0020D8580020EB
:10C66000404B4C0021AAEF000004000840390708A5
:10C670002DE9F041C94BCA4ECA4DCB4C0822C3F834
:10C680008820336B82B043F00103336307464FF4D5
:10C69000C052284640F2023388466946CDE900235D
:10C6A00008F0EEFE6B6AC14ADFF848C323F470431A
:10C6B0006B626B6A43F420436B626B6A23F47023F2
:10C6C0006B626B6A43F420236B62736CB84D43F466
:10C6D000804341F234017364736B44F8018041F28A
:10C6E0003C0143F08003675041F2380EB149736357
:10C6F0000227C4F8541AB04EB04BB14944F80E505A
:10C7000084F8587A4FF0A045AE4FC4F85C5AC4F88C
:10C71000606AC4F8683AC4F8A41A05F5326506F5EB
:10C72000A07603F51073A1F5D071C4F86C7AC4F843
:10C73000A85AC4F8706AC4F8AC3AC4F8741A012351
:10C7400007F51077A5F5E465A6F5A066A1F58C615F
:10C75000C4F850CAC4F8B07AC4F8645AC4F81C6B60
:10C7600084F85B3A05F5A075536106F5B076C4F818
:10C77000E01A84F8623B1946934B944AC4F8E85A8D
:10C78000A7F5BC67A035C4F8F46A914EC4F8F07AF6
:10C79000C4F8F83A07F5D45703F56953C4F8FC5ABE
:10C7A0004FF050250020DFF850E2DFF850C2C4F807
:10C7B000202BC4F8247B02F5A04207F5A047C4F85B
:10C7C000286BC4F82C3B06F5A046A3F54853C4F8E3
:10C7D000305B04F52565C4F8342BC4F83C6BC4F811
:10C7E0005C3BC4F8E4EAC4F8ECCA0246C4F8387BFF
:10C7F0002B4684F8640B402683F81C21A3F82221E1
:10C800000132042AC3E9496083F81D1183F81F012E
:10C81000C3F8300103F12803EED1002211462B4664
:10C82000402083F87423A3F87A230132042AC3E951
:10C83000DF0183F8751383F87713C3F8881303F1C6
:10C840002803EED14FF0A04362489A6822F001021B
:10C850009A60DA6842F04002DA6007F097FE94F8D6
:10C86000593A0022212161F317420BB142F48012A0
:10C8700094F8531AD4F85C3A01299A6300F0E380E3
:10C88000DA68D4F85C6BD4F8600AC2F3076121F06F
:10C89000600141F0400161F31F620021DA60316004
:10C8A000026861F3CC22026094F85B2A012A00F04E
:10C8B000B7801021484808F0BBF9474808F09EF9B6
:10C8C000D4F8600A94F8513A00224FF0FF31026127
:10C8D00042618161C26153B305F114073F4E1146B5
:10C8E00007EB83074FEA830C4FF0FF0E56F8042F37
:10C8F0001368002BACBF00234FF09043B742136086
:10C900001161C2F808E0F1D105F1500334496344E4
:10C910000027FF2651F8042F1568002DACBF002515
:10C920004FF090459942156017619660F2D1036906
:10C9300094F8531A43F480730129036160D0D4F84A
:10C940005C2A28480023936100294FF0FF336FF0E1
:10C95000804151615360516114BF002310239061E5
:10C9600043F47013916943F4605343F008030B439D
:10C97000936141F238019368615843F00103936079
:10C980000B689847184B194ADA606846184B0093B1
:10C9900008F032FC02B0BDE8F08100BF00E100E029
:10C9A0000038024000000240204F0020003C0140BF
:10C9B0004C040020400040010008005000090050D5
:10C9C000000B005020090050C0050050001000501E
:10C9D000003000507C5900207059002084590020FC
:10C9E000C05900200008008000ED00E00005FA05B5
:10C9F00043020001080401002005005060050050BA
:10CA0000D4F85C2A144B03636FF08041134D00236C
:10CA10004FF0FF30936151615060516195619FE724
:10CA200001680F4A0F4E41F00301016080215962F5
:10CA30009E62C3F80421E022C3F80821C0F240023C
:10CA4000C3F80C2135E79A6822F03E0141F02A0133
:10CA500061F307029A6013E7030181000008008078
:10CA6000A00040008000200010B51A4C14F8B30C50
:10CA7000C0B9194B83F8B100C3F8B40014F8B03C46
:10CA8000012B05D0022B21D054F8AC3C1BB910BDB2
:10CA9000124B44F8AC3C12495B68BDE81040A1F170
:10CAA0000C00184747F0F6FB14F8B12C0A49003A7D
:10CAB00018BF012281F8B120C1F8B4000028DDD0F0
:10CAC0001F22C280202147F093FED7E7054B44F890
:10CAD000AC3CE0E718600020381C00208C040020EB
:10CAE000705F00206804002099B10A6B824216D959
:10CAF000154B53F86C2C914221D34C3991421ED3E3
:10CB00000B6B9842F9D38B6B9842F6D80B461846BC
:10CB100070470D4B53F86C1C0A6B904212D30B6894
:10CB20000BB9F4E70A6B90420B4602D38A6B904232
:10CB3000EDD951F84C3F002BF4D118467047002333
:10CB4000184670470A46D8E7186000202DE9F047DC
:10CB5000CC0143D10346224A43F8082B4FF0FF3261
:10CB60004260022418467E26DFF8788058F8689CD8
:10CB70002644013E051D49466FF070474FF0010AFB
:10CB800008E0A3421CD0631C45F8043C321B1C4641
:10CB90000435CAB10B6BA34202D88B6BA34204D2FB
:10CBA0002046FFF7A1FF014690B10A794B6B002A9E
:10CBB000E7D1A34204D0E6D245F8042C631CE5E794
:10CBC00045F8047C631CE1E748F8681CBDE8F08781
:10CBD00045F804AC321B631C4946D8E78026C3E7FE
:10CBE000F8FFFF0F1860002070B4447941BB036860
:10CBF0004FF400524FF40076202502213CBB1A8CE2
:10CC000022F001021204120C1A841A8B188C22F0E2
:10CC1000F30280B2120420F00A00120C014342F029
:10CC2000010241F001011A8319841A8B22F00C02CF
:10CC30001204120C1A831A8B92B270BC1A837047BA
:10CC400000220368164615461146002CD7D0042C46
:10CC500021D0082C38D0198C21F480510904090CFA
:10CC600019849C8B1D8C45F6FF7040F6FF412840CF
:10CC70002140024342F4805241F4807199831A8426
:10CC80009A8B22F440621204120C9A839A8B92B20D
:10CC900070BC9A8370471A8C22F010021204120C96
:10CCA0001A84188B198C89B240F6FF4221F0A0013A
:10CCB00002400D4342F4807245F010051A831D8432
:10CCC0001A8B22F44062B3E71A8C22F480721204A9
:10CCD000120C1A84998B1A8C21F0F30192B2090478
:10CCE00022F42062090C324342F4807241F00101C7
:10CCF00099831A849A8B22F00C02C4E738B50E4D42
:10CD00000446006808F0C0FAD5F8BC242046520852
:10CD10004FF6FF713DF040FC20460021FFF764FF15
:10CD2000064BC5F8283D05F6285120460022BDE8EF
:10CD300038403DF075BB00BF302D0020111B0208AC
:10CD4000036870B55E6A26B133460522BDE87040BF
:10CD5000184704460D464E1D00E023689B68204698
:10CD600098470028F9D0236815F8011B1B68204656
:10CD70009847B542F1D170BD036870B55E6A26B1BF
:10CD800033460822BDE87040184704460D4601F1BD
:10CD9000080600E023689B68204698470028F9D0E1
:10CDA000236815F8011B1B6820469847B542F1D14E
:10CDB00070BD00BF0A44914217D010B40139541E0F
:10CDC00011F8013F08225840430010F0800F08BFBF
:10CDD000400083F0D50314BFD8B2C0B2013AF3D1FA
:10CDE000A142EDD15DF8044B704770472DE9F04743
:10CDF000164D0746002015F95B9CA5F1540684B03A
:10CE000007EB010805F5137504464FF0B60A3368C1
:10CE1000ABB193F83830142B11D019F1020F01D0B7
:10CE20004B450CD1002269463046CDE90244CDE99C
:10CE30000078ADF808A08DF80D4035F083FBE036A2
:10CE4000B542E4D104B0BDE8F08700BF186000200F
:10CE50002DE9F0479AB0DDE9226ADDF890900446AA
:10CE60000D461746984602E0206846F0A1FF20686C
:10CE700046F0A6FF0028F7D10146642201A866F01B
:10CE80000EFD264B8DF80450CDF85CA00293002DCA
:10CE900040D0AB1E012B3FD9042D14BF002203222A
:10CEA0001F4B0396D3F884308DF805201E440123D0
:10CEB000CDE9059404968DF85B3037B1424639468A
:10CEC00007A866F08BFC8DF85A80164E96F88E9265
:10CED00000231893B9F1000F19D196F88D0264223E
:10CEE00002FB006001A900F5247066F077FC0123C5
:10CEF00086F88D9286F88E32236843B143463A46CF
:10CF0000294620461AB0BDE8F04713F01FB91AB001
:10CF1000BDE8F0870522C3E70222C1E76462002072
:10CF2000302D0020186000200C480D4BD0F8101355
:10CF300010B40C4CC0F800338A1E2231B0F82E33E6
:10CF40001B01A4FB03C3DB08A3F5B06322F8023F77
:10CF50009142F3D15DF8044B704700BF1860002088
:10CF6000797B0208CDCCCCCC70B5084C251D2E4663
:10CF700014F8010B35F084FD28B1037805F8013B66
:10CF8000B442F5D170BDFF23F8E700BF686300200D
:10CF90002DE9F0471D4F012607F10805B2464FF075
:10CFA0003C094FF0000817F8010B47F073F90446ED
:10CFB00090B180F80690C671FB7803F07F02012AD9
:10CFC00018D013F0800F20460DD185F8048047F06B
:10CFD00049FC85F805802C600136052E05F1080511
:10CFE000E1D1BDE8F08785F804A047F041FC85F861
:10CFF00005A0F0E71B0605D40121204647F0F8FB09
:10D00000FB78DEE747F034FCF6E700BF70630020F2
:10D010002DE9F04FDFF8FC91DFF8FCA183B009F1B6
:10D020000C06012419F8018BB8F1000F00F0C6803E
:10D030004FEA1815013D052D08F00F0200F2C180DE
:10D040000AEB4503B3F8840040FA02F717F0010732
:10D0500000F0D28001239340013B1840554463F017
:10D0600087FE95F89030664F184407EBC0070423FD
:10D070007761FC71BB71002302E0152B00F09E80EC
:10D0800003EB43025F49895C41454FEA430B03F1DF
:10D090000103F2D15C4B1A4492F85111002900F0BF
:10D0A000AD8040463DF0C4FC054628463DF0E0FC1E
:10D0B0000378002B40F08280534B5B44042283F8BA
:10D0C000914183F89021002D78D0002F5DD03B68EE
:10D0D000287A03F13F4202F57E020AEB92224FF0DA
:10D0E000010C92F8982002F01F015209032A0CFA51
:10D0F00001F171D0042A67D0022A75D0B7F804E094
:10D10000BEFA8EF2C2F11F02C2F3CC0103EB810121
:10D1100002F007020F6A92004FF00F0C0CFA02FCAB
:10D1200027EA0C070F620F6A90403843002208621A
:10D130004FF0010B11460BFA01FC3CEA0E0001F125
:10D1400001011ED118680327974020EA07001860E4
:10D15000D3F800800220904040EA080018609868E8
:10D1600020EA0700986098689860586820EA0C00E8
:10D17000586058685860D86820EA0700D860D868B6
:10D18000D860102902F10202D5D1204B204AB3F811
:10D190008013B3F882330091002001340190B2FB78
:10D1A000F3F330469BB22946E4B234F0EDF80123A4
:10D1B000092C737406F118067FF434AF03B0BDE890
:10D1C000F08F0027776156E7DFF850C0DCF8302099
:10D1D0000A43CCF8302091E7DFF840C0DCF840206B
:10D1E0001143CCF8401089E7DFF830C0DCF8442068
:10D1F0001143CCF8441081E777613CE70D4654E7D2
:10D20000EC2E0020802E0020302D00201860002001
:10D2100040420F009C63002040390708003802405C
:10D2200070B5044684B04FF4004037F093FB80B3F0
:10D2300000234FF4E131032590F904000293CDE976
:10D2400000151A464FF4004137F0E1FB124BC3F8CA
:10D250005004F0B1012C40F6980208BF4FF49662DA
:10D260000E480F4DA3F85C244FF461710D4AC3F8CA
:10D2700068040A2683F85444C3F85864A3F85E147B
:10D28000A3F86014C3F86454C3F86C24012004B0FC
:10D2900070BD0020FBE700BF18600020AD1B020836
:10D2A0009D0C0208910C02082DE9F041214E224FFD
:10D2B00096F88F3487F8903E06F28C4607F6946510
:10D2C00000244FF0050816F8010B20BB286001343C
:10D2D000032C05F10405F6D197F8901ED7F8940EAB
:10D2E000C94301F0010147F0C9FA97F8901ED7F839
:10D2F000980E81F00201C1F3400147F0BFFA97F8A0
:10D30000901ED7F89C0E81F00401BDE8F041C1F3F6
:10D31000800147F0B3BA46F0BDFF01340121286017
:10D32000E3B210B180F80680C371286847F060FA54
:10D33000CEE700BF18600020302D00202DE9F0411D
:10D340002A4C2B4DB4F89464A5F8A06E82B0EEB9C7
:10D3500094F8900446F09EFF94F89124C5F8A40E2A
:10D36000003A18BF012285F8A22E48B194F8921411
:10D370002B22002914BF11210121C28047F038FA65
:10D38000002002B0BDE8F04143F032BF94F8908431
:10D39000002240462B213DF0A1FB0746404646F0C7
:10D3A00079FFF8B1F7B12B22C5F8BC0EC280397AEB
:10D3B000FCF70EF94FF000080E4AB2FBF6F3C3F388
:10D3C0004F0000909BB23946CDF8048005F6A86066
:10D3D000A4F8966433F0D8FFD5F8A83EC3F80080CF
:10D3E00085F8B98E02B0BDE8F08100BF186000205A
:10D3F000302D002040420F002DE9F84F254C94F8C5
:10D40000A43484F8983404F29B47002604F597640A
:10D410005FFA86FB0BF101085FFA88F8012117F823
:10D42000010F42460E448A463DF058FB4FF000097A
:10D43000054640B3387804F80E9C04F80D9C04F8B7
:10D440000FBC04F810AC44F8045C46F023FF18B19C
:10D4500080F806A080F80780297AFCF7B9F80E4A10
:10D46000002128463DF098F80C4B23600C4B221D00
:10D4700021462846C4E901393CF0D2FF6979286881
:10D480004A4633F0F5FE082E04F11C04C0D1BDE875
:10D49000F88F00BF1860002040420F00A912040856
:10D4A00081C7030870B52C4C2C4B94F8D005C4F8F8
:10D4B000C83500220221C4F88825C4F88C25C4F898
:10D4C0009025C4F8C425A4F8CC253DF007FB00281E
:10D4D00041D0234B0668054603F1C0015A7C12B1C6
:10D4E0005A6896422BD018338B42F7D1002394F818
:10D4F000D005C4F8B45484F8A83446F0CBFE08B183
:10D500000223C380297AFCF763F82846154A0021D4
:10D510003DF042F8144A1549C4F8B8140026111F0A
:10D520002846134BC4F8BC34C4F8C0643CF078FF00
:10D53000697928683246BDE8704033F099BE3046BC
:10D540005DF032F8328D0B4992B2531CB0FBF3F010
:10D5500081F82803CAE770BD1860002000FFFF00B3
:10D560003C00001040420F00D4640020A9C703080B
:10D5700049C90308880100202DE9F04FC04F87B04A
:10D580000B460446C022BF480393002166F087F98A
:10D5900097F8D1358BB9BC4DD5F82432002B7ED00D
:10D5A0000022039883F82C00012183F82D101A63C0
:10D5B00083F82E2007B0BDE8F08F97F8D235002B06
:10D5C0007CD0DFF8D88298F83C31012B00F0A180A4
:10D5D000022B00F08180AD4EAB4D98F832C198F827
:10D5E0002E710FCE05F5F87404940FC40FCE0FC43E
:10D5F00096E80700BCF1000618BF0126A44B85F889
:10D600002862072F84E80700C5F8083200F2188165
:10D61000042F00F25581DFF86CA2DFF88CB20026EF
:10D62000039BB3424FF0030137DD1BF8019B08EB6E
:10D63000090309F1010793F83341FFB220463A4646
:10D640003DF04CFA034620461C46002B00F01081AA
:10D6500046F020FECAF8140018B14FF0030383719E
:10D66000C77198F82F2198F82E31F1B2002A00F0F6
:10D67000FD80E27982F00102009220464A4601369E
:10D680005DF02EFD002800F0F3804FF00103082E1E
:10D690008AF811300AF1180AC2D1049B9EE07D4E2F
:10D6A0007D4C0FCE0FC40FCE0FC496E80700A4F137
:10D6B000200384E80700C5F824327BE7774B039901
:10D6C00093F83021704D003A204618BF0122FBF735
:10D6D00023F8C5F824025FE798F83231002B3FF4B5
:10D6E0007AAF98F82E31082B13D1684E664D684FEB
:10D6F0000FCE05F5F87404940FC40FCE0FC496E84E
:10D700000700012384E8070085F82832C5F808726D
:10D7100099E05D4D624E039BC5F82C320FCE05F5A6
:10D72000DE740FC40FCE0FC496E8070098F832C11C
:10D730000023BCEB030C84E8070018BF4FF0010C7A
:10D740001946584898F82E3187F80C364FF4407235
:10D7500085F828C287F8D4158B4666F0A0F8494BA7
:10D760000593514B049305F50E76D5F82C325B45A5
:10D770005EDD049A12F8013B0492434493F833416E
:10D7800020463DF031FA8146204646F083FD98F868
:10D790002F310446002B4DD099F8073083F0010A51
:10D7A0000AF0010995F8280209F1010987F8D395D3
:10D7B00008B18AF0010A002C49D0A17989B1412928
:10D7C0000FD03A4B3A493B4AC5F8D831012387F884
:10D7D000D435C5F8D411C5F8E0210023C5F82432AA
:10D7E000DAE6204647F088F84FEA49110BF1010BC1
:10D7F00041F009014FF0030371617060F46086F835
:10D8000010A084F807B0A371204646F0F1FF1AF08B
:10D81000010F204611D047F025F8059AF3685361AF
:10D82000BBF1080F02F1180306F1200605939CD105
:10D83000214BD3E799F807A0B2E747F019F8ECE7D6
:10D84000082F7FF4E8AE1D4BC5F83032E3E62046E2
:10D8500047F052F84FEA491949F009010BF1010B61
:10D8600071617060F46086F810A0CDE7E27903E79B
:10D87000104B0E4AC5F81432C5F80C220023ADE750
:10D88000186000203C00001000110010343A070816
:10D8900071890608083A0708F0650020302D00203D
:10D8A000603A0708286600206E2E0020AD1A050891
:10D8B000B11A0508A51A0508BC120010211B05089D
:10D8C00098F83131064AC5F83022012B05D0022BD9
:10D8D00006BFBCFA8CF35B09002385F834329AE664
:10D8E000511B0508F8B56D4F97F8280397F8295391
:10D8F00046F0D0FC60B12D23C3802021044646F0C1
:10D9000077FF0A203DF086FD204646F0EBFF18B970
:10D91000D7F81039DA0000D5F8BD013D092DFBD844
:10D9200097F82743D4B9402037F014F80028F3D0F3
:10D9300090F9043097F8F912092BC8BF143B3B4407
