:020000040800F2
:1000000000000120714F0608F14F0608A1C5040841
:1000100025C60408F14F0608F14F0608000000004D
:10002000000000000000000000000000F14F060882
:10003000F14F060800000000F14F0608D5AC040897
:10004000F14F0608F14F0608F14F0608F14F060878
:10005000F14F0608F14F060891D10408BDD20408FB
:1000600081D2040845D2040809D20408D131060817
:10007000C1310608B1310608A13106088D310608E4
:100080007931060865310608F14F0608F14F060878
:10009000F14F0608F14F0608F14F0608CDD10408CC
:1000A0007D080608050906086D0806082D090608DA
:1000B000F5080608E5080608D5080608A938060860
:1000C000CD380608ED37060811380608F14F060846
:1000D000F14F0608ADB8040865B604081DB404085D
:1000E00055D10408F14F0608F14F06085D080608CF
:1000F0008D080608F14F0608B508060851310608B4
:10010000F14F060805FB0508C5080608F14F06086B
:10011000D5B104088DAF0408F14F060885F7000833
:100120003D31060829310608153106080131060857
:10013000ED30060800000000000000000000000094
:100140000000000000000000000000001DFC00088E
:10015000D9300608C5300608B130060845AD040898
:100160002937060851370608F14F0608F14F0608EF
:10017000F14F0608F14F06080000000000000000E3
:10018000F14F0608F14F0608F14F0608F14F060837
:10019000F14F0608F14F060800000000F14F060875
:1001A000000000000000000000000000F14F060801
:1001B000F14F0608F14F06080000000000000000A3
:1001C000000000000000000000000000000000002F
:1001D000000000000000000000000000F14F0608D1
:0801E000C84A060001000000FE
:1001E8000E02010002000000F4590120545A0120B7
:1001F80000000000280A00081402010005000000A1
:1002080018300120585A0120000000002A0A00086E
:10021800232001001000000044590120605A0120E9
:1002280000000000ED8402080D10010070000000BD
:10023800C8580120705A01200000000055FC03082E
:10024800040008008000000008580120E05A01203E
:100258000000000000000000FD0101002400000073
:10026800AC570120605B01200000000013820408E5
:10027800FB0101000100000068570120845B012098
:1002880000000000D16D0508FC0101000900000014
:1002980034560120885B012000000000D96D050854
:1002A800F70101000600000028560120945B012098
:1002B80000000000300A0008F901010004000000F5
:1002C800245601209C5B012000000000C182040824
:1002D800160215003F000000A42C0120A05B01209D
:1002E80000000000656D05083400010010000000E2
:1002F80018550120E05B012000000000DD9902088C
:100308001102010008000000F0540120F05B0120F8
:1003180000000000360A0008121201000400000064
:10032800E8540120F85B0120000000003E0A0008A4
:100338001820010032000000B4540120FC5B0120A9
:100348000000000049760508122001001100000095
:10035800D4530120305C012000000000420A00084C
:10036800000201000B00000010510120445C012034
:100378000000000000000000FF110100060000005E
:10038800B4500120505C012000000000B16D050848
:100398000812040014000000C0500120585C01201D
:1003A800000000009D6E0508130201000400000013
:1003B800842C01206C5C012000000000540A000815
:1003C800FA010100030000009C500120705C01202C
:1003D80000000000856E05080A8001002800000062
:1003E80060500120745C012000000000D9830208DD
:1003F800061001001C000000882C01209C5C0120D4
:1004080000000000156E050802020100030000004C
:100418004C4A0120B85C01200000000000000000E8
:100428000C02010004000000284A0120BC5C0120E5
:1004380000000000756E0508110001000C000000A6
:10044800FD3A0120C05C012000000000F5FB030814
:10045800FE0101001400000088390120CC5C012055
:1004680000000000F96E0508030101000A00000001
:10047800549601203497012000000000612A0108E9
:100488001B1001000C0000000C9C0120D4A10120CD
:1004980000000000498E010821020100F000000060
:1004A800749A0120E0A10120000000002D9D0108A0
:1004B8002312010010000000889D0120D0A2012015
:1004C80000000000580A0008371001002E00000044
:1004D80070A10120E0A2012000000000680A0008C5
:1004E8001610010006000000809D012010A30120C5
:1004F80000000000960A00081E0001000900000024
:10050800149D012018A30120000000009C0A000887
:100518000510010006000000609D012024A30120B1
:1005280000000000A60A0008F5810100680000002C
:10053800049A01202CA3012000000000F9AA010858
:100548002F10010022000000109E012094A301201A
:1005580000000000AC0A0008FD070100760000005A
:100568004A990120B8A3012000000000D1870108A2
:10057800261001000E00000040A4012030A4012034
:1005880000000000498601080B3001001A00000035
:100598003099012080A4012000000000CE0A000844
:1005A8001F300100240000000C9901209CA40120A8
:1005B80000000000E80A000805020100040000002D
:1005C800A09D0120C0A40120000000000C0B000821
:1005D800140001000400000010B60120A4B6012098
:1005E80000000000100B0008012001000C000000B2
:1005F800A0AB0120A8B6012000000000140B0008E1
:100608000EF003009E010000B8A80120B4B6012036
:1006180000000000259A02081300010004000000F1
:100628009CB6012054B8012000000000200B0008EF
:100638000101010004000000F8A7012058B80120BA
:10064800000000000000000000010100040000009C
:10065800F0A701205CB8012000000000240B00086E
:100668000201010003000000ECA7012060B801208E
:100678000000000041BF0308220201001C01000025
:1006880084B0012064B8012000000000017605084C
:100698000C200600CC0000007CAA012080B90120B3
:1006A8000000000001BF0308010201000B00000068
:1006B80004A801204CBA0120000000008D6E050836
:1006C8001B0201001000000070AE012058BA012082
:1006D80000000000F16D0508203201000A0000004A
:1006E800CCC70120D8C7012000000000019A0208E9
:1006F80015001000700000008CC60120E4C701201E
:1007080000000000000000002A000800600000004F
:100718009CC5012054C8012000000000B5990208BA
:100728002C00040010000000C4C80120B4C8012037
:1007380000000000959702082B001200240000001A
:10074800F8C80120D4C801200000000069970208F9
:10075800292014007800000030C301201CC90120A2
:100768000000000000000000190201001000000055
:10077800D4C2012094C9012000000000C16D050801
:10078800F62101000C000000A4C00120A4C901202A
:1007980000000000280B00081C0202001C000000DA
:1007A8004CC00120F4C9012000000000F5760508BE
:1007B800282001001800000068C0012010CA01208C
:1007C80000000000919C02080412010002000000D1
:1007D80020C2012028CA012000000000340B0008B4
:1007E8000F020100010000001CC201202CCA0120D8
:1007F80000000000360B0008031201003D00000055
:10080800B0CF012034D0012000000000380B0008D0
:1008180025201E002C01000014CD012074D00120D9
:10082800000000000000000010100100020000009D
:10083800FCCC0120A0D1012000000000760B0008AC
:10084800F821010006000000DCCC0120A4D1012021
:1008580000000000780B00081900010005000000E6
:100868004CCC0120ACD10120000000007E0B000818
:100878001A0001000E00000038CB0120B4D101207D
:1008880000000000840B000829020100400000005D
:1008980080D4012080DA012000000000920B0008BB
:1008A8000A02010014000000D4D90120E0DA012076
:1008B80000000000CDBE0308030001000100000095
:1008C80070DA0120F4DA01200000000000000000C6
:1008D8003810010001000000F4DD0120F8DE0120DD
:1008E80000000000D20B0008020001000C0000000C
:1008F80064DE0120FCDE0120000000000000000092
:10090800280204000400000080E1012078E60120AC
:1009180000000000116E0508270204000400000012
:100928007CE101207CE6012000000000056E05083E
:100938001F020800100000006CE1012080E6012081
:1009480000000000696D05081A0201003C00000063
:100958002CE1012090E601200000000085770508C1
:1009680027000100040000002CE701208CE701208B
:1009780000000000D40B00080B1201003C0000002E
:1009880044E8012020FA012000000000D80B0008EC
:100998000D12010014000000F8F401205CFA012097
:1009A80000000000140C000807020100020000000B
:1009B80008FA012070FA012000000000280C000845
:1009C8001D0202000600000060F9012074FA0120EF
:1009D80000000000000000000602040010000000F3
:1009E80068F901207CFA012000000000B9760508AA
:1009F800390001000500000078F901208CFA012077
:100A080000000000556D05081002010001000000FB
:100A1800281A0220241A0220000000002A0C0008CC
:100A28000000000000FF00000000010000000000BE
:100A3800000001010101FFFFFFFF000000010000AD
:100A48000553375832000000000200000000010082
:100A5800000000000000000000000000000000008E
:100A680020003200C800D007960014003200280089
:100A78004C0440060005500014000F0008006400F4
:100A88000100010005000A000000F4019600C409F5
:100A9800000019000005010000000000000020000F
:100AA800030100000000000000000000000000003A
:100AB800000000000000000000000000000000002E
:100AC800000000000000AE014A015E012C01640034
:100AD8000200000001000A019A01001E0A0000023B
:100AE80000000000000100000005000001020300F2
:100AF80000000000000000000000000000000000EE
:100B0800008007000000000003000023E8036400E1
:100B1800040A000114001E0000204030900100006B
:100B280000000000010000000202000000000000B8
:100B380000000000000000000000000000000000AD
:100B4800000000000000000000000000000000009D
:100B5800000000000000000000000000000000008D
:100B68000000000000000000000000000100000577
:100B78000101F40114000000280100007E05EA05C7
:100B8800B4053200E803D0070000000000000000B0
:100B9800000000000000000000000000000000004D
:100BA800000000000000000000000000000000003D
:100BB800000000000000000000000000000000002D
:100BC80000000000000000000000000020030000FA
:100BD800000000000000000000000000000000000D
:100BE80000000000000000000000000000000000FD
:100BF80000000000000000000000000000000000ED
:100C080000000000000000000100000000000000DB
:100C180000000000000000000000000000000000CC
:030C2800003C008D
:100C2B0000C20100000008000A060002000000409C
:100C3B000100000009026400030100C03209040036
:100C4B0000010300000009211101000122360007F9
:100C5B0005830308000A080B0102020201000904C4
:100C6B00010001020201000524001001052401000E
:100C7B000204240202052406010207058203080070
:100C8B00FF09040200020A000000070501024000F0
:100C9B000007058102400000952F0108952E0108E1
:100CAB002961010800000000A1230108855D0108EE
:100CBB00CD23010800000000000000000000000030
:100CCB008123010891230108712301086123010885
:100CDB001A030000000000000000000000000000EC
:100CEB0000000000000000000000000004030904E5
:100CFB00FFFFFFFF120100020000004083042A5790
:100D0B000002010203010000120100020200004078
:100D1B00830440570002010203010000120100028C
:100D2B00EF0201408304563200020102030110005E
:100D3B007D00000000000000D193000835B00008D2
:100D4B008D93000875B10008B1940008C98B000899
:100D5B00B58B0008998B0008F52D0108E52C0108CF
:100D6B000197000881970008C5D70008453801088E
:100D7B00C1220108A18B0008918B00080100000023
:100D8B000000803F0A060002000000400100000046
:100D9B0009072000010104C0320904000002080603
:100DAB0050050705810240000007050102400000C5
:100DBB0009022000010104C03209040000020806E8
:100DCB0050050705810240000007050102400000A5
:100DDB0009022000010104C03209040000020806C8
:100DEB005005070581020002000705010200020001
:100DFB000A06000200000040010000000902220068
:100E0B00010100E032090400000103010200092185
:100E1B00110100012236000705830308000A0000B8
:100E2B0009022200010100E0320904000001030164
:100E3B000200092111010001223600070583030876
:100E4B000007000009022200010100E03209040042
:100E5B0000010301020009211101000122360007E4
:100E6B0005830308000A00000A0600020000004088
:100E7B000100000009074300020104C0320904000D
:100E8B0000010202010005240010010524010001EC
:100E9B000424020205240600010705820308001042
:100EAB0009040100020A00000007050102400000CE
:100EBB00070581024000000009024300020100C047
:100ECB003209040000010202010005240010010593
:100EDB0024010001042402020524060001070582F7
:100EEB000308001009040100020A000000070501B5
:100EFB000200020007058102000200000902430004
:100F0B00020100C0320904000001020201000524A5
:100F1B00001001052401000104240202052406002F
:100F2B00010705820308001009040100020A0000F2
:100F3B000007050102400000070581024000000088
:100F4B0000FF0000000000000000AA550701000090
:100F5B000100000000600240106002400000000031
:100F6B0000000000000B000000000000000000006B
:100F7B0000000000006002402860024001000000F9
:100F8B0000000000060C0000000000000000000044
:100F9B0000000000006002404060024002000000C0
:100FAB0000000000100D0000000000000000000019
:100FBB000000000000600240586002400300000087
:100FCB0000000000160E00000000000000000000F2
:100FDB00000000000060024070600240040000004E
:100FEB0000000000200F00000000000000000000C7
:100FFB000000000000600240886002400500000015
:10100B00000000002610000000000000000000009F
:10101B000000000000600240A060024006000000DB
:10102B000000000030110000000000000000000074
:10103B000000000000600240B860024007000000A2
:10104B0000000000362F0000000000000000000030
:10105B000000000000640240106402400000000029
:10106B00000000000038000000000000000000003D
:10107B0000000000006402402864024001000000F0
:10108B000000000006390000000000000000000016
:10109B0000000000006402404064024002000000B7
:1010AB0000000000103A00000000000000000000EB
:1010BB00000000000064024058640240030000007E
:1010CB0000000000163B00000000000000000000C4
:1010DB000000000000640240706402400400000045
:1010EB0000000000203C0000000000000000000099
:1010FB00000000000064024088640240050000000C
:10110B00000000002644000000000000000000006A
:10111B000000000000640240A064024006000000D2
:10112B00000000003045000000000000000000003F
:10113B000000000000640240B86402400700000099
:10114B000000000036460000000000000000000018
:10115B0000000000AA55050100000800FC930608DA
:10116B00FF1FFF1F05010905A101A10005010930A2
:10117B000931093209330935093409360937158123
:10118B00257F7508950881020509190129081500A5
:10119B002501950875018102C0C0000009211101CC
:1011AB0000012236002D202D2D202D2D2D2D202D13
:1011BB002D2D2D000000000000000000000000009D
:1011CB0000000000AA550B010000AA550501000004
:1011DB00AA550902000000AA5503009F0100000058
:1011EB00C012000001000000000001007EFF0000A3
:1011FB00FFFFFFFFFF000000FFFFFFFF78A40120B0
:10120B000000000050A401200000000001000000BD
:10121B004C250708C824070800000000B1BF0308CD
:10122B00A086010004000000000000000000000088
:10123B0000000000000000000000000000000000A3
:10124B000000000000000000000000000000000093
:10125B004C250708542507080000000015910408C9
:10126B00E803000004000000000000000000000084
:10127B000000000000000000000000000000000063
:10128B000000000000000000000000000000000053
:10129B005C2507080000000000000000551000004E
:1012AB007D000000FF0000000000000000000000B7
:1012BB000000000000000000000000000000000023
:1012CB000000000000000000000000000000000013
:1012DB00DC4F07080000000000000000890600003A
:1012EB007D000000FF000000000000000000000077
:1012FB0000000000000000000000000000000000E3
:10130B0000000000000000000000000000000000D2
:10131B007C3007080000000000000000E51300000F
:10132B007D000000FF000000000000000000000036
:10133B0000000000000000000000000000000000A2
:10134B000000000000000000000000000000000092
:10135B006425070800000000000000006D880408E9
:10136B00E803000003000000000000000000000084
:10137B000000000000000000000000000000000062
:10138B000000000000000000000000000000000052
:10139B006825070800000000000000007D510308CD
:1013AB0010270000030000000000000000000000F8
:1013BB000000000000000000000000000000000022
:1013CB000000000000000000000000000000000012
:1013DB00F04B0708000000006593020891C6040853
:1013EB005F76000005000000000000000000000018
:1013FB0000000000000000000000000000000000E2
:10140B0000000000000000000000000000000000D1
:10141B00804F0708000000000000000025EE0408C4
:10142B001027000001000000000000000000000079
:10143B0000000000000000000000000000000000A1
:10144B000000000000000000000000000000000091
:10145B007425070800000000000000001D7F040831
:10146B00E803000005000000000000000000000081
:10147B000000000000000000000000000000000061
:10148B000000000000000000000000000000000051
:10149B0080250708000000000000000015C60308A7
:1014AB00204E0000030000000000000000000000C0
:1014BB000000000000000000000000000000000021
:1014CB000000000000000000000000000000000011
:1014DB00902507080000000000000000FDC3030872
:1014EB00204E000003000000000000000000000080
:1014FB0000000000000000000000000000000000E1
:10150B0000000000000000000000000000000000D0
:10151B00A02507080000000000000000AD8D0408A6
:10152B00400D03000300000000000000000000005D
:10153B0000000000000000000000000000000000A0
:10154B000000000000000000000000000000000090
:10155B00B02507080000000000000000C546040885
:10156B001027000001000000000000000000000038
:10157B000000000000000000000000000000000060
:10158B000000000000000000000000000000000050
:10159B00F42407080000000000000000C10E020840
:1015AB0010270000030000000000000000000000F6
:1015BB000000000000000000000000000000000020
:1015CB000000000000000000000000000000000010
:1015DB00B8250708000000000000000041B5020814
:1015EB00A0860100010000000000000000000000C8
:1015FB0000000000000000000000000000000000E0
:10160B0000000000000000000000000000000000CF
:10161B00C02507080000000000000000D986040860
:10162B0050C300000100000000000000000000009B
:10163B00000000000000000000000000000000009F
:10164B00000000000000000000000000000000008F
:10165B00C82507080000000000000000B58404083E
:10166B00A086010000000000000000000000000048
:10167B00000000000000000000000000000000005F
:10168B00000000000000000000000000000000004F
:10169B00D42507080000000000000000892604087C
:1016AB00A861000001000000000000000000000025
:1016BB00000000000000000000000000000000001F
:1016CB00000000000000000000000000000000000F
:1016DB00E025070800000000000000003D5902084B
:1016EB00A0860100010000000000000000000000C7
:1016FB0000000000000000000000000000000000DF
:10170B0000000000000000000000000000000000CE
:10171B00EC250708000000000000000079FD03081D
:10172B00A00F0000010000000000000000000000FE
:10173B00000000000000000000000000000000009E
:10174B00000000000000000000000000000000008E
:10175B00F8250708000000000000000001EB01085D
:10176B001027000001000000000000000000000036
:10177B00000000000000000000000000000000005E
:10178B00000000000000000000000000000000004E
:10179B00042607080000000000000000A5FC030859
:1017AB00A00F00000100000000000000000000007E
:1017BB00000000000000000000000000000000001E
:1017CB00000000000000000000000000000000000E
:1017DB0010260708000000000000000079E3010854
:1017EB001A41000001000000000000000000000092
:1017FB0000000000000000000000000000000000DE
:10180B0000000000000000000000000000000000CD
:10181B00142607080000000000000000992A0108A8
:10182B001027000001000000000000000000000075
:10183B00000000000000000000000000000000009D
:10184B00000000000000000000000000000000008D
:10185B00DC240708000000000000000025630208DC
:10186B0050C3000001000000000000000000000059
:10187B00000000000000000000000000000000005D
:10188B00000000000000000000000000000000004D
:10189B002026070800000000000000001D3401088E
:1018AB00400D0300000000000000000000000000DD
:1018BB00000000000000000000000000000000001D
:1018CB00000000000000000000000000000000000D
:1018DB0028260708000000000000000011FC030888
:1018EB00400D03000000000000000000000000009D
:1018FB0000000000000000000000000000000000DD
:10190B0000000000000000000000000000000000CC
:10191B003026070800000000000000008D4502087B
:10192B0050C3000003000000000000000000000096
:10193B00000000000000000000000000000000009C
:10194B00000000000000000000000000000000008C
:10195B003C260708000000000000000089DD03089A
:10196B0040420F00000000000000000000000000DB
:10197B00000000000000000000000000000000005C
:10198B00000000000000000000000000000000004C
:10199B0048260708000000000000000051FD030866
:1019AB0050C3000000000000000000000000000019
:1019BB00000000000000000000000000000000001C
:1019CB00000000000000000000000000000000000C
:1019DB0001FF0100E0010000FFFFFFFF010000001D
:1019EB00B5F801080000000000000000949A0608FA
:1019FB000800000042570200000001064257020097
:101A0B0000000106000000000000000000000000C4
:101A1B0038B40608000000000000000000000000C1
:101A2B00F0B40608000000000000000000000000F9
:101A3B009CB406080000000000000000392A0208D0
:101A4B0075AF01200101000051520208D953020861
:101A5B00000000006CB606089D5102080000000053
:101A6B0000000000D0B50608B955020800000000C0
:101A7B000000000088B506082D202D2D202D2D2DC2
:101A8B002D202D2D2D000000000000000000000077
:101A9B000000000000000000FFFFFFFFF13C020808
:101AAB000000000000000000C8B3060801000000A1
:101ABB00FA000000010000000100000098AB0120BB
:101ACB000000F4010100000096AB01200000F401BE
:101ADB000100000094AB01200000F40101000000A4
:101AEB0092AB01200000F4010100000090AB01203B
:101AFB000000F401010000008EAB01200000F40196
:101B0B00010000008CAB01200000F401010000007B
:101B1B0011010208D50002080000000048A00608C9
:101B2B007CAB0120053201008AAB01206400F4017B
:101B3B000100000088AB01206400C4090100000013
:101B4B007AAB0120E803D0070100000078AB01203D
:101B5B00E803D0070100000076AB0120E803D007B3
:101B6B000100000074AB01201E00B80B0100000047
:101B7B0082AB012005000F000100000084AB0120A7
:101B8B0003000A000100000072AB01201E00F401EB
:101B9B000100000086AB012002000000D4A0060863
:101BAB0070AB012014006400010000007EAB01202B
:101BBB003200E803010000006EAB01200000C800FA
:101BCB000100000079AA012000C8010078AA0120B9
:101BDB000050010077AA0120005A010075AA0120CC
:101BEB0002000000E0A00608C4270708CC2707085E
:101BFB009A5901200100C4090000000098590120E6
:101C0B000100C40900000000965901200100C4091D
:101C1B0000000000945901200100C40900000000DD
:101C2B00905901200100C4090000000092590120C5
:101C3B000100C409000000008E5901200100C409F5
:101C4B00000000008C5901200100C40900000000B5
:101C5B0023A8012000C8010022A8012000C8010010
:101C6B0020A801200000FFFF0A0000001EA8012091
:101C7B000100C800010000001CA8012032003075D3
:101C8B00320000001AA801200582050018A80120C7
:101C9B0005002C010500000017A80120055A0500BE
:101CAB0014A8012000FF010016A80120020000006B
:101CBB00C80F012012A8012003000000749506082C
:101CCB0013A8012000FF010015A80120020000004D
:101CDB00C80F012011A8012003000000749506080D
:101CEB0065000208F5FF010800000000ECA00608E3
:101CFB00B0AB0120EE02CA0801000000AEAB012020
:101D0B0000C8010064000000ADAB012000C8010059
:101D1B0064000000ACAB012002000000F8A1060833
:101D2B00FEA701200000803E05000000FCA701205B
:101D3B0080C1803E05000000F6A701200083007DD6
:101D4B0005000000F4A7012080C1803E05000000C3
:101D5B00EFA7012000FF0100E8A701206400F401B8
:101D6B0001000000E6A701200400000004A2060801
:101D7B00E5A701200200000018A20608A9A801206F
:101D8B000D00000024A20608A6A801200064010093
:101D9B00A4A80120320010270A000000A2A80120ED
:101DAB000D00000024A20608A1A801200D000000D0
:101DBB0024A20608A0A80120020000005CA20608CD
:101DCB0000000000000000000000000068A20608F0
:101DDB00B6AB01203E000000A0A20608B4AB012068
:101DEB000100FF7F01000000B3AB012002000000E7
:101DFB009CA30608ABA8012003000000ACA30608B7
:101E0B00AAA8012003000000ACA3060866AA0120C3
:101E1B00000A010064AA01200000E8030100000091
:101E2B0062AA01200000E8030100000060AA012063
:101E3B000000E803010000005EAA01200000E80397
:101E4B000100000056AA01200000E8030100000079
:101E5B005CAA01200000E803010000005AAA01203F
:101E6B000000E8030100000058AA01200014010043
:101E7B0074AA012002000000BCA3060872AA01206C
:101E8B000000F4010100000070AA01200000F40121
:101E9B00010000006EAA01200000F4010100000007
:101EAB006CAA01200000F401010000006AAA0120C5
:101EBB000000A00F0100000068AA01200000A00F85
:101ECB00010000005BAB0120196401005AAB01203B
:101EDB0002000000C8A3060858AB0120E803D00796
:101EEB000A00000056AB0120006401000A0000004C
:101EFB004BAB0120006401004AAB012000640100E0
:101F0B0052AB0120006401000A00000051AB01201C
:101F1B00006401000A00000050AB012000640100C6
:101F2B000A00000055AB012000FF01000A00000071
:101F3B0054AB012000FF01000A00000053AB01204D
:101F4B0000FF01000A0000004FAB012001FF010060
:101F5B000A0000004EAB012001FF01000A00000047
:101F6B004DAB012001FF01000A000000B4A80120C5
:101F7B000000F40101000000B2A801200000A00F36
:101F8B0001000000B0A801200000A00F010000001C
:101F9B00AEA801200000A00F01000000ACA801209A
:101FAB000000A00F01000000BDAF012000C8010020
:101FBB00BCAF012000640100BBAF01200064010035
:101FCB00BAAF012000640100B9AF01200064010029
:101FDB00B8AF0120FF080100B7AF01200164010079
:101FEB005DFF010821FF010800000000D4A30608D3
:101FFB00C0AF012001320100BFAF01200100000082
:10200B0044A40608BEAF0120040000004CA406083F
:10201B00B6AF012000640100B4AF01201400E80347
:10202B0001000000B2AF0120E80330750A00000088
:10203B00B1AF012000C80100B0AF012000C8010002
:10204B00AFAF012000C80100AEAF0120003201008C
:10205B00C2AF0120004B0100C1AF01200400000002
:10206B0060A40608ADAF0120006401000A00000067
:10207B00D0AF01200000D00701000000CBAF012042
:10208B0000C80100CAAF012000C80100C9AF012080
:10209B0000C80100CEAF01200000D00701000000F6
:1020AB00C8AF012000C80100C7AF012000C8010064
:1020BB00C6AF012000C80100CCAF01200000D00743
:1020CB0001000000C5AF012000C80100C4AF012012
:1020DB0000C80100C3AF012000C8010015FD0108B5
:1020EB00FDFC01080000000074A406089DA8012057
:1020FB00005A01009CA8012000C801009AA80120E9
:10210B00E803D00701000000000000000000000001
:10211B00792A020810A5060853544D333246375816
:10212B003200000010A80120000301000FA80120BD
:10213B000003010039FC0108EDFB01080000000061
:10214B0064A50608ADFB010865FB01080000000053
:10215B0000A6060885FC0108D53C0208000000001B
:10216B0080A6060800A8012001030100ED0102086A
:10217B00C101020800000000D8A90608E9FA01080D
:10218B009DFA01080000000048AA060825FD010879
:10219B006182020800000000E4AA06086D410208F3
:1021AB0019020208000000008CAB060875FD01083F
:1021BB00000000000000000018AC060851FE0108EA
:1021CB00F9FD0108000000007CAC0608E5FE0108E3
:1021DB00A9FE01080000000024AD06087D7F02085F
:1021EB0099FF010800000000B0AD06086DAB01209F
:1021FB0001060100BDFD010889FD0108000000007A
:10220B00ACAE0608AF7E0208753E02080000000067
:10221B001CAF0608C97F02083D3F02080000000002
:10222B006CB006086CAB012001030100CDFC01086A
:10223B009DFC01080000000040B106082580020843
:10224B000000000000000000A4B1060835FB0108E7
:10225B00BD3C02080000000024B20608000000008C
:10226B000000000000000000B0B20608CDFF01081E
:10227B00B53F02080000000020B306080000000074
:10228B00000000000000000038B50608E0960120B1
:10229B009CFF2C010000000034B20120E0150C174C
:1022AB000000000009AF01200200000070B5060815
:1022BB00E1A70120020000007CB50608DCA7012085
:1022CB0088136F1701000000DEA7012088136F171A
:1022DB0000000000DE59012000000000000000009B
:1022EB00DC5901200000000000000000DA59012039
:1022FB000000000000000000D85901200000000081
:10230B0000000000D6590120000000000000000072
:10231B00D45901200000000000000000C00501207E
:10232B00000000000000000066A701200300000071
:10233B00D0B60608D4A7012088136F170100000040
:10234B002A97012088136F17000000007DF9010800
:10235B000000000000000000E0B606080AAF0120F4
:10236B000100000034B706082C9701200100000083
:10237B0040B70608229701200200000048B7060864
:10238B0000000000000000000000000054B7060829
:10239B0065F901080000000000000000F0B7060816
:1023AB0000000000000000000000000044B8060818
:1023BB00000000000000000000000000B4B8060898
:1023CB00E0A7012002000000ECB8060826970120C8
:1023DB00E0150C1700000000F0BB012044BC0120ED
:1023EB0001D601010001010100FF0100FFFFFFFF0A
:1023FB000000803F00000000000000000000000013
:10240B0000000000000000000000000000000000C1
:10241B0000000000000000000000803F00000000F2
:10242B0000000000000000000000803F00000000E2
:10243B0000000000000000000000803F00000000D2
:10244B000000000000000000010000000000FA4343
:10245B000000FA43FFFFFFFFFF0000000000803F7A
:10246B00D548040800000000000000000000000038
:10247B0000000000D0DA012008000000000000007E
:10248B00C0DA01200800000001000000A00F0000CE
:10249B00B80B000002FFFF01685E0C00918A000878
:1024AB00758A0008318A000800000000258A0008A0
:1024BB00118A0008FD8900080000000000000000E0
:1024CB000000000000000000ED8900080000000083
:1024DB00DD890008C58F0008858B00084D8B00082F
:1024EB00618B0008058B0008F18A0008DD8A000863
:1024FB0069980008D98900085589000835FA000841
:10250B00FFFFFFFF02000000E44B0708000008027A
:10251B000503040000000000EC4B07080100080253
:10252B000504040000000000784A07080200FE01C1
:10253B0001100300000000002C2B070803001402FD
:10254B000003000000000000F44B070804001F020A
:10255B000200080000000000FC4B070805001F02EA
:10256B000201080000000000FFFF0000FFFFFFFF5B
:10257B000B010000E12E0108412E0108815E0108CC
:10258B000000000000000000555C01088D5C010894
:10259B0000000000000000000000000005230108FF
:1025AB00F5220108E5220108D5220108C97F05089B
:1025BB009D7F0508417F0508456F05085D7F050870
:1025CB00017F0508356F05086C1A0120C57E0508CB
:1025DB00E57E0508B57E05086D6F0508717E05085B
:1025EB00297E0508696F0508481A0120017805083E
:1025FB004D6F0508496F0508416F050845790508BA
:10260B003D6F0508396F0508A8100708FFFFFFFF8E
:10261B000100000050C30000010100001F0000007A
:10262B001C0000001F0000001E0000001F00000027
:10263B001E0000001F0000001F0000001E00000015
:10264B001F0000001E0000001F0000000068214C4E
:10265B0001250000D00C0708F4010000FFFF00006B
:10266B00481A0708901A0120008002021F00000080
:10267B0053544D202020202050726F6475742020FD
:10268B002020202020202020302E303100800202FC
:10269B001F00000053544D202020202050726F64E7
:1026AB00757420202020202020202020302E303137
:1026BB005F2A01085B2A0108532A01083B280108FD
:1026CB00F133010885330108E1320108492A010879
:1026DB00392A0108292A0108192A01083328010877
:1026EB0001000000000000000401000000070000D2
:1026FB0000000000000000000002000010000000BD
:10270B00000000000000000007000000B001000006
:10271B00020000000900000001000000001B012066
:10272B00000000000000000000000000000000009E
:10273B00000000000000000000000000000000008E
:10274B00000000000000000000000000000000007E
:10275B00000000000000000000000000000000006E
:10276B00000000000000000000000000000000005E
:10277B00000000000000000000000000000000004E
:10278B000100000001000000B0220020000000004A
:04279B00200000001A
:08280000082800080040000850
:10800000026C03463AB11A6CD20608D50022012050
:1080100083F83C207047426480F83C20F3E71A6CF8
:1080200049494A4811401A6841F00201F0B4196404
:108030004168474D21F44031416041685C6821430B
:1080400041605168186921F48071D3F808C0DF6875
:10805000516054689E6A44EA0024AE4254605468F9
:1080600024F040745460506840EA0C0050609068FE
:1080700020F400609060916841EA0701916054D05B
:108080009068DC6A20F07060906091680E439660A2
:10809000906820F040509060916821439160906812
:1080A0009C6920F002009060916841EA440191606F
:1080B00093F82010002941D05468596A44F40064B0
:1080C000481E5460516821F460415160516841EA92
:1080D00040315160D06A0025DC6920F470005E698F
:1080E000611ED0622846D46A44EA0154D46294687E
:1080F00024F400749460946893F8301044EA4124A6
:108100009460946824F480649460916841EA8621C4
:1081100091605D641A6C22F0030242F001021A645D
:10812000002283F83C20F0BC7047916821F0706118
:108130009160916821F040519160B0E7516821F45D
:1081400000615160C6E700BFFDEEFFFF0023014064
:108150000100000F0129F0B42A4C4FF000062A4D0F
:1081600094BF002701272368EE626662A6626763F8
:10817000676B47EA42076763EE63EC6B002A38D10E
:1081800044F49574EC631C6824F001041C601C68C2
:10819000E407FCD4490289085960D8601968EAB933
:1081A00021F04001196019498B421DD018494FF444
:1081B0007410C860196841F01E011960596941F0D6
:1081C00080015961196841F00101196022B90E4A14
:1081D000D36A43F00803D362F0BC704741F040011A
:1081E00019600A498B42E1D14FF0746041F8500C9C
:1081F000E0E744F01A04EC63EC6A44F00804EC6233
:10820000C1E700BF601B0120002C01405864024000
:10821000006402402DE9F04F022389468A462DED85
:10822000108B99B0DFEDCABA14930346169004334D
:10823000159217934FEADA06169DDDF85CC04FEAF7
:10824000CA0305EB46111396F0004FF0000B01EB4B
:10825000061437010390A6EB86020194049706EBFF
:10826000460E04EBC202041D381D06EB86072C44A3
:10827000C6EBC60802972844029D02EB46174FEA58
:10828000C808ED0001EBC60602954FEA0E150595EC
:108290004FEACE050695139D4FEA451E019D95EDCB
:1082A000007AD34492ED005AD7ED004AD945D1ED7A
:1082B000006A50ED013A35EE241AD6ED002A1CED85
:1082C000016A73EE875A54ED017A33EEC73A36EEFF
:1082D000264A77EEA21A36EE666A77EEE27A74EEF6
:1082E000256A71EE812A77EE633A37EEC57A36EE6B
:1082F000A22A77EEE47A76EEE26A0CED012A37EEF6
:10830000247A77EE857AD1ED018AC1ED006A74EEA8
:10831000655A96ED015AB0EE460A94ED004AA7EE72
:108320002B6AD2ED010AE7EEAB3A74EE456AD7ED5F
:10833000012AA7EE6B0A9CED007AD5ED014A34EED6
:10834000054A37EE689A90ED005A36EEE02A76EE4E
:10835000E26A30EEA28A32EE222A76EEA06AF0EECF
:10836000492A75EE640A37EE287A75EE249AE2EE11
:108370006B2A74EEC54AF0EE608AB0EE40AAE6EED3
:10838000AB4AE6EEAB8AA6EEEBAAF0EE496AB0EE97
:10839000629A37EE695AE2EE2B6AB0EE432A74EE27
:1083A00008AAA7EEEB9AA7EEAB2A77EE297A35EE6C
:1083B000617A75EEC89A35EE415A75EEC45A37EEB9
:1083C000AABA77EEEA7A37EE011A8CED00BA36EEE9
:1083D000287AC1ED017A39EE844A76EEC27A1944E0
:1083E00075EE885A9C4435EE215A00ED014A70EE34
:1083F0008A0A70EE244AC5ED005A36EE686A80EDAE
:10840000001A72EEA33A85ED015A33EE093A04EDF3
:10841000017A72EE266A87ED006A1D44C6ED000AF5
:108420001844C2ED004AC4ED007A1C44C7ED016A4D
:108430001F44C6ED013A1E4482ED013A1A443FF64C
:108440002EAF139A072A40F2C681039A0EF1080E46
:10845000169F08F108000832029E059D4FF00008A3
:1084600094463A46083608357244069C0499D34629
:10847000109207EB0C0208340C310F92BA190E92CD
:108480007A190D923A190C923A180B927A180992AD
:1084900007F10C020A9201220892149ADDF824C016
:1084A0009044159A0A9F02EBC8020B9EA8EB880E17
:1084B0000C9D02EBC80192ED00BA0D9C01EBC802C5
:1084C000D1ED00AA0E9802EBC80192ED00AA01EBD3
:1084D000C802D1ED009A02EBC80192ED009A01EBBF
:1084E000C802D1ED008A0F9902EB0E1E92ED008AB0
:1084F000109A0EEBC80ADEED017A1192CDED047AE6
:108500000AEBC802DAED017A02EBC80A1291CDED4E
:10851000057AD2ED017A0AEBC802DDF820E0CDED54
:10852000017ADAED017A02EBC80ACDED067AD2EDD6
:10853000017A0AEBC802CDED027ADAED017ACDEDCF
:10854000077AD2ED017ADDE91121CDED037A01E060
:10855000F304353F17ED017ADE44D2ED007A94ED55
:10856000005AF145D5ED006A37EE274AD0ED004AB2
:1085700077EE677A1CED016A96ED007A91ED001AAC
:1085800076EE055A36EE872A97ED00DA71EE24EA88
:1085900076EE453A74EE252A31EE641A35EE466AD7
:1085A0003EEE825A74EE655A31EE664A72EE854AA4
:1085B00031EE471AB0EE67CA47ED014A34EE077A4A
:1085C000D1ED014A31EE261AD0ED016A72EEC52ACC
:1085D00095ED014AA7EE6BCA74EEE60A96ED010A24
:1085E000E7EE2B7A92ED017A94ED015A74EEA64AE9
:1085F0003DEE473ADCED006A70EEC4CA70EEC00A88
:10860000B0EE43EA7CEE80CA74EE001A70EE840A83
:10861000ACEEEBEA36EEC54A3DEE077AB0EE63DA31
:1086200036EE850AACEEAB3AF0EE4EDAA1EE2BDA7E
:10863000A1EE2B6AE1EE6BDA75EE666AB0EE441AD3
:10864000F0EE4CCA37EE405AA0EEAB1AE0EEEBCAA1
:10865000E0EEAB6A37EE007A74EEA10A35EEE1FA8D
:1086600075EEE45A75EE6EFA37EE600A71EEA55AB1
:10867000DDED061A35EE425A7FEE244A3FEE822A9D
:1086800022EEE1FA61EE80FADDED051A3EEE855A42
:108690003EEE066A73EEAD3A21EE82EA73EE4DDAF3
:1086A0003DEE033A24EEE1DADDED071A34EE2C4A12
:1086B0007CEE266A61EE85CA25EEE1CADDED041A7C
:1086C00077EE81EA77EEC17AE9EEA2FADDED032AD0
:1086D000A9EE80FA9DED030AAAEEA4EADDED014AB7
:1086E000AAEE82DA9DED012AE8EEA5CADDED025A76
:1086F000A8EE85CA9DED025A21EEAD1A62EE832ADC
:108700006EEEE11A27EEC00A64EEA34A26EEC22AF4
:1087100065EE865A24EE455AABEE2E1AEBEE2D1A74
:10872000E8EE272AA8EE030AEAEE264AAAEE232A52
:10873000E9EE045AA9EE065A37EE207A87ED007A60
:108740001F44C2ED00FA82ED01FA1A440CED01EA71
:108750008CED00DA9C44C4ED00CA84ED01CA1C44CF
:1087600081ED001AC1ED011A1944C6ED002A86ED0B
:10877000010A1E44C0ED005A80ED015A1844C5EDAF
:10878000004A85ED012A1D443FF6E4AE1099089A8F
:108790000831013210910F99089208310F910E990A
:1087A00008310E910D9908310D910C9908310C91F9
:1087B0000B9908310B910A9908310A9109990831EE
:1087C0000991139991427FF468AE149B8A46DB00AD
:1087D0009BB214932EE519B0BDEC108BBDE8F08F61
:1087E00011480023024611780632032916D00133BE
:1087F000062BF8D10D49CA6D052A0ED002EB4203B3
:10880000013200EB4303CA65032040F2EB3140F232
:10881000FF32187059809A807047704703EB43030A
:1088200000EB4303F0E700BF981B0120601B012011
:10883000124B30B41D6E6B6A28B943EA0143002025
:10884000AB6230BC7047AC6A013803EB14440BD008
:10885000002303F14002013305EB8202DBB25268D0
:10886000834204EB1244F4D3403044EA014405EB64
:1088700080004460002030BC704700BF601B0120B6
:10888000037870B42BB30246C0F10105531912F8F6
:10889000014FDBB2002CF9D101335B000E4C0322F7
:1088A0000B8084F8643484F86524017879B102235C
:1088B00000265A1CE518023354FA82F285F8641433
:1088C000DBB282F8646410F8011F0029F1D170BC9A
:1088D00070470223E2E700BF601B012030B5EFF3D1
:1088E0001181802383F312880A4AD2F86435D2F8C2
:1088F0006845D2F86405D2F86855CAB282F3118887
:10890000013BA84294BF4FF4006000201B1B184499
:1089100030BD00BF601B0120012380F8513070473B
:10892000014BD3F86C057047601B01200120704794
:10893000024BC3F87025C3F874157047601B012003
:10894000024BC3F87825C3F87C157047601B0120E3
:1089500070477047212870B505D0222829D02028DB
:1089600010D0002070BD0029FBD0072AF9D1184B88
:1089700018791C685A799B79087100200C604A713B
:108980008B7170BD0029ECD0072AEAD11148104B39
:108990000C680E794D79D0F8742589791C601E71A8
:1089A0005D719971002ADCD02146D0F8700590479E
:1089B000D7E70029D5D0022AD3D1064AD2F87C3590
:1089C000002BCED00988D2F878059847C9E700BFB8
:1089D00000000120601B01200020704703460A228E
:1089E00001481A80704700BF080001200346642236
:1089F00001481A80704700BF14000120012901D0EE
:108A000000207047014BD3F8903018470000012038
:108A1000012901D009F086BC014BD3F88C301847EE
:108A200000000120014BD3F88830184700000120D6
:108A300010B40B780A46044603F00303012B05D05B
:108A4000022B0BD000205DF8044B70478B8843B994
:108A5000204611465DF8044B0DF0E0BA8B88832B5D
:108A6000F6D0034B5DF8044BD3F88030184700BFB5
:108A70000000012038B5054B04460D46DB6F9847D2
:108A8000294620460AF0F4F9002038BD00000120F4
:108A900038B5054B04460D469B6F9847294620463E
:108AA0000AF062FA002038BD00000120F0B4002472
:108AB00052004E1C2746030FB0F1204F4FEA001022
:108AC00003F1300503F1370334BF0D550B5537550E
:108AD0000234A242EFD1F0BC704700BF024808B593
:108AE000FFF7CEFE014808BDBC1D0708C41F0120CA
:108AF000024808B5FFF7C4FE014808BDCC1D0708B1
:108B0000C41F01200B481A220B4B00681B680A8007
:108B1000C01801D109487047094B0822094910B50E
:108B20001C68FFF7C3FF042207492046FFF7BEFF7A
:108B3000024810BD107AF01F187AF01FB000012013
:108B4000147AF01FB2000120C2000120024808B5CB
:108B5000FFF796FE014808BDD81D0708C41F012075
:108B600008B520B90448FFF78BFE044808BD044847
:108B7000FFF786FE014808BDE41D0708C41F012059
:108B8000081E0708042301480B807047CC00012011
:108B90000048704708210120004870470821012043
:108BA000034B93F8A405032894BF002001207047CD
:108BB000601B0120034B93F8A405032894BF0020F9
:108BC00001207047601B0120034B93F8A405003877
:108BD00018BF0120704700BF601B012098B1826858
:108BE0000C4B12B107229A70704718780421DA6092
:108BF00003281A611A750CBF80224FF48072997095
:108C0000C3E901227047034B012241F2E4715A701B
:108C10005A547047E07C01200378022B0FD0006982
:108C200008B9012070470E4B1B78032B12D080B27D
:108C30004FF6F773984294BF00200120704708490F
:108C400041F6500243688A58B3EB422F2CBF0120F3
:108C500000207047034B984294BF002001207047CA
:108C6000E07C0120F7FFFF0F30B40378022B13D014
:108C7000104A41F64801436841F63C04555802F554
:108C8000C25100692B400968023812595B0A01FB86
:108C9000003030BC10447047064B41F6300441F6BA
:108CA000340142681859595800EB410030BC00EBC0
:108CB00052207047E07C012038B540F48062074CB8
:108CC0000B4640F2FF55012100F03F00A563A36071
:108CD000E26056F06BFDA56338BD00BF002C01407B
:108CE0002DE9F84F574B984211D003F568530833DC
:108CF000984269D00023544A1846A2F84C36A2F88C
:108D00005836C2F85036C2F85436BDE8F88F4E4C8B
:108D10004FF0000B02224D4E04F5BF65D9464FF4CB
:108D2000007A4FF48078C4F8F425D6F8D0200127D3
:108D300059465A45BB4403D0D4F8680651F034FF75
:108D40004FF4803394F86C164FF00072D4F8680634
:108D500085F82410B721A5F804A0A5F8108085F89F
:108D60001290A5F806802F762862C5E9023252F0EB
:108D700017F9D4F8F425364B93456F7645F8283B20
:108D8000D3DB84F85A96D4F8F4350120D4F80416CD
:108D9000B4F8FC25D4F8005612FB03F201FB03F3F0
:108DA000B4F80866A4F84C26C4F85436B4F8FE2586
:108DB000284BC4F87016C4F85056A4F85866A4F8A6
:108DC0004E26C4F84836A0E71F4C02224FF0000B95
:108DD0001E4E04F5BF654FF4806A4FF040094FF412
:108DE0000068C4F8F425D6F8D020012759465A4522
:108DF000BB4403D0D4F8680651F0D6FE4FF00062B1
:108E0000D4F868164FF4003094F86CC6296285F8DF
:108E100024C0A5F804A0A5F81090A5F80680AF74AA
:108E2000C5E90202FFF7DCFC28466F7652F006F82F
:108E3000D4F8F425084B934545F8283BD3DB84F858
:108E40005A76A0E71971EF00601B01200000012095
:108E500010880608688806083C8806082DE9F8434B
:108E6000884600294FD04718461E284C802507F118
:108E7000FF39EFF3118185F31288D4F86425C9B264
:108E8000D4F86805D4F86435D4F868C581F311883E
:108E9000634594BF4FF400630023121A1344012B5F
:108EA0001AD1012041F076FEEFF3118185F312888B
:108EB000D4F86425C9B2D4F86805D4F86435D4F878
:108EC000687581F31188BB4294BF4FF4006300239F
:108ED000121A1344012BE4D0EFF3118285F31288A8
:108EE000D4F86835D2B216F8011F234483F87416FB
:108EF000D4F868350133C3F30A03C4F8683582F344
:108F000011884E45B5D14046BDE8F883601B01206D
:108F1000F8B5002390F8505080F85030CDB10F498B
:108F200041F2E8028A5C032A15D10D4E00F13C049F
:108F3000B76A29462046FFF791FFB36A2D1A044409
:108F4000DB1B322B01D8002DF3D1B5FA85F0400997
:108F5000F8BD0120FCE71846FAE700BF601B0120BE
:108F6000582C0120002280F85120D1E790F85020A1
:108F7000531C0244DBB280F8503082F83C1090F869
:108F800051200AB1132B00D9C2E77047F8B5144637
:108F900041F2E803094A0D46D35C032B0DD1084E7C
:108FA000B76A002C09DD21462846FFF757FFB36A50
:108FB000241A0544DB1B322BF3D9F8BD601B0120BA
:108FC000582C012010B503200C4659F06BF90328EA
:108FD0000AD0074B93F82C30012B4FF012030CBF33
:108FE00004480548238010BD12230448238010BD87
:108FF000582C0120FC000120E8000120D4000120B1
:109000002DE9F04FDFF82C83BD4D4446DFF838934F
:109010002DED068B89B0CDE9060105920FCD0FC469
:109020000FCD0FC495E8070099F8323084E80700A7
:10903000042B00F21081DFE813F03C010E0109015E
:1090400005004A019FEDAF8A9FEDAF9AAF4AB04B42
:109050000598B049002818BF1346AF4AC8E9062151
:1090600039EE087ADFEDAD7AF5EE006AAC4A28EE0B
:10907000278AAC4EB0EE67AA02F11507C6EE879AB2
:109080000025DFEDA98A0292C8F82430079BAB4285
:1090900000F0D680029B05F1010B13F8014B5FFA3B
:1090A0008BF20293002C00F02081002103E00131BB
:1090B000152900F01A8101EB41004B0017F800C0A0
:1090C000A445F4D1484490F84D10CDE9033200296D
:1090D00000F01381204640F0FBFF8246006857F005
:1090E000E9FD9AF8051041F00BF90078002840F0EE
:1090F000FC804FEA141C039B04F00F0E049A0CF141
:10910000FF3409EB03010323052C81F88D2081F83E
:109110008C3000F2C980854901EB4400B0F8B00002
:1091200040FA0EFC1CF0010C00F0C0804FF0010C66
:1091300003920CFA0EFC0CF1FF3C0CEA00005BF011
:109140009FFD7A49039A032301EB040C784C02211A
:109150009CF8BCC0604404EBC00070618371C271B4
:109160009AF8082042F0BAFF059B002B78D0B9F896
:10917000303099F8321007EE903AD9F8B833042914
:10918000F8EEE77AFCEEE77A17EE900AB3FBF0F21E
:1091900002F57F4202F1FF024FEA1242B3FBF2F204
:1091A000B2FBF0F083B270D007EE902AF8EE676A57
:1091B00066EE887A28EEE77A99F8330006990190EE
:1091C0003046A9EE267A00915146C6ED027A86ED28
:1091D000037A34F001FA002D62DD7368D8F8382084
:1091E00093425FD0012D5BD0D8F85020934259D0E4
:1091F000022D55D0D8F86820934253D0032D4FD07C
:10920000D8F8802093424DD0042D49D0D8F898202A
:10921000934247D0052D43D0D8F8B020934241D097
:10922000062D3DD0D8F8C820D31A18BF01235D46BB
:10923000012233741836082D06F8072C7FF426AF68
:109240003C4809B0BDEC068BBDE8F08F9FED3A8A33
:10925000B0EE489AFAE69FED398AB0EE489AF5E604
:10926000FAFE697AFCEEE77AD9F8B8134FF6FF7385
:1092700017EE902A1846B1FBF2F21A44120CB1FB19
:10928000F2F299F8321004298ED107EE900A07EE17
:10929000102AF8EE677AF8EE476A67EE8A7A89E76D
:1092A0000123C4E70023C2E770615DE7C6F814C07C
:1092B0005AE70023174A01219FED188A0693164B9F
:1092C000B0EE489A0591C8E90632104BC8E6002373
:1092D000104A01219FED1A8A06930F4BB0EE489A6F
:1092E0000591C8E90632094BBAE6164A0020074B39
:1092F000C8F81C20C8F82430A3E70B68FFDE00BFC5
:1093000094880608ACC5A737ACC5A736A182040867
:10931000B5BA030809C00308AD8204086F12833A86
:109320008F2C01204800002000007A441088060895
:10933000102D012014000020282930386F12033925
:1093400000000000A1BD0308582C012010B50D4CF1
:10935000002394F8F125C4F8A03512B10A4AC2F8E6
:10936000BC3356F02DFC20B10423022084F8A43530
:1093700010BD054A0923926A84F8A435C4F89425DF
:1093800010BD00BF601B0120582C012070B50F4D8F
:1093900004460E4695F8A435042B0BD0082B07D1B4
:1093A000D5F89C3583420ED0FFF7D0FF022801D0BC
:1093B000012070BD08230220C5F8A065C5F89C45B2
:1093C00085F8A43570BD022070BD00BF601B012070
:1093D00070B54379234C002B14BF0123002384F87C
:1093E000D03503D1002384F8A43570BD1E4D002173
:1093F000032095F9C32342F039FD0028F2D04668D6
:10940000304658F01BFA84F8F0050028EAD095F8A9
:10941000C1333046003B18BF012384F8F13558F0C2
:1094200033FA0AF0D9F938B994F8983584F8A405D4
:10943000013384F8983570BD56F09AFC40B194F829
:1094400098350022013384F8A42584F8983570BD3E
:10945000AA6A012384F89805C4F8942584F8A435F1
:1094600070BD00BF601B0120582C012010B556F0C4
:109470007FFC58B10C4C94F898350133DBB2072BC4
:1094800084F8983503D9002384F8A43510BD0AF078
:10949000A3F90028F7D0054B01229B6A84F8A42584
:1094A000C4F8943510BD00BF601B0120582C01206A
:1094B0002DE9F84F904C94F8D055002D00F0028122
:1094C00094F8A42502278D4E531E082B3ED8DFE8C2
:1094D00003F03436A73D6649153D050056F070FB94
:1094E000002840F00181D4F89435B26AFA339342EF
:1094F00029D2FFF7BBFF94F8A425E5E756F060FBFF
:109500000028F0D0D4F8A0350022012B84F898254B
:1095100040F2EE80D4F89C15013B94F8F1550131EE
:10952000C4F8A035C4F89C1515B1744BC3F8BC231E
:109530000823054684F8A43511E084F8A47556F094
:109540003FFB00284DD194F8A425531EDBB2022B1B
:109550003CD9082A18BF042A0CBF0125002528463B
:10956000BDE8F88F236B002B37D1644B0722D4F86A
:109570008C559B6A84F8A425C4F89435002DEED050
:10958000D4F890350120D4F88025D4F88415A84764
:10959000D9E7D4F89435B26A643393421DD2D4F833
:1095A0002C80B8F1000FF4D156F00AFB0028A2D0AD
:1095B0000423D4F88C5584F8988584F8A435002DBC
:1095C00000F090804046D4F89035DCE74B4BD4F85F
:1095D00094259B6A9B1AC82B79D800252846BDE89C
:1095E000F88F55F081FF0028ADD196F8C533002BD8
:1095F000A3F10203B3FA83F314BF022201225B0931
:1096000084F8992584F89A3555F06EFF00287FF488
:1096100070AFD6F810240323C4F8A82584F8A43525
:1096200055F062FF00288ED1344A4FF0040EC4F882
:10963000A005032392F8F4B3B2F8F613D2F8F803B6
:1096400084F8AEB5D2F8F8734FEA106CD2F8F8632C
:10965000A4F8AC153F0CD2F8F8A3360A92F8FC93A4
:1096600092F8FD5392F8FD03D2F8008425FA0EF526
:10967000B2F806B400F00F00B2F80614B2F80624EF
:10968000C1F30B1184F8AFC502F00F0C84F8B0756C
:1096900041EA1B21724684F8B16501F00F0184F89C
:1096A000B2A584F8B39501F5FA6184F8B85584F849
:1096B000B905C4F8B485A4F8BA1584F8BCC584F813
:1096C000A4E543E7284684F8A455BDE8F88FFFF7E2
:1096D000CDFE94F8A455082D18BF042D0CBF01250C
:1096E00000253CE705463AE7042384F8A43536E72D
:1096F000FAD1FFF72BFE26E7601B0120582C012032
:109700002DE9F8431C4C05468946904694F8A4651B
:109710001F46042E08D0082E02D00020BDE8F88392
:1097200009F0DCFF0228F8D1D4F8E40542F00AFF82
:1097300094F89A35B3B96902112009F0F3FFB8B96A
:109740000E4A05230120C4F88095926AC4F8845516
:10975000C4F88C85C4F89075C4F8942584F8A435B1
:10976000BDE8F8832946112009F0DCFF0028E7D086
:109770000AF008F8D1E700BF601B0120582C012037
:1097800070B51F4C06460D4694F8A435042B09D03D
:10979000082B25D1D4F89C3583422FD009F09EFFA9
:1097A00002281DD1D4F8E40542F0CCFE0021372078
:1097B00009F0B8FF2946172009F0B4FFC0B994F8A2
:1097C0009A357BB97102192009F0ACFF80B90823E2
:1097D0000220C4F8A055C4F89C6584F8A43570BD77
:1097E000012070BD3146192009F09CFF0028EED001
:1097F00009F0C8FF0AF002F8032070BD022070BD16
:10980000601B0120154BDB68C3F3022310B4C3F1C6
:1098100007041A1D042C28BF0424062A4FF0FF3227
:109820008CBF033B0023A240002821EA020101FA79
:1098300003F108DB09010A4BC9B2034483F80013A2
:109840005DF8044B704700F00F000901054BC9B2E9
:10985000034419765DF8044B704700BF00ED00E04B
:1098600000E100E0FCEC00E030B5284C0022284884
:1098700041F28731D4F8B83383B0264DA0FB0303FF
:1098800004F58460C4F82C14DB0CC4F83024C4F84C
:109890002824013BC4F82054C4F824340BF0BEF84B
:1098A0001D4B062137201A6C42F020021A641B6CF3
:1098B00003F020030193019BFFF7A4FFD4F82034A9
:1098C0004FF400001549164A4860D96841F001017B
:1098D000D96099680A40062A06D0B2F5803F03D0C5
:1098E0001A6842F001021A600E4B41F20412002085
:1098F0000D499A5803F27464C3F87C05C2F810024B
:10990000C3F87405C2E9811403B030BD582C01209E
:1099100083DE1B43001400400038024000E100E0F9
:1099200007000100601B0120B830012038B50F4B43
:109930000F4AD3F8B833A2FB03239B09013BB3F1D1
:10994000807F10D20B4A0024F0200B49072553607A
:1099500081F82300214694604FF0FF301560FFF737
:1099600051FF204638BD012038BD00BF582C0120D2
:10997000D34D621010E000E000ED00E02DE9F84F5B
:10998000B34C054694F8601CD4F8680CC1F3400150
:1099900042F0E4FD94F8601CD4F8640CC94301F073
:1099A000010142F0DBFD002D00F0C3806E1EA94FC7
:1099B0004FF01008A84D5FFA86FBD4F8680C42F00F
:1099C000B1FDD4F8640C42F0ADFDB4F8703C002B4E
:1099D00040F0358194F8721CD4F8740C42F0BEFD4E
:1099E0004FF0FA094FF47A704FF0010C7B68C3F323
:1099F0000803002B40F0FB80EFF31183002B40F0B5
:109A0000F680A26AA968A36A9A42FAD1D4F8983C6F
:109A10009942F6D8D4F8946C00FB06F35B1AB3FBBA
:109A2000F6F300FB02327B68C3F30803002B40F01F
:109A30009F80EFF31183002B40F09A80A36AD5F842
:109A400008A0A16A8B42F9D1D4F8981C8A45F5D8B0
:109A5000D4F8946C00FB06F1A1EB0A01B1FBF6F11E
:109A600000FB03139B1AB3F57A7FDCD3B9F101092C
:109A7000BCD1D4F8680C42F055FDD4F8640C42F027
:109A800051FDB4F8703C002B40F0CD8094F8721C6E
:109A9000D4F8740C81F0010142F060FD4FF0FA0C33
:109AA0004FF47A704FF0010E7B68C3F30803002B6C
:109AB0007ED1EFF31183002B7AD1A26AA968A36A41
:109AC0009A42FAD1D4F8983C9942F6D8D4F8949CAA
:109AD00000FB09F35B1AB3FBF9F300FB02327B686E
:109AE000C3F308033BBBEFF3118323BBA36AD5F891
:109AF00008A0A16A8B42F9D1D4F8981C8A45F5D800
:109B0000D4F8949C00FB09F1A1EB0A01B1FBF9F137
:109B100000FB03139B1AB3F57A7FE0D3BCF1010C71
:109B2000C2D10BF1FF365FFA86FBBBF1FF0F7FF46A
:109B300044AFBDE8F88FEFF3118988F31288AE685F
:109B40002B68DB0302D5C4F890ECAE68A36A5FFA19
:109B500089F9D4F8901C89F31188D4F8949C0B44AB
:109B600000FB09F1891BB1FBF9F100FB0313D1E7FD
:109B7000EFF3118E88F31288D5F808A02B68D9036B
:109B800003D5C4F890CCD5F808A0A36A5FFA8EFE7E
:109B9000D4F8901C8EF31188D4F8946C0B4400FB1D
:109BA00006F1A1EB0A01B1FBF6F100FB031359E743
:109BB000EFF3118188F31288D5F808902B68DA0347
:109BC00003D5C4F890ECD5F80890A36AC9B2D4F8CC
:109BD000902C81F31188D4F8941C1A4400FB01F3F3
:109BE000A3EB0903B3FBF1F300FB023277E7EFF3DA
:109BF000118188F31288AE682B68DB0302D5C4F8A4
:109C000090CCAE68A36AC9B2D4F8902C81F31188C5
:109C1000D4F8941C1A4400FB01F39B1BB3FBF1F333
:109C200000FB0232FFE6D4F88C3C002B3FF436AF49
:109C3000D4F8783CC3F8009084F8899C2EE7D4F8D7
:109C40008C3C002B3FF4CCAE41F06AF8C8E600BF74
:109C5000582C012000ED00E010E000E02DE9F84F65
:109C6000B04C4FF0050BB04F4FF0100894F8601C4B
:109C7000D4F8680CC1F34001AC4D42F06FFC94F88D
:109C8000601CD4F8640CC94301F0010142F066FC89
:109C9000D4F8680C42F046FCD4F8640C42F042FC64
:109CA000B4F8703C002B40F0358194F8721CD4F865
:109CB000740C42F053FC32264FF47A704FF0010CD2
:109CC0007B68C3F30803002B40F0FA80EFF31183A5
:109CD000002B40F0F580A26AA968A36A9A42FAD1E3
:109CE000D4F8983C9942F6D8D4F894EC00FB0EF3E3
:109CF0005B1AB3FBFEF300FB02327B68C3F308037D
:109D0000002B40F09E80EFF31183002B40F09980F0
:109D1000A36AD5F808A0A16A8B42F9D1D4F8981C9F
:109D20008A45F5D8D4F894EC00FB0EF1A1EB0A01BA
:109D3000B1FBFEF100FB03139B1AB3F57A7FDCD372
:109D4000013EBDD1D4F8680C42F0ECFBD4F8640CB1
:109D500042F0E8FBB4F8703C002B40F0D08094F85F
:109D6000721CD4F8740C81F0010142F0F7FB4FF043
:109D7000320C4FF47A7001267B68C3F30803002B82
:109D80007FD1EFF31183002B7BD1A26AA968A36A6C
:109D90009A42FAD1D4F8983C9942F6D8D4F8949CD7
:109DA00000FB09F35B1AB3FBF9F300FB02327B689B
:109DB000C3F308032BBBEFF3118313BBA36AD5F8DE
:109DC00008A0A16A8B42F9D1D4F8981C8A45F5D82D
:109DD000D4F8949C00FB09F1A1EB0A01B1FBF9F165
:109DE00000FB03139B1AB3F57A7FE0D3BCF1010C9F
:109DF000C2D10BF1FF3616F0FF0B7FF449AFBDE87F
:109E0000F88FEFF3118988F31288D5F808A02B6832
:109E1000DB0303D5C4F8906CD5F808A0A36A5FFAF9
:109E200089F9D4F8901C89F31188D4F8949C0B44D8
:109E300000FB09F1A1EB0A01B1FBF9F100FB0313EF
:109E4000D0E7EFF3118E88F31288D5F808A02B68BD
:109E5000D90303D5C4F890CCD5F808A0A36A5FFA5B
:109E60008EFED4F8901C8EF31188D4F894EC0B4439
:109E700000FB0EF1A1EB0A01B1FBFEF100FB0313A5
:109E80005AE7EFF3118188F31288D5F808902B6810
:109E9000DA0303D5C4F8906CD5F80890A36AC9B268
:109EA000D4F8902C81F31188D4F8941C1A4400FB48
:109EB00001F3A3EB0903B3FBF1F300FB023276E7F6
:109EC000EFF3118188F31288D5F808E02B68DB03E3
:109ED00003D5C4F890CCD5F808E0A36AC9B2D4F889
:109EE000902C81F31188D4F8941C1A4400FB01F3E0
:109EF000A3EB0E03B3FBF1F300FB0232FDE6D4F853
:109F00008C3C002B3FF433AFD4F8783C1E6084F8CF
:109F1000896C2CE7D4F88C3C002B3FF4CCAE40F09D
:109F2000FFFEC8E6582C012000ED00E010E000E044
:109F30002DE9F041D0F800E00C46DFF8588084B0FD
:109F4000DEF804501746DFF850C0194605EA080548
:109F5000DDF82880064603932C43424644EA0C0C65
:109F6000CEF804C00CF05CFC78B931680246039B63
:109F700030468F624021CDF800800CF081FC003823
:109F800018BF012004B0BDE8F081012004B0BDE895
:109F9000F08100BF009800FC00200180F8B5144F4C
:109FA00004460D460BE09B69DB0602D50CF0F8FB7E
:109FB000E0B9D7F89C3C5B1BB3F5805F09D82368F8
:109FC0002A464FF4805120469E69B606EBD5002004
:109FD000F8BD636C2021002201200B4384F840204F
:109FE000636484F8411084F84220F8BD0120F8BD74
:109FF000582C01204309012200F01F0084B0013BCE
:10A0000002FA00F0032B0BD8DFE803F015021E0C58
:10A01000124B5A6C02435A645A6C10400090009BD9
:10A0200004B070470D4B1A6B02431A631A6B104051
:10A030000390039BF4E7094B5A6B02435A635A6B34
:10A0400010400290029BEBE7044B1A6C02431A6427
:10A050001A6C10400190019BE2E700BF00380240FB
:10A0600018B10022012142F039B8704718B100221E
:10A07000202142F033B8704758B183884FF0004236
:10A08000B3FA83F332FA03F303D002490A681343A5
:10A090000B607047003C0140002800F08F80B0F852
:10A0A00004C0BCFA8CF3202BC3F11F0200F08680A1
:10A0B0006F4B2DE9F04F9D18DFF8E48185B0036800
:10A0C00008EB820095F8C4200024DFF8D8E1019263
:10A0D000C0F8A01C674A02E00134102C65D04FF094
:10A0E000010909FA04F10CEA010531EA0C01F3D186
:10A0F0004FF0030A04FA09F718684FF00F0B0AFA39
:10A1000007F704EA0A0124F0030620EA07008900A1
:10A1100006F1804618600BFA01F0D3F80CB006F592
:10A120009C362BEA0707DF60DEF8447047F480476F
:10A13000CEF84470DEF8447007F480470397039F1D
:10A14000B76827EA00004C4FBB421AD007F580677A
:10A15000BB4234D0494FBB4235D0494FBB426BD094
:10A16000484FBB4271D0484FBB4269D0474FBB42BA
:10A1700078D0474FBB420CBF0727082707FA01F1E9
:10A180000843B06001341168102C41EA05011160E8
:10A19000516821EA05015160916841EA0501916029
:10A1A000D16821EA0505D56099D1019B984498F8BA
:10A1B000E03CF02B0CD805B0BDE8F08F704709FAF1
:10A1C00001F10843DDE7022707FA01F10843D8E768
:10A1D000F021304B264888F8E01CD968019AC1F379
:10A1E00002210244C1F107000B1D92F8D44004285B
:10A1F00092F9D42028BF0420062B4FF0FF338CBFE8
:10A20000033900218340002A6FEA030303F00303AC
:10A2100003FA01F31EDB204801211B0104F01F0497
:10A2200085185209DBB201FA04F485F8003340F8CE
:10A23000224005B0BDE8F08F0AFA01F10843A0E71B
:10A24000052707FA01F108439BE7042707FA01F104
:10A25000084396E704F00F041B01104ADBB22244C6
:10A260001376A8E7062707FA01F1084389E700BF3C
:10A2700010880608003C014000000240000802402F
:10A28000000C02400010024000140240001802407E
:10A29000001C024000ED00E000E100E0FCEC00E00A
:10A2A000582C01200038024010B4B8B10D4CD4F83D
:10A2B000E83C102B05D1052100205DF8044B40F04F
:10A2C00005BA03EB4302224482F8ED1C012182F817
:10A2D000EC0C0B4482F8EE1CC4F8E83C5DF8044B2F
:10A2E000704700BF582C01202DE9F04FD04C0023BF
:10A2F00087B004F61C5894F8302DC4F81C3DC8E90A
:10A300000133C8E903331AB194F8313D84F81C3D98
:10A3100094F8323D1BB194F8333D84F82B3D94F80A
:10A32000363D1BB194F8373D84F8263D94F8343D12
:10A330001BB194F8353D84F8213D94F8383D013B3C
:10A340004FFA83FADBB2BAF1FF3F029300F01381B8
:10A35000B022B849B84D002302FB0A112E4605F180
:10A360002800DC311F469B4601935EF0A7F8039559
:10A3700035785146284644F03FF88146002840F0A1
:10A38000FD8001370536042FF2D194F8480D039D66
:10A39000FFF730FE4FF44032A84E00230121C4F8ED
:10A3A000502D3046D4F8442DC4F868BDC4F8641D5F
:10A3B000C4F85C1D84F87C1DC4F8543DC4F8743D99
:10A3C000C4F8783DC4F8583D84F86C3DC4F8703D3D
:10A3D000C4F8603DC4F84C2DFDF712FEBAF1000F31
:10A3E00040F0EB80019B83F0010919F0FF0F40F072
:10A3F000E480A6F1080059F0F5FA012308F11408E9
:10A40000EA78002A40F032810535A845F8D104EBFE
:10A410000A030299022093F9402D41F027FD0546D9
:10A42000002800F0A8800027406857F007FA0621AE
:10A430003A46DFF8248257F011FABBF1010F4FF4CE
:10A4400000638CBF4FF480613946D5E90102C4F83E
:10A45000A41D4FF400554FF48071C4F8982DC4F832
:10A46000A83D4FF400320323C4F8940D4046C4F8CD
:10A470009C7DC4F8BC3DC4F8A07DC4F8B87DC4F888
:10A48000C07DC4F8C47DC4F8AC5DC4F8B01DC4F888
:10A49000B42D0DF043F994F8883DC4F8848D012B58
:10A4A0000597C4F8CC6D66D00123D4F84C5D84F8D0
:10A4B000883DAB68DE0713D4D4F8B8336049AA6886
:10A4C000B3FBF1F342F0010203EB4303AA600593EF
:10A4D000059B2BB1059B013B0593059B002BF9D1F7
:10A4E000AB68D80747D5D4F88C2D564B134043F4AE
:10A4F0008073C4F88C3D6B68590507D5D4F88C3D42
:10A5000023F4405343F48053C4F88C3DD4F88C3D7D
:10A5100013F4805340F03C81C4F8903D4A48002336
:10A520004A496FF02202C4F8D40D494884F8883DA6
:10A530005B46C4F8D01D05F14C01C4F8E00D2A605B
:10A540006E68444A46F0806643486E60AE6846F4E2
:10A550008076AE600DF05AF8404B5A68D20640F053
:10A560002481D4F84C3D9A6812F0405F03D19A6878
:10A5700042F080429A6007B0BDE8F08F284641F073
:10A5800083FEFB1D03210022DBB2CDF8049008B14D
:10A590008371C27141F05EFE307843F05FFF0BF1D2
:10A5A000010386F802B05FFA83FB4FF00703707077
:10A5B00033714FF00103F370E3E6B0220021284825
:10A5C00048275DF0EDFFB022002125485DF0E8FF4F
:10A5D000244B384684F8F87DC4F8F43DFFF70AFDB3
:10A5E0004FF4403000230121D4F8F42DC4F8000EBC
:10A5F0001D48C4F8141EC4F80C1E84F82C1EC4F8A0
:10A60000043EC4F8243EC4F8283EC4F8083EC4F80A
:10A61000183E84F81C3EC4F8203EC4F8103EC4F82E
:10A62000FC2DFDF7EDFC0E4859F0DCF9E5E600BF26
:10A63000582C01201088060874390120A439012003
:10A6400040420F00FEF8FFFFD5270108D927010877
:10A65000C527010808010020EC3901200023014032
:10A660004C3A012000200140543A012094F8880D12
:10A6700000215A1C2F7901280491D2B269783DD06B
:10A680004FF00100092984F8880D4ED94FF0030ED0
:10A690006FF01D00D4F84CCD4FF007091EFB0100F0
:10A6A000DCF80CE009FA00F907FA00F02EEA0907D5
:10A6B000CCF80C70DCF80C703843CCF80C00062B8E
:10A6C0004FF005001CD86FF0040710FB0373D4F89B
:10A6D0004C7D1F2000FA03FC786B01FA03F320EA9B
:10A6E0000C007863786B03437B63D4F84C3D3E48A1
:10A6F000834230D04FF0000384F8883D134683E650
:10A700000C2B32D86FF0220710FB0373D4F84C0DDA
:10A710001F2707FA03FC076B01FA03F327EA0C076C
:10A720000763076B3B430363DFE7D4F84C0D01EB92
:10A7300041094FF0070ED0F810C007FA09F70EFADA
:10A7400009FE2CEA0E0CC0F810C0D0F810C047EA81
:10A750000C070761B3E7122921D01129CAD1234977
:10A760004B6843F400034B60C4E76FF0400710FBF5
:10A770000373D4F84C0D1F2707FA03FCC76A01FACC
:10A7800003F327EA0C07C762C76A3B43C362ACE71F
:10A79000D4F8903D23F00603C4F8903DBEE613497B
:10A7A0004B6843F480034B60A4E7D4F84C2D0E496A
:10A7B0008A420DD05B68DB063FF5DDAE0C4B9A425A
:10A7C0007FF4D9AE9A6812F0405F7FF4D4AECEE643
:10A7D000936813F0405F03D1936843F08043936024
:10A7E000024B5B68C7E600BF002001400023014028
:10A7F000002201402DE9F041D0F800E00C46DFF8DE
:10A80000588084B0DEF804501746DFF850C019466F
:10A8100005EA0805DDF82880064603932C434246E6
:10A8200044EA0C0CCEF804C00BF0FAFF78B931689A
:10A830000246039B30468F628021CDF800800CF0E9
:10A840001FF8003818BF012004B0BDE8F0810120D6
:10A8500004B0BDE8F08100BF009800FC0020018139
:10A860000A4610B10E2141F039BC70470A4610B1BA
:10A87000022141F033BC7047034690F83C000128A8
:10A8800000F03E810220F0B4012483F83D0083F8FB
:10A890003C40142A45D8DFE812F04D004400440043
:10A8A00044007B00440044004400DA0044004400BB
:10A8B0004400AA004400440044000601440044004F
:10A8C000440015001A688E68156A0F6825F4801513
:10A8D000AB4C1562106A556820F40010D2F854C0D1
:10A8E00040EA0650A74E0CEA0404B24244EA0724A8
:10A8F00000F0088106F58066B24200F003814E68E0
:10A9000055605465D6651062506D0C6940F4006066
:10A910005065506D20F480605065516D41EA04210E
:10A92000516500220121104683F83D1083F83C2038
:10A93000F0BC70471A68D1F808C0156A0F6825F096
:10A940000105914C1562106A5668956920F0020065
:10A950002C408C4D40EA0C00AA4244EA070400F067
:10A96000DD8005F58065AA4200F0D8804D6856600C
:10A9700094615563106290690C6940F00800906121
:10A98000906920F004009061916921439161C8E7CA
:10A990001A68D1F808C0156A0F6825F010057B4CBD
:10A9A0001562106A5668956920F020002C40754D9C
:10A9B00040EA0C10AA4244EA072400F0C38005F5DF
:10A9C0008065AA4200F0BE804D6856609461956330
:10A9D000106290690C6940F400609061906920F405
:10A9E00080609061916941EA0421916199E71A6858
:10A9F0008E68156A0F6825F48055644C1562106ADC
:10AA0000556820F40050D2F81CC040EA06305D4E74
:10AA10000CEA0404B24244EA072400F08D8006F5F3
:10AA20008066B24200F088804E685560D46116643A
:10AA30001062D0690C6940F40060D061D06920F4E4
:10AA40008060D061D16941EA0421D16169E71A6867
:10AA5000D1F808C0156A0F6825F480754A4C156254
:10AA6000106A5668D56920F400702C40454D40EAC4
:10AA70000C20AA4244EA070473D005F58065AA4277
:10AA80006FD04D685660D461D5631062D0690C698F
:10AA900040F00800D061D06920F00400D061D16995
:10AAA0002143D1613DE71A688E68156A0F6825F465
:10AAB0008035374C1562106A556820F40030D2F8A2
:10AAC00054C040EA06402F4E0CEA0404B24244EA65
:10AAD00007041DD006F58066B24219D04E68556055
:10AAE000546596651062506D0C6940F00800506521
:10AAF000506D20F004005065516D2143516510E701
:10AB00000220704725F480254E6945EA8625F6E641
:10AB100025F480354E6945EA0625DFE726F4407CBA
:10AB200020F008008E69CF684D693843354320F026
:10AB3000040045EA0C0619E725F480454E6945EA0C
:10AB4000861571E726F4406C20F080008E69CF688E
:10AB50004D6940EA0710354320F040004CEA850675
:10AB600032E726F4405C20F400608E69CF684D69BE
:10AB700040EA0720354320F480604CEA051680E760
:10AB8000FF8FFFFE000001408CFFFEFFFF8CFFFEE9
:10AB90008FFFFEFF064B93F8A42E002AFBD141F64F
:10ABA000082204499B5801F10D001B68184700BF9B
:10ABB000582C0120FF3A012003680B4A23F0400380
:10ABC000904203600DD0094B98420AD010220368CE
:10ABD00023F0380313430360036843F0400303602A
:10ABE00070470822F3E700BF00380040003C0040F7
:10ABF0002DE9F0416B4C00234FF4F0722021064602
:10AC000004F6181084F814395DF0CAFC04F6F82034
:10AC10004FF4F07220215DF0C3FC94F8D90C10B110
:10AC200094F8DA2C1AB900252846BDE8F08141F0E5
:10AC30002BFB0746C4F8E80C41F066FC05460028EB
:10AC4000F1D00FB12323FB800D21384641F002FBE8
:10AC5000D4F8E80C41F07CFC94F8DA0C524F01383F
:10AC600040B242F085FE02232021C4F8E00C84F8B3
:10AC7000DC3C53F077FFB7F80E114C4842F0B6FDBC
:10AC8000D4F8E80C41F05EFCFF218C2054F008F968
:10AC90008046D4F8E80C41F05BFCD4F8E00CFFF7F8
:10ACA0008BFFB8F11B0F05D0D4F8E80C0025FFF797
:10ACB000DDF9B9E70122D4F8E83C84F814290BB196
:10ACC0002322DA80B7F80E11384842F08FFDD4F80D
:10ACD000E80C41F037FC40210A2054F0E1F8FF2154
:10ACE0008A2054F0DDF80346D4F8E80CC3F380134F
:10ACF00084F8EC3C41F02CFCD4F8E00CFFF75CFF4E
:10AD000094F8D83C012B43D0022B39D0E3B394F80C
:10AD1000ED3C182B09D194F8EC2CB7F80E31A4F8BF
:10AD2000F06CA4F8F22CA4F8F43CB7F80E111F480C
:10AD300042F05CFDB7F80E111C4842F057FDD4F804
:10AD4000E80C41F0FFFB0221002054F0A9F8D4F8F0
:10AD5000E80C41F0FDFBD4F8E00CFFF72DFF94F870
:10AD6000FD2C94F8FE3CC2F1200294F8FC1CC3F1C7
:10AD7000100384F8FF2C84F8003D84F8F81C53E796
:10AD80001023A7F80E31C2E72023A7F80E31BEE743
:10AD9000002EF5D094F8EC3C002B14BF1023202398
:10ADA000EFE700BF503D0120000001202C4A0120A8
:10ADB00070B4514D95F8013D03EB4300590005EB8C
:10ADC000C00090F8040D03281FD8DFE800F00E2122
:10ADD0000241CA1805EBC202D2F8080D10B3431E97
:10ADE000002070BCC2F8083D7047444890F82861C4
:10ADF000002E68D000F59870002401E0A64262D0D1
:10AE000002880134A030002AF8D0012070BC7047BD
:10AE1000CA1805EBC202D2F8080D0028DFD10220C3
:10AE200082F8040D194405EBC10191F8102D013A87
:10AE3000D2B281F8102D42B3314B0120D3F810214A
:10AE400002F2E733B3FBF2F370BCC1F8083D704780
:10AE5000194405EBC101D1F8084D002C46D195F8F5
:10AE6000642D9342D1D0013303F003018A4285F867
:10AE7000011DCAD001EB41030221204605EBC302AC
:10AE8000C2F8084D82F8041DC0E71D4A581C03266D
:10AE9000D1F80C3DD2F81041304095F8645D621E47
:10AEA00081F8046D401B1A4418BF01209442B2FB84
:10AEB000F4F388BF0020C1F8083D0028A5D0013B6D
:10AEC000C1F8083DA2E70E4A0B4442F20F74012676
:10AED000D2F8101105EBC30230460C4482F8046D21
:10AEE000B4FBF1F4C2F8084D70BC7047013C00207F
:10AEF000C1F8084D8AE700BF503D01201400002032
:10AF00000000012003689B0AA3F58013522B00D98F
:10AF100070470E4A134470B593F8EC4284B00D2C80
:10AF200012D800294FF0000309494FF0010514BF62
:10AF30001E460226427901EB84106946CDE9006580
:10AF4000CDE9023309F06AFC04B070BD1088060830
:10AF5000B84A012033492DE9F84F91F8C5131C4632
:10AF6000012507460229DFF8C4A0104619464FF014
:10AF70000002DFF8BC9018BF7F02CAF82C50FDF722
:10AF8000E9F8294A630240F2FF5BC9F824204FF434
:10AF90000075C9F828304FF48A62D9F82C300121A5
:10AFA00010205E4643F09303C9F82C30C9F838B03E
:10AFB000C9F808504D46C9F80C2054F0F7FB012C95
:10AFC000C9F838B04FF00A048CBF4FF052084FF068
:10AFD00051084FF0000939464046FDF76DFE013C2F
:10AFE000034640F2774201213720E4B223B91846E4
:10AFF000CAF82830BDE8F88FAE63C5F80890EA605B
:10B0000054F0D4FBAE6303460028F0D0002CE2D10C
:10B010000028ECD000221846CAF82C20CAF82830A4
:10B02000BDE8F88F582C012000E1F505601B0120D8
:10B03000002C01402DE9F843DFF8748004460F46E8
:10B04000914698F8A4551E46042D08D0082D02D02C
:10B050000020BDE8F883FEF779F90228F8D1012332
:10B060003A4620460021FFF775FF68B1FEF7FEF96A
:10B07000D8F88C45002CEBD00022D8F89035D8F8C1
:10B0800084151046A047E3E7084A05230120C8F8C5
:10B090008075926AC8F88445C8F88C95C8F89065A0
:10B0A000C8F8942588F8A435BDE8F883582C012009
:10B0B000601B01202B492DE9F04F91F8C5130124A5
:10B0C000DFF8ACB00746022983B0CBF830409A468F
:10B0D00018BF4702012B4FF00A04234D40F2FF56E0
:10B0E0008CBF4FF059084FF058084FF000090092FC
:10B0F00039464046FDF7E0FD013C034640F2774209
:10B1000001213720E4B2BBB90098514601220193D6
:10B11000164CFDF71FF814494FEA4A220020019B04
:10B120004C628A62CA6A42F09102CA62CBF8280075
:10B13000184603B0BDE8F08FAE63C5F80890EA602A
:10B1400054F034FBAE6303460028DDD0002CCFD191
:10B150000028D9D000221846CBF8302003B0BDE833
:10B16000F08F00BF582C0120002C014000E1F505B4
:10B17000601B01202DE9F84F05460E4690461F46FC
:10B18000394C94F8A40504280CD0082807D1D4F829
:10B190009C35AB4206D0FEF7D9F80228F1D0012049
:10B1A000BDE8F88FDFF8C8A0C4F88065DAF8BC9372
:10B1B000C4F88455C9F34F234FEA59220F2B2BD8DB
:10B1C000D4F8A0B5BBF1000F26D094F8F11519B34F
:10B1D000B9F5005F41D025484FF40072314648442C
:10B1E0005DF06CF909F50072C2F34F23CAF8BC2375
:10B1F000520A102B31D0BBF1010F2ED0D4F89C2570
:10B200000BF1FF33042102200132C4F8A03584F889
:10B21000A415C4F89C25C3E701234FF00109284673
:10B22000062532460021C4F88C85C4F8907584F850
:10B23000889584F8A455FFF73DFF0028B0D0FEF7AD
:10B2400015F9D4F88C556DB14846D4F89035D4F83A
:10B2500084150022A8470320A2E792B2034E013AC8
:10B26000AD1ADAE703209BE7601B0120E05C0120B8
:10B27000582C01200378012B01D00020704790F951
:10B280000420084902EB420201EB421292F88510B9
:10B29000202901D018467047536C9869C0F3C0301C
:10B2A000704700BF484E012010B50B4C94F8B031E8
:10B2B000022B10D1D4F8BC0141F04AF9D4F8BC01FA
:10B2C00008B12123C380FEF7CBFE10210348BDE85F
:10B2D000104042F08BBA10BD484E0120F84F0120BB
:10B2E00073B50D4E0546FF230C460A46014630460F
:10B2F0008DF8073042F000FB01230DF1070245F005
:10B300008001304642F0DCFA9DF80700031B5842EA
:10B31000584102B070BD00BFF84F012070B5174C06
:10B3200082B00D46134694F8B061022E08D00A464A
