:020000040800F2
:10000000F0FF01207967060885F20008C9CE0408D0
:10001000F1670608F1670608F167060800000000AE
:1000200000000000000000000000000081F2000855
:100030007DF200080000000079F20008C59704086E
:10004000F1670608F1670608F1670608F167060818
:10005000F1670608F1670608CDDF0408F9E0040837
:10006000BDE0040881E0040845E00408314A0608C0
:10007000214A0608114A0608014A0608ED49060801
:10008000D9490608C5490608F167060800000000BE
:1000900000000000000000000000000009E004086B
:1000A000B1820408FD820408A182040821830408A7
:1000B000F1820408E1820408D1820408715606081E
:1000C00079560608655606086D560608F167060853
:1000D000F1670608A1990408E598040800000000EB
:1000E00091DF0408F1670608A1090108000000007B
:1000F000000000000000000000000000B1490608F8
:1001000000000000E5240608C1820408F167060823
:1001100000000000000000000000000000000000DF
:100120009D49060889490608754906086149060877
:100130004D4906080000000000000000000000001B
:1001400000000000000000000000000009EC0008B2
:10015000394906082549060811490608299804085E
:10016000595606086156060800000000000000000D
:10017000000000000000000000000000000000007F
:1001800000000000F1670608000000000000000009
:08019000F1670608F16706089B
:080198001863060001000000DD
:1001A0000E02010002000000886B0020E86B0020B6
:1001B00000000000F809000814020100050000001A
:1001C000CC3E0020EC6B002000000000FA09000883
:1001D0001302010004000000E4240020F46B00205E
:1001E00000000000000A00080D1001004C00000093
:1001F00008690020F86B002000000000A5F5030846
:10020000040008008000000048680020446C0020C2
:1002100000000000000000000902010001000000D1
:10022000F0670020C46C002000000000040A0008F1
:10023000FD0101002400000094670020C86C00202C
:1002400000000000CB630408FB0101000100000076
:1002500008660020EC6C002000000000857705088F
:10026000FC01010009000000D4640020F06C0020B3
:10027000000000008D770508F7010100060000006E
:10028000C8640020FC6C002000000000060A000882
:10029000F901010004000000C4640020046D002086
:1002A0000000000075640408160215003F000000FD
:1002B0006C320020086D0020000000003D7705082A
:1002C0003400010010000000B8630020486D0020D9
:1002D00000000000899402081102010008000000DB
:1002E00090630020586D0020000000000C0A0008F8
:1002F000121201000400000088630020606D0020DD
:1003000000000000140A000818200100320000005C
:1003100054630020646D002000000000DD810508AA
:10032000122001001100000074620020986D00206E
:1003300000000000180A0008000201000B00000085
:10034000B05F0020AC6D0020000000000000000045
:10035000FF110100060000005C5F0020B86D002066
:100360000000000065770508081203000F00000078
:10037000685F0020C06D0020000000005178050873
:10038000FA0101000300000054590020D06D002044
:1003900000000000397805080A80010028000000EC
:1003A00034510020D46D00200000000071140208B8
:1003B000061001001C00000090310020FC6D0020A0
:1003C00000000000C97705080202010003000000D8
:1003D000D0280020186E002000000000000000005F
:1003E0000C02010004000000B02800201C6E002058
:1003F0000000000029780508110001000C00000031
:100400008A450020206E00200000000035F103081E
:10041000FE01010014000000FC3F00202C6E0020B3
:1004200000000000A9780508FD0701007600000023
:1004300070C00020E8C000200000000081780108A2
:10044000261001000E00000070C1002060C10020D5
:1004500000000000451C01080B3001001A000000DC
:100460003CBA0020B0C10020000000002C0A0008A7
:100470001F3001002400000078B90020CCC100200A
:1004800000000000480A0008050201000400000006
:100490006CBC0020F0C10020000000006C0A0008C5
:1004A000030101000A000000BCB90020F4C10020D3
:1004B00000000000ED160108220201001C010000EE
:1004C000A8D900203CDC0020000000009581050830
:1004D0000C200600CC00000020D8002058DD0020B1
:1004E000000000009DEF0308010201000B00000066
:1004F000C4D7002024DE0020000000004178050859
:100500001B0201001000000098D7002030DE002000
:1005100000000000A57705081B1001000C0000007A
:10052000F8C3002040DE002000000000F57E010836
:1005300021020100F000000078C200204CDE002003
:1005400000000000DDA001082312010010000000DF
:10055000A0D400203CDF002000000000700A00084A
:10056000371001002E00000008D700204CDF0020CB
:1005700000000000800A00081610010006000000BC
:1005800098D400207CDF002000000000AE0A0008A4
:100590001E000100090000006CD3002084DF002051
:1005A00000000000B40A0008051001000600000069
:1005B000E0D3002090DF002000000000BE0A000809
:1005C000F58101006800000008C2002098DF0020CB
:1005D00000000000459101082320010010000000E8
:1005E00020D4002000E00020000000008515020853
:1005F0002F1001002200000070D4002010E0002025
:1006000000000000C40A0008F62101000C000000F0
:1006100034EC0020ECED002000000000E80A0008A7
:100620001C0202001C000000D8EB00203CEE002061
:1006300000000000CD7F0508282001001800000000
:10064000F4EB002058EE002000000000A931020861
:100650000412010002000000ACED002070EE00204A
:1006600000000000F40A00080F0201000100000071
:10067000A8ED002074EE002000000000F60A00083B
:100680001400010004000000D0EB002078EE0020F0
:1006900000000000F80A0008012001000C00000022
:1006A00044E300207CEE002000000000FC0A00086B
:1006B0000EF003009E0100002CE1002088EE0020D7
:1006C00000000000D19402081300010004000000A3
:1006D00060E7002028F0002000000000080B000860
:1006E000010101000400000078E000202CF000204F
:1006F00000000000000000000001010004000000F4
:1007000070E0002030F00020000000000C0B00081A
:1007100002010100030000006CE0002034F0002022
:1007200000000000D9EF03081900010005000000D7
:10073000F4FD0020E0FE002000000000100B000887
:100740001A0001000E00000054FD0020E8FE002009
:1007500000000000160B0008203201000A00000013
:10076000ECFB0020F8FE002000000000AD94020821
:100770001500100070000000C8F5002004FF0020E4
:1007800000000000000000002A00080060000000D7
:100790003CFE002074FF002000000000619402086D
:1007A0002C00040010000000E4FF0020D4FF002013
:1007B00000000000399202082B0012002400000003
:1007C00018000120F4FF0020000000000D92020834
:1007D000292014007800000068F300203C0001206C
:1007E00000000000000000001902010010000000DD
:1007F0009CF20020B400012000000000757705087D
:100800000300010001000000181901202C1C012028
:100810000000000000000000031201003D00000085
:10082000C0180120301C012000000000240B00082B
:1008300025201E002C01000024160120701C012020
:100840000000000000000000101001000200000085
:10085000A41501209C1D012000000000620B00086F
:10086000F82101000600000000160120A01D012053
:1008700000000000640B0008020001000C000000F2
:10088000082601209C260120000000000000000036
:10089000290201004000000078200120A826012044
:1008A000000000006A0B00080A02010014000000AA
:1008B000641F0120082701200000000069EF0308E1
:1008C00028020400040000005C30012038320120BE
:1008D00000000000C577050827020400040000009E
:1008E000583001203C32012000000000B977050893
:1008F0001F02080010000000B42D0120403201202A
:1009000000000000417705081A0201003C000000C9
:100910005C29012050320120000000004D820508B2
:1009200038100100010000003C2701208C3201201A
:1009300000000000AA0B00082700010004000000CE
:10094000543301205833012000000000AC0B000894
:100950000B1201003C000000103501209C430120D7
:1009600000000000B00B00080D1201001400000090
:10097000C4410120D843012000000000EC0B000816
:10098000070201000200000084430120EC43012023
:1009900000000000000C00081D020200060000001C
:1009A0004C430120F0430120000000000000000043
:1009B000060203000C000000584301207848012083
:1009C0000000000055800508390001000500000006
:1009D0006443012084480120000000002D770508B1
:1009E0001002010001000000908001208C80012095
:0809F00000000000020C0008E9
:1009F8000000000000FF00000000010000000000EF
:100A0800010000000000000001010101FFFFFFFFDD
:100A180000000001000105533431310000000002DC
:100A280000000000AE014A015E012C0164000200D2
:100A3800000001000A019A01001E0A0000020000DD
:100A48000000000000010000000500000102030092
:100A5800000000000000000000000000000000008E
:100A680000800700000000000000000000000000F7
:100A7800000000000000000020003200C800D0077D
:100A880096001400320028004C044006000550006F
:100A980014000F00080064000100010005000A00AE
:100AA8000000F4019600C4090000190000050100C7
:100AB800000000000000200003010000000000000A
:100AC800000000000000000000000000000000001E
:100AD800000000000000000000000000000000000E
:100AE80000000000010000000202000000000000F9
:100AF80003000023E8036400040A000114001E0038
:100B080000204030900100000000280100007E0510
:100B1800EA05B4053200E803D00700000000000031
:100B280000000000000000000000000000000000BD
:100B380000000000000000000000000000000000AD
:100B4800000000000000000000000000000000009D
:100B58000000000000000000010000050201F4018F
:100B68001400000000000000000000000000000069
:100B7800000000000000000000000000000000006D
:100B8800000000000000000000000000000000005D
:100B9800000000000000000000000000000000004D
:100BA800000000002003000000000000000000001A
:100BB800000000000000000000000000000000002D
:100BC800000000000000000000000000000000001D
:100BD800000000000000000000000000000000000D
:100BE80001000000000000000000000000000000FC
:0B0BF8000000000000000000003C00B6
:100C03000403090412010002EF0201408304563277
:100C1300000201020301000012010002020200406F
:100C2300830440570002010203010800FFFFFFFF96
:100C3300006002401060024000000000000000005D
:100C4300000B000000000000000000000000000096
:100C53000060024028600240010000000000000024
:100C6300060C00000000000000000000000000006F
:100C730000600240406002400200000000000000EB
:100C8300100D000000000000000000000000000044
:100C930000600240586002400300000000000000B2
:100CA300160E00000000000000000000000000001D
:100CB3000060024070600240040000000000000079
:100CC300200F0000000000000000000000000000F2
:100CD3000060024088600240050000000000000040
:100CE30026100000000000000000000000000000CB
:100CF30000600240A0600240060000000000000007
:100D0300301100000000000000000000000000009F
:100D130000600240B86002400700000000000000CD
:100D2300362F00000000000000000000000000005B
:100D33000064024010640240000000000000000054
:100D43000038000000000000000000000000000068
:100D5300006402402864024001000000000000001B
:100D63000639000000000000000000000000000041
:100D730000640240406402400200000000000000E2
:100D8300103A000000000000000000000000000016
:100D930000640240586402400300000000000000A9
:100DA300163B0000000000000000000000000000EF
:100DB3000064024070640240040000000000000070
:100DC300203C0000000000000000000000000000C4
:100DD3000064024088640240050000000000000037
:100DE3002644000000000000000000000000000096
:100DF30000640240A06402400600000000000000FE
:100E0300304500000000000000000000000000006A
:100E130000640240B86402400700000000000000C4
:100E23003646000000000000000000000000000043
:100E33007D000000010000001583000811830008F5
:100E43000D83000801830008FD8200080983000860
:100E53000583000800000000D5900008B5AD000828
:100E630099900008F5AE0008AD910008858300084D
:100E730071830008558300083DA70008558A0008C0
:100E8300D99300084D940008CD9400087D9600087E
:100E9300790F01085D8300084D83000801000000FD
:100EA3000000803F41390108453E0108BD39010872
:100EB30015100108F9110108251001084110010856
:100EC300ED0F0108DD0F0108000000000000000025
:100ED30009022000010104C03209040000020806CF
:100EE300500507058102400000070501024000008C
:100EF30009026400030100C0320904000001030079
:100F030000000921110100012236000705830309AE
:100F1300000A080B01020202010009040100010298
:100F2300020100052400100105240100020424022B
:100F3300020524060102070582030800FF090402D3
:100F430000020A00000007050102400000070581B6
:100F53000240000009024300020100C032090400FC
:100F63000001020201000524001001052401000113
:100F7300042402020524060001070582030800FF7A
:100F830009040100020A00000007050102400000F5
:100F93000705810240000000FF00000000FF000081
:100FA300000000000000AA550701000001AA550532
:100FB3000100000858AA0608FF1FFF1F05010905C5
:100FC300A101A100050109300931093209330935AD
:100FD3000934093609371581257F7508950881027B
:100FE30005091901290815002501950875018102D4
:100FF300C0C0000009022200010100E03209040020
:10100300000103010200092111010001223600073A
:1010130005830309000A0000000000000102030425
:1010230001020304060708092D202D2D202D2D2D47
:101033002D202D2D2D2D00000000000000000000AC
:1010430000000000000000AA550B010000AA55058E
:10105300010000AA550902000000AA5503009F00E1
:1010630001000000C0120000A8C100200000000021
:1010730080C100200000000001000000D42E0708FA
:10108300DC2E07080000000049F00308A0860100D9
:101093000400000000000000000000000000000049
:1010A300000000000000000000000000000000003D
:1010B300000000000000000000000000D42E07081C
:1010C300E42E070800000000FD770408E803000091
:1010D3000400000000000000000000000000000009
:1010E30000000000000000000000000000000000FD
:1010F300000000000000000000000000EC2E0708C4
:101103000000000000000000E16003087D00000013
:10111300FF000000000000000000000000000000CD
:1011230000000000000000000000000000000000BC
:10113300000000000000000000000000BCB407082D
:101143000000000000000000557103087D0000004E
:10115300FF0000000000000000000000000000008D
:10116300000000000000000000000000000000007C
:101173000000000000000000000000009843070882
:101183000000000000000000B9B703087D00000064
:10119300FF0000000000000000000000000000004D
:1011A300000000000000000000000000000000003C
:1011B300000000000000000000000000F42E0708FB
:1011C3000000000000000000616E0408E803000056
:1011D3000300000000000000000000000000000009
:1011E30000000000000000000000000000000000FC
:1011F300000000000000000000000000F82E0708B7
:10120300000000000000000039250308102700003B
:1012130003000000000000000000000000000000C8
:1012230000000000000000000000000000000000BB
:10123300000000000000000000000000D0B007081C
:1012430000000000298E02087DCF04085F760000AD
:101253000500000000000000000000000000000086
:10126300000000000000000000000000000000007B
:1012730000000000000000000000000060B4070848
:1012830000000000000000001DEF0408102700000C
:10129300010000000000000000000000000000004A
:1012A300000000000000000000000000000000003B
:1012B300000000000000000000000000042F0708E9
:1012C30000000000000000009D600408E803000027
:1012D3000500000000000000000000000000000006
:1012E30000000000000000000000000000000000FB
:1012F300000000000000000000000000102F07089D
:1013030000000000000000000DF40308204E000060
:1013130003000000000000000000000000000000C7
:1013230000000000000000000000000000000000BA
:10133300000000000000000000000000202F07084C
:101343000000000000000000F5F10308204E00003B
:101353000300000000000000000000000000000087
:10136300000000000000000000000000000000007A
:10137300000000000000000000000000302F0708FC
:10138300000000000000000075740408400D030015
:101393000300000000000000000000000000000047
:1013A300000000000000000000000000000000003A
:1013B300000000000000000000000000402F0708AC
:1013C3000000000000000000C928040810270000E6
:1013D3000100000000000000000000000000000009
:1013E30000000000000000000000000000000000FA
:1013F300000000000000000000000000482F070864
:10140300000000000000000075AD01081027000077
:1014130003000000000000000000000000000000C6
:1014230000000000000000000000000000000000B9
:101433000000000000000000000000004C2F07081F
:10144300000000000000000055710208A0860100A2
:101453000100000000000000000000000000000088
:101463000000000000000000000000000000000079
:10147300000000000000000000000000542F0708D7
:101483000000000000000000E16C040850C30000ED
:101493000100000000000000000000000000000048
:1014A3000000000000000000000000000000000039
:1014B3000000000000000000000000005C2F07088F
:1014C3000000000000000000B16A0408A0860100CB
:1014D3000000000000000000000000000000000009
:1014E30000000000000000000000000000000000F9
:1014F300000000000000000000000000682F070843
:10150300000000000000000091660408A8610000CC
:1015130001000000000000000000000000000000C7
:1015230000000000000000000000000000000000B8
:10153300000000000000000000000000742F0708F6
:10154300000000000000000031070208A08601002F
:101553000100000000000000000000000000000087
:101563000000000000000000000000000000000078
:10157300000000000000000000000000802F0708AA
:1015830000000000000000004D9E0408A00F0000B2
:101593000100000000000000000000000000000047
:1015A3000000000000000000000000000000000038
:1015B3000000000000000000000000008C2F07085E
:1015C30000000000000000002D02020810270000A8
:1015D3000100000000000000000000000000000007
:1015E30000000000000000000000000000000000F8
:1015F300000000000000000000000000982F070812
:10160300000000000000000089F00308A00F0000A4
:1016130001000000000000000000000000000000C6
:1016230000000000000000000000000000000000B7
:10163300000000000000000000000000A42F0708C5
:101643000000000000000000D9DC01081A4100007E
:101653000100000000000000000000000000000086
:101663000000000000000000000000000000000077
:10167300000000000000000000000000A82F070881
:1016830000000000000000002117010810270000DF
:101693000100000000000000000000000000000046
:1016A3000000000000000000000000000000000037
:1016B300000000000000000000000000B42F070835
:1016C3000000000000000000594C020850C3000055
:1016D3000100000000000000000000000000000006
:1016E30000000000000000000000000000000000F7
:1016F300000000000000000000000000B82F0708F1
:1017030000000000000000005D200108400D030000
:1017130000000000000000000000000000000000C6
:1017230000000000000000000000000000000000B6
:10173300000000000000000000000000C02F0708A8
:10174300000000000000000055F10308400D0300F5
:101753000000000000000000000000000000000086
:101763000000000000000000000000000000000076
:10177300000000000000000000000000C82F070860
:1017830000000000000000003DEB010850C3000012
:101793000300000000000000000000000000000043
:1017A3000000000000000000000000000000000036
:1017B300000000000000000000000000D42F070814
:1017C3000000000000000000BD05040840420F00B7
:1017D3000000000000000000000000000000000006
:1017E30000000000000000000000000000000000F6
:1017F300000000000000000000000000E02F0708C8
:101803000000000000000000D1F8030850C30000EE
:1018130000000000000000000000000000000000C5
:1018230000000000000000000000000000000000B5
:1018330000000000000000000000000001000000A4
:1018430000000100E0010000FFFFFFFF01017EFF38
:10185300FFFFFFFF080000004257020000000106DF
:10186300425702000000010601FF0101FF000000D2
:10187300FFFFFFFF890A02080000000000000000CC
:1018830090B40608ECE4002040E50020D9260208C5
:101893000125020800000000F8CC060855FA0108EB
:1018A30000000000000000005CCC06087927020855
:1018B300000000000000000014CC06080000000037
:1018C3000000000000000000C4CA06080000000079
:1018D30000000000000000007CCB060800000000B0
:1018E300000000000000000028CB060800000000F4
:1018F30000000000DD23020825E70020D601FF2DAC
:10190300202D2D202D2D2D2D202D2D2D00000000DF
:1019130000000000000000000000000000000000C4
:10192300FFFFFFFF692A020800000000000000001B
:1019330054CA060801000000FA000000010000007C
:10194300010000000101000000010101000000008E
:101953003EE300200000F401010000003CE300200E
:101963000000F401010000003AE300200000F4014C
:101973000100000038E300200000F4010100000032
:1019830036E300200000F4010100000034E30020EE
:101993000000F4010100000032E300200000F40124
:1019A30001000000C11202088512020800000000B5
:1019B300D4B6060822E300200532010030E30020FC
:1019C3006400F401010000002EE300206400C40958
:1019D3000100000020E30020E803D007010000001D
:1019E3001EE30020E803D007010000001CE30020F1
:1019F300E803D007010000001AE300201E00B80B23
:101A03000100000028E3002005000F000100000092
:101A13002AE3002003000A000100000018E300206D
:101A23001E00F401010000002CE30020020000006E
:101A330060B7060816E300201400640001000000EC
:101A430024E300203200E8030100000014E3002037
:101A53000000C80001000000EDE2002000C8010002
:101A6300ECE2002000500100EBE20020005A0100EC
:101A7300E9E20020020000006CB70608E03A07081C
:101A8300E83A0708C26A00200100C4090000000008
:101A9300C06A00200100C40900000000BE6A0020E3
:101AA3000100C40900000000BC6A00200100C40951
:101AB30000000000B86A00200100C4090000000013
:101AC300BA6A00200100C40900000000B66A0020C1
:101AD3000100C40900000000B46A00200100C40929
:101AE3000000000097E0002000C8010096E00020FD
:101AF30000C8010094E000200000FFFF0A0000007E
:101B030092E000200100C8000100000090E00020E6
:101B130032003075320000008EE00020058205009F
:101B23008CE0002005002C01050000008AE0002065
:101B3300055A050087E0002000FF010089E000202E
:101B4300020000001410002085E0002003000000C4
:101B530078AC060886E0002000FF010088E0002042
:101B6300020000001410002084E0002003000000A5
:101B730078AC060815120208A5110208000000003F
:101B830078B7060854E30020EE02CA0801000000FB
:101B930052E3002000C801006400000051E300206C
:101BA30000C801006400000050E3002002000000B0
:101BB30084B806087EE000200000803E0500000097
:101BC3007CE0002080C1803E0500000076E000201C
:101BD3000083007D0500000074E0002080C1803E8A
:101BE300050000006FE0002000FF01006AE0002014
:101BF3006400F4010100000068E00020040000001C
:101C030090B8060867E0002002000000A4B80608A8
:101C13001DE100200D000000B0B806081AE1002005
:101C23000064010018E10020320010270A000000C0
:101C330016E100200D000000B0B8060815E10020F1
:101C43000D000000B0B8060814E1002002000000F7
:101C5300E8B80608000000000000000000000000D3
:101C6300F4B806085AE300203E0000002CB9060829
:101C730058E300200100FF7F0100000057E300202C
:101C83000200000028BA06081FE10020030000003C
:101C930038BA06081EE100200300000038BA06081F
:101CA300DAE20020000A0100D8E200200000E80385
:101CB30001000000D6E200200000E803010000005C
:101CC300D4E200200000E80301000000D2E200207B
:101CD3000000E80301000000CAE200200000E8035E
:101CE30001000000D0E200200000E8030100000032
:101CF300CEE200200000E80301000000CCE2002057
:101D030000140100E8E200200200000048BA0608BF
:101D1300E6E200200000F40101000000E4E20020FC
:101D23000000F40101000000E2E200200000F401E1
:101D330001000000E0E200200000F40101000000C7
:101D4300DEE200200000A00F01000000DCE2002022
:101D53000000A00F0100000001E30020196401004E
:101D630000E300200200000054BA0608FEE200204F
:101D7300E803D0070A000000FCE200200064010031
:101D83000A000000F1E2002000640100F0E20020FC
:101D930000640100F8E20020006401000A00000072
:101DA300F7E20020006401000A000000F6E20020D0
:101DB300006401000A000000FBE2002000FF0100B4
:101DC3000A000000FAE2002000FF01000A00000000
:101DD300F9E2002000FF01000A000000F5E2002004
:101DE30001FF01000A000000F4E2002001FF0100EE
:101DF3000A000000F3E2002001FF01000A000000D6
:101E030028E100200000F4010100000026E1002089
:101E13000000A00F0100000024E100200000A00F3B
:101E23000100000022E100200000A00F01000000DB
:101E330020E100200000A00F0100000075E7002052
:101E430000C8010074E700200064010073E700206C
:101E53000064010072E700200064010071E70020C4
:101E63000064010070E70020FF0801006FE7002015
:101E7300016401000D110208D110020800000000E6
:101E830060BA060878E700200132010077E70020F6
:101E930001000000D0BA060876E700200400000025
:101EA300D8BA06086EE70020006401006CE7002042
:101EB3001400E803010000006AE70020E80330751E
:101EC3000A00000068E7002000C8010067E700205F
:101ED30000C8010066E7002000C8010065E7002094
:101EE300003201007AE70020004B010079E700206F
:101EF30004000000ECBA060864E700200064010057
:101F03000A00000088E700200000D007010000005D
:101F130083E7002000C8010082E7002000C8010019
:101F230081E7002000C8010086E700200000D007F9
:101F33000100000080E7002000C801007FE70020C7
:101F430000C801007EE7002000C8010084E70020EC
:101F53000000D007010000007DE7002000C8010059
:101F63007CE7002000C801007BE7002000C80100D7
:101F7300C50E0208AD0E02080000000000BB0608F3
:101F830011E10020005A010010E1002000C8010007
:101F93000EE10020E803D00701000000000000006C
:101FA300000000001D2402089CBB060853544D3357
:101FB300324634313100000083E000200003010089
:101FC30082E0002000030100E90D02089D0D0208D4
:101FD30000000000F0BB06085D0D0208150D0208A5
:101FE300000000008CBC0608350E02084D2A0208CA
:101FF300000000000CBD060880E000200103010082
:102003009D130208711302080000000064C0060853
:10201300A10C02085D0C020800000000D4C00608F1
:10202300D50E0208A12B02080000000070C10608AB
:10203300692F0208C91302080000000018C206082D
:10204300250F02080000000000000000A4C20608DB
:1020530001100208A90F02080000000008C30608C7
:10206300951002085910020800000000B0C30608CA
:10207300FD8B020849110208000000003CC4060859
:1020830013E30020010601006D0F0208390F020857
:102093000000000038C50608318B02086D2C0208C9
:1020A30000000000A8C50608458C0208352D02086B
:1020B30000000000F8C6060812E300200103010037
:1020C3007D0E02084D0E020800000000CCC7060872
:1020D3009D8C0208000000000000000030C80608C4
:1020E300E50C0208352A020800000000B0C8060803
:1020F3000000000000000000000000003CC90608CA
:102103007D110208AD2D020800000000ACC90608CD
:10211300000000000000000000000000C4CB06081F
:1021230018BC00209CFF2C0100000000C4DB002031
:10213300E0150C1700000000ECD80020020000009E
:10214300FCCB060863E000200200000008CC060870
:102153005EE0002088136F170100000060E000209C
:1021630088136F1700000000066B002000000000BA
:1021730000000000046B00200000000000000000CD
:10218300026B00200000000000000000006B002034
:102193000000000000000000FE6A002000000000B4
:1021A30000000000FC6A00200000000000000000A6
:1021B300FC050020000000000000000034E00020C7
:1021C300030000005CCD06085CE0002088136F1755
:1021D3000100000062BC002088136F17000000009C
:1021E300410B020800000000000000006CCD06084F
:1021F30069E6002001000000C0CD060864BC002091
:1022030001000000CCCD06085ABC002002000000EB
:10221300D4CD06080000000000000000000000000C
:10222300E0CD06082D0B02080000000000000000AE
:102233007CCE060800000000000000000000000043
:10224300D0CE0608000000000000000000000000DF
:1022530040CF060862E000200200000078CF0608A5
:102263005EBC0020E0150C17000000000101000017
:10227300C4000120FFFFFFFF0000803F00000000BB
:10228300000000000000000000000000000000004B
:10229300000000000000000000000000000000003B
:1022A3000000803F0000000000000000000000006C
:1022B3000000803F0000000000000000000000005C
:1022C3000000803F0000000000000000000000004C
:1022D300010000000000FA430000FA430000803FC1
:1022E300D92A0408000000000000000000000000DC
:1022F300FFFFFFFFFF00000000000000F8260120A1
:102303000800000000000000E8260120080000008B
:10231300200000009938010809110108313801082B
:1023230000000000D90F0108194101088137010895
:10233300CD3301080000000000000000990F0108E0
:1023430025830008198300082590000841900008A0
:1023530009900008ED8F0008D18F0008513801085B
:10236300E51001088537010800000000B10F0108DE
:10237300D1330108553701082D330108000000004F
:1023830000000000A50F0108685E0C00FFFFFFFFBF
:1023930002010000A00F0000B80B000002FFFF01C4
:1023A300FFFF0000C4B00708000008020503030094
:1023B30000000000CCB00708010008020504030078
:1023C30000000000A85807080200FE0101100300E6
:1023D30000000000483E0708030014020003000049
:1023E30000000000D4B0070804001F020200080028
:1023F30000000000DCB0070805001F02020108000E
:1024030000000000FFFFFFFF1A03000000000000B0
:1024130000000000000000000000000000000000B9
:102423000000000004030904120100020000004040
:10243300830420570002010203010B00BD88050835
:102443009188050835880508157905085188050818
:10245300F587050811790508F81A0020AD890508E4
:10246300CD8905089D890508F5780508598905086A
:1024730011890508E5780508D41A0020C9820508E2
:10248300FD780508F9780508F1780508198305082A
:10249300ED780508E978050828220708B540010802
:1024A300C5100108953F010800000000000000006E
:1024B3002D3701083D360108000000000000000030
:1024C300000000008D0F01089D790508917905082A
:1024D3001D8A0508398A050849790508018A05080E
:1024E300E589050801000000FFFFFFFF0100000070
:1024F30050C30000010100001F0000001C00000089
:102503001F0000001E0000001F0000001E0000004E
:102513001F0000001F0000001E0000001F0000003D
:102523001E0000001F0000000068214C0125000070
:102533006C1F0708C82B07081C1B00200080020221
:102543001F00000053544D202020202050726F6440
:10255300757420202020202020202020302E303190
:10256300008002021F00000053544D202020202031
:1025730050726F647574202020202020202020209A
:10258300302E3031EB160108E7160108DF1601087B
:10259300C9140108C51F0108F11F0108211F010803
:1025A300D5160108C5160108B5160108A5160108B8
:1025B300C1140108FF010000F4010000FF00000046
:1025C30000000401000000000000000210000000F1
:1025D30007000000000000000000000001020304E7
:1025E3000607080901000000841B0020000000000A
:1025F30000000000000000000000000000000000D8
:1026030000000000000000000000000000000000C7
:1026130000000000000000000000000000000000B7
:1026230000000000000000000000000000000000A7
:102633000000000000000000000000000000000097
:0C2643000000000000000000000000008B
:08280000082800080040000850
:10800000F0B401292A4C2B4D23684FF0000694BF91
:1080100000270127EE626662A6626763676B47EA24
:1080200042076763EE63EC6B002A38D144F4957421
:10803000EC631C6824F001041C601C68E407FCD499
:10804000490289085960D8601968EAB921F04001ED
:10805000196019498B421DD018494FF47410C8603B
:10806000196841F01E011960596941F08001596198
:10807000196841F00101196022B90E4AD36A43F030
:108080000803D362F0BC704741F0400119600A490F
:108090008B42E1D14FF0746041F8500CE0E744F0BE
:1080A0001A04EC63EC6A44F00804EC62C1E700BF18
:1080B000E81B0020002C014058640240006402408C
:1080C0001148002302461178032902F1060216D056
:1080D0000133062BF7D10D4AD36D052B0ED0591C59
:1080E00003EB4303D16500EB4303032040F2EB3184
:1080F00040F2FF32187059809A807047704703EB46
:10810000430300EB4303F0E7201C0020E81B0020A2
:1081100070B4C3080D4CE25C00F00706B24004EBFB
:10812000D004D2B20020C6F108038B4228BF0B4610
:10813000C3F108052A419840C91A40EA02004FF0ED
:10814000000614F8012FEED170BC7047881C002087
:10815000084AD2E9343199420AD0D118013391F852
:10816000D8100170C3F30A03C2F8D0300120704761
:1081700000207047E81B0020064AD2F8D838D2F811
:10818000DC28934294BF4FF400600020013B9B1A0F
:1081900018447047E81B0020012380F851307047D5
:1081A00007B501A8FFF7D4FF0028FAD09DF8040016
:1081B00003B05DF804FB044BD3E93403984288BF55
:1081C00003F50063181A7047E81B00200120704770
:1081D000024BC3F8E028C3F8E4187047E81B0020FE
:1081E000024BC3F8E828C3F8EC187047E81B0020DE
:1081F0007047704730B4134DD5E934239A4286BF97
:1082000003F50064A21A9A1A0A44B2F5006F13D853
:10821000A9B101444A1E013810F8014FE918824201
:1082200003F1010381F8D840C3F30A03F4D1C5F880
:10823000D430002030BC7047022030BC7047084664
:10824000F8E700BFE81B0020212838B50C4605D010
:1082500022282ED0202813D0002038BD0029FBD0A2
:10826000072AF9D11A4BD3F8F00893F8F41893F8C9
:10827000F52893F8F638206021716271A371EBE75D
:108280000029E9D0072AE7D1114DD5F8E4381BB110
:108290000968D5F8E0089847206821796279A379C0
:1082A000C5F8F00885F8F41885F8F52885F8F6384B
:1082B000D2E70029D0D0022ACED1054AD2F8EC3834
:1082C000002BC9D00988D2F8E8089847C4E700BF56
:1082D000E81B0020024B0020C3F8F808704700BFDD
:1082E000E81B0020044B00200522C3F8F828C3F83F
:1082F000EC08C3F8E4087047E81B0020704700BF93
:10830000704700BF704700BF704700BF704700BF95
:10831000704700BF704700BF042301480B807047BF
:108320009801002010B4074A074B92F8FC08122469
:1083300003F114020C8001280CBF184610465DF8AA
:10834000044B7047E81B00209C0100200048704748
:10835000701C002000487047701C0020034B93F8ED
:108360008400032894BF002001207047E81B0020F0
:10837000034B93F88400032894BF0020012070472A
:10838000E81B0020034B93F88400003818BF01203D
:10839000704700BFE81B0020A0B182680D4B12B1EE
:1083A00007229A7070471978DA6003294FF00400A9
:1083B0000CBF80214FF48071C3E901111A611A7555
:1083C00098707047034B41F2E47101225A545A707D
:1083D000704700BF409E00200378022B10D0006938
:1083E00008B9012070470C4B1B78032B0EBF0B4BB9
:1083F00080B24FF6F773984294BF00200120704777
:108400000549436841F650028A58B3EB422F2CBF0E
:1084100001200020704700BF409E0020F7FFFF0FA3
:108420000378022B14D030B4104A4368006941F637
:10843000480402F5C2511559096841F63C042B4025
:1084400012595B0A023801FB0030104430BC7047FF
:10845000064B426841F6340141F63000595818582D
:1084600000EB410000EB5220704700BF409E00200F
:1084700008B5124BD3F8BC00828940F2E933028977
:10848000013B12F0020F9BB212D0FF23838140F216
:10849000E9330289013B12F0010F9BB202D08089BF
:1084A000C0B208BD002BF4D146F03AF8C0B208BD06
:1084B000002BE4D146F034F8C0B2F8E7E81B002006
:1084C00070B505460E460924FFF7D2FFFF2803D1F9
:1084D000013CF9D1012070BDFE2801D0022070BD01
:1084E000064933462A46D1F8BC0000215CF0A8FAC0
:1084F000FFF7BEFFFFF7BCFF002070BDE81B0020A8
:1085000010B51D4C0023C4F88030FFF7B1FFD4F83C
:10851000BC00828940F2E9330289013B12F0020F6C
:108520009BB217D0FD23838140F2E9330289013BDE
:1085300012F0010F9BB212D08389FFF799FFFF2839
:1085400012D1FFF795FFFF280ED10423022084F8F3
:10855000843010BD002BDFD145F0E2FFEDE7002BAA
:10856000E4D145F0DDFFE8E7D4F80039636709237B
:10857000002084F8843010BDE81B002070B582B064
:1085800040F040060C0E05460A0A080C95238DF8AB
:1085900001408DF804108DF800608DF802008DF810
:1085A00003208DF805300824FFF762FFFF2802D072
:1085B000013CF9D125BB1A4BD3F8BC0006258389B1
:1085C0006E464FF47A734FF6FF713EB316F8012BE7
:1085D0000489013BA4079BB215D593B283814FF464
:1085E0007A730489E40703F1FF3211D5013D8289D2
:1085F000EBD10924FFF73CFFFF2802D1013CF9D160
:10860000FF2002B070BD8B42E2D145F089FFF0E758
:1086100093B28B42E5D145F083FFEAE7FF22D7E72B
:10862000E81B00202DE9F041684C00234FF4F07264
:108630002021064604F6081084F8043961F00FFC86
:1086400004F6E8204FF4F072202161F008FC94F861
:10865000C90C10B194F8CA2C1AB900252846BDE8F7
:10866000F08144F013F90746C4F8D40C44F0E2FB5F
:1086700005460028F1D00FB12323FB80092138469D
:1086800040F0B2FAD4F8D40C514F44F0F5FB94F812
:10869000CA0C013840B246F0ADF80223102184F82C
:1086A000CC3CC4F8D00C57F093FE798D494845F086
:1086B000EDFED4F8D40C44F0D9FBFF218C2057F008
:1086C000FFFF8046D4F8D40C44F0D6FBD4F8D00C8D
:1086D000042157F07DFEB8F11B0F05D0D4F8D40C5F
:1086E000202140F081FAB8E7D4F8D43C012284F884
:1086F00004290BB12322DA80798D364845F0C6FE75
:10870000D4F8D40C44F0B2FB40210A2057F0D8FF33
:10871000FF218A2057F0D4FFC0F38013D4F8D40C83
:1087200084F8D83C44F0A8FBD4F8D00C042157F0CE
:108730004FFE94F8C83C012B3FD0022B37D0CBB36F
:1087400094F8D93C182B08D194F8D82C7B8DA4F838
:10875000DC6CA4F8DE2CA4F8E03C798D1D4845F0D3
:1087600095FE798D1B4845F091FED4F8D40C44F069
:108770007DFB0221002057F0A3FFD4F8D40C44F075
:108780007BFB0421D4F8D00C57F022FE94F8E92C9E
:1087900094F8EA3C94F8E81C84F8E41CC2F1200246
:1087A000C3F1100384F8EB2C84F8EC3C56E7082363
:1087B0007B85C5E710237B85C2E7002EF7D094F8B0
:1087C000D83C002B14BF08231023F1E7E81B00203E
:1087D00098010020B42800202DE9F84F564B98420C
:1087E00010D003F568530833984267D0534B0020EC
:1087F000A3F8480DA3F8540DC3F84C0DC3F8500D61
:10880000BDE8F88F4D4C4E4E02224FF0000BC4F8DD
:10881000F02C04F6F445D9464FF4007A4FF48078F2
:10882000F26A01275A455946BB4403D0D4F8640D77
:1088300053F0ACFC94F8682D85F82420D4F8640D2E
:10884000A5F804A04FF000724FF48031A960EA60EF
:10885000A5F8108085F81290A5F806802F7628627A
:10886000B72153F089FED4F8F02C364B6F76934540
:1088700045F8283BD4DB84F8569DD4F8F01CB4F8B6
:10888000F82CD4F8003DD4F8FC0CB4F8045DC4F81E
:108890006C3D12FB01F203FB01F3A4F8482DB4F880
:1088A000FA1C294AC4F84C0DC4F8503DA4F8545D94
:1088B000A4F84A1DC4F8442D0120A1E71F4C204E06
:1088C0000223C4F8F03C04F6F4454FF0000B4FF4DB
:1088D000806A4FF040094FF40068F26A01275A4558
:1088E0005946BB4403D0D4F8640D53F04FFCD4F880
:1088F000641D94F8682D296285F824204FF4003116
:108900004FF00062C5E90212A5F804A0A5F8109086
:10891000A5F80680AF74FFF7D3FB28466F7653F0B7
:108920007DFDD4F8F02C094B45F8283B9345D4DB6A
:1089300084F8567DA1E700BF1971EF00E81B002005
:1089400098010020009F0608589F06082C9F0608E3
:10895000F8B51A4C94F8703D002BFBD159B3014483
:108960004E1E451ED4F8DC28D4F8D81815F8017F1F
:10897000531CC3F30A038B422CBF4FF4006000204A
:10898000C91A22440144012982F8747DC4F8DC38F4
:108990000FD1012040F076FED4F8D838D4F8DC1896
:1089A0008B4294BF4FF4006200225B1A1344012BE8
:1089B000EFD0B542D6D10020F8BD00BFE81B0020A3
:1089C00010B5094CD4F8F838084611465BB1D4F814
:1089D000F838052B07D1002AD4F8003903DDFFF75A
:1089E000B7FFD4F8003910BDE81B002010B590F88F
:1089F0005010002380F8503081B10B4CD4F8F82887
:108A000072B1D4F8F828052A0CD13C30D4F80039DA
:108A1000FFF79EFFD4F80039012010BD0120FCE7CC
:108A20001046FAE71846F8E7E81B0020002280F815
:108A30005120DBE790F85020531C0244DBB280F851
:108A4000503082F83C1090F851200AB1132B00D915
:108A5000CCE770472DE9F04143794F4C002B14BF10
:108A60000122002284F8B02003D184F88430BDE8CC
:108A7000F08190F8018008F1FF3676B20546304665
:108A80000F4645F0B7FE0223C4F8BC0084F8B830A6
:108A90002B78002B5BD1ED78002D4CD14FF48071F9
:108AA000D4F8BC00C4F8C05057F092FC4FF47A7070
:108AB00040F0E8FDD4F8C00044F0DEF9D4F8BC0082
:108AC0000A2683894FF6FF714FF47A73FF270289D4
:108AD000950719D587814FF47A730289D20703F17C
:108AE000FF3524D5013E8289F1D12C4B02899207B2
:108AF00013D5028912F080020FD1D4F8001984F83E
:108B0000782001236167B0E7013B9BB28B42DED145
:108B100045F006FDD4F8BC00E7E7013BE6D194F848
:108B2000782084F88430531C84F878309FE7ABB207
:108B30008B42D2D1ECE7284643F0A8FE054608B1A7
:108B40001E23C3800921284640F04EF8A6E706EB15
:108B500086063E44414696F90320002041F006F97E
:108B6000064630B140685AF08BFBB36884F8CE30CB
:108B700018B9002384F8C4308DE7094A431E02EB7C
:108B8000431317210022C4F8C8305AF08BFB01238D
:108B900084F8C4307FE700BFE81B0020A1860100F5
:108BA000C80100202DE9F04FCF4ED04D86468C46AF
:108BB00017460FCE05F27C442DED068B0FC40FCE69
:108BC0000FC496E807008BB095F8B234059784E897
:108BD0000700CDE906EC042B00F24981DFE813F031
:108BE000A801470142010500B8019FEDC18ADFEDF0
:108BF000C18AC149C5F89814C049C14BC14AC5F8DA
:108C000094140599002918BF134638EE887AF5EEBA
:108C1000006AC6EE879ABC4EC5F8A034A6F11503CB
:108C2000039306F1C0080027DFEDBF7A9FEDB79AE6
:108C300028EE278AB0EE67AA079BBB4200F00C81A2
:108C4000039B13F8014B039307F1010B5FFA8BF3BE
:108C5000002C00F08081002203E00132152A00F090
:108C60007A8102EB42014FEA420918F80100A04262
:108C7000F3D12944049391F88D15002900F07381F4
:108C800020463FF097FD824600683FF037FD9AF896
:108C900005103FF0AFFD90F800C0BCF1000F40F0B0
:108CA0005A8105EB09014FEA141909F1FF39049BB8
:108CB00081F8CD350322B9F1040F81F8CC2504F0F9
:108CC0000F0000F2FF80924C04EB4901B1F8B0C0F4
:108CD0004CFA00F111F0010100F02881012101FAA4
:108CE00000F0013800EA0C00A14404935DF0CCFBD5
:108CF00099F8BCC0DFF82CE2049B60440EEBC00C7A
:108D000003228CF807308CF806205EF83000C6F895
:108D100014C000F13F4303F57E0304EB93240121CB
:108D200094F8C4309AF8082003F01F045B09032B61
:108D300001FA04F100F0D380042B00F0CB80022B69
:108D400000F0C380BCF804300893B3FA83F3C3F196
:108D50001F03C3F3CC0100EB810103F007030C6A8E
:108D60009B004FF00F0C0CFA03FC24EA0C040C627D
:108D70000C6A02FA03F323430B62022308A9099346
:108D80000BF0DAFC059B002B76D0B5F8B034D5F8A3
:108D9000781807EE903AF8EEE77AFCEEE77A17EEED
:108DA000900AB1FBF0F202F57F42FF32120CB1FBE8
:108DB000F2F295F8B214B2FBF0F0042983B272D04B
:108DC00007EE902AF8EE676A66EE887A29EE677AEF
:108DD00095F8B30406990091A8EEA67A0190514641
:108DE0003046C6ED027A86ED037A36F09BFF002FFF
:108DF00064DD7368D5F8D024934261D0012F5DD033
:108E0000D5F8E82493425BD0022F57D0D5F800253F
:108E1000934255D0032F51D0D5F8182593424FD007
:108E2000042F4BD0D5F83025934249D0052F45D09B
:108E3000D5F84825934243D0062F3FD0D5F860257A
:108E4000D31A18BF01235F460122082F33747274AE
:108E500006F118067FF4F0AE2E480BB0BDEC068B81
:108E6000BDE8F08F9FED2C8AF0EE488AC1E69FEDB9
:108E70002B8AF0EE488ABCE6B0EE690A5EF044FC4C
:108E8000FCEEC07A4FF6FF7317EE902AD5F87818EB
:108E9000B1FBF2F21A44120CB1FBF2F295F8B214E3
:108EA000042918468CD107EE900A07EE102AF8EE36
:108EB000677AF8EE476A67EE8A7A87E70123C2E7A6
:108EC0000023C0E7C6F814C05CE7154B5C6C214377
:108ED000596437E7124B1C6B2143196332E7104B7F
:108EE0001C6C214319642DE7849F0608E02C0020A8
:108EF000ACC5A737ACC5A736C9F10308616404083F
:108F0000EDEC030855640408AC31002000007A44FD
:108F1000009F06085C310020282930386F12033981
:108F200000380240D83200206F12833A716129E77D
:108F30001FED038A0D4A0E4BC5F89824C5F89434EA
:108F400000220123CDE90532F0EE488A094B5CE6A8
:108F50009FED098AEEE7094A064BC5F89824C5F843
:108F6000A034002079E70B68FFDE00BFC9F10308D9
:108F70006164040855640408000000003DEE030825
:108F8000104B70B5D3F87848054600680E46640863
:108F90000BF0D6FAB4FBF6F1B1F5803F03D3012C08
:108FA000FAD96408F6E72246284689B23FF0A0FACB
:108FB0000549064B0B6028460022BDE870403FF093
:108FC000B7B900BFE02C0020C03D0020F1FD010832
:108FD00010B5044C04480A4621460AF02BF92046F5
:108FE00010BD00BFC83D0020EC2D070810B5044C93
:108FF00004480A4621460AF01DF9204610BD00BF6C
:10900000C83D0020FC2D070810B5044C04480A4652
:1090100021460AF00FF9204610BD00BFC83D0020D0
:10902000082E070810B5044C04480A4621460AF0E9
:1090300001F9204610BD00BFC83D0020142E0708CE
:1090400010B5044C04480A4621460AF0F3F82046BD
:1090500010BD00BFC83D0020202E070810B50C4CE5
:1090600094F8CD200023C4F8803012B1094AC2F828
:10907000F03059F097FA20B10423022084F88430AC
:1090800010BDD4F800396367092384F8843010BD1B
:10909000E81B0020D83D002070B50D4D95F88430B8
:1090A000042B04460E460AD0082B06D1EB6F8342F0
:1090B0000CD0FFF7D3FF022801D0012070BD082398
:1090C000C5E91F4685F88430022070BD022070BDBE
:1090D000E81B002070B54379234C002B14BF0123FB
:1090E000002384F8B03003D1002384F8843070BDAD
:1090F0001E4D002195F9F720032040F037FE00288F
:10910000F2D0466830465AF0BBF884F8CC0000280C
:10911000EAD095F8F530003B18BF0123304684F8BB
:10912000CD305AF08DF90AF035F838B994F8783026
:1091300084F88400013384F8783070BD59F01CFB4A
:1091400040B194F878300022013384F8783084F804
:10915000842070BDD4F8002984F878000123626768
:1091600084F8843070BD00BFE81B0020D83D00208B
:1091700010B559F001FB58B10B4C94F8783001331D
:10918000DBB2072B84F8783003D9002384F88430CD
:1091900010BD09F0FFFF0028F7D0D4F8003963674D
:1091A000012384F8843010BDE81B00202DE9F04134
:1091B000874C94F8B050002D00F0F88094F884208B
:1091C000844F0226531E082B41D8DFE803F03739BD
:1091D0009E4068501540050059F0E4F9002840F021
:1091E000EC80636FD4F80029FA3393422CD2FFF756
:1091F000BFFF94F88420E5E759F0D4F90028F0D0B7
:10920000D4F880300022012B84F8782040F2D980F5
:10921000E16F94F8CD00013B0131C4E91F1310B197
:109220006C4BC3F8F020082284F88420A2F10805D2
:10923000B5FA85F56D092846BDE8F08184F88460AB
:1092400059F0B0F9002841D194F88420531EDBB2C4
:10925000022B09D8D4F80039616F5B1AC82BE5D905
:10926000FFF786FF94F88420042ADFD1E3E7236B1D
:10927000002BDBD1E66ED4F800396367072284F84F
:109280008420002ED2D0D4E91821236F0120B047CA
:10929000DAE7636FD4F8001964338B42C6D2D4F88E
:1092A0002C80B8F1000FF4D159F07CF90028A0D03F
:1092B000E66E84F87880042384F88430002E7AD017
:1092C000D4E91821236F4046B047BDE758F010FE9F
:1092D0000028B9D197F8F930002BA3F10203B3FAB3
:1092E00083F314BF022201225B0984F8792084F8F9
:1092F0007A3058F0FDFD00287FF479AFD7F8483177
:10930000C4F88830032384F8843058F0F1FD002835
:109310009AD1304BC4F8800093F82C61B3F82E0139
:10932000D3F830E1D3F830C1D3F83071D3F830211D
:1093300084F88E6093F83411A4F88C0093F83561AA
:1093400084F8922093F83501D3F83821C4F894209A
:10935000B3F83E81B3F83E2184F89310B3F83E1180
:10936000C2F30B1343EA182303F00F0301F00F02BB
:109370004FEA1E6E4FEA1C4C3F0A360900F00F0000
:1093800003F5FA63042184F8990084F88FE084F8E7
:1093900090C084F8917084F89860A4F89A3084F8AA
:1093A0009C2084F884102846BDE8F08184F884501D
:1093B0002846BDE8F08105463DE7042384F8843063
:1093C00039E7FAD1FFF74AFE94F88420531E3EE7AE
:1093D000E81B0020D83D00202DE9F8431A4C94F8F2
:1093E0008460042E0546894690461F4608D0082E04
:1093F00002D00020BDE8F883FFF782F80228F8D1F8
:10940000D4F8C00043F032FD94F87A3093B9690281
:109410001120FFF7B3F898B9D4F80039C4F8609078
:109420000522C4E91B87656684F8842063670120F0
:10943000BDE8F88329461120FFF7A0F80028EBD0FB
:1094400009F07EFED5E700BFE81B002070B51E4C7A
:1094500094F88430042B06460D4608D0082B22D100
:10946000E36F83422DD0FFF74BF802281BD1D4F8CD
:10947000C00043F0FBFC00213720FFF77FF82946AE
:109480001720FFF77BF8B0B994F87A306BB9710206
:109490001920FFF773F870B90823C4E91F6584F831
:1094A0008430022070BD012070BD31461920FFF7C5
:1094B00065F80028F0D009F043FE09F07DFE032096
:1094C00070BD022070BD00BFE81B00202DE9F043F5
:1094D000694D91B006460F469046994695F88430FE
:1094E000042B0DD0082B07D1EB6FB34200F0C080E6
:1094F000FFF706F80228F1D0012011B0BDE8F08393
:10950000D5F8C00043F0B2FC95F87A30002B40F05B
:109510009E8071021820FFF731F8002840F0A280E9
:1095200095F88440FEF7A4FF082C0CBFFC22FE2215
:10953000D5F8BC00818940F2E9330189013B11F083
:10954000020F9BB24FD093B2838140F2E93403897A
:10955000013C13F0010FA4B276D0838995F8C43092
:10956000002B48D001A80AF007FFD5F8BC30D5F889
:10957000C82095F8CE10506803970C334022029310
:1095800000234906CDE9083304920B934FF480621F
:1095900006930A934FF400730792019105930AF022
:1095A00029FFD5F8C83001A958680AF0F7FED5F8A8
:1095B000C830D5F8BC2059680B6843F001030B6034
:1095C00093889BB243F0020393800122062300207C
:1095D000C5E91B892F666E6685F8682085F884309A
:1095E00011B0BDE8F083002BA7D144F099FF95F8A6
:1095F000C430002BB6D1D5F8BC00BE4683894FF4E9
:1096000080724FF47A744FF6FF71BEF1000F19D0DB
:109610001EF8013BB0F808C0013C1CF0020FA4B2D8
:1096200017D09BB283814FF47A74B0F808C01CF055
:10963000010F04F1FF3311D0013A8389C5D0BEF187
:10964000000FE5D1FF23E5E7002C80D1CDE73146BF
:1096500060E78C42DED144F063FFB6E79CB28C42F7
:10966000E3D1F8E709F06CFD09F0A6FD032044E71B
:10967000FEF7FEFEFC225BE7E81B00202DE9F04F21
:10968000A44C94F8B06087B0002E00F0D68194F816
:109690008420DFF88892DFF888829F4F4FF6FF75AD
:1096A000531E082B00F29580DFE813F0A700D100CD
:1096B0006B0193008200090014019300FF0094F8ED
:1096C000C430002B40F03E82D4F8BC00236E94F8E6
:1096D00068E0828903EB0E2C4FF480714FF47A73AB
:1096E000BCF1000F00F0B7811CF801AB0289013B0F
:1096F00092079BB240F1EE811FFA8AF383814FF407
:109700007A730289D20703F1FF3A40F1EB81013904
:109710008289E5D10EF1010E5FFA8EFEBEF1020FD5
:1097200084F868E052D1D4F8BC00838940F2E93370
:109730000289013B12F0020F9BB200F0C7810023A7
:10974000838140F2E9330289013B12F0010F9BB2A1
:1097500000F0B4818389838940F2E9330289013BB7
:1097600012F0020F9BB200F0A5810023838140F22A
:10977000E9330289013B12F0010F9BB200F09481A2
:109780008389FEF775FE00F01F00052800F0A18216
:1097900009F012FDD4F86CA0BAF1000F00F0CC81F2
:1097A0000022236F616E0120D04794F8842077E770
:1097B000206E4FF40071FEF783FE012800F0A481B3
:1097C000022800F0A881002800F0EF8194F884209E
:1097D000531EDBB2022B00F23A81D4F80039616FDC
:1097E0005B1AC82B00F22F81A2F10806B6FA86F6A2
:1097F0007609304607B0BDE8F08FD4F8C00043F0DA
:1098000035FB00210846FEF7B9FE824609F098FCB8
:10981000BAF1010FDAD10023D4F8C00084F879300E
:1098200043F024FB40F2AB110820FEF7A7FE052809
:1098300000F08581012800F0118109F081FC94F885
:109840007920002A00F04282022384F88430D4F880
:10985000C00043F00BFB94F87930022B0CBF4FF0A3
:10986000804A4FF0000A00213720FEF787FE51465C
:109870002920FEF783FE824609F062FCBAF1000F50
:10988000A4D194F87930022B00F0A48184F87AA056
:10989000D4F8C00043F0EAFA00210920FEF76EFE7A
:1098A00000283FD009F04CFC90E74FF0080AFEF783
:1098B000DFFDFF2800F02082BAF1010AF7D1636FC3
:1098C000D4F80029FA33934280D209F075FC94F859
:1098D0008420E5E6FEF7CCFDFF284FF0080A06D00D
:1098E000BAF1010AEBD0FEF7C3FDFF28F8D1D4F896
:1098F00080300022012B84F8782040F20382E26F4E
:1099000008210132013BC4E91F2384F884100A4670
:109910006AE700BFE81B0020006402400F640240B9
:1099200000600240C5481021FEF7CAFD83460028AA
:10993000B8D101217F20FEF7EBFB01288246B1D18F
:1099400058460221FEF7E4FB002800F0A081012820
:10995000A8D116213A20FEF7DBFB01308002C4F8C3
:10996000880009F0EDFBD4F8C00043F07FFA002135
:109970000A20FEF703FE002840F06481032384F8E8
:109980008430102102A8FEF79BFD00287FF41EAF53
:109990009DF815309DF816109DF810209DF80900CF
:1099A0009DF80AC01B01DBB243EA111303F5FA6309
:1099B000A4F89A30DDF8113001F00F0184F89C1002
:1099C0001BBA110902F00F024CEA002084F898102B
:1099D00084F899209DF808109DF80B20C4F8943065
:1099E000039BC4F89030A4F88C0084F88E1084F89F
:1099F0008F2009F0A5FB94F87A307BB9D4F8C00029
:109A000043F034FA4FF400711020FEF7B7FD8246A0
:109A100009F096FBBAF1000F7FF457AFD4F8BC0001
:109A2000042156F0D5FC002204233046C4F88020DF
:109A300084F8843007B0BDE8F08F304684F8846045
:109A400007B0BDE8F08F09F0B7FB94F88420042A32
:109A50007FF4CAAECDE64FF0FF0A47E6D4F8BC006B
:109A60004FF0040E838902A94FF47A734FF0FF0C74
:109A7000028992073CD5A0F80CC04FF47A73028992
:109A8000D20703F1FF3A3AD5828992B209B101F8BF
:109A9000012BBEF1010EEBD19DF80B30AB2B04BFB7
:109AA000022384F87930C8E6002B7FF462AE44F0DC
:109AB00037FD66E6002B7FF451AEF8E7002B7FF40C
:109AC00042AE44F02DFDD4F8BC0044E6002B7FF4F8
:109AD0002FAEF6E7AB427FF409AE44F021FD94F8D7
:109AE00068E017E61FFA8AF3AB427FF40AAEF4E7A8
:109AF000013B9BB2AB42BBD144F012FDCCE71FFA55
:109B00008AF3AB42BBD1F7E7636FD4F80029643323
:109B10009342BFF45BAE09F013FB09F04DFBD4F8A0
:109B20006CA0BAF1000F07D000221046236F616EBF
:109B3000D04794F88420B3E594F88420B0E584F805
:109B400079A07AE6D4F8C8305968DB69494594BFF2
:109B50004046384613F0005F00F08B80D0F804C018
:109B6000DFF8DCE003EA0C0C1CEA0E0F3FF43CAE1D
:109B700003EA0E03C3600B68D4F8BC0023F00103B2
:109B80000B600389D90703D583890389DA07FBD4DE
:109B900003899B07FCD503891906F9D4838823F030
:109BA00002031B041B0C8380BFE5019009F0C8FA77
:109BB000E56E019884F87800042384F88430002D41
:109BC0003FF417AED4E91821236FA84794F88420F6
:109BD000531EFEE5D4F8C00043F048F951463A2040
:109BE000FEF7CCFCD4F8BC1082468B894FF0040EF3
:109BF0004FF47A7302A84FF0FF0C0A89920728D518
:109C0000A1F80CC04FF47A730A89D20703F1FF3B25
:109C10002AD58A8992B208B100F8012BBEF1010E53
:109C2000EBD1BAF1000F0DD109F08AFA029B1BBAF1
:109C3000C3F3807384F87A302AE600BF881C0020C2
:109C40007D0F7D0F09F07CFA09F0B6FA94F88420B4
:109C500026E5013B9BB2AB42CFD1084644F060FC05
:109C6000BAF1000FEED1DFE71FFA8BF3AB42CBD195
:109C7000F3E7D0F800C0DFF8ACE003EA0C0C1CEA14
:109C80000E0F3FF4B1AD03EA0E03836073E70421C6
:109C90002C20FEF73DFA032183464E20FEF738FACA
:109CA0000C21034636200193FEF732FA019B421C39
:109CB00002339A400AFA0BFAA2FB0A01420A42EA6C
:109CC000C152C4F8882009F03BFA4CE684F884209D
:109CD0008AE5E56ED4F800396367072284F88420AA
:109CE000002D3FF481ADD4E91821236F0120A8474E
:109CF00094F88420531E6CE509F022FA042384F8BA
:109D0000843076E508D0042384F8843009F018FA0A
:109D100094F88420531E5CE5FEF7F2FB02287FF4E2
:109D200055ADBFE57D0F7D0F2DE9F04FC14C94F887
:109D3000581183B00546C1F34001D4F8600143F0E7
:109D4000A1F894F85811D4F85C01C94301F001015D
:109D50006F1E43F097F8FBB20193002D00F0D08006
:109D6000B54EDFF8DC82B54D4FF01009D4F8600134
:109D700043F06CF8D4F85C0143F068F8B4F868314B
:109D8000002B40F04E8194F86A11D4F86C0143F036
:109D900079F84FF0FA0A4FF47A710120D8F80430BC
:109DA000C3F30803002B40F00F81EFF31183002B66
:109DB00040F00A81D6F80029D5F808C0D6F8003955
:109DC0009A42F7D1D4F890319C45F3D8D4F88C71ED
:109DD00001FB07F3A3EB0C03B3FBF7F301FB023228
:109DE000D8F80430C3F30803002B40F0AB80EFF346
:109DF0001183002B40F0A680D6F80039D5F808B0C2
:109E0000D6F80079BB42F7D1D4F89071BB45F3D8AE
:109E1000D4F88C7101FB07FCACEB0B0CBCFBF7FC22
:109E200001FB03C39B1AB3F57A7FD9D3BAF1010AB8
:109E3000B4D1D4F8600143F009F8D4F85C0143F0E0
:109E400005F8B4F86831002B40F0DF8094F86A110F
:109E5000D4F86C0181F0010143F014F8FA204FF4BA
:109E60007A714FF0010CD8F80430C3F30803002BCB
:109E700040F08980EFF31183002B40F08480D6F806
:109E80000029D5F808E0D6F800399A42F7D1D4F87D
:109E900090319E45F3D8D4F88CA101FB0AF3A3EBD3
:109EA0000E03B3FBFAF301FB0232D8F80430C3F31C
:109EB000080343BBEFF311832BBBD6F80039D5F869
:109EC00008B0D6F80079BB42F7D1D4F89071BB4501
:109ED000F3D8D4F88CA101FB0AFEAEEB0B0EBEFB4F
:109EE000FAFE01FB03E39B1AB3F57A7FDDD3013859
:109EF000B9D1019B5F1EFBB2FF2B01937FF436AFFC
:109F000003B0BDE8F08FEFF3118A89F31288AF68D0
:109F10002B68DB0344BFC4F888C1AF68D6F80039AA
:109F2000D4F888E15FFA8AFA8AF31188D4F88CA110
:109F3000734401FB0AFEAEEB070EBEFBFAFE01FB0B
:109F400003E3D0E7EFF3118E89F31288D5F808B058
:109F50002B68DF0344BFC4F88801D5F808B0D6F8F1
:109F60000039D4F888C15FFA8EFE8EF31188D4F8D8
:109F70008C71634401FB07FCACEB0B0CBCFBF7FCE6
:109F800001FB03C34EE7EFF3118E89F31288D5F876
:109F900008A02B68DA0344BFC4F888C1D5F808A02C
:109FA000D6F80039D4F888215FFA8EFE8EF3118836
:109FB000D4F88CE11A4401FB0EF3A3EB0A03B3FBC4
:109FC000FEF301FB023270E7EFF3118C89F3128884
:109FD000D5F808E02B68DB0344BFC4F88801D5F846
:109FE00008E0D6F80039D4F888215FFA8CFC8CF3AD
:109FF0001188D4F88C711A4401FB07F3A3EB0E030C
:10A00000B3FBF7F301FB0232EAE6D4F88431002B0C
:10A010003FF424AFD4F87031C3F800A084F881A1D4
:10A020001CE7D4F88431002B3FF4B3AE3FF0EAFBD9
:10A03000AFE600BFD83D0020E81B002010E000E0A4
:10A0400000ED00E02DE9F04FBD4CBE4E94F85811E4
:10A05000D4F86001DFF8F482BB4D83B0C1F3400156
:10A0600042F010FF94F85811D4F85C01C94301F094
:10A07000010142F007FF052301934FF01009D4F8C6
:10A08000600142F0E3FED4F85C0142F0DFFEB4F878
:10A090006831002B40F04C8194F86A11D4F86C01BF
:10A0A00042F0F0FE32274FF47A710120D8F80430E4
:10A0B000C3F30803002B40F00F81EFF31183002B53
:10A0C00040F00A81D6F80029D5F808C0D6F8003942
:10A0D0009A42F7D1D4F890319C45F3D8D4F88CE16A
:10A0E00001FB0EF3A3EB0C03B3FBFEF301FB023207
:10A0F000D8F80430C3F30803002B40F0AB80EFF333
:10A100001183002B40F0A680D6F80039D5F808B0AE
:10A11000D6F800C96345F7D1D4F890C1E345F3D828
:10A12000D4F88CE101FB0EFCACEB0B0CBCFBFEFC91
:10A1300001FB03C39B1AB3F57A7FD9D3013FB5D195
:10A14000D4F8600142F082FED4F85C0142F07EFE59
:10A15000B4F86831002B40F0E08094F86A11D4F82C
:10A160006C0181F0010142F08DFE32204FF47A71D2
:10A170000127D8F80430C3F30803002B40F08B808C
:10A18000EFF31183002B40F08680D6F80029D5F834
:10A1900008E0D6F800399A42F7D1D4F890319E45BC
:10A1A000F3D8D4F88CA101FB0AF3A3EB0E03B3FBA5
:10A1B000FAF301FB0232D8F80430C3F3080343BBBF
:10A1C000EFF311832BBBD6F80039D5F808B0D6F8D9
:10A1D00000E97345F7D1D4F890E1F345F3D8D4F80A
:10A1E0008CA101FB0AFEAEEB0B0EBEFBFAFE01FBDF
:10A1F00003E39B1AB3F57A7FDDD30138B9D1019B14
:10A200005F1E17F0FF0301937FF439AF03B0BDE881
:10A21000F08FEFF3118A89F31288D5F808B02B6814
:10A22000DB0344BFC4F88871D5F808B0D6F800390C
:10A23000D4F888E15FFA8AFA8AF31188D4F88CA1FD
:10A24000734401FB0AFEAEEB0B0EBEFBFAFE01FBF4
:10A2500003E3CEE7EFF3118E89F31288D5F808B047
:10A260002B68DB0344BFC4F88801D5F808B0D6F8E2
:10A270000039D4F888C15FFA8EFE8EF31188D4F8C5
:10A280008CE1634401FB0EFCACEB0B0CBCFBFEFC55
:10A2900001FB03C34EE7EFF3118E89F31288D5F863
:10A2A00008A02B68DA0344BFC4F88871D5F808A069
:10A2B000D6F80039D4F888215FFA8EFE8EF3118823
:10A2C000D4F88CE11A4401FB0EF3A3EB0A03B3FBB1
:10A2D000FEF301FB02326EE7EFF3118C89F3128873
:10A2E000D5F808E02B68DA0344BFC4F88801D5F834
:10A2F00008E0D6F80039D4F888215FFA8CFC8CF39A
:10A300001188D4F88CC11A4401FB0CF3A3EB0E03A3
:10A31000B3FBFCF301FB0232EAE6D4F88431002BF4
:10A320003FF423AFD4F870311F6084F881711CE7CB
:10A33000D4F88431002B3FF4B5AE3FF063FAB1E6B8
:10A34000D83D0020E81B002010E000E000ED00E018
:10A350000E4B30B4DB68427801780D4CDB43C3F31D
:10A360000223C3F10403DBB202FA03F360181B01FA
:10A3700001F01F050122490903F0F003AA4080F80B
:10A38000003344F8212030BC704700BF00ED00E0EE
:10A3900000E100E000F01F0240090123032803FA56
:10A3A00002F304D004280CD0022805D07047074AD5
:10A3B000116C0B4313647047044A516C0B43536494
:10A3C0007047024A116B0B43136370470038024019
:10A3D00000285FD00368374A2DE9F04103F13F447C
:10A3E00004F57E0402EB9422012492F8C42002F0CA
:10A3F0001F055209032A04FA05F456D0042A4FD047
:10A40000022A48D08588B5FA85F0C0F11F00C0F354
:10A41000CC0603EB860600F0070082000F24306AAA
:10A42000944020EA04003062306A01FA02F20243EA
:10A43000002132624FF0010E0A464FF0030C022752
:10A440000EFA02F838EA050002F101021CD1186880
:10A450000CFA01F420EA04001860186807FA01F603
:10A4600006431E609E6826EA04069E60986898600F
:10A47000586820EA0800586058685860D86820EA90
:10A480000400D860D868D860102A01F10201D7D141
:10A49000BDE8F0817047084A556C2C435464B1E71D
:10A4A000054A156B2C431463ACE7034A156C2C4327
:10A4B0001464A7E7009F060800380240002861D016
:10A4C0000368384A03F13F4101F57E0102EB912216
:10A4D0002DE9F04192F8C42002F01F045209012135
:10A4E000032A01FA04F158D0042A51D0022A4AD092
:10A4F0008588B5FA85F2C2F11F02C2F3CC0403EBE2
:10A50000840402F00702216A92000F20904021EAA1
:10A5100000012162206A0C2101FA02F202430021AB
:10A52000226208464FF0010E4FF0030C02270EFA8C
:10A5300000F838EA050200F101001DD11C680CFA90
:10A5400001F224EA02041C601E6807FA01F4344395
:10A550001C609E6826EA02069E609E6816439E6006
:10A560005C6824EA08045C605C685C60DC6824EA7F
:10A570000202DA60DA68DA60102801F10201D6D14D
:10A58000BDE8F0817047084A546C21435164AFE73D
:10A59000054A146B21431163AAE7034A146C214353
:10A5A0001164A5E7009F06080038024058B183886F
:10A5B0004FF00042B3FA83F332FA03F303D00249B7
:10A5C0000A6813430B607047003C0140134B02685C
:10A5D000196821EA02011960596821EA02015960EB
:10A5E00019680A431A609968026821EA02019960B1
:10A5F000D96821EA0201D9604179102907D001F117
:10A60000804303F59E3319680A431A6070479968BE
:10A6100011439960D9680A43DA607047003C0140F1
:10A62000002864D0F0B58388B3FA83F3202B0A4660
:10A6300085B00446C3F11F0143D02D4D2D4E05EBCF
:10A6400081037718C3F89421002197F8CC703EF06D
:10A65000CBFAB4F804C02268274CBCFA8CFCCCF1CD
:10A660001F0303F0FC0101F1804101F59C3103F06F
:10A67000030398004FF00F0E02F13F438A680EFA71
:10A6800000FE22EA0E0203F57E038A60C3F38723ED
:10A69000834088684FF0004222FA0CF203433D44A5
:10A6A0008B6002A8626101234FF400618DF80E30C7
:10A6B0000292ADF80C10FFF789FF95F8D431F02B1A
:10A6C00001D805B0F0BD3E44F02196F8DC308DF89D
:10A6D000043003224FF4807301A885F8D4118DF85B
:10A6E0000520ADF80630FFF733FE05B0F0BD70472A
:10A6F000D83D0020009F0608003C014010B4B8B1CE
:10A700000D4CD4F8DC31102B05D15DF8044B05213C
:10A7100000203EF051BD03EB4302224482F8E111D8
:10A7200001210B4482F8E00182F8E211C4F8DC3127
:10A730005DF8044B704700BFD83D0020C078202151
:10A74000DCE700BF2DE9F04FDFF87CA32DED028B95
:10A750009AF824120022CAE98522CAE9872297B012
:10A76000CAF8102219B19AF825228AF810229AF80C
:10A7700026221AB19AF827228AF81F229AF82A224A
:10A780001AB19AF82B228AF81A229AF828221AB1BA
:10A790009AF829228AF815229AF82C3205935A1E23
:10A7A000D3B257B204937B1C00F0AA80BC4ABD4EC2
:10A7B00052F83780029602EBC70200231279019308
:10A7C00008EE102A1D46344699462678394630460A
:10A7D00044F0ACFA83463046BBF1000F1ED042F085
:10A7E00055F8EA1D1321D2B220B14FF0000E82714C
:10A7F00080F807E03EF0F8F9207844F0C1FA4FF015
:10A80000070309F1010223714FF0010384F802905C
:10A810006070CDF804B05FFA82F9E3700135042D61
:10A8200004F10504D1D118EE100A029ECDF80C9067
:10A83000FFF7B0FD9C499D4A4868024042F440320F
:10A840004A600FB9019B5BB9994C4820FFF7A2FD04
:10A85000204602215AF022FFA26842F00102A260C3
:10A860009148934A4168BAF82E4241F40001416090
:10A87000516821F480515160916B21F4401141F4F1
:10A8800080119163D16841F46001D160956B85F4CA
:10A890004011C1F3015101EB81011F2000FA01FCBD
:10A8A00025EA0C0C112505FA01F141EA0C0191632E
:10A8B000D16841F0E061D160956BC5F30151C1F100
:10A8C0000401C9B201EB810188404FF0120C25EA66
:10A8D00000000CFA01F108439063E4B1BAF83012B9
:10A8E000CAF83842A1B1BAF83222CAF83C1262B1B1
:10A8F000019B7048521A90FBF2F2CAF840226BB9E1
:10A9000017B0BDEC028BBDE8F08F6B4A1288EFE701
:10A910006A4A1188E7E76A4A1488DFE740460399E4
:10A920005AF0BCFE5F4B012003F114090723F278B3
:10A93000441CE4B252B375783279A5F10A0101EBF7
:10A94000410105EB450C092D03FA01FE03FA0CFB4E
:10A9500002FA01F140F28E80D8F80C2022EA0E0EA5
:10A9600041EA0E01C8F80C10421E02EB82021F21C0
:10A97000062801FA02FC05FA02F261D8D8F8341070
:10A9800021EA0C010A432046C8F834200536B145B7
:10A99000CDD1D8F80820049942F40072C8F80820F4
:10A9A000D8F8082042F48072C8F80820D8F80820A7
:10A9B000574442F00102C8F8082097F934220220D7
:10A9C0003FF0D4F9044600289AD0406858F058FC6B
:10A9D000059A062158F066FC606809F00BFD07A88F
:10A9E00009F0CAFC039EA368364A0793012E8CBF68
:10A9F0004FF48060002000230D9008F14C054FF4C7
:10AA00000060089509920A934FF480720C930E909F
:10AA10004FF4003360680B9607A94FF40055CDE959
:10AA20000F52119309F0BAFC6268136843F00103F6
:10AA30001360D8F8083043F08043C8F808305FE767
:10AA4000C11FA0F10D0201EB81014FF01F0E02EBBF
:10AA500082020C280EFA01FC0EFA02F005FA01F14E
:10AA600013D8D8F8302022EA0C0211432046C8F847
:10AA700030108BE7D8F8101002FA0CF221EA0B0B19
:10AA800042EA0B02C8F810206EE7D8F82C1005FA3D
:10AA900002F221EA00010A432046C8F82C2075E79B
:10AAA000E49F0608E83F002000230140E030FCFF5F
:10AAB00000200140803801002E7AFF1F2C7AFF1FF2
:10AAC0002A7AFF1F1C400020D83D0020F8B5264EF2
:10AAD00000EBC00406EB8404D4F85052002D36D0AD
:10AAE00094F861C20CF0FF07BCF1000F2FD14900B0
:10AAF0004FF0010CC9B284F8621284F8632284F822
:10AB000065C284F8667284F864C284F861C284F80D
:10AB10006072AA88C4E99A33940502D501273846A1
:10AB2000F8BD2B88D9050CD44FF4805301E0013BCC
:10AB300010D02A889205FAD42B889BB243F48073F4
:10AB40002B80AB889BB243F44073AB80E6E70027D1
:10AB50003846F8BDB6F8B83201339BB2A6F8B83221
:10AB60005AF052F9DBE700BFD83D002070B44D4ADF
:10AB700092F8BA3203EB430002EBC000590090F8A0
:10AB8000BC0203281DD8DFE800F00E1F024FC818D2
:10AB900002EBC000D0F8C04204B3013CC0F8C04290
:10ABA000002070BC704792F84863002E63D03E4C82
:10ABB000002001E086425ED0258801308C34002DD3
:10ABC000F8D0012070BC7047C81802EBC000D0F864
:10ABD000C042002CE1D1022480F8BC42194402EBAF
:10ABE000C10191F8C8020138C0B281F8C802B0BBF7
:10ABF0002E4892F8B057D0F83002D1F8C442013351
:10AC000003F00303421E0326AB42224481F8BC62D8
:10AC1000B2FBF0F4C1F8C042D3D090429CBF04F123
:10AC2000FF34C1F8C042CCE7194402EBC101D1F8AE
:10AC3000C00290BB92F8B0178B42C2D0013303F030
:10AC40000304A14282F8BA42BBD004EB440302EBF6
:10AC5000C3020223C2F8C00282F8BC32B2E7134B2F
:10AC6000D3F83022012002F2E73370BCB3FBF2F3D9
:10AC7000C1F8C03270470D480B44D0F8301202EBD7
:10AC8000C302012001F51C530F3370BCB3FBF1F379
:10AC900082F8BC02C2F8C03270470138C1F8C00265
:10ACA00000208FE7D83D0020284100209801002097
:10ACB000064B93F8B127002AFBD141F21432044924
:10ACC0009B5801F10C001B68184700BFD83D0020BD
:10ACD0008C4500202DE9F84F3249DFF8D4B091F8C7
:10ACE000F91001240229074619461046CBF82C40DA
:10ACF0004FF000022C4C1D4618BF7F02FDF780F973
:10AD00002A4B63626B02A362E36A40F2FF5943F08D
:10AD100093034FF400704FF48A62E3620121C4F898
:10AD20003890A0601020E26057F02EFA012D40F21A
:10AD300051434E46C4F83890CA4640F252488EBF3E
:10AD40004FF0120998464FF011090A25C4F838A0AF
:10AD50000121A7604846C4F80C8057F015FA034655
:10AD60004FF0000C40F2774201213720A6632BB947
:10AD700000231846CBF82830BDE8F88FA663C4F846
:10AD800008C0E26057F000FA013DA6630028EFD04A
:10AD900015F0FF05DAD10346CBF82C50CBF828305C
:10ADA000BDE8F88FD83D0020002C014000E1F505FA
:10ADB000E81B00202DE9F843184C94F88460042E19
:10ADC0000546894690461F4608D0082E02D000202E
:10ADD000BDE8F883FEF742F90228F8D101234A467C
:10ADE00028460021FFF776FF50B1FEF7C1F9E56E66
:10ADF000002DECD00022236F616E1046A847E6E7D5
:10AE0000D4F80039C4F860900522C4E91B87656650
:10AE100084F8842063670120BDE8F883E81B0020E4
:10AE20002DE9F84F2F49DFF8C49091F8F9101E462C
:10AE300002292D4B07464FF0010418BF4702012E8F
:10AE400040F259481C6398BF4FF48B683B469346C9
:10AE5000474640F2FF55B0468CBF4FF0190A4FF0FD
:10AE6000180A0A241E4640F2FF53C9F8383001215F
:10AE7000C9F808605046C9F80C7057F085F90346C8
:10AE80004FF0000C40F2774201213720C9F83850CA
:10AE9000A3B9584641460122FDF7B2F84646134A87
:10AEA000134B536276029662D36A43F09103D362E6
:10AEB0000D4B002108469962BDE8F88FC9F838505B
:10AEC000C9F808C0C9F80C2057F05EF9013CC9F870
:10AED00038500028DDD014F0FF04C4D1024B1C63AD
:10AEE000BDE8F88FD83D0020E81B0020002C014071
:10AEF00000E1F5052DE9F047374C82B005460E46D6
:10AF00001746984694F8840004280CD0082806D1E7
:10AF1000E36FAB4207D0FEF7A1F80228F2D0012080
:10AF200002B0BDE8F087DFF8B8A02666DAF8F09046
:10AF30006566C9F34F210F294FEA592223D8D4F867
:10AF400080300193FBB194F8CD00E0B1B9F5005F1A
:10AF500013D0224831464FF4007248445EF01EFF81
:10AF600009F50072C2F34F211029CAF8F0204FEA08
:10AF7000522202D0019B012B21D192B2013A174EED
:10AF8000AD1A0B4600E0012332462846062601256D
:10AF90000021E766C4F8708084F8685084F8846003
:10AFA000FFF73EFF0028BBD0FEF7E2F8E66E86B161
:10AFB0002846236F616E0022B0470320B0E7E26F9E
:10AFC000013B01320421C4E91F2384F884100220CC
:10AFD000A6E70320A4E700BFE81B0020406E002086
:10AFE000D83D002010B50C4C94F82032022B11D122
:10AFF000D4F8280241F040FFD4F8280208B12123F8
:10B00000C38001213DF0F0FDBDE810400348082158
:10B0100043F03CBA10BD00BFD04E0020F0500020DD
:10B0200073B50D4E05460C46FF230A4601463046D1
:10B030008DF8073043F05CFB01230DF1070245F06A
:10B040008001304643F018FB9DF80700031B58426F
:10B05000584102B070BD00BFF050002070B52E4DB9
:10B0600095F82042022C84B01AD0012C02D0002086
:10B0700004B070BD95F92442631CF8D0032CF6DCB3
:10B080000091134695F82512024620465AF050F8D2
:10B090000028ECD0204604B0BDE870405AF014B946
:10B0A000D5F8283213B11C689B886383D5F82462D5
:10B0B000B38940F2E9343389013C13F0020FA4B2A2
:10B0C00019D084B2B48140F2E9343389013C13F0E1
:10B0D000010FA4B21BD0B389134630460A460021A3
:10B0E00059F0AEFCD5F82832A3B11A689B881383B7
:10B0F000012004B070BD002CDDD13046CDE9021234
:10B1000043F00EFADDE90212D5F82462E4E7002CE0
:10B11000DBD1F2E70120ABE7D04E002010B502787A
:10B12000022A044613D0012A01D0002010BD2D4B65
:10B1300090F9040083F86022421CF6D00328F4DC66
:10B140000A4603F518736179BDE81040BEE48368D0
:10B1500013B11A689B8853836368988940F2E93277
:10B160001889013A10F0020F92B225D089B2998164
:10B1700040F2E9321989013A11F0010F92B22BD055
:10B180009A899A8940F2E9321989013A11F0020F3D
:10B1900092B21ED001229A8140F2E9321989013A15
:10B1A00011F0010F92B20ED09B89A368BBB11A684F
:10B1B0009B881383012010BD002AD1D1184643F08B
:10B1C000AFF96368DDE7002AE8D1184643F0A8F933
:10B1D000EBE7002AD8D1F8E7002ACBD1EEE701202F
:10B1E00010BD00BFD04E0020094B93F8B234042BA1
:10B1F00008D9053B032B08D801231A4600B1037078
:10B200001046704700230122F8E700231A46F5E7AD
:10B21000E02C0020F0B40D6800240CE0BCF1050F18
:10B2200018D8A0F137030A2B14D104EB840415F8C5
:10B23000010B03EB4404A0F13003DEB2092EA0F1B0
:10B240006107A0F1410CF0D9052FE7D8A0F1570311
:10B250000A2BEAD00D601460F0BC70479FED737A42
:10B2600007EE901A20EE070AF8EE677A27EE800ABA
:10B27000FDEEC07A17EE903A2033402B00F2C780E3
:10B28000DFED6B7AB4EEE70AF1EE10FAF0EE407AF9
:10B290000CDD9FED686ADFED686AB0EE677AB4EEA8
:10B2A000E67AF1EE10FA77EEC67AF6DC9FED637A75
:10B2B000F4EEC77AF1EE10FA0CD59FED5E6ADFED81
:10B2C000606AB0EE677AB4EEE67AF1EE10FA77EEE5
:10B2D000867AF6D49FED5B7AF4EEC77AF1EE10FA37
:10B2E00000F38D809FED587AF4EEC77AF1EE10FAF4
:10B2F00044BF9FED527A77EE677A27EEA76ADFEDBB
:10B30000535A9FED537ADFED536AA6EE257A67EE26
:10B31000865AE6EE076AB6EE007AE5EEA67A27EEE2
:10B32000877ADFED486A70EE267ABDEEE76A16EEA0
:10B33000103A2033402B67D8B4EEE60AF1EE10FA4B
:10B340000CDDDFED3C5A9FED3C6AF0EE676AF4EEEF
:10B35000C66AF1EE10FA77EEE57AF6DCDFED376AD1
:10B36000F4EEE67AF1EE10FA0CD5DFED325A9FEDED
:10B37000346AF0EE676AF4EEC66AF1EE10FA77EE20
:10B38000A57AF6D4DFED2F6AF4EEE67AF1EE10FA44
:10B3900040DDDFED276A76EEE77A67EEA75A9FED8C
:10B3A0002B5A9FED2B6ADFED2B6AA5EE856A27EEFF
:10B3B000A55AE5EE866AB8EE006AE5EE267A67EEF3
:10B3C000867AC7EE206A0023836143610362C3610A
:10B3D000B7EE006A76EE865A76EE666A86EE257AD3
:10B3E00067EE277A66EE876AC0ED017AC0ED037AD0
:10B3F00080ED007A80ED027AC0ED046A70479FED1F
:10B400000C7A77EE677A78E7DFED137AD9E79FED6C
:10B41000127A86E7DFED0C6AF4EEE67AF1EE10FAC6
:10B4200044BFDFED066A76EEE77AB6E727D4D23678
:10B43000DB0F4940DB0FC940E4CB1641DB0F49C0AD
:10B44000E4CB16C1DB0FC93FDB0FC9BF92E741B99F
:10B450009730083C15A82ABE000000002DE9F041F5
:10B460008C4C82B094F861320190002B40F00C813A
:10B4700094F88432B4F88622DFED876AB4F88882C3
