:020000040800F2
:10000000F0FF01200969060889F20008D9D2040826
:1000100081690608816906088169060800000000F8
:1000200000000000000000000000000085F2000851
:1000300081F20008000000007DF20008D59B040852
:1000400081690608816906088169060881690608D0
:100050008169060881690608DDE3040809E50408EA
:10006000CDE4040891E4040855E404086D3506085D
:100070005D3506084D3506083D3506082935060864
:1000800015350608013506088169060800000000DC
:1000900000000000000000000000000019E4040857
:1000A000C18604080D870408B18604083187040856
:1000B00001870408F1860408E1860408155806083B
:1000C0001D580608095806081158060881690608CF
:1000D00081690608B19D0408F59C04080000000031
:1000E000A1E3040881690608A509010800000000D1
:1000F000000000000000000000000000ED340608D1
:100100000000000019100608D1860408816906085D
:1001100000000000000000000000000000000000DF
:10012000D9340608C5340608B13406089D340608DB
:1001300089340608000000000000000000000000F4
:1001400000000000000000000000000011EC0008AA
:1001500075340608613406084D340608399C0408D5
:10016000FD570608055806080000000000000000C2
:10017000000000000000000000000000000000007F
:100180000000000081690608000000000000000077
:08019000816906088169060877
:08019800A8640600010000004C
:1001A0000E02010002000000246700208467002086
:1001B00000000000F809000814020100050000001A
:1001C000C43E00208867002000000000FA090008F3
:1001D0001302010004000000DC24002090670020CE
:1001E00000000000000A00080D1001004C00000093
:1001F000A46400209467002000000000DDF90308DB
:100200000400080080000000E4630020E067002094
:1002100000000000000000000902010001000000D1
:100220008C6300206068002000000000040A0008C1
:10023000FD010100240000003063002064680020FC
:1002400000000000D7670408FB0101000100000066
:10025000706100208868002000000000FD6405082F
:10026000FC010100090000003C6000208C680020B7
:100270000000000005650508F70101000600000008
:10028000306000209868002000000000060A000886
:10029000F9010100040000002C600020A06800208B
:1002A0000000000081680408160215003F000000ED
:1002B00064320020A4680020000000002D650508BD
:1002C0003400010010000000205F0020E4680020DE
:1002D00000000000FD970208110201000800000064
:1002E000F85E0020F4680020000000000C0A0008FE
:1002F0001212010004000000F05E0020FC680020E3
:1003000000000000140A000818200100320000005C
:10031000BC5E00200069002000000000316E05086E
:100320001220010011000000DC5D00203469002073
:1003300000000000180A0008000201000B00000085
:10034000185B002048690020000000005165050886
:10035000FF11010006000000C05A0020546900206F
:1003600000000000ED640508081203000F00000003
:10037000CC5A00205C69002000000000716505086F
:10038000FA01010003000000B85400206C6900204D
:1003900000000000596505080A80010028000000DF
:1003A000984C0020706900200000000089150208A8
:1003B000061001001C000000883100209869002010
:1003C00000000000ED6505080202010003000000C6
:1003D000C4280020B46900200000000000000000D4
:1003E0000C02010004000000A4280020B8690020CD
:1003F0000000000061650508110001000C0000000C
:10040000EE400020BC690020000000006DF50308EC
:10041000FE01010014000000F43F0020C869002024
:1004200000000000B1640508FD070100760000002F
:1004300068C00020E0C000200000000075790108BD
:10044000261001000E00000068C1002058C10020E5
:10045000000000006D1C01080B3001001A000000B4
:1004600034BA0020A8C10020000000002C0A0008B7
:100470001F3001002400000070B90020C4C100201A
:1004800000000000480A0008050201000400000006
:1004900064BC0020E8C10020000000006C0A0008D5
:1004A000030101000A000000B4B90020ECC10020E3
:1004B000000000000D170108220201001C010000CD
:1004C000A0D9002034DC002000000000E96D050800
:1004D0000C200600CC00000018D8002050DD0020C1
:1004E00000000000BDF30308010201000B00000042
:1004F000BCD700201CDE002000000000416505087C
:100500001B0201001000000090D7002028DE002010
:1005100000000000D96505081B1001000C00000058
:10052000F0C3002038DE002000000000E97F010851
:1005300021020100F000000070C2002044DE002013
:1005400000000000D1A101082312010010000000EA
:1005500098D4002034DF002000000000700A00085A
:10056000371001002E00000000D7002044DF0020DB
:1005700000000000800A00081610010006000000BC
:1005800090D4002074DF002000000000AE0A0008B4
:100590001E0001000900000064D300207CDF002061
:1005A00000000000B40A0008051001000600000069
:1005B000D8D3002088DF002000000000BE0A000819
:1005C000F58101006800000000C2002090DF0020DB
:1005D00000000000399201082320010010000000F3
:1005E00018D40020F8DF0020000000009D1602084B
:1005F0002F1001002200000068D4002008E0002035
:1006000000000000C40A0008F62101000C000000F0
:1006100074EC00202CEE002000000000E80A000826
:100620001C0202001C00000018EC00207CEE0020E0
:1006300000000000DD6B0508282001001800000004
:1006400034EC002098EE002000000000ED3F02088E
:100650000412010002000000ECED0020B0EE0020CA
:1006600000000000F40A00080F0201000100000071
:10067000E8ED0020B4EE002000000000F60A0008BB
:10068000140001000400000010EC0020B8EE00206F
:1006900000000000F80A0008012001000C00000022
:1006A0003CE30020BCEE002000000000FC0A000833
:1006B0000EF003009E01000024E10020C8EE00209F
:1006C000000000004598020813000100040000002B
:1006D00060E8002068F0002000000000080B00081F
:1006E000010101000400000070E000206CF0002017
:1006F00000000000000000000001010004000000F4
:1007000068E0002070F00020000000000C0B0008E2
:10071000020101000300000064E0002074F00020EA
:1007200000000000F9F303081900010005000000B3
:10073000ECFD0020B8FE002000000000100B0008B7
:100740001A0001000E0000004CFD0020C0FE002039
:1007500000000000160B0008203201000A00000013
:10076000E4FB0020D0FE00200000000021980208D9
:100770001500100070000000C0F50020DCFE002015
:1007800000000000000000002A00080060000000D7
:1007900034FE00204CFF002000000000D597020826
:1007A0002C00040010000000BCFF0020ACFF002063
:1007B00000000000AD9502082B001200240000008C
:1007C000F0FF0020CCFF002000000000819502080F
:1007D000292014007800000060F30020140001209C
:1007E00000000000000000001902010010000000DD
:1007F00094F200208C000120000000003165050803
:10080000030001000100000014190120281C012030
:100810000000000000000000031201003D00000085
:10082000BC1801202C1C012000000000240B000833
:1008300025201E002C010000201601206C1C012028
:100840000000000000000000101001000200000085
:10085000A0150120981D012000000000620B000877
:10086000F821010006000000FC1501209C1D01205C
:1008700000000000640B0008020001000C000000F2
:10088000082601209C260120000000000000000036
:10089000290201004000000074200120A826012048
:1008A000000000006A0B00080A02010014000000AA
:1008B000601F0120082701200000000089F30308C1
:1008C0002802040004000000603001203C320120B6
:1008D00000000000D56505082702040004000000A0
:1008E0005C3001204032012000000000C96505088D
:1008F0001F02080010000000B82D01204432012022
:1009000000000000C96405081A0201003C00000054
:10091000602901205432012000000000A16E05086A
:1009200038100100010000003C2701209032012016
:1009300000000000AA0B00080B1201003C000000A0
:100940008C370120703F012000000000AC0B000834
:100950000D12010014000000383F0120AC3F0120BF
:1009600000000000E80B0008070201000200000080
:10097000DC3E0120C03F012000000000FC0B00080D
:100980001D02020006000000983E0120C43F012025
:100990000000000000000000060203000C00000040
:1009A000A43E01204C44012000000000A96C050871
:1009B0003900010005000000B03E0120584401202C
:1009C000000000001D65050827000100040000006C
:1009D000783801206044012000000000FE0B000870
:1009E0001002010001000000A4800120A08001206D
:0809F00000000000020C0008E9
:1009F8000000000000FF00000000010000000000EF
:100A0800010000000000000001010101FFFFFFFFDD
:100A180000000001000105533431310000000002DC
:100A280000000000AE014A015E012C0164000200D2
:100A3800000001000A019A01001E0A0000020000DD
:100A48000000000000010000000500000102030092
:100A5800000000000000000000000000000000008E
:100A680000800700000000000000000000000000F7
:100A7800000000000000000020003200C800D0077D
:100A880096001400320028004C044006000550006F
:100A980014000F00080064000100010005000A00AE
:100AA8000000F4019600C4090000190000050100C7
:100AB800000000000000200003010000000000000A
:100AC800000000000000000000000000000000001E
:100AD800000000000000000000000000000000000E
:100AE80000000000010000000202000000000000F9
:100AF80003000023E8036400040A000114001E0038
:100B080000204030900100000000280100007E0510
:100B1800EA05B4053200E803D00700000000000031
:100B280000000000000000000000000000000000BD
:100B380000000000000000000000000000000000AD
:100B4800000000000000000000000000000000009D
:100B58000000000000000000010000050201F4018F
:100B68001400000000000000000000000000000069
:100B7800000000000000000000000000000000006D
:100B8800000000000000000000000000000000005D
:100B9800000000000000000000000000000000004D
:100BA800000000000000000000000000000000003D
:100BB800000000000000000000000000000000002D
:100BC800000000000000000000000000000000001D
:100BD800000000000000000000000000010000000C
:100BE80000000000000000000000000000000000FD
:0B0BF80000000000003C200300000093
:100C03000403090412010002EF0201408304563277
:100C1300000201020301000012010002020200406F
:100C2300830440570002010203010800FFFFFFFF96
:100C3300006002401060024000000000000000005D
:100C4300000B000000000000000000000000000096
:100C53000060024028600240010000000000000024
:100C6300060C00000000000000000000000000006F
:100C730000600240406002400200000000000000EB
:100C8300100D000000000000000000000000000044
:100C930000600240586002400300000000000000B2
:100CA300160E00000000000000000000000000001D
:100CB3000060024070600240040000000000000079
:100CC300200F0000000000000000000000000000F2
:100CD3000060024088600240050000000000000040
:100CE30026100000000000000000000000000000CB
:100CF30000600240A0600240060000000000000007
:100D0300301100000000000000000000000000009F
:100D130000600240B86002400700000000000000CD
:100D2300362F00000000000000000000000000005B
:100D33000064024010640240000000000000000054
:100D43000038000000000000000000000000000068
:100D5300006402402864024001000000000000001B
:100D63000639000000000000000000000000000041
:100D730000640240406402400200000000000000E2
:100D8300103A000000000000000000000000000016
:100D930000640240586402400300000000000000A9
:100DA300163B0000000000000000000000000000EF
:100DB3000064024070640240040000000000000070
:100DC300203C0000000000000000000000000000C4
:100DD3000064024088640240050000000000000037
:100DE3002644000000000000000000000000000096
:100DF30000640240A06402400600000000000000FE
:100E0300304500000000000000000000000000006A
:100E130000640240B86402400700000000000000C4
:100E23003646000000000000000000000000000043
:100E33007D000000010000001583000811830008F5
:100E43000D83000801830008FD8200080983000860
:100E530005830008000000004D8F000889A30008E7
:100E6300118F0008DDA40008319000088583000875
:100E73007183000855830008119D0008B18800089C
:100E830099D5000811D6000891D6000889D8000822
:100E9300990F01085D8300084D83000801000000DD
:100EA3000000803F2D3A0108313F0108A93A0108AB
:100EB30035100108191201084510010861100108D5
:100EC3000D100108FD0F01080000000000000000E4
:100ED30009022000010104C03209040000020806CF
:100EE300500507058102400000070501024000008C
:100EF30009026400030100C0320904000001030079
:100F030000000921110100012236000705830309AE
:100F1300000A080B01020202010009040100010298
:100F2300020100052400100105240100020424022B
:100F3300020524060102070582030800FF090402D3
:100F430000020A00000007050102400000070581B6
:100F53000240000009024300020100C032090400FC
:100F63000001020201000524001001052401000113
:100F7300042402020524060001070582030800FF7A
:100F830009040100020A00000007050102400000F5
:100F93000705810240000000FF00000000FF000081
:100FA300000000000000AA550701000001AA550532
:100FB3000100000810AC0608FF1FFF1F050109050B
:100FC300A101A100050109300931093209330935AD
:100FD3000934093609371581257F7508950881027B
:100FE30005091901290815002501950875018102D4
:100FF300C0C0000009022200010100E03209040020
:10100300000103010200092111010001223600073A
:1010130005830309000A0000000000000102030425
:1010230001020304060708092D202D2D202D2D2D47
:101033002D202D2D2D2D00000000000000000000AC
:1010430000000000000000AA550B010000AA55058E
:10105300010000AA550902000000AA5503009F00E1
:1010630001000000C0120000A0C100200000000029
:1010730078C100200000000001000000983007083C
:10108300A03007080000000081F40308A0860100D7
:101093000400000000000000000000000000000049
:1010A300000000000000000000000000000000003D
:1010B3000000000000000000000000009830070856
:1010C300A830070800000000197C0408E8030000AA
:1010D3000400000000000000000000000000000009
:1010E30000000000000000000000000000000000FD
:1010F300000000000000000000000000B0300708FE
:1011030000000000000000005D6103087D00000096
:10111300FF000000000000000000000000000000CD
:1011230000000000000000000000000000000000BC
:1011330000000000000000000000000030B60708B7
:101143000000000000000000557703087D00000048
:10115300FF0000000000000000000000000000008D
:10116300000000000000000000000000000000007C
:1011730000000000000000000000000054450708C4
:101183000000000000000000A5BB03087D00000074
:10119300FF0000000000000000000000000000004D
:1011A300000000000000000000000000000000003C
:1011B300000000000000000000000000B830070835
:1011C300000000000000000049720408E80300006A
:1011D3000300000000000000000000000000000009
:1011E30000000000000000000000000000000000FC
:1011F300000000000000000000000000BC300708F1
:10120300000000000000000025270308102700004D
:1012130003000000000000000000000000000000C8
:1012230000000000000000000000000000000000BB
:1012330000000000000000000000000044B20708A6
:10124300000000009D9102088DD304085F76000022
:101253000500000000000000000000000000000086
:10126300000000000000000000000000000000007B
:10127300000000000000000000000000D4B50708D3
:101283000000000000000000F1F204081027000035
:10129300010000000000000000000000000000004A
:1012A300000000000000000000000000000000003B
:1012B300000000000000000000000000C830070824
:1012C3000000000000000000A9640408E803000017
:1012D3000500000000000000000000000000000006
:1012E30000000000000000000000000000000000FB
:1012F300000000000000000000000000D4300708D8
:10130300000000000000000045F80308204E000024
:1013130003000000000000000000000000000000C7
:1013230000000000000000000000000000000000BA
:10133300000000000000000000000000E430070887
:1013430000000000000000002DF60308204E0000FE
:101353000300000000000000000000000000000087
:10136300000000000000000000000000000000007A
:10137300000000000000000000000000F430070837
:1013830000000000000000005D780408400D030029
:101393000300000000000000000000000000000047
:1013A300000000000000000000000000000000003A
:1013B30000000000000000000000000004310708E6
:1013C3000000000000000000352D04081027000075
:1013D3000100000000000000000000000000000009
:1013E30000000000000000000000000000000000FA
:1013F3000000000000000000000000000C3107089E
:10140300000000000000000069AE01081027000082
:1014130003000000000000000000000000000000C6
:1014230000000000000000000000000000000000B9
:101433000000000000000000000000001031070859
:10144300000000000000000075740208A08601007F
:101453000100000000000000000000000000000088
:101463000000000000000000000000000000000079
:101473000000000000000000000000001831070811
:101483000000000000000000D170040850C30000F9
:101493000100000000000000000000000000000048
:1014A3000000000000000000000000000000000039
:1014B30000000000000000000000000020310708C9
:1014C3000000000000000000A16E0408A0860100D7
:1014D3000000000000000000000000000000000009
:1014E30000000000000000000000000000000000F9
:1014F3000000000000000000000000002C3107087D
:101503000000000000000000896A0408A8610000D0
:1015130001000000000000000000000000000000C7
:1015230000000000000000000000000000000000B8
:101533000000000000000000000000003831070830
:10154300000000000000000049080208A086010016
:101553000100000000000000000000000000000087
:101563000000000000000000000000000000000078
:1015730000000000000000000000000044310708E4
:1015830000000000000000005DA20408A00F00009E
:101593000100000000000000000000000000000047
:1015A3000000000000000000000000000000000038
:1015B3000000000000000000000000005031070898
:1015C300000000000000000045030208102700008F
:1015D3000100000000000000000000000000000007
:1015E30000000000000000000000000000000000F8
:1015F3000000000000000000000000005C3107084C
:101603000000000000000000C1F40308A00F000068
:1016130001000000000000000000000000000000C6
:1016230000000000000000000000000000000000B7
:1016330000000000000000000000000068310708FF
:101643000000000000000000CDDD01081A41000089
:101653000100000000000000000000000000000086
:101663000000000000000000000000000000000077
:101673000000000000000000000000006C310708BB
:1016830000000000000000004117010810270000BF
:101693000100000000000000000000000000000046
:1016A3000000000000000000000000000000000037
:1016B300000000000000000000000000783107086F
:1016C3000000000000000000794F020850C3000032
:1016D3000100000000000000000000000000000006
:1016E30000000000000000000000000000000000F7
:1016F3000000000000000000000000007C3107082B
:10170300000000000000000085200108400D0300D8
:1017130000000000000000000000000000000000C6
:1017230000000000000000000000000000000000B6
:1017330000000000000000000000000084310708E2
:1017430000000000000000008DF50308400D0300B9
:101753000000000000000000000000000000000086
:101763000000000000000000000000000000000076
:101773000000000000000000000000008C3107089A
:10178300000000000000000055EC010850C30000F9
:101793000300000000000000000000000000000043
:1017A3000000000000000000000000000000000036
:1017B300000000000000000000000000983107084E
:1017C3000000000000000000FD09040840420F0073
:1017D3000000000000000000000000000000000006
:1017E30000000000000000000000000000000000F6
:1017F300000000000000000000000000A431070802
:10180300000000000000000009FD030850C30000B1
:1018130000000000000000000000000000000000C5
:1018230000000000000000000000000000000000B5
:1018330000000000000000000000000001000000A4
:1018430000000100E0010000FFFFFFFF01017EFF38
:10185300FFFFFFFF080000004257020000000106DF
:10186300425702000000010601FF0101FF000000D2
:10187300FFFFFFFFA10B02080000000000000000B3
:1018830048B60608E4E4002038E50020D60100004D
:101893001D3502084533020800000000B0CE0608DB
:1018A3006DFB0108000000000000000014CE0608D4
:1018B300BD3502080000000000000000CCCD060882
:1018C3000000000000000000000000007CCC0608BF
:1018D30000000000000000000000000034CD0608F6
:1018E300000000000000000000000000E0CC06083B
:1018F30000000000000000002132020825E800205B
:10190300FF2D202D2D202D2D2D2D202D2D2D0000B3
:1019130000000000000000000000000000000000C4
:10192300FFFFFFFFAD3802080000000000000000C9
:101933000CCC060801000000FA00000001000000C2
:10194300010000000101000000010101000000008E
:1019530036E300200000F4010100000034E300201E
:101963000000F4010100000032E300200000F40154
:101973000100000030E300200000F401010000003A
:101983002EE300200000F401010000002CE30020FE
:101993000000F401010000002AE300200000F4012C
:1019A30001000000D91302089D1302080000000083
:1019B3008CB806081AE300200532010028E3002052
:1019C3006400F4010100000026E300206400C40960
:1019D3000100000018E30020E803D0070100000025
:1019E30016E30020E803D0070100000014E3002001
:1019F300E803D0070100000012E300201E00B80B2B
:101A03000100000020E3002005000F00010000009A
:101A130022E3002003000A000100000010E300207D
:101A23001E00F4010100000024E300200200000076
:101A330018B906080EE3002014006400010000003A
:101A43001CE300203200E803010000000CE3002047
:101A53000000C80001000000E5E2002000C801000A
:101A6300E4E2002000500100E3E20020005A0100FC
:101A7300E1E200200200000024B906089C3C0708AC
:101A8300A43C07085E6600200100C40900000000B2
:101A93005C6600200100C409000000005A660020B3
:101AA3000100C40900000000586600200100C409B9
:101AB30000000000546600200100C409000000007B
:101AC300566600200100C409000000005266002091
:101AD3000100C40900000000506600200100C40991
:101AE300000000008FE0002000C801008EE000200D
:101AF30000C801008CE000200000FFFF0A00000086
:101B03008AE000200100C8000100000088E00020F6
:101B1300320030753200000086E000207EFF1400A2
:101B23000500000084E0002005002C0105000000F2
:101B330082E00020055A05007FE0002000FF01003D
:101B430081E0002002000000141000207DE000204E
:101B53000300000030AE06087EE0002000FF010015
:101B630080E0002002000000141000207CE0002030
:101B73000300000030AE06082D130208BD12020850
:101B83000000000030B906084CE30020EE02CA084A
:101B9300010000004AE3002000C8010064000000C7
:101BA30049E3002000C801006400000048E300206E
:101BB300020000003CBA060876E000200000803EE8
:101BC3000500000074E0002080C1803E0500000095
:101BD3006EE000200083007D050000006CE0002023
:101BE30080C1803E0500000067E0002000FF010087
:101BF30062E000206400F4010100000060E00020C6
:101C03000400000048BA06085FE00020020000005C
:101C13005CBA060815E100200D00000068BA06084A
:101C230012E100200064010010E1002032001027BF
:101C33000A0000000EE100200D00000068BA06084B
:101C43000DE100200D00000068BA06080CE1002039
:101C530002000000A0BA0608000000000000000017
:101C630000000000ACBA060852E300203E0000006A
:101C7300E4BA060850E300200100FF7F01000000E2
:101C83004FE3002002000000E0BB060817E100203C
:101C930003000000F0BB060816E10020030000006B
:101CA300F0BB0608D2E20020000A0100D0E20020C7
:101CB3000000E80301000000CEE200200000E8037A
:101CC30001000000CCE200200000E8030100000056
:101CD300CAE200200000E80301000000C2E2002085
:101CE3000000E80301000000C8E200200000E80350
:101CF30001000000C6E200200000E803010000002C
:101D0300C4E2002000140100E0E200200200000011
:101D130000BC0608DEE200200000F4010100000020
:101D2300DCE200200000F40101000000DAE2002000
:101D33000000F40101000000D8E200200000F401DB
:101D430001000000D6E200200000A00F0100000007
:101D5300D4E200200000A00F01000000F9E20020FF
:101D630019640100F8E20020020000000CBC060820
:101D7300F6E20020E803D0070A000000F4E20020A6
:101D8300006401000A000000E9E200200064010091
:101D9300E8E2002000640100F0E20020006401009A
:101DA3000A000000EFE20020006401000A000000C6
:101DB300EEE20020006401000A000000F3E20020CC
:101DC30000FF01000A000000F2E2002000FF010012
:101DD3000A000000F1E2002000FF01000A000000F9
:101DE300EDE2002001FF01000A000000ECE2002008
:101DF30001FF01000A000000EBE2002001FF0100E7
:101E03000A00000020E100200000F40101000000AE
:101E13001EE100200000A00F010000001CE10020D3
:101E23000000A00F010000001AE100200000A00F35
:101E33000100000018E100200000A00F01000000D5
:101E430075E8002000C8010074E800200064010068
:101E530073E800200064010072E8002000640100C0
:101E630071E800200064010070E80020FF08010011
:101E73006FE800200164010025120208E91102083D
:101E83000000000018BC060878E8002001320100B9
:101E930077E800200100000088BC060876E80020EF
:101EA3000400000090BC06086EE8002000640100F6
:101EB3006CE800201400E803010000006AE8002039
:101EC300E80330750A00000068E8002000C801003C
:101ED30067E8002000C8010066E8002000C8010090
:101EE30065E80020003201007AE80020004B010081
:101EF30079E8002004000000A4BC060864E8002080
:101F0300006401000A00000088E800200000D007F8
:101F13000100000083E8002000C8010082E80020DF
:101F230000C8010081E8002000C8010086E8002005
:101F33000000D0070100000080E8002000C8010075
:101F43007FE8002000C801007EE8002000C80100EF
:101F530084E800200000D007010000007DE8002095
:101F630000C801007CE8002000C801007BE80020D5
:101F730000C80100DD0F0208C50F020800000000C1
:101F8300B8BC060809E10020005A010008E100205E
:101F930000C8010006E10020E803D00701000000AB
:101FA30000000000000000006132020854BD060872
:101FB30053544D3332463431310000007BE000206E
:101FC300000301007AE0002000030100010F020872
:101FD300B50E020800000000A8BD0608750E020831
:101FE3002D0E02080000000044BE06084D0F020833
:101FF3009138020800000000C4BE060878E0002003
:1020030001030100B514020889140208000000004E
:102013001CC20608B90D0208750D02080000000075
:102023008CC20608ED0F0208E53902080000000023
:1020330028C30608AD3D0208E114020800000000B1
:10204300D0C306083D100208000000000000000095
:102053005CC4060819110208C11002080000000040
:10206300C0C40608AD110208711102080000000087
:1020730068C50608718F020861120208000000009B
:10208300F4C506080BE300200106010085100208D1
:102093005110020800000000F0C60608A58E0208D1
:1020A300B13A02080000000060C70608B98F0208B1
:1020B300793B020800000000B0C806080AE30020CC
:1020C30001030100950F0208650F020800000000DC
:1020D30084C90608119002080000000000000000F7
:1020E300E8C90608FD0D020879380208000000005F
:1020F30068CA06080000000000000000000000009D
:10210300F4CA060895120208F13B02080000000019
:1021130064CB06080000000000000000000000007F
:102123007CCD060810BC00209CFF2C0100000000A1
:10213300BCDB0020E0150C1700000000E4D80020F1
:1021430002000000B4CD06085BE00020020000009E
:10215300C0CD060856E0002088136F170100000069
:1021630058E0002088136F1700000000A2660020CB
:102173000000000000000000A06600200000000036
:10218300000000009E660020000000000000000028
:102193009C66002000000000000000009A660020FA
:1021A300000000000000000098660020000000000E
:1021B30000000000FC0500200000000000000000FB
:1021C3002CE000200300000014CF060854E0002098
:1021D30088136F17010000005ABC002088136F1783
:1021E30000000000590C020800000000000000007D
:1021F30024CF060869E700200100000078CF060815
:102203005CBC00200100000084CF060852BC002003
:10221300020000008CCF0608000000000000000050
:102223000000000098CF0608450C020800000000DB
:102233000000000034D00608000000000000000089
:102243000000000088D00608000000000000000025
:1022530000000000F8D006085AE000200200000049
:1022630030D1060856BC0020E0150C170000000012
:10227300010100009C000120FFFFFFFF0000803FE1
:10228300000000000000000000000000000000004B
:10229300000000000000000000000000000000003B
:1022A300000000000000803F00000000000000006C
:1022B300000000000000803F00000000000000005C
:1022C300000000000000803F00000000000000004C
:1022D30000000000010000000000FA430000FA4380
:1022E3000000803F452F04080000000000000000AC
:1022F30000000000FFFFFFFFFF00000000000000E0
:10230300F82601200800000000000000E826012054
:102313000800000020000000853901082911010888
:102323001D39010800000000F90F010805420108EA
:102333006D380108B93401080000000000000000F6
:10234300B90F01082583000819830008958E00083A
:10235300B18E0008798E00085D8E0008418E00085A
:102363003D3901080511010871380108000000001A
:10237300D10F0108BD34010841380108193401089F
:102383000000000000000000C50F0108685E0C009B
:10239300FFFFFFFF02010000A00F0000B80B0000C9
:1023A30002FFFF01FFFF000038B207080000080228
:1023B300050303000000000040B207080100080203
:1023C3000504030000000000585A07080200FE013C
:1023D300011003000000000004400708030014027A
:1023E300000300000000000048B2070804001F02B9
:1023F300020008000000000050B2070805001F0299
:102403000201080000000000FFFFFFFF1A030000A5
:1024130000000000000000000000000000000000B9
:102423000000000000000000040309041201000280
:1024330000000040830420570002010203010B0047
:102443000D750508E174050885740508A16605087E
:10245300A1740508457405089D660508F41A002053
:10246300FD7505081D760508ED75050881660508E7
:10247300A97505086175050871660508D01A00205D
:102483001D6F050889660508856605087D660508CC
:10249300696F050879660508756605087C210708D4
:1024A300A1410108E5100108814001080000000076
:1024B3000000000019380108293701080000000056
:1024C3000000000000000000AD0F010829670508A7
:1024D3001D6705086D76050889760508D566050824
:1024E3005176050835760508FFFFFFFF1F00000042
:1024F3001C0000001F0000001E0000001F00000061
:102503001E0000001F0000001F0000001E0000004E
:102513001F0000001E0000001F0000000068214C87
:102523001C2B0708181B0020012500002420070886
:102533000100000050C30000008002021F000000E1
:1025430053544D202020202050726F647574202036
:102553002020202020202020302E30310080020235
:102563001F00000053544D202020202050726F6420
:10257300757420202020202020202020302E303170
:102583000B17010807170108FF160108E9140108D2
:10259300ED1F010819200108491F0108F51601085C
:1025A300E5160108D5160108C5160108E11401084E
:1025B300010101FFFF010000F4010000000004011C
:1025C30000000000000000021000000007000000EF
:1025D30000000000000000000102030406070809D0
:1025E30001000000801B002000000000000000002C
:1025F30000000000000000000000000000000000D8
:1026030000000000000000000000000000000000C7
:1026130000000000000000000000000000000000B7
:1026230000000000000000000000000000000000A7
:102633000000000000000000000000000000000097
:0826430000000000000000008F
:08280000082800080040000850
:10800000F0B401292A4C2B4D23684FF0000694BF91
:1080100000270127EE626662A6626763676B47EA24
:1080200042076763EE63EC6B002A38D144F4957421
:10803000EC631C6824F001041C601C68E407FCD499
:10804000490289085960D8601968EAB921F04001ED
:10805000196019498B421DD018494FF47410C8603B
:10806000196841F01E011960596941F08001596198
:10807000196841F00101196022B90E4AD36A43F030
:108080000803D362F0BC704741F0400119600A490F
:108090008B42E1D14FF0746041F8500CE0E744F0BE
:1080A0001A04EC63EC6A44F00804EC62C1E700BF18
:1080B000E01B0020002C0140586402400064024094
:1080C0001148002302461178032902F1060216D056
:1080D0000133062BF7D10D4AD36D052B0ED0591C59
:1080E00003EB4303D16500EB4303032040F2EB3184
:1080F00040F2FF32187059809A807047704703EB46
:10810000430300EB4303F0E7181C0020E01B0020B2
:1081100070B4C3080D4CE25C00F00706B24004EBFB
:10812000D004D2B20020C6F108038B4228BF0B4610
:10813000C3F108052A419840C91A40EA02004FF0ED
:10814000000614F8012FEED170BC7047801C00208F
:10815000084AD2E9343199420AD0D118013391F852
:10816000D8100170C3F30A03C2F8D0300120704761
:1081700000207047E01B0020064AD2F8D838D2F819
:10818000DC28934294BF4FF400600020013B9B1A0F
:1081900018447047E01B0020012380F851307047DD
:1081A00007B501A8FFF7D4FF0028FAD09DF8040016
:1081B00003B05DF804FB044BD3E93403984288BF55
:1081C00003F50063181A7047E01B00200120704778
:1081D000024BC3F8E028C3F8E4187047E01B002006
:1081E000024BC3F8E828C3F8EC187047E01B0020E6
:1081F0007047704730B4134DD5E934239A4286BF97
:1082000003F50064A21A9A1A0A44B2F5006F13D853
:10821000A9B101444A1E013810F8014FE918824201
:1082200003F1010381F8D840C3F30A03F4D1C5F880
:10823000D430002030BC7047022030BC7047084664
:10824000F8E700BFE01B0020212838B50C4605D018
:1082500022282ED0202813D0002038BD0029FBD0A2
:10826000072AF9D11A4BD3F8F00893F8F41893F8C9
:10827000F52893F8F638206021716271A371EBE75D
:108280000029E9D0072AE7D1114DD5F8E4381BB110
:108290000968D5F8E0089847206821796279A379C0
:1082A000C5F8F00885F8F41885F8F52885F8F6384B
:1082B000D2E70029D0D0022ACED1054AD2F8EC3834
:1082C000002BC9D00988D2F8E8089847C4E700BF56
:1082D000E01B0020024B0020C3F8F808704700BFE5
:1082E000E01B0020044B00200522C3F8F828C3F847
:1082F000EC08C3F8E4087047E01B0020704700BF9B
:10830000704700BF704700BF704700BF704700BF95
:10831000704700BF704700BF042301480B807047BF
:108320009801002010B4074A074B92F8FC08122469
:1083300003F114020C8001280CBF184610465DF8AA
:10834000044B7047E01B00209C0100200048704750
:10835000681C002000487047681C0020034B93F8FD
:108360008400032894BF002001207047E01B0020F8
:10837000034B93F88400032894BF0020012070472A
:10838000E01B0020034B93F88400003818BF012045
:10839000704700BFE01B0020A0B182680D4B12B1F6
:1083A00007229A7070471978DA6003294FF00400A9
:1083B0000CBF80214FF48071C3E901111A611A7555
:1083C00098707047034B41F2E47101225A545A707D
:1083D000704700BFDC9900200378022B10D00069A1
:1083E00008B9012070470C4B1B78032B0EBF0B4BB9
:1083F00080B24FF6F773984294BF00200120704777
:108400000549436841F650028A58B3EB422F2CBF0E
:1084100001200020704700BFDC990020F7FFFF0F0C
:108420000378022B14D030B4104A4368006941F637
:10843000480402F5C2511559096841F63C042B4025
:1084400012595B0A023801FB0030104430BC7047FF
:10845000064B426841F6340141F63000595818582D
:1084600000EB410000EB5220704700BFDC99002078
:108470002DE9F041684C00234FF4F07220210646AC
:1084800004F6041084F8003961F0C5FD04F6E42018
:108490004FF4F072202161F0BEFD94F8C50C10B1CC
:1084A00094F8C62C1AB900252846BDE8F08144F09E
:1084B000F5FB0746C4F8D00C44F0C4FE054600287E
:1084C000F1D00FB12323FB800921384640F094FD01
:1084D000D4F8D00C514F44F0D7FE94F8C60C0138B4
:1084E00040B246F067FB0223102184F8C83CC4F870
:1084F000CC0C57F091FF798D494846F0CFF9D4F86C
:10850000D00C44F0BBFEFF218C205CF00DFB8046BC
:10851000D4F8D00C44F0B8FED4F8CC0C042157F0B9
:108520007BFFB8F11B0F05D0D4F8D00C202140F010
:1085300063FDB8E7D4F8D03C012284F800290BB1E0
:108540002322DA80798D364846F0A8F9D4F8D00C89
:1085500044F094FE40210A205CF0E6FAFF218A20D4
:108560005CF0E2FAC0F38013D4F8D00C84F8D43C69
:1085700044F08AFED4F8CC0C042157F04DFF94F857
:10858000C43C012B3FD0022B37D0CBB394F8D53C61
:10859000182B08D194F8D42C7B8DA4F8D86CA4F8AF
:1085A000DA2CA4F8DC3C798D1D4846F077F9798DFA
:1085B0001B4846F073F9D4F8D00C44F05FFE02215A
:1085C00000205CF0B1FAD4F8D00C44F05DFE042138
:1085D000D4F8CC0C57F020FF94F8E52C94F8E63C46
:1085E00094F8E41C84F8E01CC2F12002C3F11003EB
:1085F00084F8E72C84F8E83C56E708237B85C5E738
:1086000010237B85C2E7002EF7D094F8D43C002BD2
:1086100014BF08231023F1E7E01B0020980100207D
:10862000A82800202DE9F84F564B984210D003F5AA
:1086300068530833984267D0534B0020A3F8440D89
:10864000A3F8500DC3F8480DC3F84C0DBDE8F88FE2
:108650004D4C4E4E02224FF0000BC4F8EC2C04F5AA
:108660004F65D9464FF4007A4FF48078F26A0127BB
:108670005A455946BB4403D0D4F8600D52F022F855
:1086800094F8642D85F82420D4F8600DA5F804A092
:108690004FF000724FF48031A960EA60A5F81080B5
:1086A00085F81290A5F806802F762862B72152F03F
:1086B000FFF9D4F8EC2C364B6F76934545F8283B00
:1086C000D4DB84F8529DD4F8EC1CB4F8F42CD4F824
:1086D000FC3CD4F8F80CB4F8005DC4F8683D12FB1B
:1086E00001F203FB01F3A4F8442DB4F8F61C294A67
:1086F000C4F8480DC4F84C3DA4F8505DA4F8461DDC
:10870000C4F8402D0120A1E71F4C204E0223C4F8DD
:10871000EC3C04F54F654FF0000B4FF4806A4FF0CE
:1087200040094FF40068F26A01275A455946BB4494
:1087300003D0D4F8600D51F0C5FFD4F8601D94F853
:10874000642D296285F824204FF400314FF0006237
:10875000C5E90212A5F804A0A5F81090A5F80680B6
:10876000AF74FFF7ADFC28466F7652F0F3F8D4F8FB
:10877000EC2C094B45F8283B9345D4DB84F8527D1B
:10878000A1E700BF1971EF00E01B00209801002055
:10879000B8A0060810A10608E4A00608F8B51A4C0F
:1087A00094F86C3D002BFBD159B301444E1E451E7D
:1087B000D4F8DC28D4F8D81815F8017F531CC3F37B
:1087C0000A038B422CBF4FF400600020C91A2244D8
:1087D0000144012982F8707DC4F8DC380FD10120F2
:1087E00041F058F9D4F8D838D4F8DC188B4294BF4B
:1087F0004FF4006200225B1A1344012BEFD0B54204
:10880000D6D10020F8BD00BFE01B00200A4B08466F
:10881000D3F8F81810B569B1D3F8F838052B09D199
:10882000064C002AD4F8783404DD1146FFF7B6FF71
:10883000D4F8783410BD00BFE01B0020D82C0020F5
:1088400010B590F85010002380F8503089B10C4CCE
:10885000D4F8F8287AB1D4F8F828052A0DD1094CB3
:108860003C30D4F87834FFF799FFD4F878340120FD
:1088700010BD0120FCE71046FAE71846F8E700BFF4
:10888000E01B0020D82C0020002280F85120D7E7E0
:1088900090F85020531C0244DBB280F8503082F82C
:1088A0003C1090F851200AB1132B00D9C8E770474B
:1088B0002DE9F8434379534D002B14BF01220022C8
:1088C00085F8B02003D185F88430BDE8F88390F8AE
:1088D000018008F1FF3676B2044630460F4646F076
:1088E00069F90223C5F8BC0085F8B8302378002B5D
:1088F00064D1E478002C55D14FF48071D5F8BC00D8
:10890000C5F8C04057F088FD4FF47A7041F0C2F8C6
:10891000D5F8C00044F0B8FCD5F8BC404FF00A08C8
:10892000A38942F20F764FF0FF090BE0A4F80C90F8
:1089300041F084F807462389D9072DD5B8F10108FD
:10894000A3890DD041F07AF8074623899807EDD422
:1089500041F074F8C01BB042F7DD204645F0E8FF57
:10896000D5F8BC10284B0A8992070BD50A8912F05A
:10897000800207D1254B85F87820D3F878346B67CF
:108980000123A0E7013BEED195F8782085F88430EB
:10899000531C85F8783098E741F050F8C01BB0427E
:1089A000C9DDDAE7204644F079F9044608B11E2310
:1089B000C3800921204640F01FFB9DE706EB860699
:1089C0003E44414696F90320002041F0D7FB06467D
:1089D00030B1406859F0F4F9B36885F8CE3018B971
:1089E000002385F8C43084E7094A431E02EB431391
:1089F00017210022C5F8C83059F0F4F9012385F891
:108A0000C43076E7E01B0020A1860100D82C0020AE
:108A1000C80100202DE9F04FCF4ED04D86468C4640
:108A200017460FCE05F27C442DED068B0FC40FCEFA
:108A30000FC496E807008BB095F8B234059784E828
:108A40000700CDE906EC042B00F24981DFE813F0C2
:108A5000A801470142010500B8019FEDC18ADFED81
:108A6000C18AC149C5F89814C049C14BC14AC5F86B
:108A700094140599002918BF134638EE887AF5EE4C
:108A8000006AC6EE879ABC4EC5F8A034A6F115035D
:108A9000039306F1C0080027DFEDBF7A9FEDB79A78
:108AA00028EE278AB0EE67AA079BBB4200F00C8134
:108AB000039B13F8014B039307F1010B5FFA8BF350
:108AC000002C00F08081002203E00132152A00F022
:108AD0007A8102EB42014FEA420918F80100A042F4
:108AE000F3D12944049391F88D15002900F0738186
:108AF000204640F067F88246006840F007F89AF890
:108B0000051040F07FF890F800C0BCF1000F40F075
:108B10005A8105EB09014FEA141909F1FF39049B49
:108B200081F8CD350322B9F1040F81F8CC2504F08A
:108B30000F0000F2FF80924C04EB4901B1F8B0C085
:108B40004CFA00F111F0010100F02881012101FA35
:108B500000F0013800EA0C00A14404935DF05CFDD4
:108B600099F8BCC0DFF82CE2049B60440EEBC00C0B
:108B700003228CF807308CF806205EF83000C6F827
:108B800014C000F13F4303F57E0304EB932401215D
:108B900094F8C4309AF8082003F01F045B09032BF3
:108BA00001FA04F100F0D380042B00F0CB80022BFB
:108BB00000F0C380BCF804300893B3FA83F3C3F128
:108BC0001F03C3F3CC0100EB810103F007030C6A20
:108BD0009B004FF00F0C0CFA03FC24EA0C040C620F
:108BE0000C6A02FA03F323430B62022308A90993D8
:108BF0000BF018FE059B002B76D0B5F8B034D5F8F5
:108C0000781807EE903AF8EEE77AFCEEE77A17EE7E
:108C1000900AB1FBF0F202F57F42FF32120CB1FB79
:108C2000F2F295F8B214B2FBF0F0042983B272D0DC
:108C300007EE902AF8EE676A66EE887A29EE677A80
:108C400095F8B30406990091A8EEA67A01905146D2
:108C50003046C6ED027A86ED037A37F07FFA002FB0
:108C600064DD7368D5F8D024934261D0012F5DD0C4
:108C7000D5F8E82493425BD0022F57D0D5F80025D1
:108C8000934255D0032F51D0D5F8182593424FD099
:108C9000042F4BD0D5F83025934249D0052F45D02D
:108CA000D5F84825934243D0062F3FD0D5F860250C
:108CB000D31A18BF01235F460122082F3374727440
:108CC00006F118067FF4F0AE2E480BB0BDEC068B13
:108CD000BDE8F08F9FED2C8AF0EE488AC1E69FED4B
:108CE0002B8AF0EE488ABCE6B0EE690A5EF0E8FD39
:108CF000FCEEC07A4FF6FF7317EE902AD5F878187D
:108D0000B1FBF2F21A44120CB1FBF2F295F8B21474
:108D1000042918468CD107EE900A07EE102AF8EEC7
:108D2000677AF8EE476A67EE8A7A87E70123C2E737
:108D30000023C0E7C6F814C05CE7154B5C6C214308
:108D4000596437E7124B1C6B2143196332E7104B10
:108D50001C6C214319642DE73CA10608D82C002087
:108D6000ACC5A737ACC5A73601F603086D68040883
:108D70000DF1030861680408A431002000007A4462
:108D8000B8A0060854310020282930386F12033962
:108D900000380240D03200206F12833A716129E717
:108DA0001FED038A0D4A0E4BC5F89824C5F894347C
:108DB00000220123CDE90532F0EE488A094B5CE63A
:108DC0009FED098AEEE7094A064BC5F89824C5F8D5
:108DD000A034002079E70B68FFDE00BF01F603082E
:108DE0006D68040861680408000000005DF2030873
:108DF000104B70B5D3F87848054600680E466408F5
:108E00000BF014FCB4FBF6F1B1F5803F03D3012C59
:108E1000FAD96408F6E72246284689B23FF070FD89
:108E20000549064B0B6028460022BDE870403FF024
:108E300087BC00BFD82C0020B83D002009FF0108E6
:108E400010B5044C04480A4621460AF069FA204647
:108E500010BD00BFC03D0020B02F070810B5044C66
:108E600004480A4621460AF05BFA204610BD00BFBE
:108E7000C03D0020C02F070810B5044C04480A4626
:108E800021460AF04DFA204610BD00BFC03D00202B
:108E9000CC2F070810B5044C04480A4621460AF0B6
:108EA0003FFA204610BD00BFC03D0020D82F070864
:108EB00010B5044C04480A4621460AF031FA20460F
:108EC00010BD00BFC03D0020E42F070810B50D4CB9
:108ED00094F8CD200023C4F8803012B10A4AC2F8B9
:108EE000F03058F0F9F820B10423022084F88430DF
:108EF00010BD064BD3F878346367092384F88430B7
:108F000010BD00BFE01B0020D03D0020D82C002069
:108F100070B50D4D95F88430042B04460E460AD0EA
:108F2000082B06D1EB6F83420CD0FFF7CFFF02284E
:108F300001D0012070BD0823C5E91F4685F88430A3
:108F4000022070BD022070BDE01B002070B5437987
:108F5000234C002B14BF0123002384F8B03003D12D
:108F6000002384F8843070BD1E4D002195F9F72050
:108F7000032041F003F90028F2D04668304658F04B
:108F80001FFF84F8CC000028EAD095F8F530003BAC
:108F900018BF0123304684F8CD3058F0EFFF0AF0B7
:108FA0006FF938B994F8783084F88400013384F884
:108FB000783070BD58F07AF940B194F878300022DA
:108FC000013384F8783084F8842070BD064B84F82F
:108FD0007800D3F878346367012384F8843070BD57
:108FE000E01B0020D03D0020D82C002010B558F008
:108FF0005DF958B10C4C94F878300133DBB2072B93
:1090000084F8783003D9002384F8843010BD0AF046
:1090100037F90028F7D0054A0123D2F8782462678F
:1090200084F8843010BD00BFE01B0020D82C002045
:109030002DE9F041894C94F8B050002D00F0FB80F0
:1090400094F88420864E874F531E082B42D8DFE8C1
:1090500003F0373AA1416B521541050058F03CF836
:10906000002840F0EF80636FD6F87824FA339342FB
:109070002DD2FFF7BBFF94F88420E5E758F02CF8D9
:109080000028F0D0D4F880300022012B84F878201A
:1090900040F2DC80E16F94F8CD00013B0131C4E97E
:1090A0001F1310B16F4BC3F8F020082284F88420FE
:1090B000A2F10805B5FA85F56D092846BDE8F081ED
:1090C000022384F8843058F007F8002843D194F83C
:1090D0008420531EDBB2022B0AD8614B616FD3F898
:1090E00078345B1AC82BE3D9FFF780FF94F884200B
:1090F000042ADDD1E1E7236B002BD9D1584BE66E72
:10910000D3F878346367072284F88420002ECFD008
:10911000D4E91821236F0120B047D8E7636FD6F850
:10912000781464338B42C3D2D4F82C80B8F1000F8A
:10913000F4D157F0D1FF00289DD0E66E84F87880F6
:10914000042384F88430002E7AD0D4E91821236FC8
:109150004046B047BBE757F065FC0028B7D197F809
:10916000F930002BA3F10203B3FA83F314BF0222F8
:1091700001225B0984F8792084F87A3057F052FC98
:1091800000287FF476AFD7F84831C4F8883003233D
:1091900084F8843057F046FC002898D1314BC4F84D
:1091A000800093F82C61B3F82E01D3F830E1D3F8A6
:1091B00030C1D3F83071D3F8302184F88E6093F841
:1091C0003411A4F88C0093F8356184F8922093F858
:1091D0003501D3F83821C4F89420B3F83E81B3F8B0
:1091E0003E2184F89310B3F83E11C2F30B1343EA07
:1091F000182303F00F0301F00F024FEA1E6E4FEA2F
:109200001C4C3F0A360900F00F0003F5FA630421F5
:1092100084F8990084F88FE084F890C084F8917005
:1092200084F89860A4F89A3084F89C2084F884101C
:109230002846BDE8F08184F884502846BDE8F081D6
:1092400005463AE7042384F8843036E7FAD1FFF77D
:109250003DFE94F88420531E3CE700BFE01B002035
:10926000D82C0020D03D00202DE9F04FC14C94F8BF
:10927000581183B00546C1F34001D4F8600144F0B1
:1092800009F894F85811D4F85C01C94301F00101C0
:109290006F1E43F0FFFFFBB20193002D00F0D08062
:1092A000B54EDFF8DC82B54D4FF01009D4F86001FF
:1092B00043F0D4FFD4F85C0143F0D0FFB4F8683138
:1092C000002B40F04E8194F86A11D4F86C0143F001
:1092D000E1FF4FF0FA0A4FF47A710120D8F8043018
:1092E000C3F30803002B40F00F81EFF31183002B31
:1092F00040F00A81D6F87824D5F808C0D6F878343A
:109300009A42F7D1D4F890319C45F3D8D4F88C71B7
:1093100001FB07F3A3EB0C03B3FBF7F301FB0232F2
:10932000D8F80430C3F30803002B40F0AB80EFF310
:109330001183002B40F0A680D6F87834D5F808B019
:10934000D6F87874BB42F7D1D4F89071BB45F3D806
:10935000D4F88C7101FB07FCACEB0B0CBCFBF7FCED
:1093600001FB03C39B1AB3F57A7FD9D3BAF1010A83
:10937000B4D1D4F8600143F071FFD4F85C0143F03C
:109380006DFFB4F86831002B40F0DF8094F86A116B
:10939000D4F86C0181F0010143F07CFFFA204FF416
:1093A0007A714FF0010CD8F80430C3F30803002B96
:1093B00040F08980EFF31183002B40F08480D6F8D1
:1093C0007824D5F808E0D6F878349A42F7D1D4F862
:1093D00090319E45F3D8D4F88CA101FB0AF3A3EB9E
:1093E0000E03B3FBFAF301FB0232D8F80430C3F3E7
:1093F000080343BBEFF311832BBBD6F87834D5F8C1
:1094000008B0D6F87874BB42F7D1D4F89071BB4558
:10941000F3D8D4F88CA101FB0AFEAEEB0B0EBEFB19
:10942000FAFE01FB03E39B1AB3F57A7FDDD3013823
:10943000B9D1019B5F1EFBB2FF2B01937FF436AFC6
:1094400003B0BDE8F08FEFF3118A89F31288AF689B
:109450002B68DB0344BFC4F888C1AF68D6F8783402
:10946000D4F888E15FFA8AFA8AF31188D4F88CA1DB
:10947000734401FB0AFEAEEB070EBEFBFAFE01FBD6
:1094800003E3D0E7EFF3118E89F31288D5F808B023
:109490002B68DF0344BFC4F88801D5F808B0D6F8BC
:1094A0007834D4F888C15FFA8EFE8EF31188D4F830
:1094B0008C71634401FB07FCACEB0B0CBCFBF7FCB1
:1094C00001FB03C34EE7EFF3118E89F31288D5F841
:1094D00008A02B68DA0344BFC4F888C1D5F808A0F7
:1094E000D6F87834D4F888215FFA8EFE8EF311888E
:1094F000D4F88CE11A4401FB0EF3A3EB0A03B3FB8F
:10950000FEF301FB023270E7EFF3118C89F312884E
:10951000D5F808E02B68DB0344BFC4F88801D5F810
:1095200008E0D6F87834D4F888215FFA8CFC8CF304
:109530001188D4F88C711A4401FB07F3A3EB0E03D6
:10954000B3FBF7F301FB0232EAE6D4F88431002BD7
:109550003FF424AFD4F87031C3F800A084F881A19F
:109560001CE7D4F88431002B3FF4B3AE40F052FB3B
:10957000AFE600BFD03D0020D82C002010E000E076
:1095800000ED00E02DE9F04FBD4CBE4E94F85811AF
:10959000D4F86001DFF8F482BB4D83B0C1F3400121
:1095A00043F078FE94F85811D4F85C01C94301F0F7
:1095B000010143F06FFE052301934FF01009D4F829
:1095C000600143F04BFED4F85C0143F047FEB4F871
:1095D0006831002B40F04C8194F86A11D4F86C018A
:1095E00043F058FE32274FF47A710120D8F8043046
:1095F000C3F30803002B40F00F81EFF31183002B1E
:1096000040F00A81D6F87824D5F808C0D6F8783426
:109610009A42F7D1D4F890319C45F3D8D4F88CE134
:1096200001FB0EF3A3EB0C03B3FBFEF301FB0232D1
:10963000D8F80430C3F30803002B40F0AB80EFF3FD
:109640001183002B40F0A680D6F87834D5F808B006
:10965000D6F878C46345F7D1D4F890C1E345F3D880
:10966000D4F88CE101FB0EFCACEB0B0CBCFBFEFC5C
:1096700001FB03C39B1AB3F57A7FD9D3013FB5D160
:10968000D4F8600143F0EAFDD4F85C0143F0E6FD54
:10969000B4F86831002B40F0E08094F86A11D4F8F7
:1096A0006C0181F0010143F0F5FD32204FF47A7135
:1096B0000127D8F80430C3F30803002B40F08B8057
:1096C000EFF31183002B40F08680D6F87824D5F88C
:1096D00008E0D6F878349A42F7D1D4F890319E4514
:1096E000F3D8D4F88CA101FB0AF3A3EB0E03B3FB70
:1096F000FAF301FB0232D8F80430C3F3080343BB8A
:10970000EFF311832BBBD6F87834D5F808B0D6F830
:1097100078E47345F7D1D4F890E1F345F3D8D4F861
:109720008CA101FB0AFEAEEB0B0EBEFBFAFE01FBA9
:1097300003E39B1AB3F57A7FDDD30138B9D1019BDE
:109740005F1E17F0FF0301937FF439AF03B0BDE84C
:10975000F08FEFF3118A89F31288D5F808B02B68DF
:10976000DB0344BFC4F88871D5F808B0D6F8783464
:10977000D4F888E15FFA8AFA8AF31188D4F88CA1C8
:10978000734401FB0AFEAEEB0B0EBEFBFAFE01FBBF
:1097900003E3CEE7EFF3118E89F31288D5F808B012
:1097A0002B68DB0344BFC4F88801D5F808B0D6F8AD
:1097B0007834D4F888C15FFA8EFE8EF31188D4F81D
:1097C0008CE1634401FB0EFCACEB0B0CBCFBFEFC20
:1097D00001FB03C34EE7EFF3118E89F31288D5F82E
:1097E00008A02B68DA0344BFC4F88871D5F808A034
:1097F000D6F87834D4F888215FFA8EFE8EF311887B
:10980000D4F88CE11A4401FB0EF3A3EB0A03B3FB7B
:10981000FEF301FB02326EE7EFF3118C89F312883D
:10982000D5F808E02B68DA0344BFC4F88801D5F8FE
:1098300008E0D6F87834D4F888215FFA8CFC8CF3F1
:109840001188D4F88CC11A4401FB0CF3A3EB0E036E
:10985000B3FBFCF301FB0232EAE6D4F88431002BBF
:109860003FF423AFD4F870311F6084F881711CE796
:10987000D4F88431002B3FF4B5AE40F0CBF9B1E61B
:10988000D03D0020D82C002010E000E000ED00E0EA
:109890000E4B30B4DB68427801780D4CDB43C3F3E8
:1098A0000223C3F10403DBB202FA03F360181B01C5
:1098B00001F01F050122490903F0F003AA4080F8D6
:1098C000003344F8212030BC704700BF00ED00E0B9
:1098D00000E100E000F01F0240090123032803FA21
:1098E00002F304D004280CD0022805D07047074AA0
:1098F000116C0B4313647047044A516C0B4353645F
:109900007047024A116B0B431363704700380240E3
:1099100000285FD00368374A2DE9F04103F13F4446
:1099200004F57E0402EB9422012492F8C42002F094
:109930001F055209032A04FA05F456D0042A4FD011
:10994000022A48D08588B5FA85F0C0F11F00C0F31F
:10995000CC0603EB860600F0070082000F24306A75
:10996000944020EA04003062306A01FA02F20243B5
:10997000002132624FF0010E0A464FF0030C02271D
:109980000EFA02F838EA050002F101021CD118684B
:109990000CFA01F420EA04001860186807FA01F6CE
:1099A00006431E609E6826EA04069E6098689860DA
:1099B000586820EA0800586058685860D86820EA5B
:1099C0000400D860D868D860102A01F10201D7D10C
:1099D000BDE8F0817047084A556C2C435464B1E7E8
:1099E000054A156B2C431463ACE7034A156C2C43F2
:1099F0001464A7E7B8A0060800380240002861D028
:109A00000368384A03F13F4101F57E0102EB9122E0
:109A10002DE9F04192F8C42002F01F0452090121FF
:109A2000032A01FA04F158D0042A51D0022A4AD05C
:109A30008588B5FA85F2C2F11F02C2F3CC0403EBAC
:109A4000840402F00702216A92000F20904021EA6C
:109A500000012162206A0C2101FA02F20243002176
:109A6000226208464FF0010E4FF0030C02270EFA57
:109A700000F838EA050200F101001DD11C680CFA5B
:109A800001F224EA02041C601E6807FA01F4344360
:109A90001C609E6826EA02069E609E6816439E60D1
:109AA0005C6824EA08045C605C685C60DC6824EA4A
:109AB0000202DA60DA68DA60102801F10201D6D118
:109AC000BDE8F0817047084A546C21435164AFE708
:109AD000054A146B21431163AAE7034A146C21431E
:109AE0001164A5E7B8A00608003802402DE9F0414E
:109AF0000378012B84B00446164635D0022B24D1BE
:109B0000836841F0800113B11A689B8853836568AC
:109B100003913FF093FFAB890399074642F20F7818
:109B20002B899B0715D5284659F028FD012360682D
:109B3000324600215BF034F8A368FBB11A689B88B9
:109B40001383012004B0BDE8F081002004B0BDE81B
:109B5000F08103913FF072FFC31B43450399DFDDA2
:109B6000284644F0E5FEE1E700920A46417990F983
:109B700004005BF0A5FC04B0BDE8F0810120E5E73E
:109B800058B183884FF00042B3FA83F332FA03F3FB
:109B900003D002490A6813430B607047003C014040
:109BA000134B0268196821EA02011960596821EA19
:109BB0000201596019680A431A609968026821EA2B
:109BC00002019960D96821EA0201D960417910291E
:109BD00007D001F1804303F59E3319680A431A60E8
:109BE0007047996811439960D9680A43DA607047F1
:109BF000003C0140002864D0F0B58388B3FA83F3B9
:109C0000202B0A4685B00446C3F11F0143D02D4DD9
:109C10002D4E05EB81037718C3F89421002197F8A6
:109C2000CC703FF0E9F9B4F804C02268274CBCFAC4
:109C30008CFCCCF11F0303F0FC0101F1804101F524
:109C40009C3103F0030398004FF00F0E02F13F43E5
:109C50008A680EFA00FE22EA0E0203F57E038A608D
:109C6000C3F38723834088684FF0004222FA0CF246
:109C700003433D448B6002A8626101234FF40061FD
:109C80008DF80E300292ADF80C10FFF789FF95F8B1
:109C9000D431F02B01D805B0F0BD3E44F02196F848
:109CA000DC308DF8043003224FF4807301A885F86E
:109CB000D4118DF80520ADF80630FFF7E9FD05B0A9
:109CC000F0BD7047D03D0020B8A00608003C014020
:109CD00010B4B8B10D4CD4F8DC31102B05D15DF8BF
:109CE000044B052100203FF06FBC03EB43022244EC
:109CF00082F8E11101210B4482F8E00182F8E211BF
:109D0000C4F8DC315DF8044B704700BFD03D002043
:109D1000C0782021DCE700BF2DE9F04FDFF87CA3FD
:109D20002DED028B9AF824120022CAE98522CAE995
:109D3000872297B0CAF8102219B19AF825228AF81A
:109D400010229AF826221AB19AF827228AF81F229E
:109D50009AF82A221AB19AF82B228AF81A229AF82B
:109D600028221AB19AF829228AF815229AF82C3258
:109D700005935A1ED3B257B204937B1C00F0AA80FD
:109D8000BC4ABD4E52F83780029602EBC702002350
:109D90001279019308EE102A1D463446994626781A
:109DA0003946304645F0ACF983463046BBF1000FEA
:109DB0001ED042F073FFEA1D1321D2B220B14FF042
:109DC000000E827180F807E03FF016F9207845F028
:109DD000C1F94FF0070309F1010223714FF00103AC
:109DE00084F802906070CDF804B05FFA82F9E370F5
:109DF0000135042D04F10504D1D118EE100A029E9C
:109E0000CDF80C90FFF766FD9C499D4A48680240DA
:109E100042F440324A600FB9019B5BB9994C48202B
:109E2000FFF758FD204602215BF00AFDA26842F0D0
:109E30000102A2609148934A4168BAF82E4241F467
:109E400000014160516821F480515160916B21F40F
:109E5000401141F480119163D16841F46001D160F7
:109E6000956B85F44011C1F3015101EB81011F2075
:109E700000FA01FC25EA0C0C112505FA01F141EA72
:109E80000C019163D16841F0E061D160956BC5F33D
:109E90000151C1F10401C9B201EB810188404FF0C9
:109EA000120C25EA00000CFA01F108439063E4B1BA
:109EB000BAF83012CAF83842A1B1BAF83222CAF858
:109EC0003C1262B1019B7048521A90FBF2F2CAF840
:109ED00040226BB917B0BDEC028BBDE8F08F6B4A26
:109EE0001288EFE76A4A1188E7E76A4A1488DFE7D1
:109EF000404603995BF0A4FC5F4B012003F1140979
:109F00000723F278441CE4B252B375783279A5F194
:109F10000A0101EB410105EB450C092D03FA01FE95
:109F200003FA0CFB02FA01F140F28E80D8F80C2003
:109F300022EA0E0E41EA0E01C8F80C10421E02EB96
:109F400082021F21062801FA02FC05FA02F261D8FA
:109F5000D8F8341021EA0C010A432046C8F834200E
:109F60000536B145CDD1D8F80820049942F40072E5
:109F7000C8F80820D8F8082042F48072C8F80820F1
:109F8000D8F80820574442F00102C8F8082097F991
:109F90003422022040F0F2F8044600289AD04068AB
:109FA00057F00EFF059A062157F01CFF60680AF073
:109FB00097FA07A80AF056FA039EA368364A079351
:109FC000012E8CBF4FF48060002000230D9008F11B
:109FD0004C054FF40060089509920A934FF4807283
:109FE0000C930E904FF4003360680B9607A94FF462
:109FF0000055CDE90F5211930AF046FA62681368D2
:10A0000043F001031360D8F8083043F08043C8F8E8
:10A0100008305FE7C11FA0F10D0201EB81014FF095
:10A020001F0E02EB82020C280EFA01FC0EFA02F05F
:10A0300005FA01F113D8D8F8302022EA0C021143B6
:10A040002046C8F830108BE7D8F8101002FA0CF24E
:10A0500021EA0B0B42EA0B02C8F810206EE7D8F891
:10A060002C1005FA02F221EA00010A432046C8F842
:10A070002C2075E79CA10608E03F0020002301404A
:10A08000E030FCFF00200140803801002E7AFF1FE5
:10A090002C7AFF1F2A7AFF1F14400020D03D002099
:10A0A0002DE9F84F2E4F00EBC00407EB8404D4F8E1
:10A0B00050622EB1054694F8610200F0FF0820B10D
:10A0C0004FF000084046BDE8F88F89469A4693460F
:10A0D0003FF0B4FC4FEA49010123C9B284F862128F
:10A0E00084F863B284F8653284F8668284F8643256
:10A0F00084F8613284F86082B288C4F868A291055D
:10A100008146C4F86CA21DD43388DA0510D442F21B
:10A110000F7405E03FF092FCA0EB0903A34215DCAD
:10A1200033889B05F6D433889BB243F48073338025
:10A13000B3889BB243F440734FF00108B3804046AC
:10A14000BDE8F88F98464046BDE8F88FB7F8B832BA
:10A1500001339BB22846A7F8B8325AF00FFFB1E797
:10A16000D03D002070B5464E96F8BA4204EB440349
:10A1700006EBC303650093F8BC32032B6ED8DFE80F
:10A1800003F059291E02254406EBC505D5F8C00287
:10A19000002870D196F81C339C425FD0013404F043
:10A1A0000302934286F8BA2258D002EB420406EB2F
:10A1B000C4040223C4F8C00284F8BC3270BD2B1959
:10A1C00006EBC303D3F8C02272B1013AC3F8C02230
:10A1D000002070BD2B1906EBC303D3F8C022002A60
:10A1E000F3D1022283F8BC22254406EBC50595F87D
:10A1F000C832013BDBB285F8C8328BBB214B96F8E5
:10A200001C63D3F83012D5F8C402621C02F00302BA
:10A210004B1E0324B242034485F8BC42B3FBF1F069
:10A22000C5F8C0021AD0994218D80138C5F8C00242
:10A23000012070BD44F06EFE80B1124B2C44D3F867
:10A24000302206EBC404012102F51C5384F8BC1231
:10A250000F33B3FBF2F3C4F8C03270BD012070BD00
:10A26000084BD3F83022012002F2E733B3FBF2F3BC
:10A27000C5F8C03270BD0138C5F8C002002070BDFD
:10A28000D03D002098010020054B93F81D23002AA3
:10A29000FBD1D3F8803E03491B6801F10C0018473D
:10A2A000D03D0020F04000202DE9F84F3249DFF882
:10A2B000D4B091F8F9100124022907461946104636
:10A2C000CBF82C404FF000022C4C1D4618BF7F02EB
:10A2D000FDF796FE2A4B63626B02A362E36A40F2CB
:10A2E000FF5943F093034FF400704FF48A62E36226
:10A2F0000121C4F83890A0601020E26056F0DEFC26
:10A30000012D40F251434E46C4F83890CA4640F2FF
:10A3100052488EBF4FF0120998464FF011090A2596
:10A32000C4F838A00121A7604846C4F80C8056F054
:10A33000C5FC03464FF0000C40F277420121372064
:10A34000A6632BB900231846CBF82830BDE8F88F58
:10A35000A663C4F808C0E26056F0B0FC013DA663F5
:10A360000028EFD015F0FF05DAD10346CBF82C50CA
:10A37000CBF82830BDE8F88FD03D0020002C0140FC
:10A3800000E1F505E01B00202DE9F843DFF87480BB
:10A3900098F88450042D0446894617461E4608D076
:10A3A000082D02D00020BDE8F883FEF78FFD0228BB
:10A3B000F8D101234A4620460021FFF775FF68B116
:10A3C000FEF714FED8F86C40002CEBD00022D8F831
:10A3D0007030D8F864101046A047E3E7084BC8F87F
:10A3E0006090D3F87824C8F864400523C8E91B7648
:10A3F000C8F8742088F884300120BDE8F88300BFD5
:10A40000D82C0020E01B00202DE9F84F2F49DFF861
:10A41000C49091F8F9101E4602292D4B07464FF0C3
:10A42000010418BF4702012E40F259481C6398BF2F
:10A430004FF48B683B469346474640F2FF55B04683
:10A440008CBF4FF0190A4FF0180A0A241E4640F23A
:10A45000FF53C9F838300121C9F808605046C9F8DF
:10A460000C7056F02BFC03464FF0000C40F2774284
:10A4700001213720C9F83850A3B958464146012276
:10A48000FDF7BEFD4646134A134B536276029662B1
:10A49000D36A43F09103D3620D4B002108469962C1
:10A4A000BDE8F88FC9F83850C9F808C0C9F80C20C1
:10A4B00056F004FC013CC9F838500028DDD014F0F7
:10A4C000FF04C4D1024B1C63BDE8F88FD03D0020CF
:10A4D000E01B0020002C014000E1F5052DE9F047CC
:10A4E000374C82B005460E461746984694F88400CD
:10A4F00004280CD0082806D1E36FAB4207D0FEF742
:10A50000E5FC0228F2D0012002B0BDE8F087DFF8B8
:10A51000B8A02666DAF8F0906566C9F34F210F29D6
:10A520004FEA592223D8D4F880300193FBB194F834
:10A53000CD00E0B1B9F5005F13D0224831464FF4A9
:10A54000007248445FF006FD09F50072C2F34F2126
:10A550001029CAF8F0204FEA522202D0019B012BA9
:10A5600021D192B2013A174EAD1A0B4600E00123F9
:10A5700032462846062601250021E766C4F8708089
:10A5800084F8685084F88460FFF73EFF0028BBD051
:10A59000FEF72CFDE66E86B12846236F616E002221
:10A5A000B0470320B0E7E26F013B01320421C4E968
:10A5B0001F2384F884100220A6E70320A4E700BF2D
:10A5C000E01B0020DC690020D03D00202DE9F04791
:10A5D000274D95F8843E022B82B004460F4616465E
:10A5E00011D0012B0BD10091134695F8891E02461C
:10A5F00095F9880E5AF064FF02B0BDE8F08700209C
:10A6000002B0BDE8F087D5F88C3E13B11A689B887C
:10A610005383D5F888AE3FF011FABAF80C30804673
:10A6200042F20F79BAF808309B0714D521465046FC
:10A6300058F0A4FF3346D5F8880E3A4600215AF068
:10A64000AFFAD5F88C3E83B11A689B88138301203A
:10A6500002B0BDE8F0873FF0F1F9A0EB08034B45ED
:10A66000E0DD504644F064F9E4E70120C4E700BFB0
:10A67000D03D0020F0B50578022D83B0044615D0FA
:10A68000012D02D0002003B0F0BD90F90400274B4B
:10A69000421C83F8C45EF5D00328F3DC0A466179D6
:10A6A00003F6C46303B0BDE8F040F9E4836813B176
:10A6B0001A689B885383656801913FF0BFF9AB89A5
:10A6C0000199064642F20F772B89980718D528463C
:10A6D00058F054FF65683FF0B1F9AB89064642F285
:10A6E0000F772B89990716D52846012158F046FF88
:10A6F000A368CBB11A689B881383012003B0F0BD17
:10A7000001913FF09BF9831BBB420199DCDD284698
:10A7100044F00EF9DEE73FF091F9831BBB42E0DD28
:10A72000284644F005F9E3E70120ACE7D03D0020DE
:10A7300010B50C4C94F8843E022B11D1D4F88C0E39
:10A7400042F0A2FDD4F88C0E08B12123C380012170
:10A750003EF052FCBDE810400348082144F09EB88A
:10A7600010BD00BFD03D0020544C002073B50D4EED
:10A7700005460C46FF230A46014630468DF8073051
:10A7800044F0AEF901230DF1070245F08001304697
:10A7900044F074F99DF80700031B5842584102B079
:10A7A00070BD00BF544C0020094B93F8B234042B09
:10A7B00008D9053B032B08D801231A4600B10370C2
:10A7C0001046704700230122F8E700231A46F5E7F8
:10A7D000D82C0020F0B40D6800240CE0BCF1050F6B
:10A7E00018D8A0F137030A2B14D104EB840415F810
:10A7F000010B03EB4404A0F13003DEB2092EA0F1FB
:10A800006107A0F1410CF0D9052FE7D8A0F157035B
:10A810000A2BEAD00D601460F0BC70479FED737A8C
:10A8200007EE901A20EE070AF8EE677A27EE800A04
:10A83000FDEEC07A17EE903A2033402B00F2C7802D
:10A84000DFED6B7AB4EEE70AF1EE10FAF0EE407A43
:10A850000CDD9FED686ADFED686AB0EE677AB4EEF2
:10A86000E67AF1EE10FA77EEC67AF6DC9FED637ABF
:10A87000F4EEC77AF1EE10FA0CD59FED5E6ADFEDCB
:10A88000606AB0EE677AB4EEE67AF1EE10FA77EE2F
:10A89000867AF6D49FED5B7AF4EEC77AF1EE10FA81
:10A8A00000F38D809FED587AF4EEC77AF1EE10FA3E
:10A8B00044BF9FED527A77EE677A27EEA76ADFED05
:10A8C000535A9FED537ADFED536AA6EE257A67EE71
:10A8D000865AE6EE076AB6EE007AE5EEA67A27EE2D
:10A8E000877ADFED486A70EE267ABDEEE76A16EEEB
:10A8F000103A2033402B67D8B4EEE60AF1EE10FA96
:10A900000CDDDFED3C5A9FED3C6AF0EE676AF4EE39
:10A91000C66AF1EE10FA77EEE57AF6DCDFED376A1B
:10A92000F4EEE67AF1EE10FA0CD5DFED325A9FED37
:10A93000346AF0EE676AF4EEC66AF1EE10FA77EE6A
:10A94000A57AF6D4DFED2F6AF4EEE67AF1EE10FA8E
:10A9500040DDDFED276A76EEE77A67EEA75A9FEDD6
:10A960002B5A9FED2B6ADFED2B6AA5EE856A27EE49
:10A97000A55AE5EE866AB8EE006AE5EE267A67EE3D
:10A98000867AC7EE206A0023836143610362C36154
:10A99000B7EE006A76EE865A76EE666A86EE257A1D
:10A9A00067EE277A66EE876AC0ED017AC0ED037A1A
:10A9B00080ED007A80ED027AC0ED046A70479FED69
:10A9C0000C7A77EE677A78E7DFED137AD9E79FEDB7
:10A9D000127A86E7DFED0C6AF4EEE67AF1EE10FA11
:10A9E00044BFDFED066A76EEE77AB6E727D4D236C3
:10A9F000DB0F4940DB0FC940E4CB1641DB0F49C0F8
:10AA0000E4CB16C1DB0FC93FDB0FC9BF92E741B9E9
:10AA10009730083C15A82ABE000000002DE9F04739
:10AA2000944C82B094F8C53E0190002B40F01D81FB
:10AA300094F8E83EB4F8EA2EDFED8F6AB4F8EC9EA5
:10AA4000A4F8FC9E07EE103AB8EEC76AB7EE007A9B
:10AA500007EE902AF0EE475AB4F8E62EE6EE665A74
:10AA60004FEA49059542A6EE267AB8BF154604F589
:10AA70006F61F8EEE77A04F6F46267EEA67AC1ED4C
:10AA8000005AAEB204F6F86182ED007A0122A4F811
:10AA9000FE6EC1ED007A84F8C52E002B00F0E18037
:10AAA000DDED017A9FED750A754FF8EE677AADB26C
:10AAB00080EE270A5CF04AFF6D00B0FBF5F5012D32
:10AAC000B8BF0125EDB2B0FBF5F39BB2804684F828
:10AAD000005F00EE103ABBEEED0A87ED000A5CF075
:10AAE00035FF684BDFED686AB9FBF0F0A3FB08386F
:10AAF0004FEAD80807EE908AF8EEE77A022886EE49
:10AB0000A77AB8BF022084F8080F07F10C010023D0
:10AB10009FED5E1A9FED5E6ADFED5E1ADFED5E5A15
:10AB20009FED5E2ADFED5E2A9FED5E3ADFED5E3A35
:10AB30009FED5E4A87ED027A07EE903AB8EEE77A2B
:10AB4000F0EE467AE7EE017AFDEEE76A16EE902A1D
:10AB50002032402A00F28280B4EEE17AF1EE10FA5F
:10AB60000CDDDFED536A9FED537AB0EE675AB4EE19
:10AB7000C75AF1EE10FA77EEE67AF6DCF4EEE57AF3
:10AB8000F1EE10FA0CD5DFED4A6A9FED4B7AB0EE8C
:10AB9000675AB4EEC75AF1EE10FA77EEA67AF6D4F9
:10ABA000F4EEC67AF1EE10FA50DD74EE677A67EED5
:10ABB000A76AF0EE624AE6EE824AF0EE430AE6EE5B
:10ABC000A40AB7EE007A27EEE65A77EE677AB6EE79
:10ABD000007AE5EE207A67EE877A0133202BE1ECEC
:10ABE000017AA9D107EE905AF8EEE77AF7EE006AFB
:10ABF00086EEA77A314B324A41F2AC5741F2A85166
:10AC0000E35141F2B85003F128076750A83341F2ED
:10AC1000094107EE906A2350F8EE677A41F2A45793
:10AC200041F2B45041F2B05365541026202514214E
:10AC3000E6532552E15282ED007AC2EDAC7AC2EDC4
:10AC4000AD7AC2EDAE7A02B0BDE8F087F4EEE37AF9
:10AC5000F1EE10FA48BF75EEE77AA8E7F6EE007A53
:10AC6000BBE7184A82F834321AE794F8005FB4F868
:10AC7000FE6EB7E7D03D00200AD7233C002474497C
:10AC8000D44C0020ABAAAAAADB0FC9413C8C4F3E92
:10AC9000DB0FC93F0100F840DB0F49C092E741B923
:10ACA0009730083C15A82ABEDB0FC9BFDB0F49400F
:10ACB000DB0FC940E4CB1641E4CB16C1A4A10608C2
:10ACC000DC5100209801002008480023024611783A
:10ACD000022902F1060204D00133062BF7D100202D
:10ACE000704703EB430300EB43007047181C002040
:10ACF00010B50021094C82B00846C4F8E01535F0C3
:10AD00000FFA074B0193042304F2E4500DEB030206
:10AD1000062143F083FE02B010BD00BFC84E0020E4
:10AD20005475C52A70B5461E00F13105344614F835
:10AD3000011F601E801BFF29C0B201D035F0F0F961
:10AD4000AC42F4D1A02050F0ABFA0121022035F042
:10AD5000E7F90E4D40F2E93401E0013C05D0422113
:10AD6000284643F009FE0028F7D16221074843F046
:10AD700003FE1321242035F0D3F92520092135F0D5
:10AD8000CFF9BDE87040A02050F08ABAAC54002042
:10AD90002DE9F04F2DED108B034697B0043315933A
:10ADA000DFEDCACA149002238A4613928B4612938F
:10ADB000149C4FEADB0604EB461202EB061031014D
:10ADC000A6EB86034FEAC60806EB4605CDE900016F
:10ADD00000EBC303043108F1040011962044214420
:10ADE0002C01C6EBC60C0394EC00119D04944FEAB1
:10ADF000CC0405946C0106EB860E0294159D009C14
:10AE000003EB46174FEACE0E02EBC6064FEACB091C
:10AE10004FF0000C51ED01AAD3ED001A92ED007A2B
:10AE200094ED005A96ED004AD7ED007A15ED012A0F
:10AE300050ED016A32EE07BA76EE840A7AEE855A50
:10AE400031EEA70A3BEE256A70EE804A76EEC46AC0
:10AE500036EE244A36EE646A05ED014A82ED006A58
:10AE6000D0ED00BAD6ED012AD3ED019A95ED00AAF6
:10AE700092ED016A97ED013A91ED00CAD4ED014AD5
:10AE80007BEEE23A36EEE19A32EE472A73EEE98A39
:10AE90003AEE464A39EE279A78EE838AB0EE428A35
:10AEA000A9EE6C8ADC44E24573EEC33AB0EE441A74
:10AEB000A8EEEC1A76EEE77A33EEA97A7CEE643AE5
:10AEC00077EEA17A3AEE066A7AEEC51A3CEE24AA2B
:10AED00074EECC4A39EE833A35EE6A5AF0EE639A54
:10AEE000F0EE48AAE7EE2C9AA8EEAC4AE7EE2C4A20
:10AEF000E7EE6CAAF0EE418AB0EE427AB0EE612A3B
:10AF00007BEE656A7BEEA22A76EE4A5AA9EE2C7A8F
:10AF1000A7EEAC2AA7EEAC5AE7EEEC8A32EE83BA83
:10AF200076EEC3BA35EEE09A75EEC07A36EE0A6A6E
:10AF300076EEE26A36EE0BAA76EE836A77EEA07AB8
:10AF400034EE423A77EE290A36EE4B6A7BEEA22ABD
:10AF500039EE000A73EEAA3A78EE244A37EE697A9F
:10AF600031EE055A71EEA85A32EE044A85ED00AA78
:10AF700082ED016A4D4441ED012A4A44C4ED006A64
:10AF800081ED000AC4ED017A494440ED010A4C44C8
:10AF900087ED007AC6ED003AC3ED004A80ED003A35
:10AFA00087ED014A484486ED015A4F44C3ED015AEA
:10AFB0004E444B443FF62EAF119B072B40F2C78106
:10AFC000029D149E019B03980499059A08357519F2
:10AFD0000C330E95354608F108080EF10804EB18FD
:10AFE00008300831083246442C1928186918AA1864
:10AFF000079305F10C030D960C940B900A9109929E
:10B0000008934FF001084FF0000E129B9E44139BD3
:10B0100003EBCE0303EBCE02109302EBCE0303EB64
:10B02000CE01029101EBCE0101EBCE0505EBCE0680
:10B03000D6ED007A0F93AEEB8E03019106EB03136E
:10B0400003EBCE07D3ED01AACDED067A019BD5ED3A
:10B05000007A97ED01BACDED057AD3ED007A029B27
:10B06000CDED047AD3ED007A0F9BCDED037A07EB9B
:10B07000CE0CD3ED007ADCED01BACDED027A0CEB0B
:10B08000CE01D2ED007A109A009101EBCE0001467C
:10B0900091ED01DACDED017A0099D2ED007A91EDD2
:10B0A00001CA00EBCE0000EBCE0494ED01EAD0ED36
:10B0B00001DACDED007ADDE90776DDE90954DDE955
:10B0C0000B01DDE90D23C44602E000BFF304353F68
:10B0D00094ED009A90ED00FA91ED006AD5ED007ABA
:10B0E000D3ED006A57ED014A92ED005A56ED013A50
:10B0F00096ED00AA35EE060A73EEA65A39EE278AB7
:10B1000034EE8F7A70EE082A75EE87EA35EE465AED
:10B110003EEEA26A73EEE63A06ED016AD1ED019ABF
:10B12000D2ED01FAD4ED016AD3ED011A95ED013AA1
:10B13000D0ED018A97ED004A3FEEE96A35EE491AF3
:10B1400076EE660A31EE271A3AEE612A75EE677AD4
:10B1500070EE830A3FEEA95A74EECF9A77EE897AA1
:10B160007AEE211AB0EE42AA74EE68FAA0EEECAACA
:10B17000DC44E24535EEC77AB0EE639A74EE285AA5
:10B1800038EEC44AF0EE698AA1EE6C9AE7EEAC8A1A
:10B1900036EE436A7FEE644A36EE266AA0EEAC2AAB
:10B1A000F0EE4A0AE7EEEC0AE7EEAC4AF0EE687A17
:10B1B000F0EE498A36EE833AE6EE6C8AE1EE2C3AFE
:10B1C000B0EE6F1AA6EE2C1A71EEE56AA6EE2C4AC6
:10B1D00071EEA55A75EE031A7EEEE22A37EE43FAB7
:10B1E00075EEE1EAB0EE686A76EEC08A39EE044A9E
:10B1F0007FEE86FA76EEC86A33EE816A38EE888A88
:10B2000073EEC13A37EE457A2CEE2E1A3FEE055A10
:10B2100022EECC9A9DED03FA70EE266A33EE077AA1
:10B22000AFEE221AAFEE2E9A7AEE244A9DED01FA85
:10B2300079EEA09A25EE4BAA72EE670A37EE822AC3
:10B240006BEE087AAFEE08AAEFEE057A2DEEA63A7D
:10B250009DED05FA67EE6D8AAFEE073AEFEE268AAE
:10B2600066EE6A2A9DED00FA2AEEA00AEFEE202A89
:10B270006EEE02EADDED060A23EECE5AE0EEA3EA18
:10B280002BEEA98ADDED023AAFEE060AA3EE848A20
:10B2900024EE6B7A6DEE246A9DED044A2FEECD6AA2
:10B2A000A0EE825AA3EEA97AE4EE2F6AA4EE246AF5
:10B2B00075EEA15AC6ED005A83ED001A83ED019A8E
:10B2C0004E4447ED017A87ED00AA4B4480ED003AE9
:10B2D000C0ED018A4F4482ED000A4844C2ED012AC4
:10B2E000C5ED00EA85ED015A4A44C1ED006A81EDE1
:10B2F000016A4D4484ED008A84ED017A49444C444E
:10B300003FF6E6AE0E9B08330E930D9B08330D936C
:10B310000C9B08330C930B9B08330B930A9B08334D
:10B320000A93099B08330993089B08330893079BEA
:10B3300008330793119B08F1010843457FF465AE7C
:10B34000129BDDF844B0DB009BB2129330E517B0DE
:10B35000BDEC108BBDE8F08F30B5044683B000BF64
:10B36000806841F08BFF4CF2050301AA6946ADF8F5
:10B3700000306068032300258DF8025059F010FC5E
:10B38000A06841F081FF00BF9DF8060003B030BD0A
:10B39000F0B5BE4FBE4885B0242200215EF03BFED2
:10B3A00097F8F165002E3AD1BA4C3546D4F8403DB5
:10B3B0005BB39B6A4BB3B848984783682BB3038849
:10B3C000DFF8CCC2013B9BB260466646002137786D
:10B3D000032F06F106061BD001310629F7D1002202
:10B3E0000178022900F1060000F0A5800132062A4A
:10B3F000F6D1E16D052908D0481C02FB01C2E065C9
:10B4000002200021938010705180284605B0F0BDC5
:10B41000062303FB01414B8F013B9BB2DFE797F80B
:10B42000F00507F5BF63C7F8F43510B9994C00254E
:10B43000BCE741F033FC0446C7F8000641F002FFC8
:10B4400005460028F2D0013E022370B287F8F83595
:10B4500043F0B0FB0028E9D0C7F8FC050CB120236D
:10B46000E380204609213DF0C7FDD7F8F435894C2B
:10B47000986841F009FFD7F8F4351021586854F066
