:020000040800F2
:1000000000000120994F06081950060861C804082D
:10001000E5C8040819500608195006080000000039
:100020000000000000000000000000001950060859
:1000300019500608000000001950060895AF040882
:1000400019500608195006081950060819500608D4
:10005000195006081950060851D404087DD5040823
:1000600041D5040805D50408C9D40408D12A0608D6
:10007000C12A0608B12A0608A12A06088D2A060800
:10008000792A0608652A0608195006081950060834
:100090001950060819500608195006088DD404088E
:1000A000C50006084D010608B500060875010608DA
:1000B0003D0106082D0106081D01060885380608C1
:1000C000A9380608C9370608ED370608195006088A
:1000D000195006086DBB040825B90408DDB60408EC
:1000E00015D404081950060819500608A50006087A
:1000F000D500060819500608FD000608512A060812
:10010000195006083DF305080D01060819500608A8
:1001100095B404084DB204081950060831F50008DA
:100120003D2A0608292A0608152A0608012A060873
:10013000ED2906080000000000000000000000009B
:10014000000000000000000000000000C9F90008E5
:10015000D9290608C5290608B129060805B00408EA
:10016000053706082D3706081950060819500608E5
:100170001950060819500608000000000000000091
:100180001950060819500608195006081950060893
:1001900019500608195006080000000019500608FA
:1001A00000000000000000000000000019500608D8
:1001B0001950060819500608000000000000000051
:1001C000000000000000000000000000000000002F
:1001D00000000000000000000000000019500608A8
:0801E000F04A060001000000D6
:1001E8000E02010002000000F4590120545A0120B7
:1001F80000000000280A00081402010005000000A1
:1002080018300120585A0120000000002A0A00086E
:10021800232001001000000044590120605A0120E9
:10022800000000008D8402080D100100700000001D
:10023800C8580120705A01200000000035FF03084B
:10024800040008008000000008580120E05A01203E
:100258000000000000000000FD0101002400000073
:10026800AC570120605B012000000000C78404082F
:10027800FB0101000100000068570120845B012098
:1002880000000000016A0508FC01010009000000E7
:1002980034560120885B012000000000096A050827
:1002A800F70101000600000028560120945B012098
:1002B80000000000300A0008F901010004000000F5
:1002C800245601209C5B012000000000758504086D
:1002D800160215003F000000A42C0120A05B01209D
:1002E80000000000316A0508340001001000000019
:1002F80018550120E05B012000000000A1A60208BB
:100308001102010008000000F0540120F05B0120F8
:1003180000000000360A0008121201000400000064
:10032800E8540120F85B0120000000003E0A0008A4
:100338001820010032000000B4540120FC5B0120A9
:100348000000000069720508122001001100000079
:10035800D4530120305C012000000000420A00084C
:10036800000201000B00000010510120445C012034
:1003780000000000556A0508FF1101000600000092
:10038800B4500120505C012000000000F16905080C
:100398000812040014000000C0500120585C01201D
:1003A80000000000756A050813020100040000003F
:1003B800842C01206C5C012000000000540A000815
:1003C800FA010100030000009C500120705C01202C
:1003D800000000005D6A05080A800100280000008E
:1003E80060500120745C012000000000798302083D
:1003F800061001001C000000882C01209C5C0120D4
:1004080000000000F56A0508020201000300000070
:100418004C4A0120B85C01200000000000000000E8
:100428000C02010004000000284A0120BC5C0120E5
:1004380000000000656A0508110001000C000000BA
:10044800FD3A0120C05C012000000000D5FE030831
:10045800FE0101001400000088390120CC5C012055
:100468000000000091690508030101000A0000006E
:10047800B49501209496012000000000198001081D
:100488001B1001000C000000109C0120D8A10120C5
:1004980000000000458D010821020100F000000065
:1004A800789A0120E4A1012000000000019E0108C3
:1004B8002312010010000000909D0120D4A2012009
:1004C80000000000580A0008371001002E00000044
:1004D80070A10120E4A2012000000000680A0008C1
:1004E8001610010006000000889D012014A30120B9
:1004F80000000000960A00081E0001000900000024
:100508001C9D01201CA30120000000009C0A00087B
:100518000510010006000000689D012028A30120A5
:1005280000000000A60A0008F5810100680000002C
:10053800089A012030A3012000000000D1AB010877
:100548002F10010022000000109E012098A3012016
:1005580000000000AC0A0008FD070100760000005A
:100568004E990120BCA3012000000000C9860108A3
:10057800261001000E00000044A4012034A401202C
:1005880000000000418501080B3001001A0000003E
:100598003499012084A4012000000000CE0A00083C
:1005A8001F3001002400000010990120A0A40120A0
:1005B80000000000E80A000805020100040000002D
:1005C800A09D0120C4A40120000000000C0B00081D
:1005D800140001000400000014B60120A8B6012090
:1005E80000000000100B0008012001000C000000B2
:1005F800A4AB0120ACB6012000000000140B0008D9
:100608000EF003009E010000BCA80120B8B601202E
:1006180000000000E9A60208130001000400000021
:10062800A0B6012058B8012000000000200B0008E7
:100638000101010004000000FCA701205CB80120B2
:10064800000000000000000000010100040000009C
:10065800F4A7012060B8012000000000240B000866
:100668000201010003000000F0A7012064B8012086
:10067800000000006DC00308220201001C010000F8
:1006880088B0012068B80120000000002172050828
:100698000C200600CC00000080AA012084B90120AB
:1006A800000000002DC00308010201000B0000003B
:1006B80008A8012050BA012000000000456A05087A
:1006C8001B0201001000000074AE01205CBA01207A
:1006D80000000000E16A0508203201000A0000005D
:1006E800D8C70120E4C7012000000000C5A6020801
:1006F800150010007000000098C60120F0C7012006
:1007080000000000000000002A000800600000004F
:10071800A8C5012060C801200000000079A60208D1
:100728002C00040010000000D0C80120C0C801201F
:100738000000000059A402082B0012002400000049
:1007480004C90120E0C80120000000002DA402080F
:1007580029201400780000003CC3012028C901208A
:100768000000000000000000190201001000000055
:10077800E0C20120A0C9012000000000356A050878
:10078800F62101000C000000B0C00120B0C9012012
:1007980000000000280B00081C0202001C000000DA
:1007A80058C0012000CA012000000000917305080C
:1007B800282001001800000074C001201CCA012074
:1007C800000000007DAB02080412010002000000D6
:1007D8002CC2012034CA012000000000340B00089C
:1007E8000F0201000100000028C2012038CA0120C0
:1007F80000000000360B0008031201003D00000055
:10080800BCCF012040D0012000000000380B0008B8
:1008180025201E002C01000020CD012080D00120C1
:10082800000000000000000010100100020000009D
:1008380008CD0120ACD1012000000000760B000893
:10084800F821010006000000E8CC0120B0D1012009
:1008580000000000780B00081900010005000000E6
:1008680058CC0120B8D10120000000007E0B000800
:100878001A0001000E00000044CB0120C0D1012065
:1008880000000000840B000829020100400000005D
:100898008CD4012090DA012000000000920B00089F
:1008A8000A02010014000000E0D90120F0DA01205A
:1008B80000000000F9BF0308030001000100000068
:1008C80080DA012004DB01200000000000000000A5
:1008D800381001000100000004DE012008DF0120BB
:1008E80000000000D20B0008020001000C0000000C
:1008F80074DE01200CDF0120000000000000000071
:10090800280204000400000094E101208CE6012084
:1009180000000000DD6A050827020400040000004A
:1009280090E1012090E6012000000000D16A05084E
:100938001F0208001000000080E1012094E6012059
:1009480000000000A96905081A0201003C00000027
:1009580040E10120A4E6012000000000D97205084A
:10096800270001000400000098E70120A0E701200B
:1009780000000000D40B00080B1201003C0000002E
:1009880058E8012034FA012000000000D80B0008C4
:100998000D120100140000000CF5012070FA01206E
:1009A80000000000140C000807020100020000000B
:1009B8001CFA012084FA012000000000280C00081D
:1009C8001D0202000600000074F9012088FA0120C7
:1009D80000000000000000000602040010000000F3
:1009E8007CF9012090FA01200000000055730508E9
:1009F80039000100050000008CF90120A0FA01204F
:100A080000000000216A0508100201000100000032
:100A18003C1A0220381A0220000000002A0C0008A4
:100A28000000000000FF00000000010000000000BE
:100A3800000001010101FFFFFFFF000000010000AD
:100A48000553375832000000000200000000010082
:100A5800000000000000000000000000000000008E
:100A680020003200C800D007960014003200280089
:100A78004C0440060005500014000F0008006400F4
:100A88000100010005000A000000F4019600C409F5
:100A9800000019000005010000000000000020000F
:100AA800030100000000000000000000000000003A
:100AB800000000000000000000000000000000002E
:100AC800000000000000AE014A015E012C01640034
:100AD8000200000001000A019A01001E0A0000023B
:100AE80000000000000100000005000001020300F2
:100AF80000000000000000000000000000000000EE
:100B0800008007000000000003000023E8036400E1
:100B1800040A000114001E0000204030900100006B
:100B280000000000010000000202000000000000B8
:100B380000000000000000000000000000000000AD
:100B4800000000000000000000000000000000009D
:100B5800000000000000000000000000000000008D
:100B68000000000000000000000000000100000577
:100B78000101F40114000000280100007E05EA05C7
:100B8800B4053200E803D0070000000000000000B0
:100B9800000000000000000000000000000000004D
:100BA800000000000000000000000000000000003D
:100BB800000000000000000000000000000000002D
:100BC80000000000000000000000000020030000FA
:100BD800000000000000000000000000000000000D
:100BE80000000000000000000000000000000000FD
:100BF80000000000000000000000000000000000ED
:100C080000000000000000000100000000000000DB
:100C180000000000000000000000000000000000CC
:030C2800003C008D
:100C2B0000C20100000008000A060002000000409C
:100C3B000100000009026400030100C03209040036
:100C4B0000010300000009211101000122360007F9
:100C5B0005830308000A080B0102020201000904C4
:100C6B00010001020201000524001001052401000E
:100C7B000204240202052406010207058203080070
:100C8B00FF09040200020A000000070501024000F0
:100C9B000007058102400000452C0108452B010887
:100CAB00AD5101080000000051210108094E010857
:100CBB007D21010800000000000000000000000082
:100CCB0031210108412101082121010811210108CD
:100CDB001A030000000000000000000000000000EC
:100CEB0000000000000000000000000004030904E5
:100CFB00FFFFFFFF120100020000004083042A5790
:100D0B000002010203010000120100020200004078
:100D1B00830440570002010203010000120100028C
:100D2B00EF0201408304563200020102030110005E
:100D3B007D00000000000000D193000861AF0008A7
:100D4B008D930008A1B00008B1940008C98B00086E
:100D5B00B58B0008998B0008092A0108F9280108AE
:100D6B00392A01081D340108F53E010899340108A0
:100D7B0071200108A18B0008918B00080100000075
:100D8B000000803F0A060002000000400100000046
:100D9B0009072000010104C0320904000002080603
:100DAB0050050705810240000007050102400000C5
:100DBB0009022000010104C03209040000020806E8
:100DCB0050050705810240000007050102400000A5
:100DDB0009022000010104C03209040000020806C8
:100DEB005005070581020002000705010200020001
:100DFB000A06000200000040010000000902220068
:100E0B00010100E032090400000103010200092185
:100E1B00110100012236000705830308000A0000B8
:100E2B0009022200010100E0320904000001030164
:100E3B000200092111010001223600070583030876
:100E4B000007000009022200010100E03209040042
:100E5B0000010301020009211101000122360007E4
:100E6B0005830308000A00000A0600020000004088
:100E7B000100000009074300020104C0320904000D
:100E8B0000010202010005240010010524010001EC
:100E9B000424020205240600010705820308001042
:100EAB0009040100020A00000007050102400000CE
:100EBB00070581024000000009024300020100C047
:100ECB003209040000010202010005240010010593
:100EDB0024010001042402020524060001070582F7
:100EEB000308001009040100020A000000070501B5
:100EFB000200020007058102000200000902430004
:100F0B00020100C0320904000001020201000524A5
:100F1B00001001052401000104240202052406002F
:100F2B00010705820308001009040100020A0000F2
:100F3B000007050102400000070581024000000088
:100F4B0000FF0000000000000000AA550701000090
:100F5B000060024010600240000000000000000032
:100F6B00000B00000000000000000000000000006B
:100F7B0000600240286002400100000000000000F9
:100F8B00060C000000000000000000000000000044
:100F9B0000600240406002400200000000000000C0
:100FAB00100D000000000000000000000000000019
:100FBB000060024058600240030000000000000087
:100FCB00160E0000000000000000000000000000F2
:100FDB00006002407060024004000000000000004E
:100FEB00200F0000000000000000000000000000C7
:100FFB000060024088600240050000000000000015
:10100B00261000000000000000000000000000009F
:10101B0000600240A06002400600000000000000DB
:10102B003011000000000000000000000000000074
:10103B0000600240B86002400700000000000000A2
:10104B00362F000000000000000000000000000030
:10105B000064024010640240000000000000000029
:10106B00003800000000000000000000000000003D
:10107B0000640240286402400100000000000000F0
:10108B000639000000000000000000000000000016
:10109B0000640240406402400200000000000000B7
:1010AB00103A0000000000000000000000000000EB
:1010BB00006402405864024003000000000000007E
:1010CB00163B0000000000000000000000000000C4
:1010DB000064024070640240040000000000000045
:1010EB00203C000000000000000000000000000099
:1010FB00006402408864024005000000000000000C
:10110B00264400000000000000000000000000006A
:10111B0000640240A06402400600000000000000D2
:10112B00304500000000000000000000000000003F
:10113B0000640240B8640240070000000000000099
:10114B003646000000000000000000000000000018
:10115B00AA550501000008005C940608FF1FFF1F3D
:10116B0005010905A101A100050109300931093269
:10117B00093309350934093609371581257F750877
:10118B009508810205091901290815002501950803
:10119B0075018102C0C00000092111010001223636
:1011AB00002D202D2D202D2D2D2D202D2D2D2D00E5
:1011BB000000000000000000000000000000000024
:1011CB00AA550B010000AA5505010000AA550902FA
:1011DB00000000AA5503009F01000000C012000090
:1011EB0001010000000001FFFFFFFFFF7EFF000079
:1011FB00FFFFFFFF7CA401200000000054A401208E
:10120B000000000001000000C02507083C2507086E
:10121B0000000000E1C00308A086010004000000EC
:10122B0000000000000000000000000000000000B3
:10123B0000000000000000000000000000000000A3
:10124B000000000000000000C0250708C8250708A3
:10125B0000000000E1930408E80300000400000014
:10126B000000000000000000000000000000000073
:10127B000000000000000000000000000000000063
:10128B000000000000000000D0250708000000004F
:10129B0000000000551000007D000000FF00000062
:1012AB000000000000000000000000000000000033
:1012BB000000000000000000000000000000000023
:1012CB00000000000000000038500708000000007C
:1012DB0000000000890600007D000000FF000000F8
:1012EB0000000000000000000000000000000000F3
:1012FB0000000000000000000000000000000000E3
:10130B000000000000000000F030070800000000A3
:10131B0000000000E51300007D000000FF0000004E
:10132B0000000000000000000000000000000000B2
:10133B0000000000000000000000000000000000A2
:10134B000000000000000000D82507080000000086
:10135B0000000000058B0408E803000003000000F8
:10136B000000000000000000000000000000000072
:10137B000000000000000000000000000000000062
:10138B000000000000000000DC2507080000000042
:10139B0000000000095203081027000003000000A2
:1013AB000000000000000000000000000000000032
:1013BB000000000000000000000000000000000022
:1013CB0000000000000000004C4C0708000000006B
:1013DB0025A0020851C904085F7600000500000033
:1013EB0000000000000000000000000000000000F2
:1013FB0000000000000000000000000000000000E2
:10140B000000000000000000DC4F07080000000097
:10141B0000000000F1EC04081027000001000000A0
:10142B0000000000000000000000000000000000B1
:10143B0000000000000000000000000000000000A1
:10144B000000000000000000E82507080000000075
:10145B0000000000D1810408E80300000500000033
:10146B000000000000000000000000000000000071
:10147B000000000000000000000000000000000061
:10148B000000000000000000F42507080000000029
:10149B000000000045C70308204E000003000000B9
:1014AB000000000000000000000000000000000031
:1014BB000000000000000000000000000000000021
:1014CB0000000000000000000426070800000000D8
:1014DB00000000002DC50308204E00000300000093
:1014EB0000000000000000000000000000000000F1
:1014FB0000000000000000000000000000000000E1
:10150B000000000000000000142607080000000087
:10151B000000000045900408400D0300030000008C
:10152B0000000000000000000000000000000000B0
:10153B0000000000000000000000000000000000A0
:10154B000000000000000000242607080000000037
:10155B0000000000CD490408102700000100000026
:10156B000000000000000000000000000000000070
:10157B000000000000000000000000000000000060
:10158B0000000000000000006825070800000000B4
:10159B00000000005D0E0208102700000300000091
:1015AB000000000000000000000000000000000030
:1015BB000000000000000000000000000000000020
:1015CB0000000000000000002C26070800000000AF
:1015DB000000000071B50208A086010001000000A8
:1015EB0000000000000000000000000000000000F0
:1015FB0000000000000000000000000000000000E0
:10160B000000000000000000342607080000000066
:10161B00000000007589040850C3000001000000A1
:10162B0000000000000000000000000000000000AF
:10163B00000000000000000000000000000000009F
:10164B0000000000000000003C260708000000001E
:10165B000000000051870408A08601000000000074
:10166B00000000000000000000000000000000006F
:10167B00000000000000000000000000000000005F
:10168B0000000000000000004826070800000000D2
:10169B000000000069290408A86100000100000097
:1016AB00000000000000000000000000000000002F
:1016BB00000000000000000000000000000000001F
:1016CB000000000000000000542607080000000086
:1016DB0000000000D9580208A0860100010000009C
:1016EB0000000000000000000000000000000000EF
:1016FB0000000000000000000000000000000000DF
:10170B000000000000000000602607080000000039
:10171B000000000059000408A00F000001000000A9
:10172B0000000000000000000000000000000000AE
:10173B00000000000000000000000000000000009E
:10174B0000000000000000006C26070800000000ED
:10175B00000000009DEA01081027000001000000B6
:10176B00000000000000000000000000000000006E
:10177B00000000000000000000000000000000005E
:10178B0000000000000000007826070800000000A1
:10179B000000000085FF0308A00F000001000000FF
:1017AB00000000000000000000000000000000002E
:1017BB00000000000000000000000000000000001E
:1017CB000000000000000000842607080000000055
:1017DB0000000000F9E201081A41000001000000BE
:1017EB0000000000000000000000000000000000EE
:1017FB0000000000000000000000000000000000DE
:10180B000000000000000000882607080000000010
:10181B0000000000498001081027000001000000B3
:10182B0000000000000000000000000000000000AD
:10183B00000000000000000000000000000000009D
:10184B000000000000000000502507080000000009
:10185B0000000000C162020850C30000010000003C
:10186B00000000000000000000000000000000006D
:10187B00000000000000000000000000000000005D
:10188B000000000000000000942607080000000084
:10189B0000000000C5300108400D030000000000EF
:1018AB00000000000000000000000000000000002D
:1018BB00000000000000000000000000000000001D
:1018CB0000000000000000009C260708000000003C
:1018DB0000000000F1FE0308400D030000000000B3
:1018EB0000000000000000000000000000000000ED
:1018FB0000000000000000000000000000000000DD
:10190B000000000000000000A426070800000000F3
:10191B00000000002945020850C30000030000002E
:10192B0000000000000000000000000000000000AC
:10193B00000000000000000000000000000000009C
:10194B000000000000000000B026070800000000A7
:10195B000000000069E0030840420F000000000097
:10196B00000000000000000000000000000000006C
:10197B00000000000000000000000000000000005C
:10198B000000000000000000BC260708000000005B
:10199B00000000003100040850C3000000000000EC
:1019AB00000000000000000000000000000000002C
:1019BB00000000000000000000000000000000001C
:1019CB00000000000000000001FF0100E00100002A
:1019DB00FFFFFFFF0100000051F8010800000000AD
:1019EB0000000000FC9A06080800000042570200A5
:1019FB000000010642570200000001060000000033
:101A0B000000000000000000A0B406080000000069
:101A1B00000000000000000058B5060800000000A0
:101A2B00000000000000000004B5060800000000E4
:101A3B0000000000D529020879AF01200101000048
:101A4B00ED5102087553020800000000D4B60608D9
:101A5B0039510208000000000000000038B60608EB
:101A6B00555502080000000000000000F0B5060804
:101A7B002D202D2D202D2D2D2D202D2D2D00000039
:101A8B00000000000000000000000000000000004B
:101A9B00FFFFFFFF8D3C020800000000000000006C
:101AAB0030B4060801000000FA000000010000003D
:101ABB00010000009CAB01200000F40101000000BC
:101ACB009AAB01200000F4010100000098AB01204B
:101ADB000000F4010100000096AB01200000F401AE
:101AEB000100000094AB01200000F4010100000094
:101AFB0092AB01200000F4010100000090AB01202B
:101B0B000000F40101000000AD00020871000208A2
:101B1B0000000000B0A0060880AB012005320100D8
:101B2B008EAB01206400F401010000008CAB01209E
:101B3B006400C409010000007EAB0120E803D0075C
:101B4B00010000007CAB0120E803D007010000007E
:101B5B007AAB0120E803D0070100000078AB01202D
:101B6B001E00B80B0100000086AB012005000F0022
:101B7B000100000088AB012003000A0001000000F7
:101B8B0076AB01201E00F401010000008AAB01209E
:101B9B00020000003CA1060874AB01201400640095
:101BAB000100000082AB01203200E80301000000BD
:101BBB0072AB01200000C800010000007DAA0120CB
:101BCB0000C801007CAA0120005001007BAA012063
:101BDB00005A010079AA01200200000048A1060862
:101BEB0038280708402807089A5901200100C40922
:101BFB0000000000985901200100C40900000000FA
:101C0B00965901200100C4090000000094590120DD
:101C1B000100C40900000000905901200100C40913
:101C2B0000000000925901200100C40900000000CF
:101C3B008E5901200100C409000000008C590120BD
:101C4B000100C4090000000027A8012000C8010002
:101C5B0026A8012000C8010024A801200000FFFFD6
:101C6B000A00000022A801200100C80001000000AA
:101C7B0020A8012032003075320000001EA8012080
:101C8B007EFF1400050000001CA8012005002C019C
:101C9B00050000001BA80120055A050018A801200B
:101CAB0000FF01001AA8012002000000C00F012054
:101CBB0016A8012003000000DC95060817A80120D8
:101CCB0000FF010019A8012002000000C00F012035
:101CDB0015A8012003000000DC950608010002088E
:101CEB0091FF01080000000054A10608B4AB0120CD
:101CFB00EE02CA0801000000B2AB012000C80100CF
:101D0B0064000000B1AB012000C8010064000000BA
:101D1B00B0AB01200200000060A2060802A801205F
:101D2B000000803E0500000000A8012080C1803E1D
:101D3B0005000000FAA701200083007D05000000CC
:101D4B00F8A7012080C1803E05000000F3A7012009
:101D5B0000FF0100ECA701206400F401010000006A
:101D6B00EAA70120040000006CA20608E9A70120E5
:101D7B000200000080A20608ADA801200D000000A3
:101D8B008CA20608AAA8012000640100A8A80120C3
:101D9B00320010270A000000A6A801200D00000049
:101DAB008CA20608A5A801200D0000008CA2060835
:101DBB00A4A8012002000000C4A206080000000035
:101DCB000000000000000000D0A20608BAAB012002
:101DDB003E00000008A30608B8AB01200100FF7FFE
:101DEB0001000000B7AB01200200000004A40608AC
:101DFB00AFA801200300000014A40608AEA8012020
:101E0B000300000014A406086AAA0120000A0100BE
:101E1B0068AA01200000E8030100000066AA012067
:101E2B000000E8030100000064AA01200000E803A1
:101E3B000100000062AA01200000E803010000007D
:101E4B005AAA01200000E8030100000060AA01204B
:101E5B000000E803010000005EAA01200000E80377
:101E6B00010000005CAA01200014010078AA0120E7
:101E7B000200000024A4060876AA01200000F40149
:101E8B000100000074AA01200000F4010100000011
:101E9B0072AA01200000F4010100000070AA0120C9
:101EAB000000F401010000006EAA01200000A00F49
:101EBB00010000006CAA01200000A00F010000002F
:101ECB005FAB0120196401005EAB01200200000032
:101EDB0030A406085CAB0120E803D0070A00000021
:101EEB005AAB0120006401000A0000004FAB012037
:101EFB00006401004EAB01200064010056AB0120D1
:101F0B00006401000A00000055AB012000640100D1
:101F1B000A00000054AB0120006401000A0000001D
:101F2B0059AB012000FF01000A00000058AB012053
:101F3B0000FF01000A00000057AB012000FF010069
:101F4B000A00000053AB012001FF01000A00000052
:101F5B0052AB012001FF01000A00000051AB012030
:101F6B0001FF01000A000000B8A801200000F401E5
:101F7B0001000000B6A801200000A00F0100000026
:101F8B00B4A801200000A00F01000000B2A801209E
:101F9B000000A00F01000000B0A801200000A00F5E
:101FAB0001000000C1AF012000C80100C0AF01203B
:101FBB0000640100BFAF012000640100BEAF01202F
:101FCB0000640100BDAF012000640100BCAF012023
:101FDB00FF080100BBAF012001640100F9FE0108FD
:101FEB00BDFE0108000000003CA40608C4AF0120A0
:101FFB0001320100C3AF012001000000ACA40608B0
:10200B00C2AF012004000000B4A40608BAAF01203F
:10201B0000640100B8AF01201400E80301000000C8
:10202B00B6AF0120E80330750A000000B5AF012000
:10203B0000C80100B4AF012000C80100B3AF0120FC
:10204B0000C80100B2AF012000320100C6AF012071
:10205B00004B0100C5AF012004000000C8A4060816
:10206B00B1AF0120006401000A000000D4AF0120D1
:10207B000000D00701000000CFAF012000C8010015
:10208B00CEAF012000C80100CDAF012000C8010078
:10209B00D2AF01200000D00701000000CCAF01201F
:1020AB0000C80100CBAF012000C80100CAAF01205E
:1020BB0000C80100D0AF01200000D00701000000D4
:1020CB00C9AF012000C80100C8AF012000C8010042
:1020DB00C7AF012000C80100B1FC010899FC010841
:1020EB0000000000DCA40608A1A80120005A010092
:1020FB00A0A8012000C801009EA80120E803D0077A
:10210B00010000000000000000000000152A02087A
:10211B0078A5060853544D33324637583200000029
:10212B0014A801200003010013A8012000030100E3
:10213B00D5FB010889FB010800000000CCA50608AF
:10214B0049FB010801FB01080000000068A6060816
:10215B0021FC0108713C020800000000E8A60608FB
:10216B0004A8012001030100890102085D01020896
:10217B000000000040AA060885FA010839FA010898
:10218B0000000000B0AA0608C1FC01080182020889
:10219B00000000004CAB060809410208B50102081B
:1021AB0000000000F4AB060811FD01080000000060
:1021BB000000000080AC0608EDFD010895FD01084C
:1021CB0000000000E4AC060881FE010845FE010892
:1021DB00000000008CAD06081D7F020835FF0108CA
:1021EB000000000018AE060871AB012001060100CB
:1021FB0059FD010825FD01080000000014AF060879
:10220B004F7E0208113E02080000000084AF060852
:10221B00697F0208D93E020800000000D4B006080E
:10222B0070AB01200103010069FC010839FC0108B6
:10223B0000000000A8B10608C57F020800000000DE
:10224B00000000000CB20608D1FA0108593C020844
:10225B00000000008CB20608000000000000000027
:10226B000000000018B3060869FF0108513F02087F
:10227B000000000088B3060800000000000000000A
:10228B0000000000A0B50608409601209CFF2C0121
:10229B000000000038B20120E0150C170000000010
:1022AB000DAF012002000000D8B50608E5A70120FC
:1022BB0002000000E4B50608E0A7012088136F17A1
:1022CB0001000000E2A7012088136F170000000037
:1022DB00DE5901200000000000000000DC59012045
:1022EB000000000000000000DA590120000000008F
:1022FB0000000000D8590120000000000000000081
:10230B00D65901200000000000000000D459012024
:10231B000000000000000000BC05012000000000D0
:10232B00000000006AA701200300000038B7060870
:10233B00D8A7012088136F17010000008A9601208F
:10234B0088136F170000000019F901080000000046
:10235B000000000048B706080EAF01200100000086
:10236B009CB706088C96012001000000A8B7060850
:10237B008296012002000000B0B7060800000000A2
:10238B000000000000000000BCB7060801F90108BE
:10239B00000000000000000058B806080000000014
:1023AB000000000000000000ACB8060800000000B0
:1023BB0000000000000000001CB90608E4A7012083
:1023CB000200000054B9060886960120E0150C1790
:1023DB0000000000F4BB012048BC0120D601010124
:1023EB000001010100FF0100FFFFFFFF0000803F24
:1023FB0000000000000000000000000000000000D2
:10240B0000000000000000000000000000000000C1
:10241B00000000000000803F0000000000000000F2
:10242B00000000000000803F0000000000000000E2
:10243B00000000000000803F0000000000000000D2
:10244B0000000000010000000000FA430000FA4306
:10245B00FFFFFFFFFF0000000000803FDD4B040883
:10246B000000000000000000000000000000000061
:10247B00E0DA01200800000000000000D0DA0120A3
:10248B000800000001000000A00F0000B80B0000C6
:10249B0002FFFF01685E0C00918A0008758A000834
:1024AB00318A000800000000258A0008118A000804
:1024BB00FD89000800000000000000000000000083
:1024CB0000000000ED89000800000000DD89000815
:1024DB00C58F0008858B00084D8B0008618B0008A9
:1024EB00058B0008F18A0008DD8A00086597000853
:1024FB00D989000855890008E1F70008FFFFFFFFA5
:10250B0002000000404C070800000802050304000D
:10251B0000000000484C07080100080205040400F5
:10252B0000000000D44A07080200FE01011003005E
:10253B0000000000A02B070803001402000300009A
:10254B0000000000504C070804001F0202000800A6
:10255B0000000000584C070805001F02020108008C
:10256B0000000000FFFF0000FFFFFFFF0B0100005A
:10257B00912B0108F12A0108054F0108000000000A
:10258B0000000000D94C0108114D010800000000AB
:10259B000000000000000000B5200108A520010884
:1025AB009520010885200108E97B0508BD7B0508FE
:1025BB00617B0508896B05087D7B0508217B050878
:1025CB00796B0508681A0120E57A0508057B050873
:1025DB00D57A0508B16B0508917A0508497A050883
:1025EB00AD6B0508441A012021740508916B050891
:1025FB008D6B0508856B050865750508816B0508EE
:10260B007D6B05081C110708FFFFFFFF0100000091
:10261B0050C30000010100001F0000001C0000005F
:10262B001F0000001E0000001F0000001E00000025
:10263B001F0000001F0000001E0000001F00000014
:10264B001E0000001F0000000068214C0125000047
:10265B00440D0708F4010000FFFF0000BC1A070837
:10266B008C1A0120008002021F00000053544D20E1
:10267B002020202050726F64757420202020202091
:10268B0020202020302E3031008002021F0000005D
:10269B0053544D202020202050726F6475742020DD
:1026AB002020202020202020302E30310F28010820
:1026BB000B28010803280108EB25010899300108B4
:1026CB002D300108892F0108F9270108E927010896
:1026DB00D9270108C9270108E325010801000000DB
:1026EB0000000000040100000007000000000000D3
:1026FB0000000000000200001000000000000000BD
:10270B000000000007000000B00100000200000004
:10271B000900000001000000FC1A0120000000006D
:10272B00000000000000000000000000000000009E
:10273B00000000000000000000000000000000008E
:10274B00000000000000000000000000000000007E
:10275B00000000000000000000000000000000006E
:10276B00000000000000000000000000000000005E
:0C277B0000000000000000000000000052
:102787000100000001000000B0220020000000004E
:04279700200000001E
:08280000082800080040000850
:10800000026C03463AB11A6CD20608D50022012050
:1080100083F83C207047426480F83C20F3E71A6CF8
:1080200049494A4811401A6841F00201F0B4196404
:108030004168474D21F44031416041685C6821430B
:1080400041605168186921F48071D3F808C0DF6875
:10805000516054689E6A44EA0024AE4254605468F9
:1080600024F040745460506840EA0C0050609068FE
:1080700020F400609060916841EA0701916054D05B
:108080009068DC6A20F07060906091680E439660A2
:10809000906820F040509060916821439160906812
:1080A0009C6920F002009060916841EA440191606F
:1080B00093F82010002941D05468596A44F40064B0
:1080C000481E5460516821F460415160516841EA92
:1080D00040315160D06A0025DC6920F470005E698F
:1080E000611ED0622846D46A44EA0154D46294687E
:1080F00024F400749460946893F8301044EA4124A6
:108100009460946824F480649460916841EA8621C4
:1081100091605D641A6C22F0030242F001021A645D
:10812000002283F83C20F0BC7047916821F0706118
:108130009160916821F040519160B0E7516821F45D
:1081400000615160C6E700BFFDEEFFFF0023014064
:108150000100000F0129F0B42A4C4FF000062A4D0F
:1081600094BF002701272368EE626662A6626763F8
:10817000676B47EA42076763EE63EC6B002A38D10E
:1081800044F49574EC631C6824F001041C601C68C2
:10819000E407FCD4490289085960D8601968EAB933
:1081A00021F04001196019498B421DD018494FF444
:1081B0007410C860196841F01E011960596941F0D6
:1081C00080015961196841F00101196022B90E4A14
:1081D000D36A43F00803D362F0BC704741F040011A
:1081E00019600A498B42E1D14FF0746041F8500C9C
:1081F000E0E744F01A04EC63EC6A44F00804EC6233
:10820000C1E700BF601B0120002C01405864024000
:10821000006402402DE9F04F022389468A462DED85
:10822000108B99B0DFEDCABA14930346169004334D
:10823000159217934FEADA06169DDDF85CC04FEAF7
:10824000CA0305EB46111396F0004FF0000B01EB4B
:10825000061437010390A6EB86020194049706EBFF
:10826000460E04EBC202041D381D06EB86072C44A3
:10827000C6EBC60802972844029D02EB46174FEA58
:10828000C808ED0001EBC60602954FEA0E150595EC
:108290004FEACE050695139D4FEA451E019D95EDCB
:1082A000007AD34492ED005AD7ED004AD945D1ED7A
:1082B000006A50ED013A35EE241AD6ED002A1CED85
:1082C000016A73EE875A54ED017A33EEC73A36EEFF
:1082D000264A77EEA21A36EE666A77EEE27A74EEF6
:1082E000256A71EE812A77EE633A37EEC57A36EE6B
:1082F000A22A77EEE47A76EEE26A0CED012A37EEF6
:10830000247A77EE857AD1ED018AC1ED006A74EEA8
:10831000655A96ED015AB0EE460A94ED004AA7EE72
:108320002B6AD2ED010AE7EEAB3A74EE456AD7ED5F
:10833000012AA7EE6B0A9CED007AD5ED014A34EED6
:10834000054A37EE689A90ED005A36EEE02A76EE4E
:10835000E26A30EEA28A32EE222A76EEA06AF0EECF
:10836000492A75EE640A37EE287A75EE249AE2EE11
:108370006B2A74EEC54AF0EE608AB0EE40AAE6EED3
:10838000AB4AE6EEAB8AA6EEEBAAF0EE496AB0EE97
:10839000629A37EE695AE2EE2B6AB0EE432A74EE27
:1083A00008AAA7EEEB9AA7EEAB2A77EE297A35EE6C
:1083B000617A75EEC89A35EE415A75EEC45A37EEB9
:1083C000AABA77EEEA7A37EE011A8CED00BA36EEE9
:1083D000287AC1ED017A39EE844A76EEC27A1944E0
:1083E00075EE885A9C4435EE215A00ED014A70EE34
:1083F0008A0A70EE244AC5ED005A36EE686A80EDAE
:10840000001A72EEA33A85ED015A33EE093A04EDF3
:10841000017A72EE266A87ED006A1D44C6ED000AF5
:108420001844C2ED004AC4ED007A1C44C7ED016A4D
:108430001F44C6ED013A1E4482ED013A1A443FF64C
:108440002EAF139A072A40F2C681039A0EF1080E46
:10845000169F08F108000832029E059D4FF00008A3
:1084600094463A46083608357244069C0499D34629
:10847000109207EB0C0208340C310F92BA190E92CD
:108480007A190D923A190C923A180B927A180992AD
:1084900007F10C020A9201220892149ADDF824C016
:1084A0009044159A0A9F02EBC8020B9EA8EB880E17
:1084B0000C9D02EBC80192ED00BA0D9C01EBC802C5
:1084C000D1ED00AA0E9802EBC80192ED00AA01EBD3
:1084D000C802D1ED009A02EBC80192ED009A01EBBF
:1084E000C802D1ED008A0F9902EB0E1E92ED008AB0
:1084F000109A0EEBC80ADEED017A1192CDED047AE6
:108500000AEBC802DAED017A02EBC80A1291CDED4E
:10851000057AD2ED017A0AEBC802DDF820E0CDED54
:10852000017ADAED017A02EBC80ACDED067AD2EDD6
:10853000017A0AEBC802CDED027ADAED017ACDEDCF
:10854000077AD2ED017ADDE91121CDED037A01E060
:10855000F304353F17ED017ADE44D2ED007A94ED55
:10856000005AF145D5ED006A37EE274AD0ED004AB2
:1085700077EE677A1CED016A96ED007A91ED001AAC
:1085800076EE055A36EE872A97ED00DA71EE24EA88
:1085900076EE453A74EE252A31EE641A35EE466AD7
:1085A0003EEE825A74EE655A31EE664A72EE854AA4
:1085B00031EE471AB0EE67CA47ED014A34EE077A4A
:1085C000D1ED014A31EE261AD0ED016A72EEC52ACC
:1085D00095ED014AA7EE6BCA74EEE60A96ED010A24
:1085E000E7EE2B7A92ED017A94ED015A74EEA64AE9
:1085F0003DEE473ADCED006A70EEC4CA70EEC00A88
:10860000B0EE43EA7CEE80CA74EE001A70EE840A83
:10861000ACEEEBEA36EEC54A3DEE077AB0EE63DA31
:1086200036EE850AACEEAB3AF0EE4EDAA1EE2BDA7E
:10863000A1EE2B6AE1EE6BDA75EE666AB0EE441AD3
:10864000F0EE4CCA37EE405AA0EEAB1AE0EEEBCAA1
:10865000E0EEAB6A37EE007A74EEA10A35EEE1FA8D
:1086600075EEE45A75EE6EFA37EE600A71EEA55AB1
:10867000DDED061A35EE425A7FEE244A3FEE822A9D
:1086800022EEE1FA61EE80FADDED051A3EEE855A42
:108690003EEE066A73EEAD3A21EE82EA73EE4DDAF3
:1086A0003DEE033A24EEE1DADDED071A34EE2C4A12
:1086B0007CEE266A61EE85CA25EEE1CADDED041A7C
:1086C00077EE81EA77EEC17AE9EEA2FADDED032AD0
:1086D000A9EE80FA9DED030AAAEEA4EADDED014AB7
:1086E000AAEE82DA9DED012AE8EEA5CADDED025A76
:1086F000A8EE85CA9DED025A21EEAD1A62EE832ADC
:108700006EEEE11A27EEC00A64EEA34A26EEC22AF4
:1087100065EE865A24EE455AABEE2E1AEBEE2D1A74
:10872000E8EE272AA8EE030AEAEE264AAAEE232A52
:10873000E9EE045AA9EE065A37EE207A87ED007A60
:108740001F44C2ED00FA82ED01FA1A440CED01EA71
:108750008CED00DA9C44C4ED00CA84ED01CA1C44CF
:1087600081ED001AC1ED011A1944C6ED002A86ED0B
:10877000010A1E44C0ED005A80ED015A1844C5EDAF
:10878000004A85ED012A1D443FF6E4AE1099089A8F
:108790000831013210910F99089208310F910E990A
:1087A00008310E910D9908310D910C9908310C91F9
:1087B0000B9908310B910A9908310A9109990831EE
:1087C0000991139991427FF468AE149B8A46DB00AD
:1087D0009BB214932EE519B0BDEC108BBDE8F08F61
:1087E00011480023024611780632032916D00133BE
:1087F000062BF8D10D49CA6D052A0ED002EB4203B3
:10880000013200EB4303CA65032040F2EB3140F232
:10881000FF32187059809A807047704703EB43030A
:1088200000EB4303F0E700BF981B0120601B012011
:10883000124B30B41D6E6B6A28B943EA0143002025
:10884000AB6230BC7047AC6A013803EB14440BD008
:10885000002303F14002013305EB8202DBB25268D0
:10886000834204EB1244F4D3403044EA014405EB64
:1088700080004460002030BC704700BF601B0120B6
:10888000037870B42BB30246C0F10105531912F8F6
:10889000014FDBB2002CF9D101335B000E4C0322F7
:1088A0000B8084F8643484F86524017879B102235C
:1088B00000265A1CE518023354FA82F285F8641433
:1088C000DBB282F8646410F8011F0029F1D170BC9A
:1088D00070470223E2E700BF601B012030B5EFF3D1
:1088E0001181802383F312880A4AD2F86435D2F8C2
:1088F0006845D2F86405D2F86855CAB282F3118887
:10890000013BA84294BF4FF4006000201B1B184499
:1089100030BD00BF601B0120012380F8513070473B
:10892000014BD3F86C057047601B01200120704794
:10893000024BC3F87025C3F874157047601B012003
:10894000024BC3F87825C3F87C157047601B0120E3
:1089500070477047212870B505D0222829D02028DB
:1089600010D0002070BD0029FBD0072AF9D1184B88
:1089700018791C685A799B79087100200C604A713B
:108980008B7170BD0029ECD0072AEAD11148104B39
:108990000C680E794D79D0F8742589791C601E71A8
:1089A0005D719971002ADCD02146D0F8700590479E
:1089B000D7E70029D5D0022AD3D1064AD2F87C3590
:1089C000002BCED00988D2F878059847C9E700BFB8
:1089D00000000120601B01200020704703460A228E
:1089E00001481A80704700BF080001200346642236
:1089F00001481A80704700BF14000120012901D0EE
:108A000000207047014BD3F8903018470000012038
:108A1000012901D009F05EBB014BD3F88C30184717
:108A200000000120014BD3F88830184700000120D6
:108A300010B40B780A46044603F00303012B05D05B
:108A4000022B0BD000205DF8044B70478B8843B994
:108A5000204611465DF8044B0CF022BB8B88832B1B
:108A6000F6D0034B5DF8044BD3F88030184700BFB5
:108A70000000012038B5054B04460D46DB6F9847D2
:108A8000294620460AF04CF8002038BD000001209D
:108A900038B5054B04460D469B6F9847294620463E
:108AA0000AF0BAF8002038BD00000120F0B400241C
:108AB00052004E1C2746030FB0F1204F4FEA001022
:108AC00003F1300503F1370334BF0D550B5537550E
:108AD0000234A242EFD1F0BC704700BF024808B593
:108AE000FFF7CEFE014808BD301E0708C41F012055
:108AF000024808B5FFF7C4FE014808BD401E07083C
:108B0000C41F01200B481A220B4B00681B680A8007
:108B1000C01801D109487047094B0822094910B50E
:108B20001C68FFF7C3FF042207492046FFF7BEFF7A
:108B3000024810BD107AF01F187AF01FB000012013
:108B4000147AF01FB2000120C2000120024808B5CB
:108B5000FFF796FE014808BD4C1E0708C41F012000
:108B600008B520B90448FFF78BFE044808BD044847
:108B7000FFF786FE014808BD581E0708C41F0120E4
:108B80007C1E0708042301480B807047CC0001209D
:108B90000048704708210120004870470821012043
:108BA000034B93F8A405032894BF002001207047CD
:108BB000601B0120034B93F8A405032894BF0020F9
:108BC00001207047601B0120034B93F8A405003877
:108BD00018BF0120704700BF601B012098B1826858
:108BE0000C4B12B107229A70704718780421DA6092
:108BF00003281A611A750CBF80224FF48072997095
:108C0000C3E901227047034B012241F2E4715A701B
:108C10005A547047E07C01200378022B0FD0006982
:108C200008B9012070470E4B1B78032B12D080B27D
:108C30004FF6F773984294BF00200120704708490F
:108C400041F6500243688A58B3EB422F2CBF0120F3
:108C500000207047034B984294BF002001207047CA
:108C6000E07C0120F7FFFF0F30B40378022B13D014
:108C7000104A41F64801436841F63C04555802F554
:108C8000C25100692B400968023812595B0A01FB86
:108C9000003030BC10447047064B41F6300441F6BA
:108CA000340142681859595800EB410030BC00EBC0
:108CB00052207047E07C012038B540F48062074CB8
:108CC0000B4640F2FF55012100F03F00A563A36071
:108CD000E26056F087F9A56338BD00BF002C014063
:108CE0002DE9F84F574B984211D003F568530833DC
:108CF000984269D00023544A1846A2F84C36A2F88C
:108D00005836C2F85036C2F85436BDE8F88F4E4C8B
:108D10004FF0000B02224D4E04F5BF65D9464FF4CB
:108D2000007A4FF48078C4F8F425D6F8D0200127D3
:108D300059465A45BB4403D0D4F8680651F0D6FED4
:108D40004FF4803394F86C164FF00072D4F8680634
:108D500085F82410B721A5F804A0A5F8108085F89F
:108D60001290A5F806802F762862C5E9023252F0EB
:108D7000B9F8D4F8F425364B93456F7645F8283B7F
:108D8000D3DB84F85A96D4F8F4350120D4F80416CD
:108D9000B4F8FC25D4F8005612FB03F201FB03F3F0
:108DA000B4F80866A4F84C26C4F85436B4F8FE2586
:108DB000284BC4F87016C4F85056A4F85866A4F8A6
:108DC0004E26C4F84836A0E71F4C02224FF0000B95
:108DD0001E4E04F5BF654FF4806A4FF040094FF412
:108DE0000068C4F8F425D6F8D020012759465A4522
:108DF000BB4403D0D4F8680651F078FE4FF000620F
:108E0000D4F868164FF4003094F86CC6296285F8DF
:108E100024C0A5F804A0A5F81090A5F80680AF74AA
:108E2000C5E90202FFF7DCFC28466F7651F0A8FF87
:108E3000D4F8F425084B934545F8283BD3DB84F858
:108E40005A76A0E71971EF00601B01200000012095
:108E500078880608D0880608A48806082DE9F84313
:108E6000884600294FD04718461E284C802507F118
:108E7000FF39EFF3118185F31288D4F86425C9B264
:108E8000D4F86805D4F86435D4F868C581F311883E
:108E9000634594BF4FF400630023121A1344012B5F
:108EA0001AD1012041F0D6FFEFF3118185F312882A
:108EB000D4F86425C9B2D4F86805D4F86435D4F878
:108EC000687581F31188BB4294BF4FF4006300239F
:108ED000121A1344012BE4D0EFF3118285F31288A8
:108EE000D4F86835D2B216F8011F234483F87416FB
:108EF000D4F868350133C3F30A03C4F8683582F344
:108F000011884E45B5D14046BDE8F883601B01206D
:108F1000F8B5002390F8505080F85030CDB10F498B
:108F200041F2E8028A5C032A15D10D4E00F13C049F
:108F3000B76A29462046FFF791FFB36A2D1A044409
:108F4000DB1B322B01D8002DF3D1B5FA85F0400997
:108F5000F8BD0120FCE71846FAE700BF601B0120BE
:108F6000582C0120002280F85120D1E790F85020A1
:108F7000531C0244DBB280F8503082F83C1090F869
:108F800051200AB1132B00D9C2E77047F8B5144637
:108F900041F2E803094A0D46D35C032B0DD1084E7C
:108FA000B76A002C09DD21462846FFF757FFB36A50
:108FB000241A0544DB1B322BF3D9F8BD601B0120BA
:108FC000582C012010B503200C4658F08FFD0328C3
:108FD0000AD0074B93F82C30012B4FF012030CBF33
:108FE00004480548238010BD12230448238010BD87
:108FF000582C0120FC000120E8000120D4000120B1
:109000002DE9F04FDFF82C83BD4D4446DFF838934F
:109010002DED068B89B0CDE9060105920FCD0FC469
:109020000FCD0FC495E8070099F8323084E80700A7
:10903000042B00F21081DFE813F03C010E0109015E
:1090400005004A019FEDAF8A9FEDAF9AAF4AB04B42
:109050000598B049002818BF1346AF4AC8E9062151
:1090600039EE087ADFEDAD7AF5EE006AAC4A28EE0B
:10907000278AAC4EB0EE67AA02F11507C6EE879AB2
:109080000025DFEDA98A0292C8F82430079BAB4285
:1090900000F0D680029B05F1010B13F8014B5FFA3B
:1090A0008BF20293002C00F02081002103E00131BB
:1090B000152900F01A8101EB41004B0017F800C0A0
:1090C000A445F4D1484490F84D10CDE9033200296D
:1090D00000F01381204641F05BF98246006857F0AA
:1090E0000DFA9AF8051041F06BFA0078002840F06C
:1090F000FC804FEA141C039B04F00F0E049A0CF141
:10910000FF3409EB03010323052C81F88D2081F83E
:109110008C3000F2C980854901EB4400B0F8B00002
:1091200040FA0EFC1CF0010C00F0C0804FF0010C66
:1091300003920CFA0EFC0CF1FF3C0CEA00005BF011
:10914000B3FD7A49039A032301EB040C784C022106
:109150009CF8BCC0604404EBC00070618371C271B4
:109160009AF8082043F01AF9059B002B78D0B9F83B
:10917000303099F8321007EE903AD9F8B833042914
:10918000F8EEE77AFCEEE77A17EE900AB3FBF0F21E
:1091900002F57F4202F1FF024FEA1242B3FBF2F204
:1091A000B2FBF0F083B270D007EE902AF8EE676A57
:1091B00066EE887A28EEE77A99F8330006990190EE
:1091C0003046A9EE267A00915146C6ED027A86ED28
:1091D000037A34F06DFB002D62DD7368D8F8382017
:1091E00093425FD0012D5BD0D8F85020934259D0E4
:1091F000022D55D0D8F86820934253D0032D4FD07C
:10920000D8F8802093424DD0042D49D0D8F898202A
:10921000934247D0052D43D0D8F8B020934241D097
:10922000062D3DD0D8F8C820D31A18BF01235D46BB
:10923000012233741836082D06F8072C7FF426AF68
:109240003C4809B0BDEC068BBDE8F08F9FED3A8A33
:10925000B0EE489AFAE69FED398AB0EE489AF5E604
:10926000FAFE697AFCEEE77AD9F8B8134FF6FF7385
:1092700017EE902A1846B1FBF2F21A44120CB1FB19
:10928000F2F299F8321004298ED107EE900A07EE17
:10929000102AF8EE677AF8EE476A67EE8A7A89E76D
:1092A0000123C4E70023C2E770615DE7C6F814C07C
:1092B0005AE70023174A01219FED188A0693164B9F
:1092C000B0EE489A0591C8E90632104BC8E6002373
:1092D000104A01219FED1A8A06930F4BB0EE489A6F
:1092E0000591C8E90632094BBAE6164A0020074B39
:1092F000C8F81C20C8F82430A3E70B68FFDE00BFC5
:10930000FC880608ACC5A737ACC5A7365585040848
:10931000E1BB030839C10308618504086F12833A71
:109320008F2C01204800002000007A44788806082D
:10933000102D012014000020282930386F12033925
:1093400000000000CDBE0308582C012010B50D4CC4
:10935000002394F8F125C4F8A03512B10A4AC2F8E6
:10936000BC3356F049F820B10423022084F8A43518
:1093700010BD054A0923926A84F8A435C4F89425DF
:1093800010BD00BF601B0120582C012070B50F4D8F
:1093900004460E4695F8A435042B0BD0082B07D1B4
:1093A000D5F89C3583420ED0FFF7D0FF022801D0BC
:1093B000012070BD08230220C5F8A065C5F89C45B2
:1093C00085F8A43570BD022070BD00BF601B012070
:1093D00070B54379234C002B14BF0123002384F87C
:1093E000D03503D1002384F8A43570BD1E4D002173
:1093F000032095F9C32342F099FE0028F2D0466875
:10940000304657F03FFE84F8F0050028EAD095F882
:10941000C1333046003B18BF012384F8F13557F0C3
:1094200057FE09F0C5FF38B994F8983584F8A405BB
:10943000013384F8983570BD56F0B6F840B194F811
:1094400098350022013384F8A42584F8983570BD3E
:10945000AA6A012384F89805C4F8942584F8A435F1
:1094600070BD00BF601B0120582C012010B556F0C4
:109470009BF858B10C4C94F898350133DBB2072BAC
:1094800084F8983503D9002384F8A43510BD09F079
:109490008FFF0028F7D0054B01229B6A84F8A42592
:1094A000C4F8943510BD00BF601B0120582C01206A
:1094B0002DE9F84F904C94F8D055002D00F0028122
:1094C00094F8A42502278D4E531E082B3ED8DFE8C2
:1094D00003F03436A73D6649153D050055F08CFF75
:1094E000002840F00181D4F89435B26AFA339342EF
:1094F00029D2FFF7BBFF94F8A425E5E755F07CFFE0
:109500000028F0D0D4F8A0350022012B84F898254B
:1095100040F2EE80D4F89C15013B94F8F1550131EE
:10952000C4F8A035C4F89C1515B1744BC3F8BC231E
:109530000823054684F8A43511E084F8A47555F095
:109540005BFF00284DD194F8A425531EDBB2022BFB
:109550003CD9082A18BF042A0CBF0125002528463B
:10956000BDE8F88F236B002B37D1644B0722D4F86A
:109570008C559B6A84F8A425C4F89435002DEED050
:10958000D4F890350120D4F88025D4F88415A84764
:10959000D9E7D4F89435B26A643393421DD2D4F833
:1095A0002C80B8F1000FF4D155F026FF0028A2D08E
:1095B0000423D4F88C5584F8988584F8A435002DBC
:1095C00000F090804046D4F89035DCE74B4BD4F85F
:1095D00094259B6A9B1AC82B79D800252846BDE89C
:1095E000F88F55F09DFB0028ADD196F8C533002BC0
:1095F000A3F10203B3FA83F314BF022201225B0931
:1096000084F8992584F89A3555F08AFB00287FF470
:1096100070AFD6F810240323C4F8A82584F8A43525
:1096200055F07EFB00288ED1344A4FF0040EC4F86A
:10963000A005032392F8F4B3B2F8F613D2F8F803B6
:1096400084F8AEB5D2F8F8734FEA106CD2F8F8632C
:10965000A4F8AC153F0CD2F8F8A3360A92F8FC93A4
:1096600092F8FD5392F8FD03D2F8008425FA0EF526
:10967000B2F806B400F00F00B2F80614B2F80624EF
:10968000C1F30B1184F8AFC502F00F0C84F8B0756C
:1096900041EA1B21724684F8B16501F00F0184F89C
:1096A000B2A584F8B39501F5FA6184F8B85584F849
:1096B000B905C4F8B485A4F8BA1584F8BCC584F813
:1096C000A4E543E7284684F8A455BDE8F88FFFF7E2
:1096D000CDFE94F8A455082D18BF042D0CBF01250C
:1096E00000253CE705463AE7042384F8A43536E72D
:1096F000FAD1FFF72BFE26E7601B0120582C012032
:10970000154BDB68C3F3022310B4C3F107041A1D21
:10971000042C28BF0424062A4FF0FF328CBF033BE1
:109720000023A240002821EA020101FA03F108DB2C
:1097300009010A4BC9B2034483F800135DF8044BD6
:10974000704700F00F000901054BC9B203441976B8
:109750005DF8044B704700BF00ED00E000E100E061
:10976000FCEC00E030B5284C0022284841F287315B
:10977000D4F8B83383B0264DA0FB030304F584600E
:10978000C4F82C14DB0CC4F83024C4F82824013BA2
:10979000C4F82054C4F824340DF06EFE1D4B06218D
:1097A00037201A6C42F020021A641B6C03F020036D
:1097B0000193019BFFF7A4FFD4F820344FF400007D
:1097C0001549164A4860D96841F00101D960996885
:1097D0000A40062A06D0B2F5803F03D01A6842F04C
:1097E00001021A600E4B41F2041200200D499A58F2
:1097F00003F27464C3F87C05C2F81002C3F8740560
:10980000C2E9811403B030BD582C012083DE1B4314
:10981000001400400038024000E100E007000100B1
:10982000601B0120B830012038B50F4B0F4AD3F828
:10983000B833A2FB03239B09013BB3F1807F10D215
:109840000B4A0024F0200B490725536081F82300C0
:10985000214694604FF0FF301560FFF751FF20461E
:1098600038BD012038BD00BF582C0120D34D6210F7
:1098700010E000E000ED00E02DE9F84FB34C0546A4
:1098800094F8601CD4F8680CC1F3400142F0C6FFA4
:1098900094F8601CD4F8640CC94301F0010142F053
:1098A000BDFF002D00F0C3806E1EA94F4FF01008C1
:1098B000A84D5FFA86FBD4F8680C42F093FFD4F809
:1098C000640C42F08FFFB4F8703C002B40F03581FF
:1098D00094F8721CD4F8740C42F0A0FF4FF0FA090F
:1098E0004FF47A704FF0010C7B68C3F30803002B30
:1098F00040F0FB80EFF31183002B40F0F680A26A6A
:10990000A968A36A9A42FAD1D4F8983C9942F6D849
:10991000D4F8946C00FB06F35B1AB3FBF6F300FB80
:1099200002327B68C3F30803002B40F09F80EFF303
:109930001183002B40F09A80A36AD5F808A0A16A91
:109940008B42F9D1D4F8981C8A45F5D8D4F8946C98
:1099500000FB06F1A1EB0A01B1FBF6F100FB0313DA
:109960009B1AB3F57A7FDCD3B9F10109BCD1D4F8E5
:10997000680C42F037FFD4F8640C42F033FFB4F8BF
:10998000703C002B40F0CD8094F8721CD4F8740C1D
:1099900081F0010142F042FF4FF0FA0C4FF47A706F
:1099A0004FF0010E7B68C3F30803002B7ED1EFF369
:1099B0001183002B7AD1A26AA968A36A9A42FAD1CC
:1099C000D4F8983C9942F6D8D4F8949C00FB09F35B
:1099D0005B1AB3FBF9F300FB02327B68C3F30803A5
:1099E0003BBBEFF3118323BBA36AD5F808A0A16AA0
:1099F0008B42F9D1D4F8981C8A45F5D8D4F8949CB8
:109A000000FB09F1A1EB0A01B1FBF9F100FB031323
:109A10009B1AB3F57A7FE0D3BCF1010CC2D10BF1F4
:109A2000FF365FFA86FBBBF1FF0F7FF444AFBDE862
:109A3000F88FEFF3118988F31288AE682B68DB0387
:109A400002D5C4F890ECAE68A36A5FFA89F9D4F83D
:109A5000901C89F31188D4F8949C0B4400FB09F105
:109A6000891BB1FBF9F100FB0313D1E7EFF3118E72
:109A700088F31288D5F808A02B68D90303D5C4F859
:109A800090CCD5F808A0A36A5FFA8EFED4F8901C9B
:109A90008EF31188D4F8946C0B4400FB06F1A1EB13
:109AA0000A01B1FBF6F100FB031359E7EFF3118153
:109AB00088F31288D5F808902B68DA0303D5C4F828
:109AC00090ECD5F80890A36AC9B2D4F8902C81F331
:109AD0001188D4F8941C1A4400FB01F3A3EB09038A
:109AE000B3FBF1F300FB023277E7EFF3118188F368
:109AF0001288AE682B68DB0302D5C4F890CCAE6840
:109B0000A36AC9B2D4F8902C81F31188D4F8941CBC
:109B10001A4400FB01F39B1BB3FBF1F300FB023281
:109B2000FFE6D4F88C3C002B3FF436AFD4F8783CF9
:109B3000C3F8009084F8899C2EE7D4F88C3C002B65
:109B40003FF4CCAE41F04CFAC8E600BF582C0120DF
:109B500000ED00E010E000E02DE9F84FB04C4FF0D0
:109B6000050BB04F4FF0100894F8601CD4F8680C47
:109B7000C1F34001AC4D42F051FE94F8601CD4F8A2
:109B8000640CC94301F0010142F048FED4F8680CAE
:109B900042F028FED4F8640C42F024FEB4F8703C85
:109BA000002B40F0358194F8721CD4F8740C42F00C
:109BB00035FE32264FF47A704FF0010C7B68C3F308
:109BC0000803002B40F0FA80EFF31183002B40F0E4
:109BD000F580A26AA968A36A9A42FAD1D4F8983C9F
:109BE0009942F6D8D4F894EC00FB0EF35B1AB3FB61
:109BF000FEF300FB02327B68C3F30803002B40F046
:109C00009E80EFF31183002B40F09980A36AD5F872
:109C100008A0A16A8B42F9D1D4F8981C8A45F5D8DE
:109C2000D4F894EC00FB0EF1A1EB0A01B1FBFEF1BC
:109C300000FB03139B1AB3F57A7FDCD3013EBDD141
:109C4000D4F8680C42F0CEFDD4F8640C42F0CAFDA2
:109C5000B4F8703C002B40F0D08094F8721CD4F81B
:109C6000740C81F0010142F0D9FD4FF0320C4FF439
:109C70007A7001267B68C3F30803002B7FD1EFF3D2
:109C80001183002B7BD1A26AA968A36A9A42FAD1F8
:109C9000D4F8983C9942F6D8D4F8949C00FB09F388
:109CA0005B1AB3FBF9F300FB02327B68C3F30803D2
:109CB0002BBBEFF3118313BBA36AD5F808A0A16AED
:109CC0008B42F9D1D4F8981C8A45F5D8D4F8949CE5
:109CD00000FB09F1A1EB0A01B1FBF9F100FB031351
:109CE0009B1AB3F57A7FE0D3BCF1010CC2D10BF122
:109CF000FF3616F0FF0B7FF449AFBDE8F88FEFF3A6
:109D0000118988F31288D5F808A02B68DB0303D5E6
:109D1000C4F8906CD5F808A0A36A5FFA89F9D4F862
:109D2000901C89F31188D4F8949C0B4400FB09F132
:109D3000A1EB0A01B1FBF9F100FB0313D0E7EFF34C
:109D4000118E88F31288D5F808A02B68D90303D5A3
:109D5000C4F890CCD5F808A0A36A5FFA8EFED4F8B8
:109D6000901C8EF31188D4F894EC0B4400FB0EF198
:109D7000A1EB0A01B1FBFEF100FB03135AE7EFF37D
:109D8000118188F31288D5F808902B68DA0303D57F
:109D9000C4F8906CD5F80890A36AC9B2D4F8902C96
:109DA00081F31188D4F8941C1A4400FB01F3A3EB4F
:109DB0000903B3FBF1F300FB023276E7EFF3118105
:109DC00088F31288D5F808E02B68DB0303D5C4F8C4
:109DD00090CCD5F808E0A36AC9B2D4F8902C81F3EE
:109DE0001188D4F8941C1A4400FB01F3A3EB0E0372
:109DF000B3FBF1F300FB0232FDE6D4F88C3C002B00
:109E00003FF433AFD4F8783C1E6084F8896C2CE7BB
:109E1000D4F88C3C002B3FF4CCAE41F0E1F8C8E61E
:109E2000582C012000ED00E010E000E02DE9F041A9
:109E3000D0F800E00C46DFF8588084B0DEF804501B
:109E40001746DFF850C0194605EA0805DDF82880F6
:109E5000064603932C43424644EA0C0CCEF804C059
:109E60000BF020FD78B931680246039B30468F62C3
:109E70004021CDF800800BF045FD003818BF0120CF
:109E800004B0BDE8F081012004B0BDE8F08100BF5E
:109E9000009800FC00200180F8B5134F04460D46E1
:109EA0000AE09B69DB0602D50BF0BCFCD0B9D7F801
:109EB0009C3C5B1B0A2B08D823682A460A212046B3
:109EC0009E69B606EDD50020F8BD636C2021002206
:109ED00001200B4384F84020636484F8411084F827
:109EE0004220F8BD0120F8BD582C012030B5037880
:109EF00083B004461546012B1DD0022B18D1C36830
:109F000041F080011BB19A88186812048261606870
:109F100058F076F801232A460021606857F076FE53
:109F2000E3688BB11A6801209B88936103B030BD50
:109F3000002003B030BD00920A46417990F9040038
:109F400058F05CFF03B030BD0120F2E74309012265
:109F500000F01F0084B0013B02FA00F0032B0BD885
:109F6000DFE803F015021E0C124B5A6C02435A64D0
:109F70005A6C10400090009B04B070470D4B1A6B58
:109F800002431A631A6B10400390039BF4E7094BDA
:109F90005A6B02435A635A6B10400290029BEBE7E4
:109FA000044B1A6C02431A641A6C10400190019B16
:109FB000E2E700BF0038024018B10022012142F060
:109FC000EDB9704718B10022202142F0E7B970477F
:109FD00058B183884FF00042B3FA83F332FA03F3A7
:109FE00003D002490A6813430B607047003C0140EC
:109FF000002800F08F80B0F804C0BCFA8CF3202B4E
:10A00000C3F11F0200F086806F4B2DE9F04F9D18C1
:10A01000DFF8E48185B0036808EB820095F8C4207E
:10A020000024DFF8D8E10192C0F8A01C674A02E0E2
:10A030000134102C65D04FF0010909FA04F10CEA43
:10A04000010531EA0C01F3D14FF0030A04FA09F7D4
:10A0500018684FF00F0B0AFA07F704EA0A0124F018
:10A06000030620EA0700890006F1804618600BFA13
:10A0700001F0D3F80CB006F59C362BEA0707DF6039
:10A08000DEF8447047F48047CEF84470DEF8447040
:10A0900007F480470397039FB76827EA00004C4FF7
:10A0A000BB421AD007F58067BB4234D0494FBB4250
:10A0B00035D0494FBB426BD0484FBB4271D0484F5F
:10A0C000BB4269D0474FBB4278D0474FBB420CBF21
:10A0D0000727082707FA01F10843B0600134116827
:10A0E000102C41EA05011160516821EA0501516017
:10A0F000916841EA05019160D16821EA0505D560C2
:10A1000099D1019B984498F8E03CF02B0CD805B00D
:10A11000BDE8F08F704709FA01F10843DDE7022737
:10A1200007FA01F10843D8E7F021304B264888F8B8
:10A13000E01CD968019AC1F302210244C1F1070071
:10A140000B1D92F8D440042892F9D42028BF042093
:10A15000062B4FF0FF338CBF033900218340002AC8
:10A160006FEA030303F0030303FA01F31EDB204845
:10A1700001211B0104F01F0485185209DBB201FA0A
:10A1800004F485F8003340F8224005B0BDE8F08FB4
:10A190000AFA01F10843A0E7052707FA01F108438D
:10A1A0009BE7042707FA01F1084396E704F00F0440
:10A1B0001B01104ADBB222441376A8E7062707FAF0
:10A1C00001F1084389E700BF78880608003C014098
:10A1D0000000024000080240000C02400010024053
:10A1E0000014024000180240001C024000ED00E094
:10A1F00000E100E0FCEC00E0582C012000380240B7
:10A2000010B4B8B10D4CD4F8E83C102B05D10521A1
:10A2100000205DF8044B40F0B9BB03EB430222443D
:10A2200082F8ED1C012182F8EC0C0B4482F8EE1C44
:10A23000C4F8E83C5DF8044B704700BF582C01207F
:10A240002DE9F04FD04C002387B004F61C5894F849
:10A25000302DC4F81C3DC8E90133C8E903331AB1F5
:10A2600094F8313D84F81C3D94F8323D1BB194F8CC
:10A27000333D84F82B3D94F8363D1BB194F8373DBF
:10A2800084F8263D94F8343D1BB194F8353D84F8AC
:10A29000213D94F8383D013B4FFA83FADBB2BAF125
:10A2A000FF3F029300F01381B022B849B84D00235C
:10A2B00002FB0A112E4605F12800DC311F469B46A1
:10A2C00001935EF02FF9039535785146284643F007
:10A2D000F9FF8146002840F0FD8001370536042F44
:10A2E000F2D194F8480D039DFFF730FE4FF4403251
:10A2F000A84E00230121C4F8502D3046D4F8442D37
:10A30000C4F868BDC4F8641DC4F85C1D84F87C1DE5
:10A31000C4F8543DC4F8743DC4F8783DC4F8583DC1
:10A3200084F86C3DC4F8703DC4F8603DC4F84C2D11
:10A33000FDF766FEBAF1000F40F0EB80019B83F061
:10A34000010919F0FF0F40F0E480A6F1080059F070
:10A3500037FB012308F11408EA78002A40F0328123
:10A360000535A845F8D104EB0A030299022093F9B8
:10A37000402D41F0DBFE0546002800F0A8800027B4
:10A38000406856F07FFE06213A46DFF8248256F0F8
:10A3900089FEBBF1010F4FF400638CBF4FF4806165
:10A3A0003946D5E90102C4F8A41D4FF400554FF415
:10A3B0008071C4F8982DC4F8A83D4FF400320323EF
:10A3C000C4F8940D4046C4F89C7DC4F8BC3DC4F864
:10A3D000A07DC4F8B87DC4F8C07DC4F8C47DC4F8BD
:10A3E000AC5DC4F8B01DC4F8B42D0CF093FE94F825
:10A3F000883DC4F8848D012B0597C4F8CC6D66D0D8
:10A400000123D4F84C5D84F8883DAB68DE0713D493
:10A41000D4F8B8336049AA68B3FBF1F342F0010203
:10A4200003EB4303AA600593059B2BB1059B013BFE
:10A430000593059B002BF9D1AB68D80747D5D4F815
:10A440008C2D564B134043F48073C4F88C3D6B68DD
:10A45000590507D5D4F88C3D23F4405343F4805379
:10A46000C4F88C3DD4F88C3D13F4805340F03C810B
:10A47000C4F8903D4A4800234A496FF02202C4F8CC
:10A48000D40D494884F8883D5B46C4F8D01D05F1D9
:10A490004C01C4F8E00D2A606E68444A46F08066BC
:10A4A00043486E60AE6846F48076AE600CF0AAFD5C
:10A4B000404B5A68D20640F02481D4F84C3D9A684B
:10A4C00012F0405F03D19A6842F080429A6007B070
:10A4D000BDE8F08F284642F037F8FB1D032100222B
:10A4E000DBB2CDF8049008B18371C27142F012F86A
:10A4F000307843F019FF0BF1010386F802B05FFAE0
:10A5000083FB4FF00703707033714FF00103F3705A
:10A51000E3E6B0220021284848275EF075F8B02213
:10A52000002125485EF070F8244B384684F8F87D09
:10A53000C4F8F43DFFF70AFD4FF440300023012139
:10A54000D4F8F42DC4F8000E1D48C4F8141EC4F845
:10A550000C1E84F82C1EC4F8043EC4F8243EC4F833
:10A56000283EC4F8083EC4F8183E84F81C3EC4F8DF
:10A57000203EC4F8103EC4F8FC2DFDF741FD0E4806
:10A5800059F01EFAE5E600BF582C0120788806082D
:10A5900074390120A439012040420F00FEF8FFFF6A
:10A5A000692501086D2501085925010808010020C9
:10A5B000EC390120002301404C3A012000200140E9
:10A5C000543A012094F8880D00215A1C2F79012853
:10A5D0000491D2B269783DD04FF00100092984F886
:10A5E000880D4ED94FF0030E6FF01D00D4F84CCDFE
:10A5F0004FF007091EFB0100DCF80CE009FA00F936
:10A6000007FA00F02EEA0907CCF80C70DCF80C70A1
:10A610003843CCF80C00062B4FF005001CD86FF027
:10A62000040710FB0373D4F84C7D1F2000FA03FCD1
:10A63000786B01FA03F320EA0C007863786B03432C
:10A640007B63D4F84C3D3E48834230D04FF000034A
:10A6500084F8883D134683E60C2B32D86FF022072E
:10A6600010FB0373D4F84C0D1F2707FA03FC076B8C
:10A6700001FA03F327EA0C070763076B3B43036305
:10A68000DFE7D4F84C0D01EB41094FF0070ED0F88D
:10A6900010C007FA09F70EFA09FE2CEA0E0CC0F8F2
:10A6A00010C0D0F810C047EA0C070761B3E71229C1
:10A6B00021D01129CAD123494B6843F400034B60D0
:10A6C000C4E76FF0400710FB0373D4F84C0D1F274D
:10A6D00007FA03FCC76A01FA03F327EA0C07C7620B
:10A6E000C76A3B43C362ACE7D4F8903D23F006034E
:10A6F000C4F8903DBEE613494B6843F480034B60B9
:10A70000A4E7D4F84C2D0E498A420DD05B68DB06D5
:10A710003FF5DDAE0C4B9A427FF4D9AE9A6812F049
:10A72000405F7FF4D4AECEE6936813F0405F03D170
:10A73000936843F080439360024B5B68C7E600BFB9
:10A740000020014000230140002201402DE9F0419A
:10A75000D0F800E00C46DFF8588084B0DEF80450F2
:10A760001746DFF850C0194605EA0805DDF82880CD
:10A77000064603932C43424644EA0C0CCEF804C030
:10A780000BF090F878B931680246039B30468F622F
:10A790008021CDF800800BF0B5F8003818BF0120FB
:10A7A00004B0BDE8F081012004B0BDE8F08100BF35
:10A7B000009800FC002001810A4610B10E2141F0F2
:10A7C000EDBD70470A4610B1022141F0E7BD704768
:10A7D000034690F83C00012800F03E810220F0B4CE
:10A7E000012483F83D0083F83C40142A45D8DFE873
:10A7F00012F04D004400440044007B00440044003B
:10A800004400DA00440044004400AA00440044002C
:10A810004400060144004400440015001A688E6894
:10A82000156A0F6825F48015AB4C1562106A5568DF
:10A8300020F40010D2F854C040EA0650A74E0CEAAB
:10A840000404B24244EA072400F0088106F5806659
:10A85000B24200F003814E6855605465D6651062BF
:10A86000506D0C6940F400605065506D20F48060BC
:10A870005065516D41EA04215165002201211046C5
:10A8800083F83D1083F83C20F0BC70471A68D1F87B
:10A8900008C0156A0F6825F00105914C1562106A11
:10A8A0005668956920F002002C408C4D40EA0C005F
:10A8B000AA4244EA070400F0DD8005F58065AA425B
:10A8C00000F0D8804D6856609461556310629069BD
:10A8D0000C6940F008009061906920F004009061DC
:10A8E000916921439161C8E71A68D1F808C0156AD7
:10A8F0000F6825F010057B4C1562106A5668956943
:10A9000020F020002C40754D40EA0C10AA4244EA89
:10A91000072400F0C38005F58065AA4200F0BE80E0
:10A920004D68566094619563106290690C6940F4BB
:10A9300000609061906920F480609061916941EAC3
:10A940000421916199E71A688E68156A0F6825F4E9
:10A950008055644C1562106A556820F40050D2F896
:10A960001CC040EA06305D4E0CEA0404B24244EAE0
:10A97000072400F08D8006F58066B24200F08880E2
:10A980004E685560D46116641062D0690C6940F459
:10A990000060D061D06920F48060D061D16941EA63
:10A9A0000421D16169E71A68D1F808C0156A0F68F7
:10A9B00025F480754A4C1562106A5668D56920F4F2
:10A9C00000702C40454D40EA0C20AA4244EA07049E
:10A9D00073D005F58065AA426FD04D685660D4618A
:10A9E000D5631062D0690C6940F00800D061D0696D
:10A9F00020F00400D061D1692143D1613DE71A689C
:10AA00008E68156A0F6825F48035374C1562106A18
:10AA1000556820F40030D2F854C040EA06402F4E6A
:10AA20000CEA0404B24244EA07041DD006F580662D
:10AA3000B24219D04E685560546596651062506DEB
:10AA40000C6940F008005065506D20F0040050651E
:10AA5000516D2143516510E70220704725F4802590
:10AA60004E6945EA8625F6E625F480354E6945EAC5
:10AA70000625DFE726F4407C20F008008E69CF68C9
:10AA80004D693843354320F0040045EA0C0619E7C8
:10AA900025F480454E6945EA861571E726F4406C39
:10AAA00020F080008E69CF684D6940EA0710354379
:10AAB00020F040004CEA850632E726F4405C20F4A2
:10AAC00000608E69CF684D6940EA0720354320F465
:10AAD00080604CEA051680E7FF8FFFFE0000014012
:10AAE0008CFFFEFFFF8CFFFE8FFFFEFF064B93F8EF
:10AAF000A42E002AFBD141F6082204499B5801F1FB
:10AB00000D001B68184700BF582C0120FF3A012098
:10AB100003680B4A23F04003904203600DD0094BB9
:10AB200098420AD01022036823F0380313430360CD
:10AB3000036843F04003036070470822F3E700BF57
:10AB400000380040003C00402DE9F0416B4C0023F0
:10AB50004FF4F0722021064604F6181084F81439D8
:10AB60005DF052FD04F6F8204FF4F07220215DF004
:10AB70004BFD94F8D90C10B194F8DA2C1AB90025D1
:10AB80002846BDE8F08141F0DFFC0746C4F8E80C38
:10AB900041F01AFE05460028F1D00FB12323FB80B7
:10ABA0000D21384641F0B6FCD4F8E80C41F030FEF7
:10ABB00094F8DA0C524F013840B243F039F80223CE
:10ABC0002021C4F8E00C84F8DC3C53F015FEB7F803
:10ABD0000E114C4842F06AFFD4F8E80C41F012FE26
:10ABE000FF218C2057F0FCFA8046D4F8E80C41F0A5
:10ABF0000FFED4F8E00CFFF78BFFB8F11B0F05D068
:10AC0000D4F8E80C0025FFF7DDF9B9E70122D4F804
:10AC1000E83C84F814290BB12322DA80B7F80E112E
:10AC2000384842F043FFD4F8E80C41F0EBFD4021F6
:10AC30000A2057F0D5FAFF218A2057F0D1FA0346AF
:10AC4000D4F8E80CC3F3801384F8EC3C41F0E0FD49
:10AC5000D4F8E00CFFF75CFF94F8D83C012B43D00C
:10AC6000022B39D0E3B394F8ED3C182B09D194F8BA
:10AC7000EC2CB7F80E31A4F8F06CA4F8F22CA4F880
:10AC8000F43CB7F80E111F4842F010FFB7F80E1150
:10AC90001C4842F00BFFD4F8E80C41F0B3FD022150
:10ACA000002057F09DFAD4F8E80C41F0B1FDD4F83B
:10ACB000E00CFFF72DFF94F8FD2C94F8FE3CC2F158
:10ACC000200294F8FC1CC3F1100384F8FF2C84F8D4
:10ACD000003D84F8F81C53E71023A7F80E31C2E7B3
:10ACE0002023A7F80E31BEE7002EF5D094F8EC3CF7
:10ACF000002B14BF10232023EFE700BF503D01209D
:10AD0000000001202C4A0120F8B5474E96F8014D6D
:10AD100004EB4403650006EBC30393F8043D032BE7
:10AD200077D8DFE803F0492A1F02254406EBC50562
:10AD3000D5F8083D002B6ED196F8642D944268D06A
:10AD4000013404F003018A4286F8011D61D001EB51
:10AD500041040222184606EBC404C4F8083D84F8F6
:10AD6000042DF8BD2B1906EBC303D3F8082D72B1DF
:10AD7000013A0020C3F8082DF8BD2B1906EBC303D8
:10AD8000D3F8082D002AF3D1022283F8042D25449C
:10AD900006EBC50595F8103D013BDBB285F8103D8B
:10ADA000F3B1224B0120D3F8102102F2E733B3FBB9
:10ADB000F2F3C5F8083DF8BD43F07AF948B31B4AF1
:10ADC00042F20F732C440121D2F8102106EBC40487
:10ADD000134484F8041DB3FBF2F3C4F8083DF8BD36
:10ADE000124B601C0327D5F80C1DD3F810213840F6
:10ADF00096F8644D531E85F8047D001B0B4418BF64
:10AE000001209A42B3FBF2F188BF0020C5F8081D6B
:10AE100030B90120F8BD013B0020C5F8083DF8BD60
:10AE20000139C5F8081DF8BD503D01200000012082
:10AE300003689B0AA3F58013522B00D970470E4A72
:10AE4000134470B593F8EC4284B00D2C12D800294D
:10AE50004FF0000309494FF0010514BF1E460226BA
:10AE6000427901EB84106946CDE90065CDE90233F2
:10AE70000CF002FA04B070BD78880608B84A0120C8
:10AE800033492DE9F84F91F8C5131C4601250746B3
:10AE90000229DFF8C4A0104619464FF00002DFF87F
:10AEA000BC9018BF7F02CAF82C50FDF753F9294A0D
:10AEB000630240F2FF5BC9F824204FF40075C9F823
:10AEC00028304FF48A62D9F82C30012110205E46D8
:10AED00043F09303C9F82C30C9F838B0C9F80850CA
:10AEE0004D46C9F80C2054F07DF8012CC9F838B053
:10AEF0004FF00A048CBF4FF052084FF051084FF04A
:10AF0000000939464046FDF7D7FE013C034640F2B2
:10AF1000774201213720E4B223B91846CAF8283015
:10AF2000BDE8F88FAE63C5F80890EA6054F05AF8AF
:10AF3000AE6303460028F0D0002CE2D10028ECD00C
:10AF400000221846CAF82C20CAF82830BDE8F88F2D
:10AF5000582C012000E1F505601B0120002C014068
:10AF60002DE9F843DFF8748004460F46914698F8BF
:10AF7000A4551E46042D08D0082D02D00020BDE89F
:10AF8000F883FEF7E3F90228F8D101233A46204678
:10AF90000021FFF775FF68B1FEF768FAD8F88C4515
:10AFA000002CEBD00022D8F89035D8F88415104644
:10AFB000A047E3E7084A05230120C8F88075926A94
:10AFC000C8F88445C8F88C95C8F89065C8F89425E9
:10AFD00088F8A435BDE8F883582C0120601B0120B7
:10AFE0002B492DE9F04F91F8C5130124DFF8ACB0DF
:10AFF0000746022983B0CBF830409A4618BF470273
:10B00000012B4FF00A04234D40F2FF568CBF4FF046
:10B0100059084FF058084FF0000900923946404651
:10B02000FDF74AFE013C034640F2774201213720FA
:10B03000E4B2BBB90098514601220193164CFDF7CA
:10B0400089F814494FEA4A220020019B4C628A6227
:10B05000CA6A42F09102CA62CBF82800184603B0CF
:10B06000BDE8F08FAE63C5F80890EA6053F0BAFF10
:10B07000AE6303460028DDD0002CCFD10028D9D004
:10B0800000221846CBF8302003B0BDE8F08F00BF97
:10B09000582C0120002C014000E1F505601B012027
:10B0A0002DE9F84F05460E4690461F46394C94F858
:10B0B000A40504280CD0082807D1D4F89C35AB424D
:10B0C00006D0FEF743F90228F1D00120BDE8F88F41
:10B0D000DFF8C8A0C4F88065DAF8BC93C4F88455DA
:10B0E000C9F34F234FEA59220F2B2BD8D4F8A0B520
:10B0F000BBF1000F26D094F8F11519B3B9F5005F34
:10B1000041D025484FF40072314648445DF00AFAB8
:10B1100009F50072C2F34F23CAF8BC23520A102B60
:10B1200031D0BBF1010F2ED0D4F89C250BF1FF33A9
:10B13000042102200132C4F8A03584F8A415C4F813
:10B140009C25C3E701234FF0010928460625324616
:10B150000021C4F88C85C4F8907584F8889584F82B
:10B16000A455FFF73DFF0028B0D0FEF77FF9D4F8D3
:10B170008C556DB14846D4F89035D4F8841500222A
:10B18000A8470320A2E792B2034E013AAD1ADAE7CC
:10B1900003209BE7601B0120E05C0120582C01206C
:10B1A00070B5194C82B00E46154694F83030022B1B
:10B1B0000FD0012B0AD113460091024694F83510A6
:10B1C00094F9340057F01AFE02B070BD002002B0AE
:10B1D00070BDE36B1BB19A88196812048A6101463D
:10B1E000606B56F00DFF2B4632460021606B56F027
:10B1F0000DFDE36B2BB11A6801209B88936102B0AF
:10B2000070BD0120E0E700BF484E01200378012B0C
:10B2100001D00020704790F90420084902EB420257
:10B2200001EB421292F8C910202901D0184670474C
:10B23000D2F888309869C0F3C0307047484E01207A
:10B240002DE9F04F037883B00446022B00F08C8088
:10B25000012B04D00025284603B0BDE8F08F90F9FB
:10B260000400554E042886F8F431D4BF002501258A
:10B27000B0F1FF3F08BF45F00105002DEAD100EB1A
:10B2800040024FEA400C06EB4212D2F88870002FC1
:10B29000E0D092F8C9E0BEF1200FDBD1BF6917F40E
:10B2A0000047D7D192F8C8E0BEF1010FD2D04FF0DD
:10B2B0004008DFF818E1DFF818B14FF0210A94F8E0
:10B2C0000590DBF89C4C82F8C9A082F8CA8006F58C
:10B2D000FA78C2F8CC70A2F8B230C2F8B4E0B2F892
:10B2E000B2E082F8C8301FFA8EF3DFF8E8E0C2F867
:10B2F000AC80FF2BC2F8BCE059D8B2F8B2E04FF0F6
:10B3000000781FFA8EFE84442C4800944FEA4909C5
:10B3100000EB4C100A4606EB4C1449461430192336
:10B32000A4F8B0E0FFF712FA002836D1D4F888204C
