:020000040800F2
:10000000F0FF00107597060841F2000819D60408A1
:1000100015980608159806081598060800000000AF
:100020000000000000000000000000003DF2000899
:1000300039F200080000000035F20008E59C0408D1
:1000400015980608159806081598060815980608C4
:1000500015980608159806081DE7040849E80408DD
:100060000DE80408D1E7040895E704085D7C06085C
:100070004D7C06083D7C06082D7C0608197C060888
:10008000057C0608F17B06081598060815980608F1
:1000900015980608159806081598060859E70408E3
:1000A000F587040875880408E5870408998804081A
:1000B00069880408598804084988040835860608B0
:1000C0003D86060829860608318606081598060822
:1000D00015980608F5A0040839A004087D9F0408B7
:1000E000E1E60408159806085D090108D5870408AB
:1000F00005880408C587040829880408DD7B0608EC
:1001000015980608DD56060839880408159806086B
:10011000C19E0408059E040849090408350904081D
:10012000C97B0608B57B0608A17B06088D7B0608FF
:10013000797B06081598060815980608159806088C
:10014000159806081598060815980608B9EB0008D2
:10015000657B0608517B06083D7B0608499D04081F
:100160001D860608258606081598060815980608AF
:100170001598060815980608159806081598060893
:08018000159806081598060801
:080188002493060001000000B1
:100190000E020100020000000C5C00206C5C0020DC
:1001A00000000000E809000814020100050000003A
:1001B000383E0020705C002000000000EA090008C2
:1001C0001302010004000000C4240020785C002019
:1001D00000000000F00900080D1001007000000090
:1001E000B05A00207C5C00200000000021FC0308C5
:1001F0000400080080000000F0590020EC5C0020A2
:1002000000000000000000000902010001000000E1
:10021000985900206C5D002000000000F4090008DF
:10022000FD010100240000003C590020705D002009
:1002300000000000936B0408FB01010001000000B6
:10024000F8580020945D002000000000316B050884
:10025000FC01010009000000C4570020985D002047
:1002600000000000396B0508F701010006000000DE
:10027000B8570020A45D002000000000F609000827
:10028000F901010004000000B4570020AC5D00201B
:10029000000000003D6C0408160215003F0000003D
:1002A00058310020B05D002000000000616B05089F
:1002B0003400010010000000A8560020F05D00206E
:1002C000000000008D9902081102010008000000E2
:1002D00080560020005E002000000000FC0900089D
:1002E000121201000400000078560020085E002071
:1002F00000000000040A000818200100320000007D
:10030000445600200C5E00200000000065740508C3
:10031000122001001100000064550020405E002002
:1003200000000000080A0008000201000B000000A5
:10033000A0520020545E002000000000856B0508DC
:10034000FF1101000600000048520020605E0020FE
:1003500000000000216B0508081203000F000000D8
:1003600054520020685E002000000000A56B0508C4
:10037000FA01010003000000404C0020785E0020DC
:10038000000000008D6B05080A80010028000000B5
:10039000084C00207C5E002000000000CD14020804
:1003A000061001001C0000003C310020A45E00206B
:1003B00000000000216C050802020100030000009B
:1003C000B0280020C05E00200000000000000000F7
:1003D0000C0201000400000090280020C45E0020F0
:1003E00000000000956B0508110001000C000000E2
:1003F0005E400020C85E00200000000061F4030899
:10040000FE01010014000000643F0020D45E0020C3
:1004100000000000C16A0508FD0701007600000029
:1004200088B4002000B5002000000000A578010875
:10043000261001000E00000088B5002078B50020CD
:10044000000000001D1C01080B3001001A00000014
:1004500040AF0020C8B50020000000001C0A0008C2
:100460001F300100240000007CAE0020E4B5002015
:1004700000000000380A0008050201000400000026
:100480000CB1002008B60020000000005C0A000843
:10049000030101000A000000C0AE00200CB60020DD
:1004A00000000000B5160108220201001C01000036
:1004B00088CD00201CD00020000000001D7405081D
:1004C0000C200600CC00000004CC002038D1002015
:1004D00000000000B5F20308010201000B0000005B
:1004E000A8CB002004D2002000000000756B050896
:1004F0001B020100100000007CCB002010D2002065
:10050000000000000D6C05081B1001000C0000002D
:100510000CB8002020D2002000000000197F010844
:1005200021020100F00000008CB600202CD2002037
:1005300000000000F1A001082312010010000000DB
:1005400084C800201CD3002000000000600A0008BE
:10055000371001002E000000ECCA00202CD3002030
:1005600000000000700A00081610010006000000DC
:100570007CC800205CD30020000000009E0A000818
:100580001E0001000900000080C7002064D3002085
:1005900000000000A40A0008051001000600000089
:1005A000C4C7002070D3002000000000AE0A00087D
:1005B000F5810100680000001CB6002078D30020FF
:1005C00000000000559101082320010010000000E8
:1005D00004C80020E0D3002000000000E11502085C
:1005E0002F1001002200000054C80020F0D300208A
:1005F00000000000B40A0008F62101000C00000011
:1006000048DF002038E1002000000000D80A000880
:100610001C0202001C000000ECDE002088E100202B
:1006200000000000117205082820010018000000D9
:1006300008DF0020A4E1002000000000CD2E020809
:100640000412010002000000F8E00020BCE10020DC
:1006500000000000E40A00080F0201000100000091
:10066000F4E00020C0E1002000000000E60A0008DD
:100670001400010004000000E4DE0020C4E10020BA
:1006800000000000E80A0008012001000C00000042
:1006900024D70020C8E1002000000000EC0A000878
:1006A0000EF003009E0100000CD50020D4E10020D4
:1006B00000000000D59902081300010004000000AA
:1006C000DCDA002074E3002000000000F80A0008D3
:1006D000010101000400000058D4002078E300204C
:1006E0000000000000000000000101000400000004
:1006F00050D400207CE3002000000000FC0A000829
:1007000002010100030000004CD4002080E300201F
:1007100000000000F1F203081900010005000000CC
:10072000A8ED002070EE002000000000000B000883
:100730001A0001000E00000030ED002078EE0020CD
:1007400000000000060B0008203201000A00000033
:10075000FCEB002088EE002000000000B1990208A8
:10076000150010007000000094E9002094EE0020B5
:1007700000000000000000002A00080060000000E7
:10078000F0ED002004EF0020000000006599020851
:100790002C0004001000000074EF002064EF002023
:1007A000000000003D9702082B001200240000000A
:1007B000A8EF002084EF002000000000119702083D
:1007C000292014007800000034E70020CCEF00203E
:1007D00000000000000000001902010010000000ED
:1007E00068E6002044F0002000000000656B05086A
:1007F00003000100010000000CF4002040F4002080
:100800000000000000000000031201003D00000095
:10081000B4F3002044F4002000000000140B000892
:1008200025201E002C01000018F1002084F4002077
:100830000000000000000000101001000200000095
:10084000ACF00020B0F5002000000000520B0008C2
:10085000F821010006000000F4F00020B4F50020AB
:1008600000000000540B0008020001000C00000012
:1008700050FE0020E4FE0020000000000000000008
:1008800029020100400000009CF80020F0FE00203A
:10089000000000005A0B00080A02010014000000CA
:1008A0000CF8002050FF00200000000081F2030837
:1008B00028020400040000008803012064050120D0
:1008C00000000000096C0508270204000400000075
:1008D000840301206805012000000000FD6B05086D
:1008E0001F02080010000000E00001206C0501203C
:1008F00000000000D96A05081A0201003C0000004F
:10090000A40001207C05012000000000D57405082A
:10091000381001000100000084FF0020B80501200C
:10092000000000009A0B00080B1201003C000000C0
:10093000AC0B012028120120000000009C0B0008D5
:100940000D12010014000000F011012064120120BA
:1009500000000000D80B00080702010002000000A0
:10096000941101207812012000000000EC0B000817
:100970001D02020006000000501101207C1201201F
:100980000000000000000000060203000C00000050
:100990005C110120841B012000000000DD720508AD
:1009A000390001000500000068110120901B0120A2
:1009B00000000000516B0508270001000400000042
:1009C000980C0120981B012000000000EE0B00088D
:1009D0001002010001000000AC570120A8570120BF
:0809E00000000000F20B00080A
:1009E8000000000000FF00000000010000000000FF
:1009F800010000000000000001010101FFFFFFFFEE
:100A080000000001000005533430350000000002EA
:100A180000000000AE014A015E012C0164000200E2
:100A2800000001000A019A01001E0A0000020000ED
:100A380000000000000100000005000001020300A2
:100A4800000000000000000000000000000000009E
:100A58000080070000000000000000000000000007
:100A6800000000000000000020003200C800D0078D
:100A780096001400320028004C044006000550007F
:100A880014000F00080064000100010005000A00BE
:100A98000000F4019600C4090000190000050100D7
:100AA800000000000000200003010000000000001A
:100AB800000000000000000000000000000000002E
:100AC800000000000000000000000000000000001E
:100AD8000000000001000000020200000000000009
:100AE80003000023E8036400040A000114001E0048
:100AF80000204030900100000000280100007E0521
:100B0800EA05B4053200E803D00700000000000041
:100B180000000000000000000000000000000000CD
:100B280000000000000000000000000000000000BD
:100B380000000000000000000000000000000000AD
:100B48000000000000000000010000050101F401A0
:100B58001400000000000000000000000000000079
:100B6800000000000000000000000000000000007D
:100B7800000000000000000000000000000000006D
:100B8800000000000000000000000000000000005D
:100B9800000000000000000000000000000000004D
:100BA800000000000000000000000000000000003D
:100BB800000000000000000000000000000000002D
:100BC800000000000000000000000000010000001C
:100BD800000000000000000000000000000000000D
:0B0BE80000000000003C2003000000A3
:100BF3000403090412010002EF0201408304563288
:100C0300000201020301000012010002020200407F
:100C1300830440570002010203010800FFFFFFFFA6
:100C2300006002401060024000000000000000006D
:100C3300000B0000000000000000000000000000A6
:100C43000060024028600240010000000000000034
:100C5300060C00000000000000000000000000007F
:100C630000600240406002400200000000000000FB
:100C7300100D000000000000000000000000000054
:100C830000600240586002400300000000000000C2
:100C9300160E00000000000000000000000000002D
:100CA3000060024070600240040000000000000089
:100CB300200F000000000000000000000000000002
:100CC3000060024088600240050000000000000050
:100CD30026100000000000000000000000000000DB
:100CE30000600240A0600240060000000000000017
:100CF30030110000000000000000000000000000B0
:100D030000600240B86002400700000000000000DD
:100D1300362F00000000000000000000000000006B
:100D23000064024010640240000000000000000064
:100D33000038000000000000000000000000000078
:100D4300006402402864024001000000000000002B
:100D53000639000000000000000000000000000051
:100D630000640240406402400200000000000000F2
:100D7300103A000000000000000000000000000026
:100D830000640240586402400300000000000000B9
:100D9300163B0000000000000000000000000000FF
:100DA3000064024070640240040000000000000080
:100DB300203C0000000000000000000000000000D4
:100DC3000064024088640240050000000000000047
:100DD30026440000000000000000000000000000A6
:100DE30000640240A064024006000000000000000E
:100DF300304500000000000000000000000000007B
:100E030000640240B86402400700000000000000D4
:100E13003646000000000000000000000000000053
:100E23007D00000015830008118300080D8300086E
:100E330001830008FD820008098300080583000878
:100E4300000000005D910008E5AD0008D5900008A2
:100E530025AF0008359200088583000871830008D8
:100E6300558300086DA70008498A000861940008AB
:100E7300D5940008559500080D970008410F010807
:100E83005D8300084D830008010000000000803FDF
:100E9300D9380108DD3D010855390108DD0F010886
:100EA300C1110108ED0F010809100108B50F010870
:100EB300A50F010800000000000000000902200047
:100EC300010104C0320904000002080650050705A9
:100ED300810240000007050102400000090264008E
:100EE300030100C0320904000001030000000921CE
:100EF300110100012236000705830309000A080BCC
:100F030001020202010009040100010202010005BD
:100F13002400100105240100020424020205240612
:100F23000102070582030800FF09040200020A0008
:100F33000000070501024000000705810240000090
:100F430009024300020100C0320904000001020249
:100F530001000524001001052401000104240202FC
:100F63000524060001070582030800FF09040100A8
:100F7300020A000000070501024000000705810284
:100F830040000000FF00000000FF00000000000020
:100F93000000AA550701000001AA55050100000839
:100FA30068DA0608FF1FFF1F05010905A101A1005B
:100FB3000501093009310932093309350934093684
:100FC30009371581257F75089508810205091901DF
:100FD300290815002501950875018102C0C000008C
:100FE30009022200010100E03209040000010301AB
:100FF30002000921110100012236000705830309BC
:10100300000A0000000000000102030401020304BF
:10101300060708092D202D2D202D2D2D2D202D2DBA
:101023002D2D000000000000000000000000000063
:10103300000000AA550B010000AA5505010000AAF3
:10104300550902000000AA5503009F00010000009B
:10105300C0120000C0B500200000000098B50020B9
:101063000000000001000000048307080C83070848
:101073000000000079F30308A086010004000000CB
:10108300000000000000000000000000000000005D
:10109300000000000000000000000000000000004D
:1010A3000000000000000000048307081483070801
:1010B30000000000ED7D0408E803000004000000C8
:1010C300000000000000000000000000000000001D
:1010D300000000000000000000000000000000000D
:1010E30000000000000000001C830708000000004F
:1010F30000000000B55C03087D000000FF00000055
:1011030000000000000000000000000000000000DC
:1011130000000000000000000000000000000000CC
:101123000000000000000000B008080800000000F4
:1011330000000000657403087D000000FF0000004C
:10114300000000000000000000000000000000009C
:10115300000000000000000000000000000000008C
:101163000000000000000000C09707080000000016
:101173000000000089B803087D000000FF000000A4
:10118300000000000000000000000000000000005C
:10119300000000000000000000000000000000004C
:1011A3000000000000000000248307080000000086
:1011B300000000001D740408E803000003000000A1
:1011C300000000000000000000000000000000001C
:1011D300000000000000000000000000000000000C
:1011E3000000000000000000288307080000000042
:1011F300000000007D270308102700000300000003
:1012030000000000000000000000000000000000DB
:1012130000000000000000000000000000000000CB
:101223000000000000000000C404080800000000E3
:101233001D930208CDD604085F7600000500000068
:10124300000000000000000000000000000000009B
:10125300000000000000000000000000000000008B
:10126300000000000000000054080808000000000F
:10127300000000008DF404081027000001000000A6
:10128300000000000000000000000000000000005B
:10129300000000000000000000000000000000004B
:1012A3000000000000000000348307080000000075
:1012B3000000000065680408E80300000500000062
:1012C300000000000000000000000000000000001B
:1012D300000000000000000000000000000000000B
:1012E3000000000000000000408307080000000029
:1012F3000000000089FA0308204E000003000000EC
:1013030000000000000000000000000000000000DA
:1013130000000000000000000000000000000000CA
:1013230000000000000000005083070800000000D8
:101333000000000071F80308204E000003000000C5
:10134300000000000000000000000000000000009A
:10135300000000000000000000000000000000008A
:101363000000000000000000608307080000000088
:1013730000000000317A0408400D03000300000060
:10138300000000000000000000000000000000005A
:10139300000000000000000000000000000000004A
:1013A3000000000000000000708307080000000038
:1013B30000000000ED3004081027000001000000C9
:1013C300000000000000000000000000000000001A
:1013D300000000000000000000000000000000000A
:1013E30000000000000000007883070800000000F0
:1013F3000000000089AD0108102700000300000071
:1014030000000000000000000000000000000000D9
:1014130000000000000000000000000000000000C9
:1014230000000000000000007C83070800000000AB
:1014330000000000796A0208A08601000100000094
:101443000000000000000000000000000000000099
:101453000000000000000000000000000000000089
:101463000000000000000000848307080000000063
:1014730000000000A572040850C300000100000032
:101483000000000000000000000000000000000059
:101493000000000000000000000000000000000049
:1014A30000000000000000008C830708000000001B
:1014B3000000000075700408A08601000000000011
:1014C3000000000000000000000000000000000019
:1014D3000000000000000000000000000000000009
:1014E30000000000000000009883070800000000CF
:1014F300000000005D6C0408A8610000010000000A
:1015030000000000000000000000000000000000D8
:1015130000000000000000000000000000000000C8
:101523000000000000000000A48307080000000082
:101533000000000079070208A086010001000000F6
:101543000000000000000000000000000000000098
:101553000000000000000000000000000000000088
:101563000000000000000000B08307080000000036
:10157300000000009DA50408A00F0000010000006A
:101583000000000000000000000000000000000058
:101593000000000000000000000000000000000048
:1015A3000000000000000000BC83070800000000EA
:1015B300000000007502020810270000010000006F
:1015C3000000000000000000000000000000000018
:1015D3000000000000000000000000000000000008
:1015E3000000000000000000C8830708000000009E
:1015F30000000000B1F30308A00F00000100000089
:1016030000000000000000000000000000000000D7
:1016130000000000000000000000000000000000C7
:101623000000000000000000D48307080000000051
:1016330000000000C5DC01081A41000001000000A1
:101643000000000000000000000000000000000097
:101653000000000000000000000000000000000087
:101663000000000000000000D8830708000000000D
:1016730000000000ED160108102700000100000023
:101683000000000000000000000000000000000057
:101693000000000000000000000000000000000047
:1016A3000000000000000000E483070800000000C1
:1016B300000000008145020850C300000100000043
:1016C3000000000000000000000000000000000017
:1016D3000000000000000000000000000000000007
:1016E3000000000000000000E8830708000000007D
:1016F3000000000035200108400D03000000000039
:1017030000000000000000000000000000000000D6
:1017130000000000000000000000000000000000C6
:101723000000000000000000F08307080000000034
:101733000000000081F40308400D030000000000D6
:101743000000000000000000000000000000000096
:101753000000000000000000000000000000000086
:101763000000000000000000F883070800000000EC
:10177300000000004DEB010850C30000030000000F
:101783000000000000000000000000000000000056
:101793000000000000000000000000000000000046
:1017A300000000000000000004840708000000009F
:1017B30000000000C10D040840420F0000000000BB
:1017C3000000000000000000000000000000000016
:1017D3000000000000000000000000000000000006
:1017E3000000000000000000108407080000000053
:1017F3000000000045FF030850C300000000000084
:1018030000000000000000000000000000000000D5
:1018130000000000000000000000000000000000C5
:1018230000000000000000000100000000000100B3
:10183300E0010000FFFFFFFF01007EFFFFFFFFFF4E
:101843000800000042570200000001064257020050
:101853000000010601FFFF00FFFFFFFF0101010080
:10186300E50A02080000000000000000A0E40608EA
:10187300CCD8002020D90020FD230208252202080D
:1018830000000000ECFC0608F9F901080000000064
:101893000000000050FC06089D2402080000000020
:1018A3000000000008FC0608000000000000000023
:1018B30000000000B8FA0608000000000000000065
:1018C3000000000070FB060800000000000000009C
:1018D300000000001CFB06080000000000000000E0
:1018E30001210208A1DA0020FF2D202D2D202D2D0E
:1018F3002D2D202D2D2D00000000000000000000E4
:101903000000000000000000FFFFFFFF8D2702081A
:10191300000000000000000048FA06080100000073
:10192300FA000000010000000100000001000000B7
:1019330000010101000000001ED700200000F40197
:10194300010000001CD700200000F401010000008A
:101953001AD700200000F4010100000018D700206E
:101963000000F4010100000016D700200000F4017C
:101973000100000014D700200000F4010100000062
:1019830012D700200000F401010000001D1302081B
:10199300E112020800000000C8E6060802D7002092
:1019A3000532010010D700206400F401010000009B
:1019B3000ED700206400C4090100000000D70020F6
:1019C300E803D00701000000FED60020E803D0079B
:1019D30001000000FCD60020E803D007010000004E
:1019E300FAD600201E00B80B0100000008D7002023
:1019F30005000F00010000000AD7002003000A00C1
:101A030001000000F8D600201E00F40101000000D0
:101A13000CD700200200000054E70608F6D6002089
:101A2300140064000100000004D700203200E80322
:101A330001000000F4D600200000C80001000000EF
:101A4300CDD6002000C80100CCD6002000500100F4
:101A5300CBD60020005A0100C9D6002002000000A6
:101A630060E70608088F0708108F0708465B002009
:101A73000100C40900000000445B00200100C40908
:101A830000000000425B00200100C40900000000C8
:101A9300405B00200100C409000000003C5B002003
:101AA3000100C409000000003E5B00200100C409DE
:101AB300000000003A5B00200100C40900000000A0
:101AC300385B00200100C4090000000077D4002027
:101AD30000C8010076D4002000C8010074D400209F
:101AE3000000FFFF0A00000072D400200100C800BC
:101AF3000100000070D40020320030753200000075
:101B03006ED400207EFF1400050000006CD400207A
:101B130005002C01050000006AD40020055A0500C9
:101B230067D4002000FF010069D4002002000000F8
:101B3300FC0F002065D400200300000088DC0608A9
:101B430066D4002000FF010068D4002002000000DA
:101B5300FC0F002064D400200300000088DC06088A
:101B63007112020801120208000000006CE7060867
:101B730034D70020EE02CA080100000032D700204B
:101B830000C801006400000031D7002000C8010034
:101B93006400000030D700200200000078E8060847
:101BA3005ED400200000803E050000005CD40020CD
:101BB30080C1803E0500000056D400200083007DD4
:101BC3000500000054D4002080C1803E05000000C1
:101BD3004FD4002000FF01004AD400206400F40128
:101BE3000100000048D400200400000084E8060837
:101BF30047D400200200000098E80608FDD4002026
:101C03000D000000A4E80608FAD4002000640100D7
:101C1300F8D40020320010270A000000F6D4002078
:101C23000D000000A4E80608F5D400200D00000014
:101C3300A4E80608F4D4002002000000DCE806084B
:101C4300000000000000000000000000E8E80608B3
:101C53003AD700203E00000020E9060838D70020CC
:101C63000100FF7F0100000037D7002002000000C1
:101C73001CEA0608FFD40020030000002CEA060833
:101C8300FED40020030000002CEA0608BAD6002088
:101C9300000A0100B8D600200000E803010000009C
:101CA300B6D600200000E80301000000B4D60020EF
:101CB3000000E80301000000B2D600200000E803A2
:101CC30001000000AAD600200000E8030100000084
:101CD300B0D600200000E80301000000AED60020CB
:101CE3000000E80301000000ACD60020001401004E
:101CF300C8D60020020000003CEA0608C6D6002031
:101D03000000F40101000000C4D600200000F4012B
:101D130001000000C2D600200000F4010100000011
:101D2300C0D600200000F40101000000BED6002050
:101D33000000A00F01000000BCD600200000A00F8F
:101D430001000000E1D6002019640100E0D6002064
:101D53000200000048EA0608DED60020E803D007A8
:101D63000A000000DCD60020006401000A00000025
:101D7300D1D6002000640100D0D600200064010009
:101D8300D8D60020006401000A000000D7D6002046
:101D9300006401000A000000D6D6002000640100A0
:101DA3000A000000DBD6002000FF01000A0000004B
:101DB300DAD6002000FF01000A000000D9D6002077
:101DC30000FF01000A000000D5D6002001FF01003A
:101DD3000A000000D4D6002001FF01000A00000021
:101DE300D3D6002001FF01000A00000008D500201F
:101DF3000000F4010100000006D500200000A00F40
:101E03000100000004D500200000A00F0100000025
:101E130002D500200000A00F0100000000D5002023
:101E23000000A00F01000000F1DA002000C801004B
:101E3300F0DA002000640100EFDA00200064010002
:101E4300EEDA002000640100EDDA002000640100F6
:101E5300ECDA0020FF080100EBDA00200164010046
:101E6300691102082D1102080000000054EA060857
:101E7300F4DA002001320100F3DA0020010000004F
:101E8300C4EA0608F2DA002004000000CCEA0608DF
:101E9300EADA002000640100E8DA00201400E80315
:101EA30001000000E6DA0020E80330750A000000B4
:101EB300E4DA002000C80100E3DA002000C80100D2
:101EC300E2DA002000C80100E1DA0020003201005C
:101ED300F6DA0020004B0100F5DA002004000000D0
:101EE300E0EA0608E0DA0020006401000A000000CE
:101EF30004DB00200000D00701000000FFDA00200F
:101F030000C80100FEDA002000C80100FDDA00204D
:101F130000C8010002DB00200000D0070100000020
:101F2300FCDA002000C80100FBDA002000C8010031
:101F3300FADA002000C8010000DB00200000D0070F
:101F430001000000F9DA002000C80100F8DA0020DF
:101F530000C80100F7DA002000C80100210F0208C1
:101F6300090F020800000000F4EA0608F1D400207B
:101F7300005A0100F0D4002000C80100EED4002074
:101F8300E803D0070100000000000000000000008B
:101F93004121020890EB060853544D333246343046
:101FA3003500000063D400200003010062D4002048
:101FB30000030100450E0208F90D020800000000AD
:101FC300E4EB0608B90D0208710D020800000000D9
:101FD30080EC0608910E0208712702080000000039
:101FE30000ED060860D4002001030100F913020884
:101FF300CD1302080000000058F00608FD0C02088B
:10200300B90C020800000000C8F00608310F0208EE
:10201300C52802080000000064F106088D2C0208A0
:1020230025140208000000000CF20608810F0208C4
:10203300000000000000000098F206085D1002088E
:102043000510020800000000FCF20608F110020867
:10205300B510020800000000A4F3060879870208FF
:10206300A51102080000000030F40608F3D6002092
:1020730001060100C90F0208950F020800000000C5
:102083002CF50608AD86020891290208000000001D
:102093009CF50608C1870208592A020800000000BF
:1020A300ECF60608F2D6002001030100D90E02085F
:1020B300A90E020800000000C0F7060819880208EC
:1020C300000000000000000024F80608410D02088B
:1020D3005927020800000000A4F8060800000000C9
:1020E300000000000000000030F90608D9110208C2
:1020F300D12A020800000000A0F906080000000031
:102103000000000000000000B8FB0608B8B0002083
:102113009CFF2C0100000000FCDB0020E0150C17E5
:1021230000000000B0CF002002000000F0FB060812
:1021330043D4002002000000FCFB06083ED400202C
:1021430088136F170100000040D4002088136F1715
:10215300000000008A5B0020000000000000000077
:10216300885B00200000000000000000865B002068
:102173000000000000000000845B0020000000005D
:1021830000000000825B002000000000000000004F
:10219300805B00200000000000000000E805002034
:1021A300000000000000000014D400200300000021
:1021B30050FD06083CD4002088136F17010000006F
:1021C30002B1002088136F17000000009D0B020866
:1021D300000000000000000060FD0608E5D90020B3
:1021E30001000000B4FD060804B100200100000056
:1021F300C0FD0608FAB0002002000000C8FD060872
:10220300000000000000000000000000D4FD0608EC
:10221300890B0208000000000000000070FE0608A1
:10222300000000000000000000000000C4FE0608DB
:1022330000000000000000000000000034FF06085A
:1022430042D40020020000006CFF0608FEB000200C
:10225300E0150C1700000000D6010101FFFFFFFF8E
:102263000000803F000000000000000000000000AC
:10227300000000000000000000000000000000005B
:1022830000000000000000000000803F000000008C
:1022930000000000000000000000803F000000007C
:1022A30000000000000000000000803F000000006C
:1022B3000000000000000000010000000000FA43DD
:1022C3000000FA430000803FFD32040800000000D4
:1022D3000000000000000000FFFFFFFFFF00000000
:1022E3000000000040FF0020080000000000000084
:1022F30030FF00200800000031380108D110010828
:10230300C937010800000000A10F0108B14001080E
:1023130019370108653301080000000000000000C0
:10232300610F0108258300081983000861900008E4
:102333007D90000845900008299000080D90000842
:10234300E9370108AD1001081D370108000000003E
:10235300790F010869330108ED360108C532010818
:1023630000000000000000006D0F0108685E0C0013
:10237300FFFFFFFF02010000A00F0000B80B0000E9
:1023830002FFFF01FFFF0000B80408080000080275
:102393000503030000000000C00408080100080250
:1023A3000504030000000000C4AC07080200FE019E
:1023B30001100300000000007092070803001402DC
:1023C3000003000000000000C804080804001F0206
:1023D3000200080000000000D004080805001F02E6
:1023E3000201080000000000FFFFFFFF1A030000C6
:1023F30000000000000000000000000000000000DA
:1024030000000000000000000403090412010002A0
:1024130000000040830420570002010203010B0067
:10242300417B0508157B0508B97A0508D56C0508B5
:10243300D57A0508797A0508D16C0508D41A0020E5
:10244300317C0508517C0508217C0508B56C05081D
:10245300DD7B0508957B0508A56C0508B01A0020EF
:1024630051750508BD6C0508B96C0508B16C050804
:102473009D750508AD6C0508A96C05084853070848
:102483004D4001088D1001082D3F01080000000098
:1024930000000000C5360108D53501080000000022
:1024A3000000000000000000550F01085D6D0508E5
:1024B300516D0508A17C0508BD7C0508096D05085B
:1024C300857C0508697C0508FFFFFFFF1F000000EE
:1024D3001C0000001F0000001E0000001F00000081
:1024E3001E0000001F0000001F0000001E0000006F
:1024F3001F0000001E0000001F0000000068214CA8
:10250300E85C0708F81A002001250000F0510708CD
:102513000100000050C30000008002021F00000001
:1025230053544D202020202050726F647574202056
:102533002020202020202020302E30310080020255
:102543001F00000053544D202020202050726F6440
:10255300757420202020202020202020302E303190
:10256300B3160108AF160108A71601089114010854
:102573009D1F0108C91F0108F91E01089D160108C6
:102583008D1601087D1601086D16010889140108CE
:10259300010101FF01000000F4010000FF00000041
:1025A3000000040100000000000000021000000011
:1025B3000700000000000000000000000102030407
:1025C3000607080901000000641B0020000000004A
:1025D30000000000000000000000000000000000F8
:1025E30000000000000000000000000000000000E8
:1025F30000000000000000000000000000000000D8
:1026030000000000000000000000000000000000C7
:1026130000000000000000000000000000000000B7
:0C262300000000000000000000000000AB
:0828000000C00F0800001008E1
:10800000F0B401292A4C2B4D23684FF0000694BF91
:1080100000270127EE626662A6626763676B47EA24
:1080200042076763EE63EC6B002A38D144F4957421
:10803000EC631C6824F001041C601C68E407FCD499
:10804000490289085960D8601968EAB921F04001ED
:10805000196019498B421DD018494FF47410C8603B
:10806000196841F01E011960596941F08001596198
:10807000196841F00101196022B90E4AD36A43F030
:108080000803D362F0BC704741F0400119600A490F
:108090008B42E1D14FF0746041F8500CE0E744F0BE
:1080A0001A04EC63EC6A44F00804EC62C1E700BF18
:1080B000C81B0020002C01405864024000640240AC
:1080C0001148002302461178032902F1060216D056
:1080D0000133062BF7D10D4AD36D052B0ED0591C59
:1080E00003EB4303D16500EB4303032040F2EB3184
:1080F00040F2FF32187059809A807047704703EB46
:10810000430300EB4303F0E7001C0020C81B0020E2
:1081100070B4C3080D4CE25C00F00706B24004EBFB
:10812000D004D2B20020C6F108038B4228BF0B4610
:10813000C3F108052A419840C91A40EA02004FF0ED
:10814000000614F8012FEED170BC7047681C0020A7
:10815000084AD2E9343199420AD0D118013391F852
:10816000D8100170C3F30A03C2F8D0300120704761
:1081700000207047C81B0020064AD2F8D838D2F831
:10818000DC28934294BF4FF400600020013B9B1A0F
:1081900018447047C81B0020012380F851307047F5
:1081A00007B501A8FFF7D4FF0028FAD09DF8040016
:1081B00003B05DF804FB044BD3E93403984288BF55
:1081C00003F50063181A7047C81B00200120704790
:1081D000024BC3F8E028C3F8E4187047C81B00201E
:1081E000024BC3F8E828C3F8EC187047C81B0020FE
:1081F0007047704730B4134DD5E934239A4286BF97
:1082000003F50064A21A9A1A0A44B2F5006F13D853
:10821000A9B101444A1E013810F8014FE918824201
:1082200003F1010381F8D840C3F30A03F4D1C5F880
:10823000D430002030BC7047022030BC7047084664
:10824000F8E700BFC81B0020212838B50C4605D030
:1082500022282ED0202813D0002038BD0029FBD0A2
:10826000072AF9D11A4BD3F8F00893F8F41893F8C9
:10827000F52893F8F638206021716271A371EBE75D
:108280000029E9D0072AE7D1114DD5F8E4381BB110
:108290000968D5F8E0089847206821796279A379C0
:1082A000C5F8F00885F8F41885F8F52885F8F6384B
:1082B000D2E70029D0D0022ACED1054AD2F8EC3834
:1082C000002BC9D00988D2F8E8089847C4E700BF56
:1082D000C81B0020024B0020C3F8F808704700BFFD
:1082E000C81B0020044B00200522C3F8F828C3F85F
:1082F000EC08C3F8E4087047C81B0020704700BFB3
:10830000704700BF704700BF704700BF704700BF95
:10831000704700BF704700BF042301480B807047BF
:108320008801002010B4074A074B92F8FC08122479
:1083300003F114020C8001280CBF184610465DF8AA
:10834000044B7047C81B00208C0100200048704778
:10835000501C002000487047501C0020034B93F82D
:108360008400032894BF002001207047C81B002010
:10837000034B93F88400032894BF0020012070472A
:10838000C81B0020034B93F88400003818BF01205D
:10839000704700BFC81B0020A0B182680D4B12B10E
:1083A00007229A7070471978DA6003294FF00400A9
:1083B0000CBF80214FF48071C3E901111A611A7555
:1083C00098707047034B41F2E47101225A545A707D
:1083D000704700BFE88E00200378022B10D00069A0
:1083E00008B9012070470C4B1B78032B0EBF0B4BB9
:1083F00080B24FF6F773984294BF00200120704777
:108400000549436841F650028A58B3EB422F2CBF0E
:1084100001200020704700BFE88E0020F7FFFF0F0B
:108420000378022B14D030B4104A4368006941F637
:10843000480402F5C2511559096841F63C042B4025
:1084400012595B0A023801FB0030104430BC7047FF
:10845000064B426841F6340141F63000595818582D
:1084600000EB410000EB5220704700BFE88E002077
:108470000E4B70B5D3F8BC4041F064FBA3890546B0
:1084800042F20F7623899B0705D52046FF21BDE8E0
:1084900070405FF0EBBB41F055FB401BB042F1DD9B
:1084A000204646F001FCC0B270BD00BFC81B0020D2
:1084B00070B505460E460924FFF7DAFFFF2803D101
:1084C000013CF9D1012070BDFE2801D0022070BD11
:1084D000064933462A46D1F8BC0000215FF010FC63
:1084E000FFF7C6FFFFF7C4FF002070BDC81B0020C8
:1084F0002DE9F04383B040F040060C0E05460A0A11
:10850000080C95238DF801408DF804108DF800605B
:108510008DF802008DF803208DF805300824FFF750
:10852000A7FFFF2802D0013CF9D125BB1E4BD3F891
:10853000BC40A3890627E84642F20F76B8F1000F47
:1085400030D018F8015B41F0FDFA814623899A0783
:1085500015D5ADB2A58141F0F5FA05462389DB07B3
:1085600017D5013FA389E9D10924FFF781FFFF282F
:1085700002D1013CF9D1FF2003B0BDE8F08341F006
:10858000E1FAA0EB0900B042E0DD204646F08CFBAA
:10859000EAE741F0D7FA401BB042DFDD204646F063
:1085A00083FBE1E7FF25CEE7C81B0020F8B5194F94
:1085B0000023C7F88030FFF75BFFD7F8BC4041F0DD
:1085C000C1FAA389054642F20F7623899B0710D58D
:1085D0002046FD215FF04AFBFFF74AFFFF2811D13B
:1085E000FFF746FFFF280DD10423022087F88430CF
:1085F000F8BD41F0A7FA401BB042E6DD204646F048
:1086000053FBE9E7D7F800397B670923002087F897
:108610008430F8BDC81B00202DE9F041684C0023D0
:108620004FF4F0722021064604F6081084F804394D
:1086300064F015FC04F6E8204FF4F072202164F099
:108640000EFC94F8C90C10B194F8CA2C1AB9002584
:108650002846BDE8F08144F0C1FC0746C4F8D40CBC
:1086600044F090FF05460028F1D00FB12323FB8092
:108670000921384640F044FDD4F8D40C514F44F061
:10868000A3FF94F8CA0C013840B246F04FFC022315
:10869000102184F8CC3CC4F8D00C5FF0FFFA798D3F
:1086A000494846F0B7FAD4F8D40C44F087FFFF21CC
:1086B0008C2059F0E1FE8046D4F8D40C44F084FFBD
:1086C000D4F8D00C04215FF0E9FAB8F11B0F05D003
:1086D000D4F8D40C202140F013FDB8E7D4F8D43CF2
:1086E000012284F804290BB12322DA80798D3648DF
:1086F00046F090FAD4F8D40C44F060FF40210A20F0
:1087000059F0BAFEFF218A2059F0B6FEC0F380135B
:10871000D4F8D40C84F8D83C44F056FFD4F8D00CEC
:1087200004215FF0BBFA94F8C83C012B3FD0022B28
:1087300037D0CBB394F8D93C182B08D194F8D82C67
:108740007B8DA4F8DC6CA4F8DE2CA4F8E03C798DD9
:108750001D4846F05FFA798D1B4846F05BFAD4F865
:10876000D40C44F02BFF0221002059F085FED4F8F0
:10877000D40C44F029FF0421D4F8D00C5FF08EFA19
:1087800094F8E92C94F8EA3C94F8E81C84F8E41C8A
:10879000C2F12002C3F1100384F8EB2C84F8EC3C06
:1087A00056E708237B85C5E710237B85C2E7002EAB
:1087B000F7D094F8D83C002B14BF08231023F1E71E
:1087C000C81B002088010020942800202DE9F84FC4
:1087D000564B984210D003F568530833984267D03F
:1087E000534B0020A3F8480DA3F8540DC3F84C0DCB
:1087F000C3F8500DBDE8F88F4D4C4E4E02224FF09D
:10880000000BC4F8F02C04F6F445D9464FF4007A76
:108810004FF48078F26A01275A455946BB4403D089
:10882000D4F8640D52F07EFA94F8682D85F824206F
:10883000D4F8640DA5F804A04FF000724FF4803115
:10884000A960EA60A5F8108085F81290A5F8068066
:108850002F762862B72152F05BFCD4F8F02C364B0F
:108860006F76934545F8283BD4DB84F8569DD4F8C1
:10887000F01CB4F8F82CD4F8003DD4F8FC0CB4F893
:10888000045DC4F86C3D12FB01F203FB01F3A4F894
:10889000482DB4F8FA1C294AC4F84C0DC4F8503DD0
:1088A000A4F8545DA4F84A1DC4F8442D0120A1E7A2
:1088B0001F4C204E0223C4F8F03C04F6F4454FF060
:1088C000000B4FF4806A4FF040094FF40068F26AE1
:1088D00001275A455946BB4403D0D4F8640D52F0E1
:1088E00021FAD4F8641D94F8682D296285F82420B3
:1088F0004FF400314FF00062C5E90212A5F804A060
:10890000A5F81090A5F80680AF74FFF7D9FB2846AC
:108910006F7652F04FFBD4F8F02C094B45F8283B0A
:108920009345D4DB84F8567DA1E700BF1971EF00B1
:10893000C81B00208801002000CF060858CF060879
:108940002CCF0608F8B51A4C94F8703D002BFBD1DB
:1089500059B301444E1E451ED4F8DC28D4F8D8186B
:1089600015F8017F531CC3F30A038B422CBF4FF44D
:1089700000600020C91A22440144012982F8747D54
:10898000C4F8DC380FD1012041F008F9D4F8D83808
:10899000D4F8DC188B4294BF4FF4006200225B1ABB
:1089A0001344012BEFD0B542D6D10020F8BD00BF53
:1089B000C81B002010B5094CD4F8F83808461146F9
:1089C0005BB1D4F8F838052B07D1002AD4F8003968
:1089D00003DDFFF7B7FFD4F8003910BDC81B002036
:1089E00010B590F85010002380F8503081B10B4C36
:1089F000D4F8F82872B1D4F8F828052A0CD13C3004
:108A0000D4F80039FFF79EFFD4F80039012010BDDB
:108A10000120FCE71046FAE71846F8E7C81B0020DB
:108A2000002280F85120DBE790F85020531C0244CC
:108A3000DBB280F8503082F83C1090F851200AB137
:108A4000132B00D9CCE770472DE9F8434379534DF8
:108A5000002B14BF0122002285F8B02003D185F835
:108A60008430BDE8F88390F8018008F1FF3676B2D3
:108A7000044630460F4646F059FA0223C5F8BC00BA
:108A800085F8B8302378002B63D1E478002C54D1DA
:108A90004FF48071D5F8BC00C5F8C0405FF0FEF817
:108AA0004FF47A7041F07AF8D5F8C00044F08CFDAC
:108AB000D5F8BC404FF00A08A38942F20F764FF078
:108AC000FF090BE0A4F80C9041F03CF8074623891D
:108AD000D9072CD5B8F10108A3890DD041F032F89F
:108AE000074623899807EDD441F02CF8C01BB0420B
:108AF000F7DD204646F0D8F8D5F8BC10284B0A8997
:108B000092070AD50A8912F0800206D1D5F8001919
:108B100085F8782001236967A1E7013BEFD195F83B
:108B2000782085F88430531C85F8783099E741F037
:108B300009F8C01BB042CADDDBE7204644F04EFA1C
:108B4000044608B11E23C3800921204640F0D8FA0C
:108B50009EE706EB86063E44414696F90320002038
:108B600041F0AEFC064630B140685DF0B9FCB36838
:108B700085F8CE3018B9002385F8C43085E7094A56
:108B8000431E02EB431317210022C5F8C8305DF0E5
:108B9000B9FC012385F8C43077E700BFC81B00206B
:108BA000A1860100B80100202DE9F04FCF4DDFF87C
:108BB0007083DFF8789384460F4616460FCD4446FF
:108BC0002DED068B0FC40FCD0FC495E807008BB0B9
:108BD00099F87E34029684E80700CDE906C7042B95
:108BE00000F25C81DFE813F0BD015A015501050078
:108BF000CD019FEDBF8ADFEDBF8ABF49C8F81C10C9
:108C0000BE49BF4BBF4AC8F818100299002918BFC7
:108C1000134638EE887AF5EE006A86EE87AAC8F821
:108C20002430B94FB94B03930026DFEDB97A9FED9D
:108C3000B99A28EE278AF0EE679A079BB34200F0B4
:108C40002281039B13F8014B039306F1010B5FFA9A
:108C50008BF2002C00F09881DFF8D4C2002303E0EF
:108C60000133152B00F0908103EB43015D001CF8EC
:108C70000100A042F4D14944049291F899140029CA
:108C800000F08A81204640F011F80368059382467F
:108C900018463FF0F7FF9AF8051040F027F890F8D3
:108CA00000C0BCF1000F40F06F8109EB0500250901
:108CB000013D049A80F8D9240321052D80F8D814A9
:108CC000059B04F00F0000F23781934C04EB450C38
:108CD000BCF8B0C04CFA00FE1EF0010E00F03E8160
:108CE000012303FA00F0013800EA0C002544049245
:108CF00060F0C8FB95F8BC50DFF838C2049A2844ED
:108D00000CEBC0050321A971EA715CF830007D61AC
:108D100000F13F4101F57E0104EB9124012394F819
:108D2000C4109AF8082001F01F044909032903FA26
:108D300004F300F00E81042900F00681022900F0FE
:108D4000FE80AB880893B3FA83F3C3F11F03C3F328
:108D5000CC0100EB810103F007030C6A9B000F2597
:108D60009D4024EA05040C620C6A02FA03F32343D3
:108D70000B62022308A909930BF0E2FCDAF8003039
:108D8000029A002A00F0A280B9F87C2400EE102A92
:108D9000B8EEC00AFCEEC07A17EE901A5F4A934212
:108DA00000F08180A2F5806293427CD002F580427F
:108DB000934278D002F58062934274D002F58062CB
:108DC000934270D0D9F8042850084FF6FF73B0FBD7
:108DD000F1F21A44120CB0FBF2F20298002865D0AE
:108DE000B2FBF1F199F87E0404288BB263D007EE50
:108DF000902AF8EE676A66EE887A29EE677A99F823
:108E00007F0406990091A6EEA87A01905146384653
:108E1000C7ED027A87ED037A37F07EFA002E60DD27
:108E20007B68D8F8382093425DD0012E59D0D8F80D
:108E30005020934257D0022E53D0D8F86820934246
:108E400051D0032E4DD0D8F8802093424BD0042E21
:108E500047D0D8F89820934245D0052E41D0D8F875
:108E6000B02093423FD0062E3BD0D8F8C820D31A6A
:108E700018BF01235E460122082E3B747A7407F165
:108E800018077FF4DAAE26480BB0BDEC068BBDE8C0
:108E9000F08F9FED248AF0EE488AAEE69FED228A9D
:108EA000F0EE488AA9E6D9F804088EE799F87E041E
:108EB000042819469BD107EE901A07EE102AF8EE07
:108EC000677AF8EE476A67EEA97A96E7B0EE4A0A43
:108ED000049361F019FCFCEEC07A049B17EE901A23
:108EE0005CE70123C6E70023C4E700BF84CF060880
:108EF000ACC5A737ACC5A73645F80308296C0408EC
:108F00005DEE03081D6C040848000010433100208A
:108F10006F12833A00007A4400CF06080004014033
:108F200014000010282930386F120339C02C00209B
:108F300058310020C4310020C7F814C020E7174979
:108F40004C6C23434B64FCE614490C6B23430B63CA
:108F5000F7E612490C6C23430B64F2E6C7F814E001
:108F60000EE79FED0F8A0F4BC8F8183000230E4A0A
:108F7000069301230293C8F81C200C4BF0EE488A9C
:108F800047E69FED0B8AEEE70A4A084BC8F81C201B
:108F9000C8F82430002077E70B68FFDE0038024075
:108FA0006F12833A296C040845F803081D6C040805
:108FB0000000000055F10308F8B5114ED6F804483A
:108FC000054600680F4664080BF0BEFAB4FBF7F1E3
:108FD000B1F5803F03D3012CFAD96408F6E72246A5
:108FE000284689B23FF0E0FC41F26C03054AF2509A
:108FF00028460549BDE8F84000223FF055BC00BFB7
:10900000C02C00209DFD01082C3D002010B5044C13
:1090100004480A4621460AF0D9F8204610BD00BF90
:10902000343D00201C82070810B5044C04480A4651
:1090300021460AF0CBF8204610BD00BF343D002089
:109040002C82070810B5044C04480A4621460AF051
:10905000BDF8204610BD00BF343D0020388207080F
:1090600010B5044C04480A4621460AF0AFF82046E1
:1090700010BD00BF343D00204482070810B5044CE9
:1090800004480A4621460AF0A1F8204610BD00BF58
:10909000343D00205082070810B50C4C94F8CD20C8
:1090A0000023C4F880300AB1094AD3675CF076FB2C
:1090B00020B10423022084F8843010BDD4F8003994
:1090C0006367092384F8843010BD00BFC81B0020EB
:1090D000B83D002070B50D4D95F88430042B044642
:1090E0000E460AD0082B06D1EB6F83420CD0FFF757
:1090F000D3FF022801D0012070BD0823C5E91F4617
:1091000085F88430022070BD022070BDC81B00208D
:1091100010B50AF02FF8104C58B194F88430032B96
:1091200012D894F878300133DBB2072B84F878300A
:1091300003D9002384F8843010BDD4F80039636764
:10914000012384F8843010BDD4F8BC004FF4807142
:109150005EF0A4FDE5E700BFC81B002070B54379B1
:10916000234C002B14BF0123002384F8B03003D11B
:10917000002384F8843070BD1E4D002195F98320B2
:10918000032041F09DF90028F2D0466830465DF09A
:10919000A7F984F8CC000028EAD095F88130003B8C
:1091A00018BF0123304684F8CD305DF079FA09F01C
:1091B000E1FF38B994F8783084F88400013384F8FA
:1091C000783070BD5CF0D4FB40B194F87830002268
:1091D000013384F8783084F8842070BDD4F80029F5
:1091E00084F878000123626784F8843070BD00BF82
:1091F000C81B0020B83D002010B55CF0B9FB58B189
:109200000B4C94F878300133DBB2072B84F87830BC
:1092100003D9002384F8843010BD09F0ABFF002887
:10922000F7D0D4F800396367012384F8843010BD87
:10923000C81B00202DE9F041874C94F8B050002D58
:1092400000F0F78094F88420844F0226531E082BE8
:1092500040D8DFE803F036389D3F674F153F0500E3
:109260005CF09CFA002840F0EB80636FD4F8002992
:10927000FA3393422BD2FFF7BFFF94F88420E5E73F
:109280005CF08CFA0028F0D0D4F880300022012B5A
:1092900084F8782040F2D880E16F94F8CD00013B4B
:1092A0000131C4E91F1308B16C4BDA67082284F856
:1092B0008420A2F10805B5FA85F56D092846BDE8B8
:1092C000F08184F884605CF069FA002841D194F858
:1092D0008420531EDBB2022B09D8D4F80039616F09
:1092E0005B1AC82BE5D9FFF787FF94F88420042A7E
:1092F000DFD1E3E7236B002BDBD1E66ED4F8003936
:109300006367072284F88420002ED2D0D4E9182184
:10931000236F0120B047DAE7636FD4F80019643394
:109320008B42C6D2D4F82C80B8F1000FF4D15CF097
:1093300035FA0028A1D0E66E84F87880042384F8FA
:109340008430002E7AD0D4E91821236F4046B047EC
:10935000BDE75BF0D9FF0028B9D197F88530002B25
:10936000A3F10203B3FA83F314BF022201225B09C3
:1093700084F8792084F87A305BF0C6FF00287FF407
:109380007AAFD7F8D030C4F88830032384F884301B
:109390005BF0BAFF00289AD1304BC4F8800093F8F4
:1093A000B460B3F8B600D3F8B8E0D3F8B8C0D3F8D7
:1093B000B870D3F8B82084F88E6093F8BC10A4F885
:1093C0008C0093F8BD6084F8922093F8BD00D3F828
:1093D000C020C4F89420B3F8C680B3F8C62084F83F
:1093E0009310B3F8C610C2F30B1343EA182303F02B
:1093F0000F0301F00F024FEA1E6E4FEA1C4C3F0AAA
:10940000360900F00F0003F5FA63042184F899008F
:1094100084F88FE084F890C084F8917084F89860A4
:10942000A4F89A3084F89C2084F884102846BDE87B
:10943000F08184F884502846BDE8F08105463DE778
:10944000042384F8843039E7FAD1FFF725FE94F835
:109450008420531E3EE700BFC81B0020B83D0020FB
:109460002DE9F8431A4C94F88460042E0546894689
:1094700090461F4608D0082E02D00020BDE8F88391
:10948000FFF794F80228F8D1D4F8C00044F096F819
:1094900094F87A3093B969021120FFF729F898B946
:1094A000D4F80039C4F860900522C4E91B876566CA
:1094B00084F8842063670120BDE8F88329461120E1
:1094C000FFF716F80028EBD009F02AFED5E700BF19
:1094D000C81B002070B51E4C94F88430042B06463F
:1094E0000D4608D0082B22D1E36F83422DD0FFF721
:1094F0005DF802281BD1D4F8C00044F05FF80021C9
:109500003720FEF7F5FF29461720FEF7F1FFB0B927
:1095100094F87A306BB971021920FEF7E9FF70B93F
:109520000823C4E91F6584F88430022070BD01203F
:1095300070BD31461920FEF7DBFF0028F0D009F09E
:10954000EFFDFFF7E5FD032070BD022070BD00BFF9
:10955000C81B00202DE9F04F95B0CDE902236A4CDD
:109560000646884694F88430042B0DD0082B07D18A
:10957000E36FB34200F0C480FFF718F80228F1D07F
:10958000012015B0BDE8F08FD4F8C00044F016F803
:1095900094F87A30002B40F0998071021820FEF781
:1095A000A7FF002840F0A68094F88450FEF760FFE3
:1095B000082D0CBFFC21FE21D4F8BC90019140F095
:1095C000C1FAB9F80C300199054642F20F77B9F8A3
:1095D000083098074BD548465EF048FB94F8C430F5
:1095E000002B52D005A80AF0CBFE94F8CE20D4F878
:1095F000BC30D4F8C810CDF81C8052060C33486833
:109600000592069340220023CDE90C3308920F9374
:109610004FF480620A930E934FF400730B920993F8
:109620000AF0ECFED4F8C83005A958680AF0BAFE72
:10963000D4F8C830D4F8BC2059680B6843F0010353
:109640000B6093889BB243F0020393800299E1661A
:109650000399C4F860800122062300206666216712
:1096600084F8682084F8843015B0BDE8F08F01914B
:1096700040F068FA431BBB420199A8DD484645F01B
:1096800013FB94F8C430002BACD1D4F8BC50CDF807
:109690000480AB894FF4807B42F20F79019BBBB110
:1096A00013F8017B019340F04DFA82462B899A070B
:1096B00010D5BFB2AF8140F045FA07462B89DB07D2
:1096C00012D5BBF1010BAB89E8D1BFE7314665E7A5
:1096D000FF27E8E740F036FAA0EB0A004845E5DD51
:1096E000284645F0E1FAB1E740F02CFAC01B4845A6
:1096F000E4DDF5E709F014FDFFF70AFD032040E77C
:10970000FEF7B6FEFC2157E7C81B00202DE9F04FFD
:10971000944C94F8B07087B0002F00F0AF8194F8AB
:10972000842042F20F75531E082B00F28180DFE87F
:1097300013F09300BC004A017F006D000900FA009D
:109740007F00E70094F8C430002B40F02682D4F864
:10975000BC6094F868A0236EB28903EB0A2A4FF428
:10976000807BBAF1000F00F0C9821AF8018B40F03B
:10977000E9F981463389980740F1C8811FFA88F8D2
:10978000A6F80C8040F0DEF980463389D90740F115
:10979000C881BBF1010BB389E3D194F86830013380
:1097A000DBB2022B84F868303FD1D4F8BC6040F0C3
:1097B000C9F9B389804633899A0740F19C813046C4
:1097C00000215EF053FAD4F8BC6040F0BBF9B389D5
:1097D000804633899B0740F18381304600215EF04B
:1097E00045FAFEF745FE00F01F00052800F0A882AC
:1097F000FFF78EFCE66E002E00F0C9810022236F79
:10980000616E0120B04794F884208CE7206E4FF4FD
:109810000071FEF74DFE012800F0A481022800F03F
:10982000A8810646002800F0ED8194F88420531E9C
:10983000DBB2022B00F22C81D4F80039616F5B1A85
:10984000C82B00F22181A2F10807B7FA87F77F0938
:10985000384607B0BDE8F08FD4F8C00043F0AEFE44
:1098600000210846FEF744FE064609F059FC012E89
:10987000DBD10023D4F8C00084F8793043F09EFE99
:1098800040F2AB110820FEF733FE052800F082817C
:10989000012800F0018109F043FC94F87920002AA6
:1098A00000F06182022384F88430D4F8C00043F0D1
:1098B00085FE94F87930022B0CBF4FF080460026CD
:1098C00000213720FEF714FE31462920FEF710FE56
:1098D000064609F025FC002EA7D194F87930022B1A
:1098E00000F0A48184F87A60D4F8C00043F066FEEA
:1098F00000210920FEF7FCFDB0B309F011FC94E74C
:109900000826FEF7B5FDFF2800F03082013EF8D1B1
:10991000636FD4F80029FA33934286D2FFF7F8FB3D
:1099200094F88420FFE6FEF7A3FDFF284FF0080619
:1099300005D0013EECD0FEF79BFDFF28F9D1D4F80D
:1099400080300022012B84F8782040F21582E26FEB
:1099500008210132013BC4E91F2384F884100A4620
:1099600071E700BFC81B0020C7481021FEF7A0FD0B
:1099700006460028C1D101217F20FEF7C9FB01283E
:109980008046BAD130460221FEF7C2FB002800F023
:10999000B8810128B1D116213A20FEF7B9FB013078
:1099A0008002C4F8880009F0BBFBD4F8C00043F083
:1099B00005FE00210A20FEF79BFD002840F0838170
:1099C000032384F88430102102A8FEF771FD0028DB
:1099D0007FF42BAF9DF815309DF816109DF81020E0
:1099E0009DF809609DF80A001B01DBB243EA1113E0
:1099F00003F5FA63A4F89A30DDF8113001F00F0195
:109A000084F89C101BBA110902F00F0240EA0620EC
:109A100084F8981084F899209DF808109DF80B2080
:109A2000C4F89430039BC4F89030A4F88C0084F8F8
:109A30008E1084F88F2009F073FB94F87A3073B994
:109A4000D4F8C00043F0BAFD4FF400711020FEF7C7
:109A50004FFD064609F064FB002E7FF45FAFD4F89B
:109A6000BC0004215EF01AF9002204233846C4F831
:109A7000802084F8843007B0BDE8F08F384684F841
:109A8000847007B0BDE8F08FFFF742FB94F88420A4
:109A9000042A7FF4D8AEDBE6D4F8BC600DF1080AE6
:109AA000B3893B464FF0040B57464FF0FF099A46E7
:109AB00040F048F88046338998073AD5A6F80C90CC
:109AC00040F040F880463389D90744D5B3899BB22A
:109AD0000FB107F8013BBBF1010BE9D1574632E06A
:109AE00040F030F8A0EB0800A8427FF772AE304695
:109AF00045F0DAF875E640F025F8A0EB0800A8423A
:109B00007FF759AE304645F0CFF85CE640F01AF8E2
:109B1000A0EB0900A8427FF72DAE304645F0C4F80F
:109B20003BE640F00FF8A0EB0800A8427FF72DAE0F
:109B3000F3E740F007F8A0EB0800A842BBDD304691
:109B4000574645F0B1F89DF80B30AB2B04BF02230C
:109B500084F879309FE63FF0F5FFA0EB0800A842BB
:109B6000B1DDECE7636FD4F8002964339342BFF4AE
:109B70005CAE09F0D5FAFFF7CBFAE66E3EB10022F3
:109B80001046236F616EB04794F88420CBE594F8BB
:109B90008420C8E584F879607DE6D4F8C8303B4875
:109BA0005968D3F81CE03A4E3A4B994288BF304688
:109BB0001EF0005F00F095804668DFF8DCC006EA22
:109BC0000E0616EA0C0F3FF43EAE0EEA0C03C3601D
:109BD0000B68D4F8BC6023F001030B603389D8070D
:109BE00003D5B3893389D907FBD433899A07FCD5C8
:109BF00033891B06F9D4B38823F002031B041B0C22
:109C0000B380D4E509F08CFAE56E84F8786004231B
:109C100084F88430002D3FF41BAED4E91821236F63
:109C20003046A84794F88420531E01E6D4F8C000BB
:109C300043F0C4FC31463A20FEF75AFCD4F8BC602D
:109C400001900DF1080AB3893B464FF0040B5746CB
:109C50004FF0FF099A463FF075FF804633899A0717
:109C60001CD5A6F80C903FF06DFF80463389DB07CA
:109C700030D5B3899BB20FB107F8013BBBF1010BA3
:109C8000E9D1574614E000BF681C00200060024084
:109C9000006402400F6402407D0F7D0F3FF052FFD1
:109CA000A0EB0800A842D9DD3046574644F0FCFF3F
:109CB000019B43B909F034FA029B1BBAC3F38073CA
:109CC00084F87A3010E609F02BFAFFF721FA94F8BD
:109CD000842028E53FF036FFA0EB0800A842C5DD50
:109CE000E2E70668DFF8B0C006EA0E0616EA0C0FD7
:109CF0003FF4A9AD0EEA0C03836069E74FF0FF085B
:109D000035E504212C20FEF703FA032106464E20F8
:109D1000FEF7FEF90C2181463620FEF7F9F909F12C
:109D20000209431C03FA09F308FA06F6A3FB06012D
:109D3000430A43EAC153C4F8883009F0F1F934E624
:109D4000E56ED4F800396367072284F88420002D7B
:109D50003FF479ADD4E91821236F0120A84794F886
:109D60008420531E64E584F884206CE509F0D8F95A
:109D7000042384F884306BE508D0042384F884300D
:109D800009F0CEF994F88420531E51E5FEF70EFC3D
:109D900002287FF44AADB0E57D0F7D0F2DE9F04F2D
:109DA000C14C94F8E01083B00546C1F34001D4F8EB
:109DB000E80043F00FFC94F8E010D4F8E400C94345
:109DC00001F001016F1E43F005FCFBB20193002D71
:109DD00000F0D080B54EDFF8DC82B54D4FF01009B1
:109DE000D4F8E80043F0DAFBD4F8E40043F0D6FB03
:109DF000B4F8F030002B40F04E8194F8F210D4F813
:109E0000F40043F0E7FB4FF0FA0A4FF47A710120B7
:109E1000D8F80430C3F30803002B40F00F81EFF3B0
:109E20001183002B40F00A81D6F80029D5F808C02C
:109E3000D6F800399A42F7D1D4F818319C45F3D8B6
:109E4000D4F8147101FB07F3A3EB0C03B3FBF7F396
:109E500001FB0232D8F80430C3F30803002B40F0B2
:109E6000AB80EFF31183002B40F0A680D6F80039C9
:109E7000D5F808B0D6F80079BB42F7D1D4F81871FC
:109E8000BB45F3D8D4F8147101FB07FCACEB0B0C09
:109E9000BCFBF7FC01FB03C39B1AB3F57A7FD9D354
:109EA000BAF1010AB4D1D4F8E80043F077FBD4F852
:109EB000E40043F073FBB4F8F030002B40F0DF8097
:109EC00094F8F210D4F8F40081F0010143F082FB21
:109ED000FA204FF47A714FF0010CD8F80430C3F334
:109EE0000803002B40F08980EFF31183002B40F032
:109EF0008480D6F80029D5F808E0D6F800399A42CF
:109F0000F7D1D4F818319E45F3D8D4F814A101FB49
:109F10000AF3A3EB0E03B3FBFAF301FB0232D8F80A
:109F20000430C3F3080343BBEFF311832BBBD6F814
:109F30000039D5F808B0D6F80079BB42F7D1D4F88B
:109F40001871BB45F3D8D4F814A101FB0AFEAEEB9F
:109F50000B0EBEFBFAFE01FB03E39B1AB3F57A7FFF
:109F6000DDD30138B9D1019B5F1EFBB2FF2B0193FA
:109F70007FF436AF03B0BDE8F08FEFF3118A89F3B9
:109F80001288AF682B68DB0344BFC4F810C1AF6808
:109F9000D6F80039D4F810E15FFA8AFA8AF311880A
:109FA000D4F814A1734401FB0AFEAEEB070EBEFB0E
:109FB000FAFE01FB03E3D0E7EFF3118E89F3128879
:109FC000D5F808B02B68DF0344BFC4F81001D5F8FA
:109FD00008B0D6F80039D4F810C15FFA8EFE8EF3BF
:109FE0001188D4F81471634401FB07FCACEB0B0C33
:109FF000BCFBF7FC01FB03C34EE7EFF3118E89F3C3
:10A000001288D5F808A02B68DA0344BFC4F810C141
:10A01000D5F808A0D6F80039D4F810215FFA8EFEE2
:10A020008EF31188D4F814E11A4401FB0EF3A3EB6C
:10A030000A03B3FBFEF301FB023270E7EFF3118C6E
:10A0400089F31288D5F808E02B68DB0344BFC4F815
:10A050001001D5F808E0D6F80039D4F810215FFADD
:10A060008CFC8CF31188D4F814711A4401FB07F3AB
:10A07000A3EB0E03B3FBF7F301FB0232EAE6D4F8DD
:10A080000C31002B3FF424AFD4F8F830C3F800A013
:10A0900084F809A11CE7D4F80C31002B3FF4B3AECF
:10A0A0003FF040FEAFE600BFB83D0020C81B0020D7
:10A0B00010E000E000ED00E02DE9F04FBD4CBE4E99
:10A0C00094F8E010D4F8E800DFF8F482BB4D83B0D8
:10A0D000C1F3400143F07EFA94F8E010D4F8E400B4
:10A0E000C94301F0010143F075FA052301934FF0D4
:10A0F0001009D4F8E80043F051FAD4F8E40043F032
:10A100004DFAB4F8F030002B40F04C8194F8F21086
:10A11000D4F8F40043F05EFA32274FF47A7101204C
:10A12000D8F80430C3F30803002B40F00F81EFF39D
:10A130001183002B40F00A81D6F80029D5F808C019
:10A14000D6F800399A42F7D1D4F818319C45F3D8A3
:10A15000D4F814E101FB0EF3A3EB0C03B3FBFEF305
:10A1600001FB0232D8F80430C3F30803002B40F09F
:10A17000AB80EFF31183002B40F0A680D6F80039B6
:10A18000D5F808B0D6F800C96345F7D1D4F818C19E
:10A19000E345F3D8D4F814E101FB0EFCACEB0B0C57
:10A1A000BCFBFEFC01FB03C39B1AB3F57A7FD9D33A
:10A1B000013FB5D1D4F8E80043F0F0F9D4F8E40059
:10A1C00043F0ECF9B4F8F030002B40F0E08094F864
:10A1D000F210D4F8F40081F0010143F0FBF93220D1
:10A1E0004FF47A710127D8F80430C3F30803002B29
:10A1F00040F08B80EFF31183002B40F08680D6F87F
:10A200000029D5F808E0D6F800399A42F7D1D4F8F9
:10A2100018319E45F3D8D4F814A101FB0AF3A3EB3F
:10A220000E03B3FBFAF301FB0232D8F80430C3F398
:10A23000080343BBEFF311832BBBD6F80039D5F8E5
:10A2400008B0D6F800E97345F7D1D4F818E1F34522
:10A25000F3D8D4F814A101FB0AFEAEEB0B0EBEFB43
:10A26000FAFE01FB03E39B1AB3F57A7FDDD30138D5
:10A27000B9D1019B5F1E17F0FF0301937FF439AF43
:10A2800003B0BDE8F08FEFF3118A89F31288D5F897
:10A2900008B02B68DB0344BFC4F81071D5F808B0D0
:10A2A000D6F80039D4F810E15FFA8AFA8AF31188F7
:10A2B000D4F814A1734401FB0AFEAEEB0B0EBEFBF7
:10A2C000FAFE01FB03E3CEE7EFF3118E89F3128868
:10A2D000D5F808B02B68DB0344BFC4F81001D5F8EB
:10A2E00008B0D6F80039D4F810C15FFA8EFE8EF3AC
:10A2F0001188D4F814E1634401FB0EFCACEB0B0CA9
:10A30000BCFBFEFC01FB03C34EE7EFF3118E89F3A8
:10A310001288D5F808A02B68DA0344BFC4F810717E
:10A32000D5F808A0D6F80039D4F810215FFA8EFECF
:10A330008EF31188D4F814E11A4401FB0EF3A3EB59
:10A340000A03B3FBFEF301FB02326EE7EFF3118C5D
:10A3500089F31288D5F808E02B68DA0344BFC4F803
:10A360001001D5F808E0D6F80039D4F810215FFACA
:10A370008CFC8CF31188D4F814C11A4401FB0CF343
:10A38000A3EB0E03B3FBFCF301FB0232EAE6D4F8C5
:10A390000C31002B3FF423AFD4F8F8301F6084F861
:10A3A00009711CE7D4F80C31002B3FF4B5AE3FF037
:10A3B000B9FCB1E6B83D0020C81B002010E000E069
:10A3C00000ED00E000F01F0240090123032803FA1A
:10A3D00002F304D004280CD0022805D07047074AA5
:10A3E000116C0B4313647047044A516C0B43536464
:10A3F0007047024A116B0B431363704700380240E9
:10A4000000285FD00368374A2DE9F04103F13F444B
:10A4100004F57E0402EB9422012492F8C42002F099
:10A420001F055209032A04FA05F456D0042A4FD016
:10A43000022A48D08588B5FA85F0C0F11F00C0F324
:10A44000CC0603EB860600F0070082000F24306A7A
:10A45000944020EA04003062306A01FA02F20243BA
:10A46000002132624FF0010E0A464FF0030C022722
:10A470000EFA02F838EA050002F101021CD1186850
:10A480000CFA01F420EA04001860186807FA01F6D3
:10A4900006431E609E6826EA04069E6098689860DF
:10A4A000586820EA0800586058685860D86820EA60
:10A4B0000400D860D868D860102A01F10201D7D111
:10A4C000BDE8F0817047084A556C2C435464B1E7ED
:10A4D000054A156B2C431463ACE7034A156C2C43F7
:10A4E0001464A7E700CF060800380240002861D0B6
:10A4F0000368384A03F13F4101F57E0102EB9122E6
:10A500002DE9F04192F8C42002F01F045209012104
:10A51000032A01FA04F158D0042A51D0022A4AD061
:10A520008588B5FA85F2C2F11F02C2F3CC0403EBB1
:10A53000840402F00702216A92000F20904021EA71
:10A5400000012162206A0C2101FA02F2024300217B
:10A55000226208464FF0010E4FF0030C02270EFA5C
:10A5600000F838EA050200F101001DD11C680CFA60
:10A5700001F224EA02041C601E6807FA01F4344365
:10A580001C609E6826EA02069E609E6816439E60D6
:10A590005C6824EA08045C605C685C60DC6824EA4F
:10A5A0000202DA60DA68DA60102801F10201D6D11D
:10A5B000BDE8F0817047084A546C21435164AFE70D
:10A5C000054A146B21431163AAE7034A146C214323
:10A5D0001164A5E700CF06080038024058B183880F
:10A5E0004FF00042B3FA83F332FA03F303D0024987
:10A5F0000A6813430B607047003C0140134B02682C
:10A60000196821EA02011960596821EA02015960BA
:10A6100019680A431A609968026821EA0201996080
:10A62000D96821EA0201D9604179102907D001F1E6
:10A63000804303F59E3319680A431A60704799688E
:10A6400011439960D9680A43DA607047003C0140C1
:10A65000002864D0F0B58388B3FA83F3202B0A4630
:10A6600085B00446C3F11F0143D02D4D2D4E05EB9F
:10A6700081037718C3F81C21002197F8CC703EF0B5
:10A680003FFDB4F804C02268274CBCFA8CFCCCF126
:10A690001F0303F0FC0101F1804101F59C3103F03F
:10A6A000030398004FF00F0E02F13F438A680EFA41
:10A6B00000FE22EA0E0203F57E038A60C3F38723BD
:10A6C000834088684FF0004222FA0CF203433D4475
:10A6D0008B6002A8626101234FF400618DF80E3097
:10A6E0000292ADF80C10FFF789FF95F85C31F02B62
:10A6F00001D805B0F0BD3E44F02196F8DC308DF86D
:10A70000043003224FF4807301A885F85C118DF8A2
:10A710000520ADF8063009F0C9FD05B0F0BD704761
:10A72000B83D002000CF0608003C014010B4B8B18D
:10A730000D4CD4F86431102B05D15DF8044B052184
:10A7400000203EF0C5BF03EB4302224482F86911AA
:10A7500001210B4482F8680182F86A11C4F864315F
:10A760005DF8044B704700BFB83D0020C078202141
:10A77000DCE700BF2DE9F04FDFF87CA32DED028B65
:10A780009AF8AC110022CAE96722CAE9692297B097
:10A79000CAF8982119B19AF8AD218AF898219AF847
:10A7A000AE211AB19AF8AF218AF8A7219AF8B221FE
:10A7B0001AB19AF8B3218AF8A2219AF8B0211AB1F5
:10A7C0009AF8B1218AF89D219AF8B43105935A1E5E
:10A7D000D3B257B204937B1C00F0AA80BC4ABD4E92
:10A7E00052F83780029602EBC702002312790193D8
:10A7F00008EE102A1D4634469946267839463046DA
:10A8000045F024FC83463046BBF1000F1ED042F0D9
:10A81000E5FBEA1D1321D2B220B14FF0000E827188
:10A8200080F807E03EF06CFC207845F041FC4FF0EA
:10A83000070309F1010223714FF0010384F802902C
:10A840006070CDF804B05FFA82F9E3700135042D31
:10A8500004F10504D1D118EE100A029ECDF80C9037
:10A86000FFF7B0FD9C499D4A4868024042F44032DF
:10A870004A600FB9019B5BB9994C4820FFF7A2FDD4
:10A88000204602215DF0ECFEA26842F00102A260C7
:10A890009148934A4168BAF8B64141F400014160D9
:10A8A000516821F480515160916B21F4401141F4C1
:10A8B00080119163D16841F46001D160956B85F49A
:10A8C0004011C1F3015101EB81011F2000FA01FC8D
:10A8D00025EA0C0C112505FA01F141EA0C019163FE
:10A8E000D16841F4E011D160956BC5F30151C1F11C
:10A8F0000401C9B201EB810188404FF0100C25EA38
:10A9000000000CFA01F108439063E4B1BAF8B81101
:10A91000CAF8C041A1B1BAF8BA21CAF8C41162B1EB
:10A92000019B7048521A90FBF2F2CAF8C8216BB929
:10A9300017B0BDEC028BBDE8F08F6B4A1288EFE7D1
:10A940006A4A1188E7E76A4A1488DFE740460399B4
:10A950005DF086FE5F4B012003F114090723F278B6
:10A96000441CE4B252B375783279A5F10A0101EBC7
:10A97000410105EB450C092D03FA01FE03FA0CFB1E
:10A9800002FA01F140F28E80D8F80C2022EA0E0E75
:10A9900041EA0E01C8F80C10421E02EB82021F2190
:10A9A000062801FA02FC05FA02F261D8D8F8341040
:10A9B00021EA0C010A432046C8F834200536B14587
:10A9C000CDD1D8F80820049942F40072C8F80820C4
:10A9D000D8F8082042F48072C8F80820D8F8082077
:10A9E000574442F00102C8F8082097F9BC21022020
:10A9F0003FF066FD044600289AD040685BF070FD89
:10AA0000059A06215BF07EFD606809F0F7FC07A857
:10AA100009F0B6FC039EA368364A0793012E8CBF4B
:10AA20004FF48060002000230D9008F14C054FF496
:10AA30000060089509920A934FF480720C930E906F
:10AA40004FF4003360680B9607A94FF40055CDE929
:10AA50000F52119309F0A6FC6268136843F00103DA
:10AA60001360D8F8083043F08043C8F808305FE737
:10AA7000C11FA0F10D0201EB81014FF01F0E02EB8F
:10AA800082020C280EFA01FC0EFA02F005FA01F11E
:10AA900013D8D8F8302022EA0C0211432046C8F817
:10AAA00030108BE7D8F8101002FA0CF221EA0B0BE9
:10AAB00042EA0B02C8F810206EE7D8F82C1005FA0D
:10AAC00002F221EA00010A432046C8F82C2075E76B
:10AAD000E4CF0608503F002000230140E030FCFF97
:10AAE00000200140803801002E7AFF1F2C7AFF1FC2
:10AAF0002A7AFF1F843F0020B83D00202DE9F84F3F
:10AB00002E4F00EBC00407EB8404D4F8D8612EB1BB
:10AB1000054694F8E90100F0FF0820B14FF0000865
:10AB20004046BDE8F88F89469A4693463FF00AF8BA
:10AB30004FEA49010123C9B284F8EA1184F8EBB164
:10AB400084F8ED3184F8EE8184F8EC3184F8E93151
:10AB500084F8E881B288C4F8F0A191058146C4F870
:10AB6000F4A11DD43388DA0510D442F20F7405E045
:10AB70003EF0E8FFA0EB0903A34215DC33889B05F8
:10AB8000F6D433889BB243F480733380B3889BB28E
:10AB900043F440734FF00108B3804046BDE8F88F9E
:10ABA00098464046BDE8F88FB7F8403201339BB273
:10ABB0002846A7F840325DF0EBF9B1E7B83D002038
:10ABC00070B5464E96F8424204EB440306EBC303CD
:10ABD000650093F84432032B6ED8DFE803F059295F
:10ABE0001E02254406EBC505D5F84802002870D1A1
:10ABF00096F8A4329C425FD0013404F003029342E1
:10AC000086F8422258D002EB420406EBC404022329
:10AC1000C4F8480284F8443270BD2B1906EBC30314
:10AC2000D3F8482272B1013AC3F84822002070BD1F
:10AC30002B1906EBC303D3F84822002AF3D10222D2
:10AC400083F84422254406EBC50595F85032013BB4
:10AC5000DBB285F850328BBB214B96F8A462D3F857
:10AC60003012D5F84C02621C02F003024B1E032482
:10AC7000B242034485F84442B3FBF1F0C5F8480200
:10AC80001AD0994218D80138C5F84802012070BD81
:10AC900044F006FB80B1124B2C44D3F8302206EB73
:10ACA000C404012102F51C5384F844120F33B3FB92
:10ACB000F2F3C4F8483270BD012070BD084BD3F8E0
:10ACC0003022012002F2E733B3FBF2F3C5F8483239
:10ACD00070BD0138C5F84802002070BDB83D0020A5
:10ACE00088010020054B93F8A522002AFBD1D3F858
:10ACF000083E03491B6801F10C001847B83D0020CD
:10AD0000604000202DE9F84F3249DFF8D4B091F8C7
:10AD1000851001240229074619461046CBF82C401D
:10AD20004FF000022C4C1D4618BF7F02FDF768F95A
:10AD30002A4B63626B02A362E36A40F2FF5943F05D
:10AD400093034FF400704FF48A62E3620121C4F868
:10AD50003890A0601020E2605AF022FC012D40F2F1
:10AD600051434E46C4F83890CA4640F252488EBF0E
:10AD70004FF0120998464FF011090A25C4F838A07F
:10AD80000121A7604846C4F80C805AF009FC03462C
:10AD90004FF0000C40F2774201213720A6632BB917
:10ADA00000231846CBF82830BDE8F88FA663C4F816
:10ADB00008C0E2605AF0F4FB013DA6630028EFD022
:10ADC00015F0FF05DAD10346CBF82C50CBF828302C
:10ADD000BDE8F88FB83D0020002C014000E1F505EA
:10ADE000C81B00202DE9F843184C94F88460042E09
:10ADF0000546894690461F4608D0082E02D00020FE
:10AE0000BDE8F883FEF748F90228F8D101234A4645
:10AE100028460021FFF776FF50B1FEF7EDF9E56E09
:10AE2000002DECD00022236F616E1046A847E6E7A4
:10AE3000D4F80039C4F860900522C4E91B87656620
:10AE400084F8842063670120BDE8F883C81B0020D4
:10AE50002DE9F84F2F49DFF8C49091F885101E4670
:10AE600002292D4B07464FF0010418BF4702012E5F
:10AE700040F259481C6398BF4FF48B683B46934699
:10AE8000474640F2FF55B0468CBF4FF0190A4FF0CD
:10AE9000180A0A241E4640F2FF53C9F8383001212F
:10AEA000C9F808605046C9F80C705AF079FB03469F
:10AEB0004FF0000C40F2774201213720C9F838509A
:10AEC000A3B9584641460122FDF79AF84646134A6F
:10AED000134B536276029662D36A43F09103D362B6
:10AEE0000D4B002108469962BDE8F88FC9F838502B
:10AEF000C9F808C0C9F80C205AF052FB013CC9F847
:10AF000038500028DDD014F0FF04C4D1024B1C637C
:10AF1000BDE8F88FB83D0020C81B0020002C014080
:10AF200000E1F5052DE9F047374C82B005460E46A5
:10AF30001746984694F8840004280CD0082806D1B7
:10AF4000E36FAB4207D0FEF7A7F80228F2D001204A
:10AF500002B0BDE8F087DFF8B8A02666DAF87C908A
:10AF60006566C9F34F210F294FEA592223D8D4F837
:10AF700080300193FBB194F8CD00E0B1B9F5005FEA
:10AF800013D0224831464FF40072484461F006FF66
:10AF900009F50072C2F34F211029CAF87C204FEA4C
:10AFA000522202D0019B012B21D192B2013A174EBD
:10AFB000AD1A0B4600E0012332462846062601253D
:10AFC0000021E766C4F8708084F8685084F88460D3
:10AFD000FFF73EFF0028BBD0FEF70EF9E66E86B104
:10AFE0002846236F616E0022B0470320B0E7E26F6E
:10AFF000013B01320421C4E91F2384F8841002209C
:10B00000A6E70320A4E700BFC81B0020E85E0020DD
:10B01000B83D00202DE9F0472D4D95F80C3E022B50
:10B0200082B004460F4616461DD0012B03D00020E7
:10B0300002B0BDE8F08795F9108EB8F1FF3FF6D069
:10B04000B8F1030FF3DC0091134695F8111E024688
:10B0500040465DF02FF90028E9D0404602B0BDE837
:10B06000F0475DF0D7B9D5F8143E13B11A689B8844
:10B070005383D5F810AE3EF065FDBAF80C3080462B
:10B0800042F20F79BAF808309B0714D52146504692
:10B090005CF0ECFD3346D5F8100E3A4600215CF02A
:10B0A0002FFED5F8143E83B11A689B8813830120C4
:10B0B00002B0BDE8F0873EF045FDA0EB08034B452C
:10B0C000E0DD504643F0F0FDE4E70120B0E700BFCB
:10B0D000B83D002030B40578022D14D0012D02D0E7
:10B0E000002030BC7047044690F90400084B421C15
:10B0F00083F84C5EF4D00328F2DC0A4603F64C6376
:10B10000617930BCFAE430BC012243F0A5BE00BF37
:10B11000B83D002010B50C4C94F80C3E022B11D118
:10B12000D4F8140E42F050FAD4F8140E08B12123CA
:10B13000C38001213DF0E4FFBDE810400348082131
:10B1400043F068BD10BD00BFB83D0020C44B0020D7
:10B1500073B50D4E05460C46FF230A4601463046A0
:10B160008DF8073043F078FE01230DF1070245F01A
:10B170008001304643F03EFE9DF80700031B584215
:10B18000584102B070BD00BFC44B0020094B93F87A
:10B190007E34042B08D9053B032B08D801231A461B
:10B1A00000B103701046704700230122F8E7002326
:10B1B0001A46F5E7C02C0020F0B40D6800240CE01E
:10B1C000BCF1050F18D8A0F137030A2B14D104EBFA
:10B1D000840415F8010B03EB4404A0F13003DEB244
:10B1E000092EA0F16107A0F1410CF0D9052FE7D895
:10B1F000A0F157030A2BEAD00D601460F0BC704731
:10B200009FED737A07EE901A20EE070AF8EE677A40
:10B2100027EE800AFDEEC07A17EE903A2033402BDD
:10B2200000F2C780DFED6B7AB4EEE70AF1EE10FAB8
:10B23000F0EE407A0CDD9FED686ADFED686AB0EEF3
:10B24000677AB4EEE67AF1EE10FA77EEC67AF6DCBB
:10B250009FED637AF4EEC77AF1EE10FA0CD59FED0C
:10B260005E6ADFED606AB0EE677AB4EEE67AF1EE20
:10B2700010FA77EE867AF6D49FED5B7AF4EEC77A11
:10B28000F1EE10FA00F38D809FED587AF4EEC77A54
:10B29000F1EE10FA44BF9FED527A77EE677A27EE0F
:10B2A000A76ADFED535A9FED537ADFED536AA6EE9E
:10B2B000257A67EE865AE6EE076AB6EE007AE5EE84
:10B2C000A67A27EE877ADFED486A70EE267ABDEE21
:10B2D000E76A16EE103A2033402B67D8B4EEE60A40
:10B2E000F1EE10FA0CDDDFED3C5A9FED3C6AF0EE1A
:10B2F000676AF4EEC66AF1EE10FA77EEE57AF6DCEC
:10B30000DFED376AF4EEE67AF1EE10FA0CD5DFEDF8
:10B31000325A9FED346AF0EE676AF4EEC66AF1EED7
:10B3200010FA77EEA57AF6D4DFED2F6AF4EEE67A1E
:10B33000F1EE10FA40DDDFED276A76EEE77A67EE90
:10B34000A75A9FED2B5A9FED2B6ADFED2B6AA5EED6
:10B35000856A27EEA55AE5EE866AB8EE006AE5EE44
:10B36000267A67EE867AC7EE206A002383614361FE
:10B370000362C361B7EE006A76EE865A76EE666ABD
:10B3800086EE257A67EE277A66EE876AC0ED017A47
:10B39000C0ED037A80ED007A80ED027AC0ED046A98
:10B3A00070479FED0C7A77EE677A78E7DFED137AD6
:10B3B000D9E79FED127A86E7DFED0C6AF4EEE67AC4
:10B3C000F1EE10FA44BFDFED066A76EEE77AB6E7F3
:10B3D00027D4D236DB0F4940DB0FC940E4CB1641FE
:10B3E000DB0F49C0E4CB16C1DB0FC93FDB0FC9BF80
:10B3F00092E741B99730083C15A82ABE000000002A
:10B400002DE9F0418C4B82B093F84D2E0190002A2B
:10B4100040F00C8193F8702EB3F8721EDFED876A4E
:10B42000B3F8748E864D07EE102A07EE901AB8EE28
:10B43000C76AB7EE007AB3F86E1EA5F80081F0EE89
:10B44000475A4FEA4804E6EE665A8C42B8BF0C46AB
:10B45000A6EE267AA6B20121F8EEE77AA5F80461F5
:10B4600067EEA67AC5ED3D5A85ED3E7AC5ED3F7A89
:10B4700083F84D1E002A00F0D680DDED017A9FEDA5
:10B48000710AF8EE677AA4B280EE270A5FF082F9BB
:10B490006400B0FBF4F4012CB8BF0124E4B2B0FBAB
